:400000000080002011000000C1090000C109000008B5044B1A6803F53F5302331A6000F0EFFC00BFFA46004010B5054C237833B9044B13B10448AFF300800123237010BDF8
:400040004081FF1F00000000D04C0000084B10B51BB108490848AFF300800848036803B910BD074B002BFBD0BDE81040184700BF000000004481FF1FD04C0000C880FF1FDA
:400080000000000008B501F0F1F80122014B1A7008BD00BFCC80FF1F08B501F01DFB0122014B5A7008BD00BFCC80FF1F2DE9F04F9DB062B600F092FD01F0A2F801F0CCF95B
:4000C00001F050F901F020FA00F0DCFD19A800F00BFBBA4801F0BCF801F0C8F8B84801F0EDFA01F0F9FA022001F04CF800260B960C960D964FF07A530E930F96B14B1093D3
:400100001196B14B1293B14B13930BA800F0DEF90025AF4B1B78012B3BD1FE22AC4B1A7019A800F099FA9DF865709DF86400C0F3401040F26714009400234FF4804219465E
:4001400040EA871000F006FB201A84B2B4F5B37F00D3002422469F4907A804F087F907A801F0C0F9204603F0EDFE024631460BA800F0B4F9189804F019F9C4B2204600F0EA
:40018000D5FA2246944907A804F070F907A801F0A9F98F4B5B78012BBBD1FE228C4B5A7001F0CAF81CAB2B4403F8640C0135EDB22F466B1E1CAA134413F8643C532B39D140
:4001C00027E01CAA134413F864ACAAF1300A204603F08CFA02460B460020804901F0A0FA80468946504603F091FA42464B4603F0F3FA80468946304603F09AFA42464B46B2
:4002000003F038F903F098FD0646013D0134E4B203E000246FF001050026EB19D1D5002305E01CAA1A44002102F8641C01330F2BF7DD0025A8466B1E1CAA134413F8643C14
:40024000502B5DD100230B930DF10C092E21484604F030F9C9EB00096FF0010424E0A0F13007284603F06EFE8246204603F06EFE514603F0B7FD8246484603F067FE01468D
:40028000504603F0ADFD0146554801F0E1FB8246384603F05BFE514603F0ACFE01460B9803F0A0FD0B90013C04EB08031CAA134413F8640C2E28D2D1013C13E01CAA13446A
:4002C00013F8640C303803F021FA82468B460B9803F02EFA52465B4603F0CCF803F02CFD0B90013C14EB0803E8D5002305E01CAA1A44002102F8641C01330F2BF7DD0025DD
:40030000A8466B1E1CAA134413F8643C492B72D100230C930DF10C092E21484604F0CAF8C9EB00096FF0010424E0A0F13007284603F008FE8246204603F008FE514603F05A
:4003400051FD8246484603F001FE0146504603F047FD0146224801F07BFB8246384603F0F5FD514603F046FE01460C9803F03AFD0C90013C04EB08031CAA134413F8640C42
:400380002E28D2D1013C13E01CAA134413F8640C303803F0BBF982468B460C9803F0C8F952465B4603F066F803F0C6FC0C90013C14EB0803E8D500231AE000BF850000003C
:4003C000990000000000164300007042BD370636CC80FF1FD84C0000E04C000000002440CDCCCC3D1CAA1A44002102F8641C01330F2BF7DD0025A8466B1E1CAA134413F8A4
:40040000643C442B7FF485AE00230D930DF10C092E21484604F04EF8C9EB00096FF0010424E0A0F13007284603F08CFD8246204603F08CFD514603F0D5FC8246484603F0F5
:4004400085FD0146504603F0CBFC01461E4801F0FFFA8246384603F079FD514603F0CAFD01460D9803F0BEFC0D90013C04EB08031CAA134413F8640C2E28D2D1013C13E09E
:400480001CAA134413F8640C303803F03FF982468B460D9803F04CF952465B4602F0EAFF03F04AFC0D90013C14EB0803E8D5002305E01CAA1A44002102F8641C01330F2B78
:4004C000F7DD002525E600BFCDCCCC3D002343628362C36203634363704700BF2DE9F047044608461546114603F07AFC0746216803F080FD8246D4F824804FF07C516068F1
:4005000003F078FD266A314603F074FD8146A16A384603F067FC0146484603F06BFD0146404603F05FFC80466062D4F81C90494603F01CFF10B1C4F8249008E0D4F81890CD
:400540004946404603F0F4FE08B1C4F82490A168084603F047FC8046216B284603F040FC0146404603F046FD8046E168084603F039FC8146314603F033FCE16A03F03AFD7F
:400580000146404603F02EFC00F100484946304603F028FC0146404603F0E0FD0646E062616A504603F01EFC0146304603F01AFC06466063D4F81480414603F0D7FE10B11E
:4005C000C4F8348008E0D4F810804146304603F0AFFE08B1C4F83480A7622563606BBDE8F08700BFF8B504460F4615461E46002100F0C4FC384600F053FD0121204600F038
:40060000FDFC002405E0012000F076FD28550134A4B2731E9C42F6DB002000F06DFD285500F022FD40B2F8BD70B50C4615461E46002100F0A3FC204600F032FD002405E0CB
:4006400015F8010B00F02CFD0134A4B2B442F7D300F00AFD40B270BD10B584B00446002301AA03214020FFF7BDFF02230DF1050215214020FFF7B6FF052302AAFA214020E6
:40068000FFF7B0FF9DF80420637A62F3060363729DF80520237A62F3040323729DF80630E3719DF80720A37962F30503A3719DF8083063719DF80920237962F30303237132
:4006C0009DF80A30E3709DF80B20A37862F30503A3709DF80C3063709DF80D20237862F30503237004B010BD10B582B0044600238DF804308DF80530012301AA16214020DE
:40070000FFF792FF2046FFF7A7FF63788DF804302378C3F305038DF80530012301AA16214020FFF781FF02B010BD00BF00B583B0FF2800D1642041F6F423009340F6B83309
:40074000FE22002100F006F880B200F0F5F903B05DF804FB10B4401A019CE41A04FB00F0521A90FBF2F0184410BC7047FEE700BFF0B40022174611E050F82760F3B226F091
:40078000FF0608E001EB420511F812406D78A5550132013BDBB2002BF4D101371C2FEBD9F0BC7047064B1B78DBB203F00701054A11701B09013213704422034B1A7070473E
:4007C000CF0100496E5800407658004008B50A46002103F042FE08BD38B50722284B1A801823284A13701925023215800232137040F65F1102321180023213700222224BE2
:400800001A7008224FF040231A70032103F5007319701E4B1B78DBB21D490B701D4B1A8041F25122023B1A8000240CE01A4B1B7803F0010343EA440404F003044FF4F070C5
:4008400000F05EFF013D0DB1032CEFD115B90320FFF78CFF114B4FF480721A8007221A7000220F490A704820023108701A700222033B1A700B4A137843F00703137038BDDE
:4008800080400040824000400043004008010049A146004022420040254200400440004006400040A243004008B503F0CBFD08BD38B572B6334A137843F004031370002485
:4008C0000CE0314D630019194A0011462A44084691882858FFF77AFF0134E4B2082CF0D900240BE02849A3001819420088180622C16B806BFFF7D8FF0134E4B2002CF1D0D2
:4009000022494FF09040FFF733FF214A137843F0020313701032137843F0020313701D4C237843F040032370A2F58632513A137843F0100313700A2217491848FFF7B4FF0C
:400940000A2217491748FFF7AFFF082216491748FFF7AAFF164A137843F008031370154D61232B70FFF738FF81232B700122124B1A70FFF717FF0E2221461048FFF794FF3A
:4009800038BD00BFE8460040E84C00007400004803500140A0430040B807004800510040C4070048C0510040D007004812510040224300400048004004000840B043004004
:4009C00008B503F013FD03680C2B00D1FEE7FEE708B5094B1A681044084BC31A802B02DC054B186005E003F001FD0C2303604FF0FF32104608BD00BFD080FF1FD081FF1F03
:400A000008B5104E104D16E029686B68AC68002204E051F8040B43F8040B0432A242F8D1E868002203E0002143F8041B04328242F9D11035013E002EE6D103F0DDFCFFF786
:400A400035FBFEE701000000A44D000008B5104A104B1A60104A136843F40073136000230AE0032B03D80D4A52F8231000E00C490C4A42F8231001332F2BF2D90A4B1A786F
:400A80000A4B1A70074A0A4B1A60FFF711FF08BD0004FA050CED00E014ED00E000000000C10900000080FF1FBC760040C080FF1F08ED00E001BE704770B504460E46074B17
:400AC0001D681F2802D90020FFF7F4FF04F01F04103455F8240045F8246070BD08ED00E038B504460D46072902D90020FFF7E2FF1F2C02D90020FFF7DDFF04F01F0000F10F
:400B0000604000F564406D01EDB2057038BD00BF024A137843F080031370704772640040014B1880704700BF04680040014B1880704700BF84680040014B1880704700BF83
:400B400044680040014B1870704700BF82640040014B1878704700BF62640040014B188880B27047A468004008B501E0FFF7F6FFFFF7EEFF10F0100FF8D108BD10B5154A63
:400B8000137803F0C00343F009031370124C237843F0010323702132137843F0010313704FF6FF70FFF7BCFF4FF6FF70FFF7BEFF4FF4E150FFF7C0FF0020FFF7C3FF00F01A
:400BC000A7FD237843F01003237000F0A5FDFFF7CBFF10BD726400409264004008B5054B1B7823B9FFF7CAFF0122024B1A70FFF78FFF08BD5C81FF1F38B50222114B1A7002
:400C000081220E3B1A70082202331A700F2511331D70002401331C704FF400420A4B1A6007212846FFF75CFF08492846FFF744FF1022074B1A70074B1C70074B1C70074B1D
:400C40001C7038BDD649004080E100E0AD0C00007481FF1F7A81FF1F8281FF1F7881FF1F08B500F055FD064A137843F0040313701032137843F00403137000F04DFD08BD16
:400C8000A543004008B5074B1B7823B9FFF7B4FF0122044B1A70FFF7E3FF4FF40042024B1A6008BD5D81FF1F00E100E038B5A54B1C78A54B1B7813F0400F00F03A81E4B2BC
:400CC00014F0010F00F01D819F4B1B78453B052B00F21481DFE813F006008200120112010600DF0004F0DF0504F00A04082C42D1954B1B78DBB2452B35D1944B1B7813F035
:400D0000FF0F10D0924B1B681B78DBB2914A137004228C4B1A7001228F4B1A7046228A4B1A702C46EDE08D4B1B7813F0020F0DD08B4A137843F00A0313706022824B1A707B
:400D40004FF40042874B1A602C46DAE0864A137843F0100313701022844B1A700422023B1A702C46CDE00022764B1A704A22764B1A702C46C5E00A2C2BD1794A137843F0CD
:400D8000A0031370754B1B7813F0020F14D06E4B1B7813F0080F01D0092300E00A23704A11780B4313706022674B1A704FF400426C4B1A602C46A4E06B4A137843F010034E
:400DC00013701022694B1A700422023B1A702C4697E00020FFF76EFE2C4692E014F0020F36D15D4B1A78D2B2584B1B78DBB29A4210D2594A1378DBB255490968CB5CDBB2EB
:400E000054490B7004214F4B197013780133DBB2137076E0514B1B7813F0020F0CD0504A137843F00A0313706022474B1A704FF400424C4B1A6064E04B4A137843F0100348
:400E400013701022494B1A700422023B1A7058E0424B1B7813F0020F0CD0414A137843F09A0313706022384B1A704FF400423D4B1A6046E03C4A137843F0100313701022B9
:400E80003A4B1A700422023B1A70354A137843F09003137035E0364A1378DBB2354908682C490978C9B2C15413780133DBB213701278D2B2304B1B78DBB29A4203D2102267
:400EC000204B1A701DE0254B1B7813F0020F0CD0234A137843F00903137060221A4B1A704FF400421F4B1A600BE01F4A137843F0100313700022134B1A7002E00020FFF7CF
:400F0000D9FD14F0200F1CD00F4B1B7813F0080F01D0012300E00223114A11780B431370114A137803F0EF0313701022064B1A7038BD054B1B7813F0100F02D11022024B5F
:400F40001A7038BDD74900407481FF1F7981FF1F8481FF1FD84900407881FF1F8081FF1F7A81FF1F80E100E0D6490040D94900408281FF1F7C81FF1F8181FF1F1A4B1B783E
:400F8000DBB2102B29D1194B1B7813F0080F26D14FF40042164B1A604000C0B229B140F001004922104B1A7002E045220E4B1A70104B1870012201331A700F4B1B7813F01A
:400FC000010FFAD00C4B1B7803F00A030A2B08D11022054B1A700320704702207047012070470020704700BF7481FF1FD949004080E100E0D8490040D7490040164B1B7887
:4010000013F0040F23D04000C0B229B140F001004922124B1A7002E04522104B1A70104B1870122201331A700422023B1A700D4B1B7813F0010FFAD00A4B1B7803F00A03F8
:401040000A2B06D11022054B1A7003207047022070470020704700BFD94900407481FF1FD8490040D74900400A4B1B7813F0040F0ED01023074A13700421023A1170064AC4
:401080001370064B1B7813F0210FFAD00020704702207047D94900407481FF1FD7490040114B1B7813F0040F1BD0104B18700422013B1A7046220E4B1A700E4B1B7813F04E
:4010C000010FFAD00B4B1B7813F0020F04D16022074B1A70002070476022054B1A70032070470220704700BFD9490040D84900407481FF1FD7490040114B1B7813F0040F06
:401100001BD0104B1B78DBB2492B05D100220E4B1A704A220B4B1A700B4B1B7813F0010FFAD00A4B1B78DBB218B11021064A117004E06021034A117000E00023184670475D
:40114000D94900407481FF1FD7490040D8490040084A137843F0010313701032137843F00103137002F64D32137843F001031370704700BFA3430040014B1870704700BF79
:40118000034F0040014B1880704700BF044F0040014B1880704700BF064F004008B5154A137803F0010313700232137803F0FC031370114B1A7802F0CF021A701A7842F06D
:4011C00030021A701A7802F0F0021A701A7842F00F021A70094A137843F0010313700120FFF7D0FF0120FFF7D3FF0820FFF7C4FF08BD00BF004F00400B4F0040014F00404F
:4012000008B5054B1B7823B9FFF7C8FF0122024B1A70FFF79DFF08BD5E81FF1F014B1B68D864704708ED00E04001C0B2014B1870704700BF03E400E00822014B1A60704725
:4012400000E100E00822014B1A60704780E100E010B50446FFF7F6FF2046FFF7DFFF0720FFF7E2FFFFF7E8FF10BD00BF0822014B1A60704780E200E010B500F049FA0446FF
:401280000F4A137843F020031370A2F58072137843F0100313700B4A0123136000210A4B19700A490B7843F010030B70022308490B60136000F016FA204600F02DFA10BD74
:4012C0009965004000E100E05F81FF1F9364004080E200E00122134B1A60134A5378DBB29178C9B2D27812F0FF0F01D18B4211D00E4AD05CC0B20133DBB21F2B00D900236D
:40130000094A5370D37813F0FF0F06D00022064BDA7002E0064B1878C0B20122054B1A60704700BF80E100E05F81FF1F8881FF1F4A65004000E100E010B50123064A13604E
:40134000064A547900215171054A13602402FFF7C1FF204380B210BD80E100E05F81FF1F00E100E008B500F0D3F90B4B1A7842F001021A701A7802F0FE021A7000F0CCF98A
:401380000121064B1960064B00225A709A70DA701A71044B196008BD9A65004080E100E05F81FF1F00E100E006490B7803F01F024301DBB213430B70034B18700022034B8B
:4013C0001A70704779640040D480FF1F5F81FF1F014B1870704700BF2A650040014B1870704700BF3A65004010B516490020FFF763FB07210020FFF773FB0024124B5C714B
:401400000320FFF7D1FF2046FFF7E2FF2046FFF7E5FF72220D4B1A702022A3F580731A700B490120FFF748FB07210120FFF758FB0622084B1A70472210331A70022249335E
:401440001A7010BD491500005F81FF1F89650040311600002A64004008B5054B9B7923B9FFF7C2FF0122024B9A71FFF705FF08BD5F81FF1F164B197ADB79DBB2994205D203
:401480005A1E914214BF0022012204E0CA1A1F2A14BF00220122002AECD1994207D10D4B1B7813F0040F02D10B4B187070471F2900D90021094B58540131054B1972054BFE
:4014C0001B7813F0020F02D00222054B1A6070475F81FF1F636400404B640040A881FF1F00E200E038B5074B9B792BB938BDFFF7C1FF0134A4B201E005460024285D002867
:40150000F5D138BD5F81FF1F08B500F001F90A4B1A7842F001021A701A7802F0FE021A7000F0FAF80223054A1360054A0021D1711172044A136008BD9B64004080E100E093
:401540005F81FF1F00E100E010B400202E4B1B78DBB213F01E0F05D02C4C03F01E0221780A43227003F0200202F0FF01002A46D0274A1278D4B2274A1278D2B2022A18D1CB
:4015800013F0010F09D013F0400F03D00122224B1A7002E00022204B1A701F4B1B7813F0FF0F0CD01D4B1B78DBB21D4AD454012005E01A4B1B78DBB2194AD4540120F0B12E
:4015C000184B1B7813F0FF0F02D00122164B1A70124A13780133DBB213701378DBB21F2B02D900220D4B1A700C4B1A78D2B20F4B1B78DBB29A4202D101220A4B1A700029D7
:40160000A4D110BC704700BF696400406481FF1F4A650040D480FF1F5F81FF1F6181FF1F8881FF1F6281FF1F6381FF1F6081FF1F13E0104B1B78DBB21F2B02D900220D4B4E
:401640001A700C4A1378DBB20B49CB5CDBB20B490B7013780133DBB21370064B1B78DBB2074A1278934204D0064B1B7813F0040FDFD070476681FF1FA881FF1F4B6400403C
:401680006781FF1F63640040014B1B689864704708ED00E04001C0B2014B1870704700BF02E400E00422014B1A60704700E100E00422014B1A60704780E100E010B50446AC
:4016C000FFF7F6FF2046FFF7DFFF0720FFF7E2FFFFF7E8FF10BD00BF0422014B1A60704780E200E0054A137843F0020313701032137843F002031370704700BFA2430040C1
:401700000230800803D000BF01380046FCD17047EFF3108072B6704780F31088704700BF2DE9F04F8DB006460F4614461D4600F00FFBDFF81093CDE9000199F90080B8F1B2
:40174000FF3F46D022462B462046294602F0DEFA834600283DD132463B463046394602F0D5FA8246002874D1304639460022002302F09AFA002833D00022002320462946B5
:4017800002F092FA8346B8B1A94A012300200021CDF828A0CDE90467CDE90645CDE9080103920293B8F1000F6CD0A24B0022104619460DB0BDE8F08F2046294601F0CCFC62
:4017C00038B1002200232046294602F077FA00286AD1DDE90023104619460DB0BDE8F08FDDE9000101F0B8FC804600287DD0DDE900014FF0000A4FF0000B52465B4602F075
:4018000053FA0028E5D03046394601F0A5FC0028DFD02046294601F09FFC0028D9D099F90030834804210022022BCDE90467CDE90645CDE908AB039002910A9204D002A822
:4018400001F090FC002847D102F0D0FD2223036042E0002200232046294602F025FA0028B7D0744B724800220121B8F1020FCDF828B0CDE90467CDE90645CDE9082303909E
:401880000291A8D002A801F06DFC00287ED00A9B43B302F0ABFDDDE908230A990160104619460DB0BDE8F08F614999F900300122CDF828B0CDE90467CDE90645039102926D
:4018C000002B68D05C490020022BCDE9080166D102F08CFD212303600A9B1BB102F086FD0A9B0360DDE9082375E73046394601F033FC00283FF47BAF2046294601F02CFCB8
:4019000000283FF474AFDDE900231046194602F0FDF900286FD1464B99F90080039303230A90CDE90467CDE906450293B8F1000F3BD1DFF814B14FF0604A00220023304687
:401940003946CDE908AB02F0B9F900283FF477AF00223A4B2046294601F03EFF04460D4601F008FC02460B462046294602F09CF900283DD1324B4FF06042CDE9082399F922
:401980000080B8F1020F7FF45AAF5DE702F02EFD212303607BE700230024CDE9083402A801F0E0FB002897D192E7DFF8A0B04FF0000A0022002330463946CDE908AB02F04A
:4019C0007DF90028DDD000221C4B2046294601F003FF04460D4601F0CDFB02460B462046294602F061F918B9134B0022CDE9082399F90080C5E70E4A99F900900123CDF8E8
:401A00002880CDE90467CDE9064503920293B9F1000FC0D0002200231046194602F006F8B9F1020FCDE908013FF452AFB7E700BF2C4D00000000F03F0000F0FF0000E03FBE
:401A4000FFFFEFC7D580FF1FFFFFEF470000F07F2DE9F0478AB006460D4600F09FFFDFF8E882044698F900707B1C3FD02946284602F086FC8246002838D13146304602F08D
:401A80007FFC00218146002840F09780304602F045FC00282ED00021284602F03FFC8246D0B1A34A0123304601920093CDF8209001F03EFECDE90201284601F039FE0022C0
:401AC0000023CDE90401CDE90623002F62D04FF07E500AB0BDE8F087284601F053FC28B10021284602F024FC00283AD120460AB0BDE8F087204601F045FC0746002878D0F9
:401B00000021204602F00AFC0028EFD0304601F039FC0028EAD0284601F034FC0028E5D0834900230422304608930092019101F0FFFDCDE90201284601F0FAFD98F900304E
:401B400000240025022BCDE90401CDE9064503D0684601F007FB18BB02F048FC222303601EE0734A0123304600930192CDF820A001F0DEFDCDE90201284601F0D9FD98F9C3
:401B80000030CDE90401002B40F0908000220023CDE90623684601F0E5FA002800F08180089B1BB102F022FC089B0360DDE9060102F0C2F80AB0BDE8F087284602F0AEFB37
:401BC000002893D05A4A0123304601920093CDF820A001F0ADFDCDE90201284601F0A8FD544B0022022FCDE90401CDE90623D1D16DE7304601F0C6FB002881D0284601F097
:401C0000C1FB00283FF47CAF2146204602F0B8FB0346002874D146490322304608930092019101F085FDCDE90201284601F080FD98F90040CDE90401002C3ED13E4B4FF0BA
:401C4000604230460021CDE9062302F071FB00283FF47EAF28464FF07C5102F0CBF901F067FD04460D4601F085FA02460B462046294602F019F800283FD1304B4FF06042CF
:401C8000CDE9062398F90040022C7FF461AF63E71046194601F0CAFE022CCDE906017FF479AF02F0A3FB2123036079E724490020022BCDE90601F4D06CE7224B002230465B
:401CC0000021CDE9062302F033FB0028DCD028464FF07C5102F08EF901F02AFD04460D4601F048FA02460B462046294601F0DCFF18B9134B0022CDE9062398F90040C3E730
:401D00000B4A0123304601920093089701F010FDCDE90201284601F00BFD98F90040CDE9040100220023002CB2D1CDE9062331E7304D00000000F03FFFFFEF47FFFFEFC7C6
:401D40000000F0FF0000F07FD580FF1F000000002DE9F04F23F0004858EA020993B03CD0714C21F00046A64283460D460CDD06F1404606F5801656EA0B0038D183466B4966
:401D8000584613B0BDE8F08F9A4696462BD0A045EDDC654CA04578D0002D0F468146CDE9002376DB0024BEF1000F27D15E4B984500F08B805D4B984552D0BAF1804F00F07C
:401DC000C9835B4B9A4519D1002D17DB4846394613B0BDE8F04F00F01DBDCB465846534913B0BDE8F08F0028C1D1B045D1DD514813B0BDE8F04F01F0B7B90024484639462A
:401E000001F0A6F9BBF1000F1CD0ED0F013D54EA050370D0484B984540F3948003F10473984540F30D84454B9E4270DDBAF1000F70DD3BA3D3E900231046194601F0CCFCF9
:401E400083469DE726B1394B25F040429A42DCD1BAF1000FC0F2B783002D08DB83468FE7BAF1000FC0F25E84CB46394688E706F1404606F5801656EA040300F08384012CDF
:401E8000ECD101F1004183467AE7BEF1000F83D06DE72B4B98452CDCA3F15473984581DD4FEA2853A3F2FF33142B40F35384C3F134032EFA03F202FA03F39E457FF472AF7D
:401EC00002F00102C2F102046DE706F1404303F5801353EA0B0300F03A83184B9E4240F36783BAF1000F15DBDDE900349B46214646E7022457E74A4648463B46394601F0F7
:401F0000B7FA02460B4601F091FD834638E7BAF1000F8EDB4FF0000B594631E7AFF300809C7500883CE4377E0000F07F0000F03F0000E03FE44C00000000E041FFFFEF3F02
:401F4000FFFF3F43B6F5801F4FF0000205DAD04B01F042FC0E466FF03402DFF844E33315C6F31306A3F2FF3346F07F57764503EB020A47F4401740F3C983C64B00229E4280
:401F800040F304840023CDE90823CDE90C23C24B0022CDE906230AF1010AA7F5801700263946DDE90623CDE90A0101F061FADDE9062380468946DDE90A0101F05BFA0246B2
:401FC0000B460020B44901F031FD0A4601461346CDE90E1202464946404601F0FDFB8C4683467B1043F0005303F5002399190020CDE904BC06460F464FF0000B6146584609
:4020000032463B46CDE910BCCDE9020101F0E4FB02460B464046494601F02AFADDE90623804689463046394601F022FA02460B46DDE90A0101F01CFADDE9022301F0CCFB3F
:4020400002460B464046494601F012FADDE90E2301F0C2FBDDE90478CDE906013A4643463846414601F0B8FB77A3D3E9002306460F4601F0B1FB76A3D3E9002301F0FAF94C
:4020800032463B4601F0A8FB73A3D3E9002301F0F1F932463B4601F09FFB71A3D3E9002301F0E8F932463B4601F096FB6EA3D3E9002301F0DFF932463B4601F08DFB6CA3C5
:4020C000D3E9002301F0D6F93246804689463B463046394601F080FB02460B464046494601F07AFBDDE9022306460F46DDE9040101F0C0F9DDE9062301F06EFB32463B46FB
:4021000001F0B8F9DDE902678046894632463B463046394601F060FB0022604BCDE90A0101F0A8F942464B4601F0A4F9DDE910BC0F46DDE902015A463B46CDE90EBC5E4643
:4021400001F04AFB0022CDE90201544B3046394601F08EF9DDE90A2301F08AF902460B464046494601F084F9DDE9042301F034FB324680468946DDE906013B4601F02CFB3F
:4021800002460B464046494601F074F98046894602460B46DDE9020101F06CF9DDE90EBC35A3D3E900235846CDE906BC5E460F4601F012FBDDE90223CDE9040130463946D7
:4021C00001F056F902460B464046494601F050F92BA3D3E9002301F0FFFA2BA3D3E90023804689463046394601F0F6FA02460B464046494601F03EF9DDE90C2301F03AF919
:4022000080465046894601F081FA06460F46DDE9040142464B4601F02DF9DDE9082301F029F932463B4601F025F9DDE906BC324658463B46DA468B4601F01AF9DDE908235A
:4022400030E000BFAFF30080EF4E454A287ECA3F65DBC9934A86CD3F01411DA96074D13F4D268F515555D53FFFAB6FDBB66DDB3F033333333333E33F000000E009C7EE3F4B
:40228000FD033ADC09C7EE3FF5015B14E02F3EBE0000404379B60B000000F03F000008408E98030001F0E4F8DDE9042301F0E0F802460B464046494601F0DAF880468946B5
:4022C000DDE90012013C54EA050314BFD64CD74C0023CDE904340B461446CDE9023400230293DDE9024508462B461146224601F0BFF852465B4601F06FFADDE90023064610
:402300000F464046494601F067FA02460B463046394601F0AFF806460F4622462B4650465946CDE9006701F057FA0B460246804689463046394601F09DF8BD4B06469942D5
:402340000D460C4640F30E8101F13F4303F5E003034340F0F081A0A3D3E90023DDE9000101F088F8424682468B464B463046294601F07EF802460B465046594601F0BCFCF1
:40238000002840F0D8812F463B154FF48012A3F2FE3342FA03F32344C3F30A52A54EA2F2FF321641C3F3130B0020C2F1140523EA06014BF4801B02460B46002C4BFA05FB9A
:4023C00040464946B8BFCBF1000B01F051F802460B4680468946DDE9000101F04BF84FEA0B5A00247EA3D3E9002320460D4601F0F3F9424606460F464B462046294601F04F
:4024000037F802460B46DDE9000101F031F876A3D3E9002301F0E0F975A3D3E90023804689462046294601F0D7F902460B464046494601F01FF88046894602460B463046B5
:40244000394601F017F832463B4604460D4601F00FF802460B464046494601F009F82246804689462B462046294601F0B5F962A3D3E9002306460F4601F0AEF960A3D3E9F1
:40248000002300F0F5FF32463B4601F0A5F95EA3D3E9002300F0EEFF32463B4601F09CF95BA3D3E9002300F0E3FF32463B4601F093F959A3D3E9002300F0DCFF32463B468D
:4024C00001F08AF902460B462046294600F0D0FF06460F4602460B462046294601F07CF90022CDE900014FF080433046394600F0BFFF02460B46DDE9000101F097FA4246DE
:4025000006460F464B462046294601F065F942464B4600F0AFFF02460B463046394600F0A7FF22462B4600F0A3FF02460B4600203D4900F09DFF8A44BAF5801FC0F23781AE
:402540005146DDE9042301F047F9834618E4F346354915E44A4648463B46394601F03CF983460DE4344B21F000479F4240F30181324B0B4403430CD142464B4600F078FF57
:4025800002460B46DDE9000101F0A2FB00283FF4FBAE23A3D3E90023DDE9040101F01CF91FA3D3E9002301F017F98346FFF7E8BBBAF1000FBFF6AEACDDE900349B4604F116
:4025C0000041FFF7DDBB02460B460020164901F02DFA41E4AFF30080FE822B654715973C00000000432EE63FEF39FAFE422EE63F396CA80C615C20BED0A4BE726937663E2F
:40260000F16BD2C541BDBB3E2CDE25AF6A56113F93BDBE166CC1663F3E5555555555C53F59F3F8C21F6EA5010000F03F0000F0BFFFFF8F40FFFF0F00FFCB904000346F3F74
:402640006F4B9E427FF763AC6E4B9E423FF7EEAB00226C4B00F00CFF5BA3D3E9002306460F4601F0B9F85AA3D3E90023804689463046394601F0B0F8002282468B46624B78
:402680003046394601F0A8F802460B4652A1D1E9000100F0EDFE32463B4601F09DF802460B460020594900F0E3FE3246CDE902013B463046394601F08FF802460B46DDE949
:4026C000020101F089F846A3D3E9002301F084F802460B465046594600F0CAFE02460B4606460F464046494600F0C4FE42464B46002082468B4600F0BBFE02460B4630461F
:40270000394600F0B5FE80468946D9E500220023CDE90823CDE90C233A4B00220026CDE906233DE44A463B460020364901F07EF98346FFF725BB2CA3D3E90023DDE904011C
:4027400001F04AF828A3D3E9002301F045F88346FFF716BBBEF1000F7FF44FABC3F1140348FA03F202FA03F3984524D07446FFF721BB264B9F423FF707AEDDE902349A4629
:402780009B462EE602460B46FFF7B9BB204B4FF48026CDE9062316A3D3E90023CDE9082315A3D3E90023CDE90C23FFF7F9BB5A4600F072FDC5E602F00102C2F10204FFF701
:4027C000F9BA00BFAFF30080000000604715F73F44DF5DF80BAE543E555555555555D53FFE822B654715F73F9C7500883CE4377E0000004003B8E23F06D0CF43EBFD4C3EF8
:40280000FEFFEF3F0000F03F0000D03F0000E03F0000F83F2DE9F0415F4E0C46B6460E407645054600F0988000290B46024674DD5FEA215E7FD0AEF2FF3EC3F313031EF05A
:40284000010F43F4801363D100273E4603EBD2710B444FEA6E0E520016204FF4001174189C424FEAD2754FEA420202DC1B1B66180F44013805EB43034FEA5101EFD18446BE
:4028800020244FF0004109E020D003EBD275013C4FEA51012B444FEA420220D09E4201EB0C05F1DA002D05EB010C09DBB0469542A3EB060300D9013B4646521B0844E4E763
:4028C000BCF1000FF2DB06F10108F0E7954217D8002D05EB010C49DB98460023ECE7134310D140087B1003F17F5303F50013FA0703EB0E57394648BF40F00040BDE8F08155
:402900003346C2E7411C35D000F001031844E8E75B0003EBD273520096E721F000460643ECD079BB8E46D30AAEF1150E5205002BF9D0DD0221D4002100E001465B00DC02F4
:4029400001F10100F9D5C0F1200422FA04F42343C1EB0E0E82406EE702460B4600F03CFF2A46234600F086FDBDE8F081BCF1000FA9DAB1E701372046B4E720244FF0FF317F
:402980000020E2E702460B4600F072FD02460B4601F04CF8B2E700BF0000F07F2DE9F04F31F0004887B011D020F00049B9F1FF4F824605DD514807B0BDE8F04F00F0EABC06
:4029C000B8F1FF4F07DDB9F17E5FF3D14FF07E5007B0BDE8F08F00280C464ADB0025B8F1FF4F3ED0B8F17E5F07460E4654D0B4F1804F6BD0B4F17C5F1DD000F0BFFCB9F144
:402A0000FF4F51D0B9F1000F4ED0B9F17E5F4BD04FEADA7A0AF1FF3255EA020366D0B8F19A4F6FDD364B994500F36182002CC0F264820020CCE7BAF1000F4BDA00F09EFC68
:402A4000B9F1FF4F02D0B9F1000FDED1A9F17E5959EA050343D0012DBAD100F100410846B6E7B9F17E5FB1D02BDD002CE1DB0846AEE7B8F1974F22DAB8F17E5F0ADB4FEA75
:402A8000E853C3F1960348FA03F202FA03F3984500F028820025A5E7002C99DA01464FF07E5001F05BFB93E7002C04DA01464FF07E5001F053FBBAF1000F89DAC6E70225FB
:402AC0008DE7002CB5DA01F1004081E7014601F091FA7DE707B0BDE8F04F00F0E5BA014601F07EF9014601F039FB71E73946384601F076F9014601F031FB69E7E44C000008
:402B0000F7FF7F3FB9F5000F80F205824FF09741009201F06FFA8146009A6FF017014FEAE953B448C9F316097F3B0B4481451946009349F07E5740F3E581AF4B994540F391
:402B40003E820023184603930B46013300930023A7F50007029001934FF07E5A51463846059201F03DF951468346384601F03AF901464FF07E5001F0F1FA014604905846E5
:402B800001F038FA7910019B41F00051B94601F5802120F47F670B4427F00F07194680463846019301F026FA0146584601F018F951468346019801F013F90146484601F054
:402BC0000FF9394601F016FA0146584601F008F9049B194601F00EFA41468346404601F009FA8146854901F005FA854901F0FAF8494601F0FFF9834901F0F4F8494601F0DE
:402C0000F9F9814901F0EEF8494601F0F3F97F4901F0E8F8494601F0EDF97D4901F0E2F849468246484601F0E5F90146504601F0E1F981463946404601F0D4F8594601F090
:402C4000D9F9494601F0CEF839468246384601F0D1F97049019001F0C5F8514601F0C2F820F47F6929F00F094946384601F0C2F968490746484601F0B3F8019B194601F088
:402C8000AFF80146504601F0ABF8414601F0B2F949468046584601F0ADF90146404601F0A1F882460146384601F09CF820F47F6929F00F094846584901F09CF939468046BF
:402CC000484601F08DF80146504601F089F8534901F090F952490746484601F08BF90146384601F07FF8029901F07CF80746009801F02CF981463946404601F073F8DDF85B
:402D00000CB0594601F06EF8494601F06BF820F47F6A2AF00F0A4946504601F061F8594601F05EF8414601F05BF80146384601F057F88046059A24F47F6424F00F04013DE4
:402D400055EA02032146304614BF4FF07E57354F01F046F8514601F04DF931460546404601F048F90146284601F03CF821460646504601F03FF980463046414601F032F826
:402D8000002881460446C24620F0004540F30181B5F1864F00F3CF8000F0BF80B5F17C5F00F3D1800025A94624F47F6424F00F0420461D4901F01EF951468046204601F059
:402DC0000FF80146304601F00BF8184901F012F917490646204601F00DF90146304601F001F806460146404600F0FCFF4146044620E000BF71C41C00D6B35D0042F1533E7F
:402E000055326C3E05A38B3EABAAAA3EB76DDB3E9A99193F000040400038763F4F38763FA0C39D36000080BF0072313F1872313F8CBEBF3500F0D4FF0146304600F0D0FF74
:402E400021468046204601F0D5F80646854901F0D1F8854900F0C4FF314601F0CBF8834900F0C0FF314601F0C5F8814900F0B8FF314601F0BFF87F4900F0B4FF314601F07E
:402E8000B9F80146204600F0ABFF06460146204601F0B0F84FF080418246304600F0A0FF0146504601F05AF941460646204601F0A1F8414600F096FF0146304600F090FF8F
:402EC000214600F08DFF01464FF07E5000F088FF4319B3F5000FC0F2C0801846394601F089F875E502F00102C2F102057AE5624B99456EDD002C7FF79CAD6049084601F0BF
:402F000079F865E50023194603930023019302914FF07E5A22E6002101E65949304600F061FF41468246484600F05AFF0146504601F01CFA38B13846504901F05BF84F49FF
:402F400001F058F844E5ED154FF400037E3D43FA05F52B19C3F3C7524A49C3F316097F3A114149F40009C2F1170249FA02F9002C23EA01014046B8BFC9F1000900F030FFBD
:402F800001468246304600F02DFF4FEAC95504460AE73D4B9D420ADC7FF400AF414600F01FFF0146304601F0CDF90028CBD03846364901F01FF8354901F01CF808E5344BAF
:402FC0004FF07F5A0393334B02934FF400130193C4E54FF07E51009200F002FF2E49074601F008F82D498046384601F003F84FF07A518146384600F0FDFF0146284800F0AF
:40300000EFFE394600F0F6FF01464FF07C5000F0E7FE39468246384600F0ECFF0146504600F0E8FF1F4900F0E5FF0146484600F0D7FE01460746404600F0D4FE20F47F6A15
:403040002AF00F0A4146504600F0CAFE0146384600F0C6FE009A80466DE6494600F09EF93CE700BF4CBB31330EEADD3555B38A38610B363BABAA2A3E0700803FCAF249710F
:403080003CAA3833FFFF7F00000016436042A20D00C0153FDCCFD13500AAB83F70A5EC36ABAAAA3E3BAAB83F20F00042B2F1FF4F70B504462ED262B3002803463DDBB2F5EB
:4030C000000F4FEAE0502CD3002631467F38C3F31603C20743F4000348BF5B0040105B0019244FF080728D189D4202DC5B1BA9181644013C4FEA43034FEA5202F3D113B1F4
:4031000006F001031E44761006F17C5606EBC05070BD70BD014600F06DFF214600F062FE70BD14F4000201D00EE00A465B001C0202F10101F9D5801AC6E7014600F050FEE1
:40314000014601F00BF870BD4FF0FF32F3E700BF21F00041704700BF41F0004101F58010C00F70470020704700200149704700BF0000F87FF0B5C1F30A5EAEF2FF36132E93
:4031800083B002460B460C464FEAD17507462EDC002E49DB3D49314103EA010010432BD049080B4053EA02070CD04FF48023132E24EA010143FA06F444EA01040CBF4FF02C
:4031C00000470027324B214603EBC505D5E90045384622462B4600F04DF9CDE90001DDE9000122462B4600F043F903B0F0BD332E06DDB6F5806F45D01046194603B0F0BD4A
:40320000AEF2134E4FF0FF3121FA0EF10842F3D049080842D6D04FF0804320EA010143FA0EFE4EEA0107CDE721F0004101431946E4D0C3F3130343EA000CCCF1000343EAD0
:403240000C0C134B640C4FEA1C3C0CF4002C03EBC5036404D3E900674CEA040132463B4600F008F9CDE90001DDE9000132463B4600F0FEF8024621F0004141EAC573104695
:403280001946BBE700F0F6F8B8E700BFFFFF0F00384D000000000000F8B5C1F30A5604460D460B46174606BB21F00043034325D000222F4B00F090FA2E4A044697420D46DF
:4032C0000B462ADBC1F30A56363E40F2FE723E44964228DC002E12DD23F0FF4323F4E00343EA065520462946F8BD40F2FF729642EBD102460B4600F0BDF8F8BDF8BD16F18C
:40330000350F1DDA4CF250339F420CDC14A1D1E9000122462B4600F099F811A3D3E9002300F05AFAF8BD22460FA1D1E900012B4600F08CF80CA3D3E9002300F04DFAF8BD40
:4033400023F0FF4323F4E003363643EA0655204629460022084B00F03FFAF8BDAFF3008059F3F8C21F6EA5019C7500883CE4377E00005043B03CFFFF0000903C20F0004080
:40338000704700BF20F00040B0F1FF4FACBF002001207047004870470000C07F30F0004238B5034616D0B2F1FF4F0FD2B2F5000F0D4610D30446D20D2A44FE2A2EDC002A88
:4033C0001DDD24F0FF4444EAC25038BD014600F009FD38BD38BD4FF0984100F00BFE184A0346954207DBC0F3C7520446193AE3E7144800F033F8134900F0FCFD38BD12F1C4
:40340000160F13DA4CF2503295421946F0DD0E4800F024F80C4900F0EDFD38BD19460A4800F01CF8084900F0E5FD38BD193224F0FF4040EAC2504FF04C5100F0DBFD38BDF1
:40344000B03CFFFF6042A20DCAF2497103F0004321F0004242EA0301704700BF01F0004120F000400843704781F0004102E000BF83F0004330B54FEA41044FEA430594EA7D
:40348000050F08BF90EA020F1FBF54EA000C55EA020C7FEA645C7FEA655C00F0E2804FEA5454D4EB5555B8BF6D420CDD2C4480EA020281EA030382EA000083EA010180EA9F
:4034C000020281EA0303362D88BF30BD11F0004F4FEA01314FF4801C4CEA113102D0404261EB410113F0004F4FEA03334CEA133302D0524263EB430394EA050F00F0A780EC
:40350000A4F10104D5F1200E0DDB02FA0EFC22FA05F2801841F1000103FA0EF2801843FA05F359410EE0A5F120050EF1200E012A03FA0EFC28BF4CF0020C43FA05F3C01887
:4035400051EBE37101F0004507D54FF0000EDCF1000C7EEB00006EEB0101B1F5801F1BD3B1F5001F0CD349085FEA30004FEA3C0C04F101044FEA445212F5800F80F09A80B4
:40358000BCF1004F08BF5FEA500C50F1000041EB045141EA050130BD5FEA4C0C404141EB010111F4801FA4F10104E9D191F0000F04BF01460020B1FA81F308BF2033A3F1F4
:4035C0000B03B3F120020CDA0C3208DD02F1140CC2F10C0201FA0CF021FA02F10CE002F11402D8BFC2F1200C01FA02F120FA0CFCDCBF41EA0C019040E41AA2BF01EB045157
:40360000294330BD6FEA04041F3C1CDA0C340EDC04F11404C4F1200220FA04F001FA02F340EA030021FA04F345EA030130BDC4F10C04C4F1200220FA02F001FA04F340EA50
:403640000300294630BD21FA04F0294630BD94F0000F83F4801306BF81F480110134013D4EE77FEA645C18BF7FEA655C29D094EA050F08BF90EA020F05D054EA000C04BF87
:403680001946104630BD91EA030F1EBF0021002030BD5FEA545C05D14000494128BF41F0004130BD14F580043CBF01F5801130BD01F0004545F0FE4141F470014FF0000066
:4036C00030BD7FEA645C1ABF194610467FEA655C1CBF0B46024650EA013406BF52EA033591EA030F41F4002130BD00BF90F0000F04BF0021704730B54FF4806404F13204F0
:403700004FF000054FF0000150E700BF90F0000F04BF0021704730B54FF4806404F1320410F0004548BF40424FF000013EE700BF42004FEAE2014FEA31014FEA02701FBF6A
:4037400012F07F4393F07F4F81F06051704792F0000F14BF93F07F4F704730B54FF4607401F0004521F0004120E700BF50EA010208BF704730B54FF000050AE050EA01029A
:4037800008BF704730B511F0004502D5404261EB41014FF4806404F132045FEA915C3FF4DCAE4FF003025FEADC0C18BF03325FEADC0C18BF033202EBDC02C2F1200300FADB
:4037C00003FC20FA02F001FA03FE40EA0E0021FA02F11444C1E600BF70B54FF0FF0C4CF4E06C1CEA11541DBF1CEA135594EA0C0F95EA0C0F00F0DEF82C4481EA030621EA26
:403800004C5123EA4C5350EA013518BF52EA033541F4801143F4801338D0A0FB02CE4FF00005E1FB02E506F00042E0FB03E54FF00006E1FB03569CF0000F18BF4EF0010E46
:40384000A4F1FF04B6F5007F64F5407404D25FEA4E0E6D4146EB060642EAC62141EA55514FEAC52040EA5E504FEACE2EB4F1FD0C88BFBCF5E06F1ED8BEF1004F08BF5FEA0B
:40388000500E50F1000041EB045170BD06F0004646EA010140EA020081EA0301B4EB5C04C2BFD4EB0C0541EA045170BD41F480114FF0000E013C00F3AB8014F1360FDEBF60
:4038C000002001F0004170BDC4F10004203C35DA0C341BDC04F11404C4F1200500FA05F320FA04F001FA05F240EA020001F0004221F0004110EBD37021FA04F642EB0601DD
:403900005EEA430E08BF20EAD37070BDC4F10C04C4F1200500FA04F320FA05F001FA04F240EA020001F0004110EBD37041F100015EEA430E08BF20EAD37070BDC4F120059A
:4039400000FA05F24EEA020E20FA04F301FA05F243EA020321FA04F001F0004121FA04F220EA020000EBD3705EEA430E08BF20EAD37070BD94F0000F0FD101F00046400089
:4039800041EB010111F4801F08BF013CF7D041EA060195F0000F18BF704703F00046520043EB030313F4801F08BF013DF7D043EA0603704794EA0C0F0CEA135518BF95EAAB
:4039C0000C0F0CD050EA410618BF52EA4306D1D181EA030101F000414FF0000070BD50EA410606BF1046194652EA430619D094EA0C0F02D150EA013613D195EA0C0F05D1AA
:403A000052EA03361CBF104619460AD181EA030101F0004141F0FE4141F470014FF0000070BD41F0FE4141F4780170BD70B54FF0FF0C4CF4E06C1CEA11541DBF1CEA135588
:403A400094EA0C0F95EA0C0F00F0A7F8A4EB050481EA030E52EA03354FEA013100F088804FEA03334FF0805545EA131343EA12634FEA022245EA111545EA10654FEA00266A
:403A80000EF000419D4208BF964244F1FD0404F5407402D25B084FEA3202B61A65EB03055B084FEA32024FF480104FF4002CB6EB020E75EB030E22BFB61A754640EA0C00C4
:403AC0005B084FEA3202B6EB020E75EB030E22BFB61A754640EA5C005B084FEA3202B6EB020E75EB030E22BFB61A754640EA9C005B084FEA3202B6EB020E75EB030E22BFEB
:403B0000B61A754640EADC0055EA060E18D04FEA051545EA16754FEA06164FEAC30343EA52734FEAC2025FEA1C1CC0D111F4801F0BD141EA00014FF000004FF0004CB6E744
:403B400011F4801F04BF01430020B4F1FD0C88BFBCF5E06F3FF6AFAEB5EB030C04BFB6EB020C5FEA500C50F1000041EB045170BD0EF0004E4EEA113114EB5C04C2BFD4EBD9
:403B80000C0541EA045170BD41F480114FF0000E013C90E645EA060E8DE60CEA135594EA0C0F08BF95EA0C0F3FF43BAF94EA0C0F0AD150EA01347FF434AF95EA0C0F7FF410
:403BC00025AF104619462CE795EA0C0F06D152EA03353FF4FDAE1046194622E750EA410618BF52EA43067FF4C5AE50EA41047FF40DAF52EA43057FF4EBAE12E74FF0FF3C34
:403C000006E000BF4FF0010C02E000BF4FF0010C4DF804CD4FEA410C7FEA6C5C4FEA430C18BF7FEA6C5C1BD001B050EA410C0CBF52EA430C91EA030F02BF90EA020F0020D7
:403C4000704710F1000F91EA030F58BF994208BF90422CBFD8176FEAE37040F0010070474FEA410C7FEA6C5C02D150EA013C07D14FEA430C7FEA6C5CD6D152EA033CD3D0A0
:403C80005DF8040B704700BF8446104662468C461946634600E000BF01B5FFF7B7FF002848BF10F1000F01BD4DF808EDFFF7F4FF0CBF012000205DF808FB00BF4DF808ED0A
:403CC000FFF7EAFF34BF012000205DF808FB00BF4DF808EDFFF7E0FF94BF012000205DF808FB00BF4DF808EDFFF7CEFF94BF012000205DF808FB00BF4DF808EDFFF7C4FF45
:403D000034BF012000205DF808FB00BF4FEA410C7FEA6C5C02D150EA013C0AD14FEA430C7FEA6C5C02D152EA033C02D14FF0000070474FF0010070474FEA4102B2F1E04353
:403D400024BFB3F5001CDCF1FE5C0DD901F0004C4FEAC0024CEA5070B2F1004F40EB830008BF20F00100704711F0804F21D113F13872BCBF01F00040704741F480114FEA60
:403D80005252C2F11802C2F1200C10FA0CF320FA02F018BF40F001004FEAC1234FEAD32303FA0CFC40EA0C0023FA02F34FEA4303CCE77FEA625307D150EA01331EBF4FF04B
:403DC000FE4040F44000704701F0004040F0FE4040F40000704700BF80F0004002E000BF81F0004142001FBF5FEA410392EA030F7FEA226C7FEA236C6AD04FEA1262D2EB40
:403E00001363C1BFD218414048404140B8BF5B42192B88BF704710F0004F40F4000020F07F4018BF404211F0004F41F4000121F07F4118BF494292EA030F3FD0A2F101022B
:403E400041FA03FC10EB0C00C3F1200301FA03F100F0004302D5494260EB4000B0F5000F13D3B0F1807F06D340084FEA310102F10102FE2A51D2B1F1004F40EBC25008BF1F
:403E800020F0010040EA03007047490040EB000010F4000FA2F10102EDD1B0FA80FCACF1080CB2EB0C0200FA0CF0AABF00EBC25052421843BCBFD0401843704792F0000F37
:403EC00081F4000106BF80F400000132013BB5E74FEA41037FEA226C18BF7FEA236C21D092EA030F04D092F0000F08BF0846704790EA010F1CBF0020704712F07F4F04D134
:403F0000400028BF40F00040704712F100723CBF00F50000704700F0004343F0FE4040F4000070477FEA226216BF08467FEA23630146420206BF5FEA412390EA010F40F4CE
:403F4000800070474FF0000304E000BF10F0004348BF40425FEA000C08BF704743F0964301464FF000001CE050EA010208BF70474FF000030AE000BF50EA010208BF704797
:403F800011F0004302D5404261EB41015FEA010C02BF84460146002043F0B64308BFA3F18053A3F50003BCFA8CF2083AA3EBC25310DB01FA02FC634400FA02FCC2F1200228
:403FC000BCF1004F20FA02F243EB020008BF20F00100704702F1200201FA02FCC2F1200250EA4C0021FA02F243EB020008BF20EADC7070474FF0FF0C1CEAD0521EBF1CEA27
:40400000D15392EA0C0F93EA0C0F6FD01A4480EA010C400218BF5FEA41211ED04FF0006343EA501043EA5111A0FB01310CF00040B1F5000F3EBF490041EAD3715B0040EAB1
:40404000010062F17F02FD2A1DD8B3F1004F40EBC25008BF20F00100704790F0000F0CF0004C08BF49024CEA502040EA51207F3AC2BFD2F1FF0340EAC250704740F4000040
:404080004FF00003013A5DDC12F1190FDCBF00F000407047C2F10002410021FA02F1C2F1200200FA02FC5FEA310040F1000053EA4C0308BF20EADC70704792F0000F00F040
:4040C000004C02BF400010F4000F013AF9D040EA0C0093F0000F01F0004C02BF490011F4000F013BF9D041EA0C018FE70CEAD15392EA0C0F18BF93EA0C0F0AD030F0004C20
:4041000018BF31F0004CD8D180EA010000F00040704790F0000F17BF90F0004F084691F0000F91F0004F14D092EA0C0F01D142020FD193EA0C0F03D14B0218BF084608D136
:4041400080EA010000F0004040F0FE4040F40000704740F0FE4040F4400070474FF0FF0C1CEAD0521EBF1CEAD15392EA0C0F93EA0C0F69D0A2EB030280EA010C49024FEA44
:40418000402037D04FF0805343EA111143EA10130CF000408B4238BF5B0042F17D024FF4000C8B4224BF5B1A40EA0C00B3EB510F24BFA3EB510340EA5C00B3EB910F24BFC6
:4041C000A3EB910340EA9C00B3EBD10F24BFA3EBD10340EADC001B0118BF5FEA1C1CE0D1FD2A3FF650AF8B4240EBC25008BF20F0010070470CF0004C4CEA50207F32C2BFD5
:40420000D2F1FF0340EAC250704740F400004FF00003013A37E792F0000F00F0004C02BF400010F4000F013AF9D040EA0C0093F0000F01F0004C02BF490011F4000F013BB3
:40424000F9D041EA0C0195E70CEAD15392EA0C0F08D142027FF47DAF93EA0C0F7FF470AF084676E793EA0C0F04D14B023FF44CAF08466EE730F0004C18BF31F0004CCAD1A9
:4042800030F000427FF45CAF31F000437FF43CAF5FE700BF4FF0FF3C06E000BF4FF0010C02E000BF4FF0010C4DF804CD4FEA40024FEA41037FEA226C18BF7FEA236C11D04A
:4042C00001B052EA530C18BF90EA010F58BFB2EB030088BFC81738BF6FEAE17018BF40F0010070477FEA226C02D15FEA402C05D17FEA236CE4D15FEA412CE1D05DF8040B07
:40430000704700BF844608466146FFE70FB5FFF7C9FF002848BF10F1000F0FBD4DF808EDFFF7F4FF0CBF012000205DF808FB00BF4DF808EDFFF7EAFF34BF012000205DF8ED
:4043400008FB00BF4DF808EDFFF7E0FF94BF012000205DF808FB00BF4DF808EDFFF7D2FF94BF012000205DF808FB00BF4DF808EDFFF7C8FF34BF012000205DF808FB00BFD3
:404380004FEA40024FEA41037FEA226C02D15FEA402C08D17FEA236C02D15FEA412C02D14FF0000070474FF00100704742000ED2B2F1FE4F0BD34FF09E03B3EB126209D4AD
:4043C0004FEA002343F0004323FA02F070474FF00000704712F1610F01D1420202D14FF0FF3070474FF00000704700BF014B1868704700BF3881FF1F0E4B70B51E460E4CA4
:404400000025E41AA410A54204D056F8253098470135F8E700F0B4FC084B094C1E46E41AA4100025A54204D056F8253098470135F8E770BD8C4D00008C4D00008C4D0000C6
:40444000944D000010B5431E0A44914204D011F8014B03F8014FF8E710BD03460244934202D003F8011BFAE7704700000EB400B54FF402719CB0ADF814106FF00041049198
:4044800007914FF6FF711DAB02900690084853F8042BADF81610006802A9019300F072F8029B00221A701CB05DF804EB03B070473881FF1FC9B2034610F8012B1AB19142F9
:4044C000F9D11846704700290CBF1846002070472DE9F0478E6882469E420C46914698463ED88A8912F4906F3AD02568096902236F1A656905EB450595FBF3F57B1C43443F
:404500009D4238BF1D4653050FD5294600F040FB064698B13A462169FFF794FFA38923F4906343F08003A38113E02A4600F08EFB064670B92169504600F0DEFA0C23CAF80A
:404540000030A3894FF0FF3043F04003A381BDE8F08726613E44266046466561ED1BA560464528BF464649463246206800F0A8FAA36800209B1BA36023681E442660BDE8B2
:40458000F08700002DE9F04F9DB003938B8980461C060D4616460DD50B695BB9402100F0F7FA2860286118B90C23C8F80030CDE040236B610023099320238DF82930DFF861
:4045C0009CB130238DF82A3037463C4614F8013B1BB9B7EB060910D003E0252BF9D02746F3E74B46324629464046FFF771FF013000F0A780099B4B4409933B78002B00F004
:40460000A08000234FF0FF3204930793059206938DF853301A930126052221784E4800F041FA671C049B38B14B4A3C46801A06FA00F018430490EFE7D90644BF20228DF8EF
:4046400053201A0744BF2B228DF8532022782A2A03D0079A00210A200BE0039A111D12680391002A10DA524243F00200079204900BE027463B780134303B092B03D800FB2E
:4046800002320121F5E701B107923B782E2B1ED17B782A2B0AD1039B02371A1D1B680392002BB8BF4FF0FF33059310E0002319460593781C0A2407463A780130303A092AF5
:4046C00003D804FB01210123F5E703B1059103223978224800F0E6F940B14023CBEB000003FA00F0049B013718430490397806221B487E1C8DF8281000F0D4F988B1194BBB
:4047000033B9039B073323F007030833039314E003AB00932A46144B04A94046AFF3008007E003AB00932A460F4B04A9404600F093F8B0F1FF3F824603D0099B534409937D
:4047400042E7AB895B0601D4099801E04FF0FF301DB0BDE8F08F00BF4A4D0000504D0000544D000000000000D14400002DE9F04791461F460A698B6806469342B8BF13463C
:40478000C9F8003091F843200C46DDF8208012B10133C9F800302368990642BFD9F800300233C9F80030256815F0060510D104F1190A07E00123524639463046C0470130B5
:4047C0001AD00135E368D9F800209B1A9D42F1DB94F843302268003318BF012392060FD5E118302081F843005A1C94F845102244023382F8431003E04FF0FF30BDE8F08799
:4048000004F1430239463046C0470130F4D02268D9F80050E36802F00602042A08BF5D1B2269A3680CBF25EAE57500259342C4BF9B1AED184FF000091A344D4509D00123CA
:40484000224639463046C0470130D5D009F10109F3E70020BDE8F0872DE9F04317460A7E85B06E2A984606460C460C9B01F1430E00F0AE8011D8632A22D009D8002A00F002
:40488000BB80582A40F0CA8081F84520834955E0642A1ED0692A1CD0C0E0732A00F0B08009D86F2A2ED0702A40F0B8800A6842F020020A603EE0752A24D0782A3AD0ADE0F6
:4048C0001A6801F14205111D1960136884F84230A8E021681A6811F0800F02D0111D196008E011F0400F02F10401196002D0B2F9003000E01368002B3CDA2D225B4284F8F7
:40490000432037E021681A6811F0800F02D0111D196007E011F0400F02F10401196001D0138800E01368227E5C496F2A14BF0A2208221BE078225A4984F845202268186850
:4049400012F0800F00F104051D6003D1550601D5038800E00368D00744BF42F0200222601BB9226822F0200222601022002084F8430001E049490A226568002DA56008DBFE
:40498000206820F0040020602BB9002D7DD175460CE0002B79D07546B3FBF2F002FB1033CB5C05F8013D03460028F5D1082A0BD12368DA0708D5236962689A42DEBF3023C4
:4049C00005F8013C05F1FF35C5EB0E0323612EE008681A6810F0800F496903D0101D1860136808E010F0400F02F104001860136801D0198000E0196000232361754616E09E
:404A00001A68111D1960156800216268284600F049F808B1401B6060636804E004F1420584F8422001232361002384F84330CDF800803B4603AA21463046FFF797FE0130E3
:404A400002D14FF0FF3026E023692A4639463046C0470130F5D023689B0710D5002504F1190907E001234A4639463046C0470130E7D00135E368039A9B1A9D42F2DBE0686D
:404A8000039B9842B8BF184605E00B7804F1420584F842308AE705B0BDE8F0835B4D00006C4D000010B5C9B202449042034605D01C7801308C42F8D1184610BD002010BD8E
:404AC000884210B501EB020301D8421E0BE09842FBD28118D21AD34204D013F8014D01F8014DF8E710BD994204D011F8014B02F8014FF8E710BD000038B50546002944D042
:404B000051F8043C0C1F002BB8BFE41800F0D4F81E4A1368114613B96360146030E0A3420DD92268A018834201BF18685B681218226063600C6023E0A24203D813465A688D
:404B4000002AF9D118681918A1420BD12168014458188242196013D110685268014419605A600DE002D90C232B6009E021686018824201BF106852680918216062605C6086
:404B80002846BDE8384000F098B838BD7081FF1F70B5CD1C25F0030508350C2D38BF0C25002D064601DBA94202D90C23336046E000F082F8234B1C681A462146A1B10B6872
:404BC0005B1B0ED40B2B03D90B60CC18CD501EE08C420BBF63684B681360636018BF0C4615E00C464968E9E7174C23681BB9304600F052F820602946304600F04DF8431C39
:404C000018D0C41C24F00304A0420DD12560304600F053F804F10B00231D20F00700C31A0ED05A42E25070BD211A304600F034F80130EBD10C233360304600F03EF8002056
:404C400070BD00BF7081FF1F6C81FF1FF8B5074615460E4621B91146BDE8F840FFF798BF1AB9FFF749FF2846F8BD00F027F885420ED929463846FFF78BFF044650B131460A
:404C80002A46FFF7DFFB31463846FFF735FF01E03046F8BD2046F8BD38B5064C0023054608462360FBF794FE431C02D1236803B12B6038BDC881FF1F7047704751F8040C4D
:404CC0000028BEBF091851F8043CC01804387047000000000000000053256473000000004125646100000000C84900401900004F00400C00205100405000F0510040100089
:404D000000000140001000140140000800400140000A004C01400002005001402000000060520040B007004806000000706F7700706F77660000000000000000000030437E
:404D400000000000000030C34300232D302B2000686C4C0065666745464700303132333435363738394142434445460030313233343536373839616263646566000000000A
:404D8000F8B500BFF8BC08BC9E4670474D0000004D0A0000F8B500BFF8BC08BC9E46704729000000B84D0000C880FF1F78000000900000000000000000000000FEFE0000B9
:404DC000D081FF1F030100000000000000000000000000000000000000000000000000000000000000000000484D00000000000000000000000000000000000000000000AB
:404E000000000000000000000000000000000000000000000000000000000000000000000000000000000000D880FF1F0000000000000000000000000000000000000000FC
:404E40000000000000000000000000000000000000000000000000000000000000000000000000000000000000000000000000000000000000000000000000000000000032
:404E800000000000000000000000000000000000000000000000000000000000000000000000000000000000000000000000000000000000000000000000000000000000F2
:404EC00000000000000000000000000000000000000000000000000000000000000000000000000000000000000000000000000000000000000000000000000000000000B2
:404F00000000000000000000000000000000000000000000000000000000000000000000000000000000000000000000000000000000000000000000000000000000000071
:020000040003F7
:0200000480007A
:40000000024F004001520040036400400165004064020140360301400C050140070701404908014055090140660A01403E0B0140030D014005150140011701404C18014077
:4000400052190140631A0140561B0140044001400841014008420140024301400448014014490140064C01400D4D0140055001400251014001200A360001820D830F89793C
:4000800089720201160217021F012B022D012E06300431013201340235023F104030410649FF4AFF4BFF4DA04F04501852805405580459045A045B045F01604062C064406C
:4000C000654066C068C06AC06CC06EC08010830C89808A038B138F089220941499719B069C1C9D2C9E229F43A009A171A210A30EA430A60CAA20AC2CAE11B1C0B21FB3304D
:40010000B620B70FB90ABB80BE40BF04C030C106C5D0C601C702C816C9FFCAFFCBFFCDAFCE0FCF04D018D401D604D804D904DA04DB04DC11DD10DF01E040E2C0E440E54051
:40014000E6C0E8C0EAC0ECC0EEC0001002400740080409800B400D0810201110120113021580181019401D081F2520202181278829012A012F0530203180368839323A40E9
:40018000410845084A084B014E08514052885810594A5F89638077408340850187028980C01AC22DC48FCA31CC5CCE0DD042D224D6DFD801E40284048910901095209740FF
:4001C0009C149D0B9E40A420AB20B010E208AD08B010B240B340B430B503EE08021F040C060308010B010C0A0D0110021101120514011704180C1A031D011E102003220CE8
:400200002302241F2A1F2B012C1F2F01361F37073B803E40580459045C105F01802782088601870189028A048D028E01920394089504980499029A109C08A00CA221A60139
:40024000A82FAC0CAE22AF01B00FB410B501B620B706B880B980BB08BE01BF50D2E0D459D604D804D904DB04DC11DD10DF01004001200210034004880641070808280901C4
:400280000A010C080D820E041021118012401310151A1680174019A21E0221042244231425C029802D122F0130203208340237443AA03B083C403D204610470858085904FE
:4002C0005A805B0160106346664067027026710172B47D027E808C408D10930294089608971098809C019D149E939F40A302A428A502A681A780AF20B208B340B480B514C1
:40030000B704C0FFC2FFC4FFCAB8CCD6CE3ED609D80FE810EA60EED00007011004040504070208040B080D010E020F02100212011308151F160319011A081B0C1C041D0F0D
:400340001E031F10200321102204230F251026012A012B0F2C072D1F300F351F3F104006460449FF4A074BFF4C404D204EF04F055008580459045A045C015D015F01604037
:4003800061A8624063208003840385038734880189038B1C9003931594039808992A9B149E04A002A320A503A704AB28AE03B007B338B408B50FBA02BB28BE10C025C1030C
:4003C000C50EC7BCC831C9FFCAFFCBFFCEF0CF44D00CD804D904DA04DC11DD01DF01E6C0EA40EB020010010802010380041005140640080809220B020E420F181069150147
:4004000017401B021D011E401F21212025142809290D2A402E082F48306031023204334035203602380839013A923D2845144A084B044E024F0853405402560884028808F2
:400440008A828B049920A208A308B208C07FC2FFC49FCAEFCCAFCE6FD060D214E620EC8087088920E020E008E401E680EA05EE02EA2000FC0110032F040105010630070CD6
:4004800009040AFC0B020D200EFC0F081002113F1654172F180119101AC01D2F1EFC1F1020012110220C2320251026A82B082CFC2D012F0230FC3203351F372038083E04FD
:4004C0003F10580459045C115F018120831C871C8B108D208E018F1C9302971C9B019C029D3CA201A304A702AB08AD3CB001B103B31CB402B720BE11BF41D602D710D804AD
:40050000D904DB04DC10DD10DF01020203020661070808800C080D500E441080118013401502161017401B111C101E402040210222482705282229812A602C0A2D082F404D
:400540003004322133403406351036043748380839A13A813BC23C403D013E34590C5A806401670269506A087114720B78027B808E84910A9214930294D096019708988002
:4005800099019C229D149E129F45A002A140A302A408A502A688A781B110B280B340C0F1C2F1C4B8CAFFCCFFCEFFD608EA20003F063F083F093F0D010E3F1128123F1312A1
:4005C0001409153F1612183819021A071B0C1C361E09203F240925142624272228382A072C072E38303F3130350E37013A024016410342054404450E464C481D49FF4AFF29
:400600004BFF4C624DA04EF04F41500C580459045A045C115D015F016640670269106A306B106D106E106F128104820384928502866D8B088C6D8D098E92902492DB9308B8
:40064000961C97109AE09B099D099EFF9F06A0DBA106A224A309A4FFA506A90FACFFAD0FB107B4FFB518B880BB22BE50D804D904DC10DF01004001010324044805010780F8
:40068000080109080A040B010C050D400E14100411021210138015091680174418801E081F40214022A124082511274028202C012D092E20322535113604374039503C4045
:4006C0003D203E0A404041044220434049104A024B085088510852108110828083208B408C608F1190409158921C948896029708980199099A8A9C209E109F40A202A310DA
:40070000A488A6A0B184C0BFC2FFC4BFCAF2CCF7CEFCD00BD20CE008E401E680EA05EE02301033083718CCF0578083109C109F18AC10AF08D440E22013083E109C109F08A3
:40074000AB80C410CE20EE2096109C1067809610B010D880122016407B027E01822086408B4092029780A302AA10AB02AE01C430DC80DE20E010E480EAA0EE4013281502BE
:400780007B107F40C40EDE0312807A01831087408E819780A710AB28AD01C408DC01E008E202000308030C0210021C0200BF03C0028000004300000001000101010001006A
:4007C00000000000830040808300830000000000000B0B0000000000000000000000000000000000000000000000000000000000000000000000000000000000000000009A
:4008000000000000000000000000000000000000000000000000000000000000000000000000000000000000000000000000000000000000000000000000000000000000B8
:400840000000000000000000000000000000000000000000000000000000000000000000000000000000000000000000000000000000000000000000000000000000000078
:400880000000000000000000000000000000000000000000000000000000000000000000000000000000000000000000000000000000000000000000000000000000000038
:4008C00000000000000000000000000000000000000000000000000000000000000000000000000000000000000000000000000000000000000000000000000000000000F8
:0200000490006A
:0400000000004005B7
:0200000490105A
:04000000BC90ACAF55
:0200000490303A
:020000006F345B
:0200000490402A
:4000000000000000000000000000000000000000000000000000000000000000000000000000000000000000000000000000000000000000000000000000000000000000C0
:400040000000000000000000000000000000000000000000000000000000000000000000000000000000000000000000000000000000000000000000000000000000000080
:400080000000000000000000000000000000000000000000000000000000000000000000000000000000000000000000000000000000000000000000000000000000000040
:4000C0000000000000000000000000000000000000000000000000000000000000000000000000000000000000000000000000000000000000000000000000000000000000
:0200000490501A
:0C00000000012E16106900012E377F9DB4
:00000001FF