:400000000080002011000000C9170000C917000008B5044B1A6803F53F5302331A6001F0F3FB00BFFA46004010B5054C237833B9044B13B10448AFF300800123237010BDC8
:400040004881FF1F00000000DC350000084B10B51BB108490848AFF300800848036803B910BD074B002BFBD0BDE81040184700BF000000004C81FF1FDC350000C880FF1FE0
:400080000000000070B502F057F90A4C266802F031F8094DA8552368E85C02F0E9F923685A1C2260EB5C2A2B03D1237943F00103237170BD6481FF1FA081FF1F2DE9F047CE
:4000C00000AF04460E46012002F08EFD8046002333604FF001092BE03E21204602F086FE054628B3EA46611C441A04F1080323F00703ADEB030D2246684602F085FE002366
:400100000DF80430684602F03FFDC4B23368994506D14FEA49094946404602F02BFE8046336808F80340336801333360D5462C463C21204602F05AFE04460028CCD14046F4
:40014000BD46BDE8F08700BF2DE9F04788B062B601F000FC01F01AFF01F0CCF801F000F90021084601F004F902F0B8FA02F024FB002002F0E7FA002002F06AFA01F07AFF89
:4001800001F0CEFF02F044F902F050F9B24802F0C5F802F0D1F8002001F072F9AF4801F065F8AF4B5871AF4CAC49684601F03EF826466D460FCD0FC62B68336001F040F94A
:4001C0000746A94EA94D02463146284602F0EAFD542002F04DF9284602F082F9742002F047F9A2683146284602F0DCFD522002F03FF9284602F074F9722002F039F9B4F9EC
:4002000004203146284602F0CDFD472002F030F9284602F065F9672002F02AF9E2683146284602F0BFFD412002F022F9284602F057F9612002F01CF922693146284602F038
:40024000B1FD502002F014F9284602F049F9884802F046F9642001F0E5FD0021084601F087F8844801F0A4F80021012001F080F8B4F90430804E86FB0320DB17C3EB601021
:4002800000B201F0A3F8DFF82C92484601F090F8B4F9042086FB0230D317C3EB60134FF0640A0AFB132000B201F090F8734801F07FF84FF4FA7001F0B5FD0021084601F0F2
:4002C00057F86F4801F074F80021012001F050F8E0686C4DA5FB0030800901F077F8484601F066F8E068A5FB00239B094FF47A7808FB130001F06AF8634801F059F84FF40C
:40030000FA7001F08FFD0021084601F031F85F4801F04EF80021012001F02AF8A068A6FB0030400901F052F8484601F041F8A068A6FB003676090AFB160001F047F85448C0
:4003400001F036F84FF4FA7001F06CFD0021084601F00EF84F4801F02BF80021012001F007F82069A5FB0030800901F02FF8484601F01EF82069A5FB0035AD0908FB150059
:4003800001F024F8444801F013F84FF4FA7001F049FD0021084600F0EBFF404801F008F80021012000F0E4FF384601F00FF83C4800F0FEFF4FF4FA7001F034FD284B1B7930
:4003C000002B3FF4F0AE23F00103254A137107A93448FFF773FE04460021084600F0C8FF314800F0E5FF0021012000F0C1FF207800F0ECFF2D4D284600F0DAFF4FF4FA60F4
:4004000001F010FD0021084600F0B2FF284800F0CFFF0021012000F0ABFF607800F0D6FF284600F0C5FF4FF4FA6001F0FBFC20781438C0B202F086F9607802F009F90023AA
:4004400003E00021174AD15401333E2BF9DD0022034B1A60A7E600BF85000000E481FF1F6481FF1F8C81FF1FE8350000E081FF1FEC350000F03500001F85EB510836000013
:400480001C360000D34D62103036000044360000583600006C3600008036000094360000A8360000A081FF1FBC360000D0360000E436000004360000F0B4CC8A6400C4EB52
:4004C000E0000246C317B1F91840E51704FB03F600FB0566A4FB00453544E00A40EA45505B104FEA320202FB03F4A2FB022303EB4403140B44EA03541A1391F91A301B0114
:40050000DF1703FB02F204FB0722A3FB04451544A30B43EA85431844086300EB8000803040F30F20F0BC704730B40C6B6410A4F57A44A51005FB05F5EA1291F9263003FB72
:4005400002F2B1F9243003FB04F35B0003EBA203B1F92220120402EBA3036D1391F92020520102FB05F2B1F91E5005FB04F4641004EBE202921402F500428C8B04FB02F240
:40058000D213C0F58010A0EB233340F6354404FB03F0B0F1804F03DB90FBF2F35B0002E0400090FBF2F3B1F92A20DC1004FB04F4641304FB02F59A10B1F9284004FB02F2F1
:4005C00052131C1204FB04F000FB04F091F82C4004FB00F002EB253202EB604091F9272000EBC21003EB201030BC7047F0B50C6B04EB8404803424120B89A0EB031091F949
:400600000C3003FB04F3284D85FB0362DB17C3EB6213A0EB63004E8991F90D2002FB04F285FB0273D217C2EB631791F90E2002FB04F285FB02E3D217C2EB631202FB04F397
:400640009A1185FB022EDA17C2EB6E12BB1803F5804303FB06F39B1203FB00F0CA7B91F9103003FB04F485FB0435E317C3EB651404EBC2142411831303FB03F39B1203FBD3
:4006800004F400EB640080124FF47A7202FB00F00013064B984202DC002803DA01E00348F0BD0020F0BD00BF1F85EB51A0860100F0B5A1B007468E469446274C10AD26462B
:4006C0000FCE0FC50FCE0FC50FCE0FC596E80F0085E80F006D4640340FCC0FC50FCC0FC50FCC0FC594E80F0085E80F009CF93620D3179C00900044EA927112184B4140F289
:400700003C50002112184B4120A901EB8E0E5EF8401CA2FB014501FB0355200C40EA054029140023FA0312F17F4243F1FF3312184B415EF8806CA0FB064506FB0155600A5B
:4007400040EAC55069125D104FEA32040019694102F052F821B0F0BDF8360000F0B5B0F5C87F01D94FF4C87091F9042091F9145002FB05F5224C84FB0534ED17C5EBA4172A
:4007800091F9112002F5447EB1F9125005F5163303F2991303FB00F303EB8303194E86FB0324DB17C3EB641404F54814164A82FB0432E517C5EBA20505FB0EF202EBD2725D
:4007C000521002EB072491F83430043394FBF3F291F9353003EB831103EB410303F5803392FBF3F3FA3B03EB0313580000F1320386FB0320DB17C3EB6010C0B2F0BD00BFDD
:40080000D34D62101F85EB5167666666B0F57C6F0CD2002302E080080133DBB23F28FAD8C0B29B01DBB21844C0B27047FF207047B8B110B404460078884206D2217093F815
:40084000461041F0010183F84610217891420BD9227093F8462042F0020283F84620002003E04FF0FF307047002010BC704700BF40B1826C4AB1C26C52B1036D5BB94FF0DC
:40088000FF3070474FF0FF3070474FF0FF3070474FF0FF3070470020704700BF70B582B006460C460846FFF7E3FF054658BB16F0800F01D0002300E01023E278934222D017
:4008C000E370A66C01230DF10702F3216078B04784F8540008B16FF00105A5B99DF8073003F0EF02E37803F01003134302AA02F8013DE66C012373216078B04784F8540045
:4009000008B16FF00105284602B070BD70B582B00446FFF7ADFF054688B9A66C01230DF10702F3216078B04784F8540028B99DF8073003F01003E37001E06FF001052846D3
:4009400002B070BD08B501F06DFA08BD70B50C4615461E46002101F079F9204601F008FA002405E015F8010B01F002FA0134A4B2B442F7D301F0E0F940B270BDF8B5044671
:400980000F4615461E46002101F060F9384601F0EFF90121204601F099F9002405E0012001F012FA28550134A4B2731E9C42F6DB002001F009FA285501F0BEF940B2F8BD07
:4009C0002DE9F8430646884691461C461846FFF74FFF0546A0B9A3783BB921463046FFF75DFF054608B946F08006A76C4B46424631466078B84784F8540008B16FF001059F
:400A00002846BDE8F88300BF10B58CB004462922002101A802F0FBF800238DF803302046FFF726FF0346002840F0B0802346192201A98920FFF7C4FF034638B92346102272
:400A40000DF11D01E120FFF7BBFF03469DF826109DF8252042EA0122E2829DF806109DF8052042EA012222839DF90720A2769DF80A109DF8092042EA0122A2839DF80C1048
:400A80009DF80B2042EA0122E2839DF90D2084F820209DF810109DF80F2042EA012262849DF812109DF8112042EA0122A2849DF9142084F826209DF9132084F827209DF8F6
:400AC00018109DF8172042EA012222859DF81A109DF8192042EA012262859DF81B2084F82C209DF81F009DF81E2002F00F0141EA001121819DF81D10120942EA011262814B
:400B00009DF9202022739DF9212062739DF92220A2739DF82320E2739DF9242022749DF9292062749DF828109DF8272042EA012262829DF92A2022751BBB234601220DF1AC
:400B400003010220FFF73CFF9DF8033003F030031B1184F83430034698B9234601220DF10301FFF72DFF9DF9033084F83530034638B9234601220DF103010420FFF720FF2F
:400B800003469DF90320121184F8362018460CB010BD00BF2DE9F04F85B007468A460023009301930293CDF80B300846FFF760FE06460A24002E59D153460F2269461D20E8
:400BC000FFF7FEFE06469DF8003003F0800E03F00F037B709DF80130BB709DF802509DF803301B0143EA05339DF8045043EA15159DF805009DF80610090141EA00319DF8E0
:400C0000070041EA10109DF808909DF8093043EA09299DF80D809DF80E309A0942EA880803F00F0B03F020024EEA020252B203F0100313433B70002B14DA5146FFF73CFC6D
:400C4000B88051462846FFF76FFCB86051464846FFF7CCFCF860524659464046FFF728FD386107E0DAF850300A209847631E13F0FF049FD104B90226304605B0BDE8F08FA5
:400C80002DE9F0438BB00646884617461D4628220021684601F0BBFF2846FFF7E9FD814600283DD17B1EDBB2122B23D96FF0030936E0AB786BB92946305DFFF7EFFD8146FF
:400CC000325D02F07F020AAB03EB440303F8282C05E0325D0AAB03EB440303F8282C6300013318F804200AA90B4403F8282C0134A4B200E00024BBB29C42DAD3B9F1000FB0
:400D00000ED1EC6C5B00013B9BB20DF101029DF800106878A04785F8540008B16FF0010948460BB0BDE8F08330B583B00546FFF79FFD044640BB0023ADF80030ADF80430CC
:400D400095F84430012B16D15A238DF800302946B5F84000FFF702FD8DF8040064238DF80130B5F84200FFF751FD8DF80500002385F83C3000E0012434B92B46022201A91C
:400D80006846FFF77DFF0446204603B030BD00BF30B583B00546E0238DF80730B6238DF80630FFF765FD0446C8B9AB781BB92846FFF7ACFD044694B92B4601220DF10601F7
:400DC0000DF10700FFF75CFF04462B6D0A2098472CB9AB781BB92846FFF798FD0446204603B030BD10B50446FFF742FD0346B0B92046FFF7CDFF034688B9234601222146F2
:400E0000D020FFF7DDFD034648B92378612B04D12046FFF7F9FD034601E06FF00203184610BD00BF70B582B0054674238DF80630FFF71EFD0646A8BB00242B4601220DF178
:400E400007017420FFF7BCFD064698B99DF8073013F003040ED023F0030302A901F8013D2B4601220DF10600FFF70AFF06462B6D0A209847002CE0D195F8443093B19DF8A0
:400E8000072022F0030203F0030313438DF8073046B92B4601220DF107010DF10600FFF7EFFE0646304602B070BD00BFF0B585B005460C4600238DF80F300293ADF80C3035
:400EC0000093ADF8043091F844700846FFF7D0FC0346002840F01B8105F0080292B21AB12046FFF721FF0346002284F844201BB92046FFF797FF034605F01006B6B236B3BC
:400F000023460722002104F13B00FFF791FC034638B9234601220DF10F017520FFF750FD03465EB194F83B2092009DF80F1021F01C0102F01C020A438DF80F2075228DF8BF
:400F400008209DF80F208DF80020012600E0002605F0200292B222B323460822002104F13D00FFF765FC034638B9234601220DF10F017020FFF724FD034694F83D209DF804
:400F80000F1021F0080102F008020A438DF80F2004A93144702001F8080C01F8102C0136F6B215F0030F38D023460522002104F13900FFF73DFC034638B9234601220DF137
:400FC0000F017420FFF7FCFC034615F0010F09D094F839109DF80F2002F01F0242EA41128DF80F2005F0020292B25AB194F83A2092009DF80F1021F01C0102F01C020A434A
:401000008DF80F2004AA3244742102F8081C9DF80F1002F8101C0136F6B205F0040292B222B323460522002104F13800FFF700FC034638B9234601220DF10F017220FFF72C
:40104000BFFC034694F838209DF80F1021F0070102F007020A438DF80F2004A93144722001F8080C01F8102C0136F6B215F0C00F43D023460122002104F13E00FFF7D8FB5A
:40108000034638B923460A22002104F13C00FFF7CFFB03463BB9234601220DF10F017120FFF78EFC034605F0400292B25AB194F83E2012019DF80F1021F0100102F01002C1
:4010C0000A438DF80F2005F08005ADB255B194F83C209DF80F1021F00F0102F00F020A438DF80F2004AA3244712102F8081C9DF80F1002F8101C0136F6B233B923463246F5
:40110000694602A8FFF7BCFD034684F84470184605B0F0BD10B483B00446184B53F8800F00909B88ADF8043091F8393002AA134413F8083C91F83A2002A8024412F8082C0F
:40114000134491F83820024412F8082C1A4441F2B92340F2AB7000FB0233094AA2FB03239B0901339BB2238091F83E201AB1B1F842201344238003B010BC7047F8360000D0
:40118000D34D621038B505460C460846FFF770FB034680B921462846FFF7FCFC034650B995F90020002A03DA012284F8452002E0002284F84520184638BD00BF08B57622C8
:4011C000427001228270054A8264054AC264054A026519220271FFF705FE08BD7D0900004D0900004509000010B50446022380F83830032280F83A20042280F8392080F8B8
:401200003B30012380F83E304FF4A072A0F840209622A0F8422080F844300146DF20FFF745FE2046FFF7FEFD10BD00BF70B586B006460C460DF11600FFF76CFFBDF81600B3
:40124000FFF780FB21466846FFF79CFF94F84430012B02D12046FFF7E5FD34466D460FCD0FC42B682360304606B070BD10B50446FFF7A4FF2046FFF7B7FF10BD38B5044611
:4012800000F0DF05284600F019FB45F0100000F015FB022000F0C6FD04F0CF0000F00EFB38BD00BF10B504460009FFF7E7FF04F00F00FFF7E3FF10BD10B5044640F0200063
:4012C00000F0FCFA44F0300000F0F8FA022000F0A9FD04F0EF0040F0200000F0EFFA10BD10B504460009FFF7E7FF04F00F00FFF7E3FF10BD08B5502000F094FD0320FFF7CE
:40130000BDFF0A2000F08EFD0320FFF7B7FF1E2000F088FD0320FFF7B1FF022000F082FD0220FFF7ABFF0A2000F07CFD0620FFF7B9FF0E20FFF7B6FF2820FFF7B3FF082056
:40134000FFF7B0FF0120FFF7ADFF0C20FFF7AAFF0320FFF7A7FF0A2000F064FD08BD00BF08B50120FFF79EFF012000F05BFD08BD08B500F00300032819D8DFE800F0020751
:401380000D1381F08000FFF78DFF08BDA1F14000C0B2FFF787FF08BDA1F16C00C0B2FFF781FF08BDA1F12C00C0B2FFF77BFF08BD38B505460078012404E0FFF791FF285D7C
:4013C0000134E4B20028F8D138BD00BF10B584B000238DF80E30092211E0144BA3FB0013DB081C4603EB83035900431ADBB2303304A9114401F80C3C2046013AD2B209287A
:40140000EBD80A4BA3FB0013DB0803EB83035900431ADBB2303304A9114401F80C3C01AB9818FFF7C5FF04B010BD00BFCDCCCCCC08B5002000F05EFD00F068FD08BD00BF1B
:4014400000B583B0FFF7F4FF4FF480630093002340F6FF721946C0F3CF0000F005F880B203B05DF804FB00BF10B4401A019CE41A04FB00F0521A90FBF2F0184410BC7047F2
:4014800010B504461E4800F0A5FE40F6B83000F0C9FC1C4800F09EFE40F6B83000F0C2FC84B9194800F096FE42F2107000F0BAFC164800F08FFE4FF47A7000F0B3FC144816
:4014C00000F088FE022C10D1124800F083FE42F2107000F0A7FC0D4800F07CFE4FF47A7000F0A0FC0C4800F075FE012001F090F8962000F097FCFE2001F08AF8002010BDD5
:401500008037000090370000A0370000D8370000E4370000143800003C380000FEE700BFF0B40022174611E050F82760F3B226F0FF0608E001EB420511F812406D78A555D0
:401540000132013BDBB2002BF4D10137252FEBD9F0BC7047064B1B78DBB203F00701054A11701B09013213704422034B1A707047CF0100496E5800407658004008B50A4687
:40158000002101F044FB08BD38B51925304B1D801823304A137002321580023213704F2102321180023213707721023211800232137040F20531023211800232137040F600
:4015C0005F1102321180023213700222224B1A7008224FF040231A70032103F5007319701E4B1B78DBB21E490B701E4B1A8041F25122023B1A8000240CE01B4B1B7803F08F
:40160000010343EA440404F003044FF4F07001F0E3F8013D0DB1032CEFD115B90320FFF77DFF124B4FF480721A8007221A7000220F490A704820023108701A700222033BA7
:401640001A700C4A137843F03F03137038BD00BF80400040824000400043004008010049A146004022420040254200400440004006400040A243004008B501F0BDFA08BDB1
:4016800038B572B63B4A137843F00403137000240CE0394D630019194A0011462A44084691882858FFF76AFF0134E4B2082CF0D900240CE03048A20011194B000344B3F86F
:4016C0004020D96B986BFFF7D7FF0134E4B2012CF0D92A494FF09040FFF722FF284A137843F0020313701032137843F002031370244C237843F040032370A2F58632513AEF
:40170000137843F01003137008221F491F48FFF7B3FF0A221E491F48FFF7AEFF0A221E491E48FFF7A9FF0A221D491E48FFF7A4FF0A221D491D48FFF79FFF08221C491D4870
:40174000FFF79AFF1C4A137843F0080313701B4D61232B70FFF718FF81232B700122184B1A70FFF7F7FE0E2221461648FFF784FF38BD00BFE84600407C3800009800004836
:4017800003500140A0430040C40A004802510040CC0A0048C0510040D80A0048F0510040E40A004810510040F00A004820510040FC0A0048325100402243004000480040A7
:4017C00004000840B043004008B501F0E1F903680C2B00D1FEE7FEE708B5094B1A681044084BC31A802B02DC054B186005E001F0CFF90C2303604FF0FF32104608BD00BFC3
:40180000CC80FF1F7083FF1F08B5104E104D16E029686B68AC68002204E051F8040B43F8040B0432A242F8D1E868002203E0002143F8041B04328242F9D11035013E002E76
:40184000E6D101F0ABF9FEF77FFCFEE701000000243A000008B5104A104B1A60104A136843F40073136000230AE0032B03D80D4A52F8231000E00C490C4A42F82310013374
:401880002F2BF2D90A4B1A780A4B1A70074A0A4B1A60FFF7F5FE08BD0004FA050CED00E014ED00E000000000C91700000080FF1FBC760040C080FF1F08ED00E0014B1870BB
:4018C000704700BF7565004038B50222114B1A7081220E3B1A70082202331A700F2511331D70002401331C704FF400420A4B1A600721284600F0C0FA0849284600F0A8FA34
:401900001022074B1A70074B1C70074B1C70074B1C7038BDD649004080E100E07D1900003C82FF1F4282FF1F4A82FF1F4082FF1F08B500F059FF064A137843F004031370AF
:401940001032137843F00403137000F051FF08BDA543004008B5074B1B7823B9FFF7B4FF0122044B1A70FFF7E3FF4FF40042024B1A6008BD6C81FF1F00E100E038B5A54BFB
:401980001C78A54B1B7813F0400F00F03A81E4B214F0010F00F01D819F4B1B78453B052B00F21481DFE813F006008200120112010600DF0004F0DF0504F00A04082C42D1A9
:4019C000954B1B78DBB2452B35D1944B1B7813F0FF0F10D0924B1B681B78DBB2914A137004228C4B1A7001228F4B1A7046228A4B1A702C46EDE08D4B1B7813F0020F0DD0C0
:401A00008B4A137843F00A0313706022824B1A704FF40042874B1A602C46DAE0864A137843F0100313701022844B1A700422023B1A702C46CDE00022764B1A704A22764B58
:401A40001A702C46C5E00A2C2BD1794A137843F0A0031370754B1B7813F0020F14D06E4B1B7813F0080F01D0092300E00A23704A11780B4313706022674B1A704FF40042DA
:401A80006C4B1A602C46A4E06B4A137843F0100313701022694B1A700422023B1A702C4697E0002000F0BCF92C4692E014F0020F36D15D4B1A78D2B2584B1B78DBB29A428E
:401AC00010D2594A1378DBB255490968CB5CDBB254490B7004214F4B197013780133DBB2137076E0514B1B7813F0020F0CD0504A137843F00A0313706022474B1A704FF419
:401B000000424C4B1A6064E04B4A137843F0100313701022494B1A700422023B1A7058E0424B1B7813F0020F0CD0414A137843F09A0313706022384B1A704FF400423D4B9B
:401B40001A6046E03C4A137843F01003137010223A4B1A700422023B1A70354A137843F09003137035E0364A1378DBB2354908682C490978C9B2C15413780133DBB213707A
:401B80001278D2B2304B1B78DBB29A4203D21022204B1A701DE0254B1B7813F0020F0CD0234A137843F00903137060221A4B1A704FF400421F4B1A600BE01F4A137843F00E
:401BC000100313700022134B1A7002E0002000F027F914F0200F1CD00F4B1B7813F0080F01D0012300E00223114A11780B431370114A137803F0EF0313701022064B1A7003
:401C000038BD054B1B7813F0100F02D11022024B1A7038BDD74900403C82FF1F4182FF1F4C82FF1FD84900404082FF1F4882FF1F4282FF1F80E100E0D6490040D9490040C3
:401C40004A82FF1F4482FF1F4982FF1F1A4B1B78DBB2102B29D1194B1B7813F0080F26D14FF40042164B1A604000C0B229B140F001004922104B1A7002E045220E4B1A7052
:401C8000104B1870012201331A700F4B1B7813F0010FFAD00C4B1B7803F00A030A2B08D11022054B1A700320704702207047012070470020704700BF3C82FF1FD949004033
:401CC00080E100E0D8490040D7490040164B1B7813F0040F23D04000C0B229B140F001004922124B1A7002E04522104B1A70104B1870122201331A700422023B1A700D4B8E
:401D00001B7813F0010FFAD00A4B1B7803F00A030A2B06D11022054B1A7003207047022070470020704700BFD94900403C82FF1FD8490040D74900400A4B1B7813F0040FED
:401D40000ED01023074A13700421023A1170064A1370064B1B7813F0210FFAD00020704702207047D94900403C82FF1FD7490040114B1B7813F0040F1BD0104B18700422A1
:401D8000013B1A7046220E4B1A700E4B1B7813F0010FFAD00B4B1B7813F0020F04D16022074B1A70002070476022054B1A70032070470220704700BFD9490040D8490040B1
:401DC0003C82FF1FD7490040114B1B7813F0040F1BD0104B1B78DBB2492B05D100220E4B1A704A220B4B1A700B4B1B7813F0010FFAD00A4B1B78DBB218B11021064A11709B
:401E000004E06021034A117000E0002318467047D94900403C82FF1FD7490040D849004001BE704710B5044605E0084B186800F0D3FCA4F50044B4F5004FF6D8034B5868AB
:401E400000FB04F000F0C8FC10BD00BFD080FF1F70B504460E46074B1D681F2802D90020FFF7DEFF04F01F04103455F8240045F8246070BD08ED00E038B504460D460729CD
:401E800002D90020FFF7CCFF1F2C02D90020FFF7C7FF04F01F0000F1604000F564406D01EDB2057038BD00BF08B500F09DFC0A4A137843F0200313700132137843F01003EF
:401EC00013700232137843F01003137000F090FC00F06AF808BD00BF90640040014B1878704700BF61640040014B1878704700BF63640040034B1B7813F0040FFAD0024B93
:401F0000188070476164004042640040014B188880B270475264004008B501E00E4B1B880E4B1B7813F0200FF8D100F05DFC0C4B1A7842F001021A701A7802F0FE021A701C
:401F400001331A7842F001021A701A7802F0FE021A7000F04DFC08BD52640040636400409264004008B51F22064B1A70FFF7D4FFFFF7B4FFFFF7B8FF0023034A137002327E
:401F8000137008BD806400408164004008B5054B1B7823B9FFF7E6FF0122024B1A70FFF783FF08BD6D81FF1F054A137843F0080313701032137843F008031370704700BF57
:401FC000A243004008B512490020FFF741FF07210020FFF751FF00220E4B1A7072220E4B1A70202203331A700C490120FFF730FF07210120FFF740FF0622094B1A704722BA
:4020000010331A70022203F5A8731A7008BD00BFF92100006E81FF1F84640040912200002664004010B500F0DFFB04460D4A137843F0200313700332137843F010031370A5
:40204000094A0123136009490B7843F010030B70022307490B60136000F074F9204600F0C7FB10BD9464004000E100E09665004080E200E008B5054B5B7823B9FFF7A2FF82
:402080000122024B5A70FFF7CDFF08BD6E81FF1F0122134B1A60134A9378DBB2D178C9B2127912F0FF0F01D18B4211D00E4AD05CC0B20133DBB26B2B00D90023094A9370E4
:4020C000137913F0FF0F06D00022064B1A7102E0064B1878C0B20122054B1A60704700BF80E100E06E81FF1F5082FF1F4764004000E100E010B50123064A1360064A147865
:4021000000211170054A13602402FFF7C1FF204380B210BD80E100E06E81FF1F00E100E008B500F061FB0B4B1A7842F001021A701A7802F0FE021A7000F05AFB0121064B78
:402140001960064B00229A70DA701A715A71044B196008BD9764004080E100E06E81FF1F00E100E0164BD9799B79DBB2994205D25A1E914214BF0022012204E0CA1A6B2A2C
:4021800014BF00220122002AECD1994207D10D4B1B7813F0040F02D10B4B187070476B2900D90021094B58540131054BD971054B1B7813F0020F02D00222054B1A6070473C
:4021C0006E81FF1F6665004046650040BC82FF1F00E200E038B5074B5B782BB938BDFFF7C1FF0134A4B201E005460024285D0028F5D138BD6E81FF1F1D4B1B78DBB213F042
:402200001E0F05D01B4803F01E0201780A43027003F0200303F0FF0233B3174B1978C9B2164B1B78DBB21648C154164B1B7813F0FF0F02D00121144B197010490B780133AB
:40224000DBB20B700B78DBB26B2B02D900210B4B19700A4B1978C9B20C4B1B78DBB2994202D10121074B1970002AC5D1704700BF676400406E81FF1F476400407181FF1F09
:402280005082FF1F7281FF1F7381FF1F7081FF1F13E0104B1B78DBB26B2B02D900220D4B1A700C4A1378DBB20B49CB5CDBB20B490B7013780133DBB21370064B1B78DBB294
:4022C000074A1278934204D0064B1B7813F0040FDFD070477481FF1FBC82FF1F466500407581FF1F66650040014B1B681865704708ED00E04001C0B2014B1870704700BFAC
:4023000004E400E01022014B1A60704700E100E01022014B1A60704780E100E010B50446FFF7F6FF2046FFF7DFFF0720FFF7E2FFFFF7E8FF10BD00BF1022014B1A6070472B
:4023400080E200E0054A137843F0010313701032137843F001031370704700BFA243004008B512490220FFF773FD07210220FFF783FD00220E4B1A7072220E4B1A70202247
:40238000043B1A700C490320FFF762FD07210320FFF772FD0622094B1A70472210331A70022203F251131A7008BD00BF052500007781FF1F8B6500409D2500002464004016
:4023C00010B500F011FA04460D4A137843F020031370043A137843F010031370094A0423136009490B7843F010030B70082307490B60136000F0FEF8204600F0F9F910BDAF
:402400009B65004000E100E09565004080E200E008B5054B5B7823B9FFF7A2FF0122024B5A70FFF7CDFF08BD7781FF1F08B500F0DBF90B4B1A7842F001021A701A7802F049
:40244000FE021A7000F0D4F90421064B1960064B00229A70DA701A715A71044B196008BD9B65004080E100E07781FF1F00E100E0164BD9799B79DBB2994205D25A1E9142D3
:4024800014BF0022012204E0CA1A1F2A14BF00220122002AECD1994207D10D4B1B7813F0040F02D10B4B187070471F2900D90021094B58540131054BD971054B1B7813F0E4
:4024C000020F02D00822054B1A6070477781FF1F65650040456500402883FF1F00E200E038B5074B5B782BB938BDFFF7C1FF0134A4B201E005460024285D0028F5D138BDD5
:402500007781FF1F1D4B1B78DBB213F01E0F05D01B4803F01E0201780A43027003F0200303F0FF0233B3174B1978C9B2164B1B78DBB21648C154164B1B7813F0FF0F02D021
:402540000121144B197010490B780133DBB20B700B78DBB21F2B02D900210B4B19700A4B1978C9B20C4B1B78DBB2994202D10121074B1970002AC5D1704700BF676500403F
:402580007781FF1F4B6500407A81FF1F4883FF1F7B81FF1F7C81FF1F7981FF1F13E0104B1B78DBB21F2B02D900220D4B1A700C4A1378DBB20B49CB5CDBB20B490B7013785F
:4025C0000133DBB21370064B1B78DBB2074A1278934204D0064B1B7813F0040FDFD070477D81FF1F2883FF1F456500407E81FF1F65650040054A137843F002031370103275
:40260000137843F002031370704700BFA2430040014B1870704700BF77640040084A137843F0010313701032137843F00103137002F64D32137843F001031370704700BF04
:40264000A3430040014B1880704700BF044F0040014B1880704700BF064F0040014B1870704700BF034F004008B5194A137843F0020313700232137803F08F0343F020037C
:402680001370144B1A7802F0CF021A701A7842F030021A701A7802F0F0021A701A7842F00F021A70FF20FFF7CDFF0020FFF7D0FF0020FFF7D3FF084A137843F00103137035
:4026C00002F65E32137843F00103137008BD00BF004F00400B4F0040A343004008B5054B1B7823B9FFF7C0FF0122024B1A70FFF795FF08BD8081FF1F024A137843F0800314
:402700001370704772640040014B1870704700BF82640040014B1878704700BF62640040014B1870704700BF05640040014B1878704700BF45640040014B1870704700BF09
:4027400025640040014B1870704700BF3564004008B501E0FFF7EAFFFFF7DCFF10F0400FF8D108BD08B5124A137803F0F80343F003031370137803F0FC031370FFF7E8FF17
:40278000FE20FFF7D9FF0020FFF7CAFF0120FFF7BBFFFFF7BFFF0020FFF7D4FF00F024F8044A137843F01003137000F021F808BD726400409264004008B5054B1B7823B99C
:4027C000FFF7D0FF0122024B1A70FFF795FF08BD8181FF1F000000000230800803D000BF01380046FCD17047EFF3108072B6704780F31088704700BF7BB972B90029BEBF85
:4028000000204FF0004106E008BF00281CBF6FF000414FF0FF3000F0B5B9ADF1080C6DE904CE002909DB002B1ADB00F035F8DDF804E0DDE9022304B07047404261EB410199
:40284000002B1BDB00F028F8DDF804E0DDE9022304B0404261EB4101524263EB43037047524263EB430300F017F8DDF804E0DDE9022304B0404261EB41017047524263EBB8
:40288000430300F009F8DDF804E0DDE9022304B0524263EB430370472DE9F04F8C460C460546099E002B4FD18A4217466BD9B2FA82FEBEF1000F0BD0CEF1200520FA05F5CA
:4028C00001FA0EF345EA030C02FA0EF700FA0EF5390CBCFBF1F0BAB201FB10C300FB02F84FEA154C4CEA0344A04509D9E41900F1FF3380F02881A04540F2258102383C4405
:40290000C8EB0404B4FBF1F301FB134C03FB02F2ACB244EA0C418A4209D9C91903F1FF3480F00F818A4240F20C81023B39448A1A43EA00400021002E63D022FA0EF2002355
:4029400086E80C00BDE8F08F8B4207D9002E56D0002186E811000846BDE8F08FB3FA83F1002940F09380A34202D3824200F2FE80851A64EB03039C460120002E41D086E887
:402980002010BDE8F08F12B90127B7FBF2F7B7FA87FEBEF1000F36D1E41B4FEA17481FFA87F90121B4FBF8F308FB134409FB03F24FEA154C4CEA0444A24207D9E41903F12E
:4029C000FF3002D2A24200F2D3800346A41AB4FBF8F008FB104809FB00F9ACB244EA0842914507D9D21900F1FF3402D2914500F2BA802046C9EB020240EA03409BE73146C0
:402A00003046BDE8F08F07FA0EF7CEF1200C24FA0CF34FEA1748B3FBF8FA1FFA87F908FB1A3520FA0CFC04FA0EF40AFB09FB4CEA040C4FEA1C4242EA05439B4500FA0EF572
:402A40000AD9DB190AF1FF3280F08B809B4540F28880AAF1020A3B44CBEB0303B3FBF8F008FB103300FB09F41FFA8CFC4CEA03439C4207D9DB1900F1FF326ED29C426CD9B4
:402A800002383B441C1B40EA0A418BE7C1F1200E8B4022FA0EFC4CEA030C24FA0EF74FEA1C49B7FBF9FA1FFA8CF309FB1A7720FA0EF88C400AFB03F548EA04044FEA1448DE
:402AC00048EA0747BD4202FA01F200FA01FB09D917EB0C070AF1FF3041D2BD423FD9AAF1020A67447F1BB7FBF9F509FB157705FB03F3A4B244EA0747BB4208D917EB0C0750
:402B000005F1FF3027D2BB4225D9023D674445EA0A40A0FB0289FF1A4F4545464C4614D329D066B3BBEB050367EB040707FA0EFECB40CF404EEA030386E888000021BDE804
:402B4000F08F2346F3E61846DAE6B8EB020569EB0C040138E5E70546D9E7104692E78246C0E7924678E702383A4443E7084604E7023B3C442AE7C345E7D33C46D1E7314687
:402B8000BDE8F08F704700BF0A22002100F0D6B9014B1868704700BF4081FF1F0E4B70B51E460E4C0025E41AA410A54204D056F8253098470135F8E700F022FF084B094C70
:402BC0001E46E41AA4100025A54204D056F8253098470135F8E770BD0C3A00000C3A00000C3A0000143A0000024B0146186800F063B800BF4081FF1F10B5431E0A449142F7
:402C000004D011F8014B03F8014FF8E710BD03460244934202D003F8011BFAE77047000038B50546002944D051F8043C0C1F002BB8BFE41800F08CF91E4A1368114613B94D
:402C40006360146030E0A3420DD92268A018834201BF18685B681218226063600C6023E0A24203D813465A68002AF9D118681918A1420BD12168014458188242196013D1BD
:402C800010685268014419605A600DE002D90C232B6009E021686018824201BF106852680918216062605C602846BDE8384000F050B938BD8881FF1F70B5CD1C25F003055D
:402CC00008350C2D38BF0C25002D064601DBA94202D90C23336046E000F03AF9234B1C681A462146A1B10B685B1B0ED40B2B03D90B60CC18CD501EE08C420BBF63684B68A8
:402D00001360636018BF0C4615E00C464968E9E7174C23681BB9304600F034F820602946304600F02FF8431C18D0C41C24F00304A0420DD12560304600F00BF904F10B00AB
:402D4000231D20F00700C31A0ED05A42E25070BD211A304600F016F80130EBD10C233360304600F0F6F8002070BD00BF8881FF1F8481FF1F024B0A460146186800F0EAB848
:402D80004081FF1F38B5064C0023054608462360FEF722FD431C02D1236803B12B6038BD6883FF1F0EB400B54FF402719CB0ADF814106FF00041049107914FF6FF711DAB1C
:402DC00002900690084853F8042BADF81610006802A9019300F03EF9029B00221A701CB05DF804EB03B070474081FF1FC9B2034610F8012B1AB19142F9D118467047002908
:402E00000CBF184600207047034610B542B111F8014B013A03F8014B002CF7D11A4400E010BD934202D003F8014BFAE710BD00002DE9F0470F4680463F48D0F800903D4655
:402E400015F8014B09EB0400407800F0080000F0FF0608B12F46F2E72D2C03D1BD1C7C78012603E02B2C04BF7C78BD1C13B1102B0AD15BE0302C57D1287800F0DF005828E2
:402E80004DD16C7810230235002E14BF4FF0004C6FF0004CBCFBF3FA0027384603FB1ACC09EB040E9EF801E01EF0040F01D0303C0BE01EF0030E1BD0BEF1010F0CBF4FF0A9
:402EC000370E4FF0570ECEEB0404A34210DDB7F1FF3F0AD0504506D801D1644503DC03FB0040012701E04FF0FF3715F8014BD7E77B1C0CD1002E4FF0220314BF4FF000409E
:402F00006FF00040C8F800302AB9BDE8F08706B1404272B107B1691E1160BDE8F0873024002BB1D10823AFE70A23ADE7302CA3D0AAE7BDE8F08700BF4481FF1F13460A4691
:402F4000014602480068FFF773BF00BF4081FF1F70477047F8B5074615460E4621B91146BDE8F840FFF7A8BE1AB9FFF759FE2846F8BD00F028FB85420ED929463846FFF72A
:402F80009BFE044650B131462A46FFF735FE31463846FFF745FE01E03046F8BD2046F8BD2DE9F0478E6882469E420C46914698463ED88A8912F4906F3AD02568096902237A
:402FC0006F1A656905EB450595FBF3F57B1C43449D4238BF1D4653050FD52946FFF76CFE064698B13A462169FFF706FEA38923F4906343F08003A38113E02A46FFF7AAFFBB
:40300000064670B921695046FFF70AFE0C23CAF80030A3894FF0FF3043F04003A381BDE8F08726613E44266046466561ED1BA560464528BF464649463246206800F0A8FA7F
:40304000A36800209B1BA36023681E442660BDE8F08700002DE9F04F9DB003938B8980461C060D4616460DD50B695BB94021FFF723FE2860286118B90C23C8F80030CDE06A
:4030800040236B610023099320238DF82930DFF89CB130238DF82A3037463C4614F8013B1BB9B7EB060910D003E0252BF9D02746F3E74B46324629464046FFF771FF013027
:4030C00000F0A780099B4B4409933B78002B00F0A08000234FF0FF3204930793059206938DF853301A930126052221784E4800F041FA671C049B38B14B4A3C46801A06FAEF
:4031000000F018430490EFE7D90644BF20228DF853201A0744BF2B228DF8532022782A2A03D0079A00210A200BE0039A111D12680391002A10DA524243F0020007920490DA
:403140000BE027463B780134303B092B03D800FB02320121F5E701B107923B782E2B1ED17B782A2B0AD1039B02371A1D1B680392002BB8BF4FF0FF33059310E000231946BC
:403180000593781C0A2407463A780130303A092A03D804FB01210123F5E703B1059103223978224800F0E6F940B14023CBEB000003FA00F0049B01371843049039780622FD
:4031C0001B487E1C8DF8281000F0D4F988B1194B33B9039B073323F007030833039314E003AB00932A46144B04A94046AFF3008007E003AB00932A460F4B04A9404600F09B
:4032000093F8B0F1FF3F824603D0099B5344099342E7AB895B0601D4099801E04FF0FF301DB0BDE8F08F00BFCB390000D1390000D539000000000000A12F00002DE9F04746
:4032400091461F460A698B6806469342B8BF1346C9F8003091F843200C46DDF8208012B10133C9F800302368990642BFD9F800300233C9F80030256815F0060510D104F16A
:40328000190A07E00123524639463046C04701301AD00135E368D9F800209B1A9D42F1DB94F843302268003318BF012392060FD5E118302081F843005A1C94F8451022446A
:4032C000023382F8431003E04FF0FF30BDE8F08704F1430239463046C0470130F4D02268D9F80050E36802F00602042A08BF5D1B2269A3680CBF25EAE57500259342C4BF90
:403300009B1AED184FF000091A344D4509D00123224639463046C0470130D5D009F10109F3E70020BDE8F0872DE9F04317460A7E85B06E2A984606460C460C9B01F1430EF9
:4033400000F0AE8011D8632A22D009D8002A00F0BB80582A40F0CA8081F84520834955E0642A1ED0692A1CD0C0E0732A00F0B08009D86F2A2ED0702A40F0B8800A6842F040
:4033800020020A603EE0752A24D0782A3AD0ADE01A6801F14205111D1960136884F84230A8E021681A6811F0800F02D0111D196008E011F0400F02F10401196002D0B2F90A
:4033C000003000E01368002B3CDA2D225B4284F8432037E021681A6811F0800F02D0111D196007E011F0400F02F10401196001D0138800E01368227E5C496F2A14BF0A22BF
:4034000008221BE078225A4984F845202268186812F0800F00F104051D6003D1550601D5038800E00368D00744BF42F0200222601BB9226822F0200222601022002084F8CA
:40344000430001E049490A226568002DA56008DB206820F0040020602BB9002D7DD175460CE0002B79D07546B3FBF2F002FB1033CB5C05F8013D03460028F5D1082A0BD1C0
:403480002368DA0708D5236962689A42DEBF302305F8013C05F1FF35C5EB0E0323612EE008681A6810F0800F496903D0101D1860136808E010F0400F02F1040018601368A3
:4034C00001D0198000E0196000232361754616E01A68111D1960156800216268284600F049F808B1401B6060636804E004F1420584F8422001232361002384F84330CDF865
:4035000000803B4603AA21463046FFF797FE013002D14FF0FF3026E023692A4639463046C0470130F5D023689B0710D5002504F1190907E001234A4639463046C0470130F9
:40354000E7D00135E368039A9B1A9D42F2DBE068039B9842B8BF184605E00B7804F1420584F842308AE705B0BDE8F083DC390000ED39000010B5C9B202449042034605D0FF
:403580001C7801308C42F8D1184610BD002010BD884210B501EB020301D8421E0BE09842FBD28118D21AD34204D013F8014D01F8014DF8E710BD994204D011F8014B02F894
:4035C000014FF8E710BD51F8040C0028BEBF091851F8043CC01804387047000000000000B8F2FF7F0100000025640000700D0A0054656D70657261747572613A20202020DF
:40360000000000002E000000432020202020202020202020202020200000000048756D656461643A2020202020202020000000002520202020202020202020202020202042
:403640000000000050726573696F6E2061746D6F733A2020000000006850612020202020202020202020202000000000526573697374656E636961206761733A00000000E4
:40368000204B6F686D202020202020202020202020000000544845524D4F50415220202020202020202020002064656743202020202020202020202020202000464F434F6F
:4036C0003A202020202020202020202000000000626974732020202020202020202020202020200056454E54494C41444F523A202020202000000000FFFFFF7FFFFFFF7FD4
:40370000FFFFFF7FFFFFFF7FFFFFFF7FEA51B87EFFFFFF7F21DBF97EFFFFFF7FFFFFFF7FC776BE7FF4285C7FFFFFFF7FEA51B87EFFFFFF7FFFFFFF7F000024F40000127AC3
:403740000000093D0080841EFF583E0F548C93070090D0031038EC019062F40000127A0000093D0080841E0040420F0020A1070090D0030048E80100000102040810000045
:4037800041542B434950434C4F53450D0A00000041542B43574D4F44453D330D0A00000041542B43574A41503D224945543530315F50736F633E41726475696E6F5F322E0B
:4037C00034222C224C6F5F746F636F5F617261697A613F220D0A000041542B43494653520D0A000041542B43495053544152543D22554450222C223139322E3136382E3010
:403800002E313030222C383530312C383038312C320D0A0041542B43574A41503D22464F434F53222C22666F636F696E74656C6967656E7465220D0A0000000041542B4342
:40384000495053544152543D22554450222C223139322E3136382E302E3235222C383530312C383038312C320D0A000041542B43495053454E443D25640D0A00C84900408B
:403880001900004F00400C00405100403000000001400010001401408006001B0140000100400140000A004C014000020050014020000000605200403C0A00480600801ADF
:4038C0000140440A0048800043000020202020202020202028282828282020202020202020202020202020202020208810101010101010101010101010101004040404047A
:403900000404040404101010101010104141414141410101010101010101010101010101010101010101101010101010424242424242020202020202020202020202020261
:4039400002020202020210101010200000000000000000000000000000000000000000000000000000000000000000000000000000000000000000000000000000000000DB
:403980000000000000000000000000000000000000000000000000000000000000000000000000000000000000000000000000000000000000000000000000000000000007
:4039C0000000000000000000000000232D302B2000686C4C0065666745464700303132333435363738394142434445460030313233343536373839616263646566000000D4
:403A0000F8B500BFF8BC08BC9E4670474D00000055180000F8B500BFF8BC08BC9E46704729000000383A0000C880FF1F800000002802000000000000000000007083FF1F12
:403A40000000E02EC05D00001800000000366E010000000000000000000000000000000000000000000000000000000000000000C83800000000000000000000000000005E
:403A8000000000000000000000000000000000000000000000000000000000000000000000000000000000000000000000000000E080FF1FCA380000000000000000000086
:403AC00000000000000000000000000000000000000000000000000000000000000000000000000000000000000000000000000000000000000000000000000000000000C6
:403B00000000000000000000000000000000000000000000000000000000000000000000000000000000000000000000000000000000000000000000000000000000000085
:403B40000000000000000000000000000000000000000000000000000000000000000000000000000000000000000000000000000000000000000000000000000000000045
:403B80000000000000000000000000000000000000000000000000000000000000000000000000000000000000000000000000000000000000000000000000000000000005
:020000040003F7
:0200000480007A
:40000000024F00400552004004640040046500404C0001403C010140690201404A030140630401403F050140620601404A07014001090140020B0140040C0140030D01405F
:40004000010F01404514014052150140521601405A170140091901400A1A0140461B0140074001400D4101400C4201400943014006440140064501400246014004470140C9
:400080001448014021490140104C0140094D0140065001400351014001500A4B00400904189819547C08801F826784728738850F860F87388B72001802040330041908115B
:4000C00009300A020C190D3010191102131D14011618181E19301A011C041D301E19210323542541271A29432B0C2C182E012F20311F32113320340F35403A303B023F043D
:400100005602572C580459045B045C335D305F0182018509872289088B348D3491349401953499349D34A10BA310A603A905AB0AB202B302B53CB601B701BB20BE40BF44B4
:40014000D409D804D904DB04DC32DD30DF01008001020318050108400A240B400E101140142018041A041B281D801E10210A222025102608270128402A402B282C402D20E9
:400180002F483102335036023758388239203B403C043D203F40468047014C014D404E025D185E4261026680684069626A206B5870C082488E01C01FC22FC421CAAFCCFDCB
:4001C000CE7DD6F0D811000201030403061808030A0C10011214183019021A021C32203228322C022D032E3032203501361F370238803E043F40405241064230440149FFE6
:400200004AFF4BFF4C024E704F0C500452805407580459045A045B045C235D235F0562C0644065016610671168C069016B116C406D016E406F018018840686219032920CE1
:40024000942D96129A03AA04AB01B407B638B701B880C052C106C230C401C5CEC6FDC70BC81FC9FFCAFFCBFFCC23CEF0CF0CD004D440D804D904DA04DB04DC23DD33DF01B6
:40028000E2C0E440E501E610E711E8C0E901EB11EC40ED01EE40EF010005040405220A040BA00C800D100F4010081542171018011A041D041E101F4023012660281029046F
:4002C0002A102E8036203D02400E4210441A4601492A4BE04D204F405008512052405E805F18612862406604670475017E0184808A108C018D048E0190049162978099205B
:400300009A019B109C209D0B9E40A080A188A601B112B620C07CC2DEC4D2CA14CC20CE80D07ED23CD670D86EDE10E420000E01010304040E0A020B020C080D051221140297
:400340001505160C180419011B041C1020012610280C2B022C0C2E02300E31013201330434303502361039083E543F114004450449FF4A074BFF4C404D204EF04F0550086F
:4003800056025710580459045A045B045D015F01604061A8624063208008820183018807A007A102AC02AE04B003B20CB302B701B80ABE01BF04C016C105C50CC624C75E16
:4003C000C83FC9FFCAFFCBFFCDA0CF01D018D804D904DA04DC21DD02DF01E040E280E440E540E680E840EA50EBA8EC40ED20EE50EFA801A0026004820580070409280A801B
:400400000B0112111322174119081A021B121E5020142380260427022B082E0231083220385039023A413E203F12424045804B084E424F265003550156A459085B886954E0
:4004400070547120732082029301960297149A109CA09E849F08A180A501AA20C05FC20FC49FCA84CC06CE8DD011D230D608E20101AC021003430B530C170D310F4E153120
:4004800017C61B8C1C021E1423082408261128172D302F40310F320C33F034033610378A38283A023B8A3E504002454049FF4A074BFF4C404D204EF04F05500858045904BB
:4004C0005A045F01604061A862406320804482318422865189028C8093019401960E9F01A4E7A8E7B060B102B207B480B618B701BB08BE40BF41C036C105C204C401C5C09B
:40050000C70EC812C9FFCAFFCBFFCC62CDA0CEF0CF41D00CD418D604D804D904DA04DB04DC10DF01E640E702E910EA30EB10ED10EE10EF12014A06800702080809040A202A
:400540000E02111416101710180119321A601C401D201E201F80202022812541260927122D012E803080330236183A203D823F204001410843024520488049904D015308EF
:400580005610571059015C405D8060846280698080208D4090AC915492109308944095029CA09D209E029F45A002A204A302A508A620A708C09DC284C466CA90CC69CEB44C
:4005C000D02BD20CD601D80DE4108110A11039203F1059045F012510E410E810E640040106040D200E03100214031514174A19021B851D3F1E032403253F29092A032B52E5
:400600002C033003312033183507360437C03F40580459045C105F01811C8322872089098B108D2C8F119530970C9F03A140A514A910AF20B11FB540B720BF50C035C1014E
:40064000C50CC7EBC831C9FFCAFFCBFFCEF0CF44D00CD401D604D904DA04DB04DC10DD11DF01E6C0EA40EB0200800108082009080A400B0610041148198121412214240452
:400680002642274029042B082C022D012E0A2F04314032143310374438403D823E103F0445C047044C024F04560A5C245D015E8067806C146F827604770180148204838093
:4006C000854187018A068B0A8C408D448F1091409250930A9784980499089B049D81A042A18DA708A908AD40AE81AF20B301C005C20DC407CAF6CC5ECEF8D050D210D6F000
:40070000D880E402E688E810EA08EE0801CA033405030603070408140BC80C0C0E11111313E4140915131610176C1C1C1E02201028102A0C2B802F3531F0321F350F37A846
:400740003BA240234104460C47EB483449FF4AFF4BFF4EF04F44500C54015604580459045A045B045C105F0166C06A406B0283B3850C89048A018D08914F939095F3970C1C
:40078000994C9BA39DFF9E02A102A541A903AA02AF40B001B18CB30FB402B57CBB2ABE10D418D604D804D904DB04DC01DD10DF0100400140030805040628070208400E2274
:4007C00010081501171018041B011D04208021092221258127452808298A2C022F04310832A1370538A83B023D023E103F044002420246104712568A5A015C025E885F2080
:40080000600461406201674078047A607B8080408280844087408B408C0890E891019250930A9502980899029A109B129D099EA39F45A002A104A215A380A508A620A910E2
:40084000AB01AE01B010B601C0E2C2A1C452CA3FCCCFCEEFD0E0D6F1D88DE244E401E688EA02EE4084018C019A40B240E244E401E610EA02EC8010011F012F0130013301BE
:400880003E013F04580459045F01054107140880090A0A120B200C800D200E100F80166818401C011D011E601F102204257026882A802C802D802F143280348037153D2078
:4008C0003E4A4548464447014E014F80540156805E206C046D406F207480771480408601872089428A0A8C048DC08E249308940196089A40A401A608AE0CB304C0F0C2F86D
:40090000C470CAF8CCF8CEF0D0F0D210D620E080E270E474E89030103101340436403B40CCF0CE100D105F02630284108740891097409C149D01A640C280D6C0E6403C8054
:40094000630183019C049D01A640A701AB02CE20D640E280EE801B0182049C049D01A440A640A701C610E420170877408F08C404DE04E60250208E02B740D404E408E8086C
:40098000A202A4208C20A202A420E4080510531081018220864088048F0193209C04A644AC40AF10B501C080D420E220E480E640EA40EE40110217021E0852025610590432
:4009C0005C086208678072207F0180088104820A86108B4093029A209F02A501A604A910B702C430C680D4C0D6C0D8C0DC80DE20E2E0E6A0EC2010801380142052027B08AC
:400A00007C10808083088C209F80A202AF80C40ED401DE03E20210107D4081408810B410C408DE04E204E808000F080C0A0710031A031C0200FF010303C0000092800000BD
:400A4000030000001F8060000C440000043C00C2021C00E100FF230073080C001C186300080000E37F10000003E700180100000400C000002C0010C00F1F4038800022203E
:400A8000000004003504010002000CE024FFFFFF62A0F0410C00000000000211040404041111000100000000000040020010301000101012000000000000000000000000A0
:400AC0000000000080E06000600000008300609093009300000000000200080202000200000000000400000F0B0004000000000001000101010001000000000000FCFC000E
:400B0000FC000000000000000000000000000000000000000000000000000000000000000000000000000000000000000000000000000000000000000000000000000000B9
:400B40000000000000000000000000000000000000000000000000000000000000000000000000000000000000000000000000000000000000000000000000000000000075
:400B80000000000000000000000000000000000000000000000000000000000000000000000000000000000000000000000000000000000000000000000000000000000035
:400BC00000000000000000000000000000000000000000000000000000000000000000000000000000000000000000000000000000000000000000000000000000000000F5
:400C000000000000000000000000000000000000000000000000000000000000000000000000000000000000000000000000000000000000000000000000000000000000B4
:0200000490006A
:0400000000004005B7
:0200000490105A
:04000000BC90ACAF55
:0200000490303A
:020000003506C3
:0200000490402A
:4000000000000000000000000000000000000000000000000000000000000000000000000000000000000000000000000000000000000000000000000000000000000000C0
:400040000000000000000000000000000000000000000000000000000000000000000000000000000000000000000000000000000000000000000000000000000000000080
:400080000000000000000000000000000000000000000000000000000000000000000000000000000000000000000000000000000000000000000000000000000000000040
:4000C0000000000000000000000000000000000000000000000000000000000000000000000000000000000000000000000000000000000000000000000000000000000000
:0200000490501A
:0C00000000012E16106900012E2F456F24
:00000001FF