:400000000080002011000000F9150000F915000008B5044B1A6803F53F5302331A6001F0F3FA00BFFA46004010B5054C237833B9044B13B10448AFF300800123237010BD6D
:400040004081FF1F000000005C280000084B10B51BB108490848AFF300800848036803B910BD074B002BFBD0BDE81040184700BF000000004481FF1F5C280000C880FF1F0A
:400080000000000070B502F055F80A4C266801F02FFF094DA8552368E85C02F0E7F823685A1C2260EB5C2A2B03D1237943F00103237170BD5C81FF1F8C81FF1F2DE9F043F0
:4000C00087B062B601F046FB01F060FE01F05AF801F08EF80021084601F092F801F0C8FE01F01CFF02F092F802F09EF8804802F013F802F01FF8022001F00AF97D4800F02C
:40010000FDFF7D4B58717D4D7A49684600F0D6FF2E466C460FCC0FC6236833600021084601F06EF8764801F08BF80021012001F067F8B5F90430734E86FB0320DB17C3EBCD
:40014000601000B201F08AF8DFF8F881404601F077F8B5F9042086FB0230D317C3EB60134FF0640909FB132000B201F077F8664801F066F84FF4FA7001F054FD00210846D4
:4001800001F03EF8614801F05BF80021012001F037F8E8685E4CA4FB0030800901F05EF8404601F04DF8E868A4FB00239B094FF47A7707FB130001F051F8564801F040F874
:4001C0004FF4FA7001F02EFD0021084601F018F8514801F035F80021012001F011F8A868A6FB0030400901F039F8404601F028F8A868A6FB0036760909FB160001F02EF859
:40020000464801F01DF84FF4FA7001F00BFD0021084600F0F5FF424801F012F80021012000F0EEFF2869A4FB0030800901F016F8404601F005F82869A4FB0034A40907FB1E
:40024000140001F00BF8374800F0FAFF4FF4FA7001F0E8FC01F03CF804460021084600F0CFFF314800F0ECFF0021012000F0C8FF204600F0F3FF2D4800F0E2FF4FF4FA7068
:4002800001F0D0FC1C4B1B79002B3FF43CAF23F00103194A13712649264802F0C4FA50B10021084600F0ACFF234800F0C9FF40F6B83001F0B7FC21491E4802F0B4FA50B151
:4002C0000021084600F09CFF1D4800F0B9FF40F6B83001F0A7FC002303E00021154AD15401331E2BF9DD0022034B1A600BE700BF85000000AC81FF1F5C81FF1F7881FF1FCA
:40030000682800001F85EB518028000094280000D34D6210A8280000BC280000D0280000E4280000F82800000C29000020290000342900008C81FF1F3C290000502900009B
:400340005C2900007C280000F0B4CC8A6400C4EBE0000246C317B1F91840E51704FB03F600FB0566A4FB00453544E00A40EA45505B104FEA320202FB03F4A2FB022303EB67
:400380004403140B44EA03541A1391F91A301B01DF1703FB02F204FB0722A3FB04451544A30B43EA85431844086300EB8000803040F30F20F0BC704730B40C6B6410A4F533
:4003C0007A44A51005FB05F5EA1291F9263003FB02F2B1F9243003FB04F35B0003EBA203B1F92220120402EBA3036D1391F92020520102FB05F2B1F91E5005FB04F4641037
:4004000004EBE202921402F500428C8B04FB02F2D213C0F58010A0EB233340F6354404FB03F0B0F1804F03DB90FBF2F35B0002E0400090FBF2F3B1F92A20DC1004FB04F4D2
:40044000641304FB02F59A10B1F9284004FB02F252131C1204FB04F000FB04F091F82C4004FB00F002EB253202EB604091F9272000EBC21003EB201030BC7047F0B50C6BCB
:4004800004EB8404803424120B89A0EB031091F90C3003FB04F3284D85FB0362DB17C3EB6213A0EB63004E8991F90D2002FB04F285FB0273D217C2EB631791F90E2002FB56
:4004C00004F285FB02E3D217C2EB631202FB04F39A1185FB022EDA17C2EB6E12BB1803F5804303FB06F39B1203FB00F0CA7B91F9103003FB04F485FB0435E317C3EB65142A
:4005000004EBC2142411831303FB03F39B1203FB04F400EB640080124FF47A7202FB00F00013064B984202DC002803DA01E00348F0BD0020F0BD00BF1F85EB51A08601000A
:40054000F0B5A1B007468E469446274C10AD26460FCE0FC50FCE0FC50FCE0FC596E80F0085E80F006D4640340FCC0FC50FCC0FC50FCC0FC594E80F0085E80F009CF93620AC
:40058000D3179C00900044EA927112184B4140F23C50002112184B4120A901EB8E0E5EF8401CA2FB014501FB0355200C40EA054029140023FA0312F17F4243F1FF33121823
:4005C0004B415EF8806CA0FB064506FB0155600A40EAC55069125D104FEA32040019694101F01AFF21B0F0BD74290000F0B5B0F5C87F01D94FF4C87091F9042091F9145086
:4006000002FB05F5224C84FB0534ED17C5EBA41791F9112002F5447EB1F9125005F5163303F2991303FB00F303EB8303194E86FB0324DB17C3EB641404F54814164A82FB0C
:400640000432E517C5EBA20505FB0EF202EBD272521002EB072491F83430043394FBF3F291F9353003EB831103EB410303F5803392FBF3F3FA3B03EB0313580000F1320336
:4006800086FB0320DB17C3EB6010C0B2F0BD00BFD34D62101F85EB5167666666B0F57C6F0CD2002302E080080133DBB23F28FAD8C0B29B01DBB21844C0B27047FF207047B2
:4006C000B8B110B404460078884206D2217093F8461041F0010183F84610217891420BD9227093F8462042F0020283F84620002003E04FF0FF307047002010BC704700BF7F
:4007000040B1826C4AB1C26C52B1036D5BB94FF0FF3070474FF0FF3070474FF0FF3070474FF0FF3070470020704700BF70B582B006460C460846FFF7E3FF054658BB16F081
:40074000800F01D0002300E01023E278934222D0E370A66C01230DF10702F3216078B04784F8540008B16FF00105A5B99DF8073003F0EF02E37803F01003134302AA02F8F6
:40078000013DE66C012373216078B04784F8540008B16FF00105284602B070BD70B582B00446FFF7ADFF054688B9A66C01230DF10702F3216078B04784F8540028B99DF8B2
:4007C000073003F01003E37001E06FF00105284602B070BD08B501F025FA08BD70B50C4615461E46002101F031F9204601F0C0F9002405E015F8010B01F0BAF90134A4B271
:40080000B442F7D301F098F940B270BDF8B504460F4615461E46002101F018F9384601F0A7F90121204601F051F9002405E0012001F0CAF928550134A4B2731E9C42F6DB31
:40084000002001F0C1F9285501F076F940B2F8BD2DE9F8430646884691461C461846FFF74FFF0546A0B9A3783BB921463046FFF75DFF054608B946F08006A76C4B4642460D
:4008800031466078B84784F8540008B16FF001052846BDE8F88300BF10B58CB004462922002101A801F0B7FF00238DF803302046FFF726FF0346002840F0B08023461922D7
:4008C00001A98920FFF7C4FF034638B9234610220DF11D01E120FFF7BBFF03469DF826109DF8252042EA0122E2829DF806109DF8052042EA012222839DF90720A2769DF8E6
:400900000A109DF8092042EA0122A2839DF80C109DF80B2042EA0122E2839DF90D2084F820209DF810109DF80F2042EA012262849DF812109DF8112042EA0122A2849DF991
:40094000142084F826209DF9132084F827209DF818109DF8172042EA012222859DF81A109DF8192042EA012262859DF81B2084F82C209DF81F009DF81E2002F00F0141EA67
:40098000001121819DF81D10120942EA011262819DF9202022739DF9212062739DF92220A2739DF82320E2739DF9242022749DF9292062749DF828109DF8272042EA012237
:4009C00062829DF92A2022751BBB234601220DF103010220FFF73CFF9DF8033003F030031B1184F83430034698B9234601220DF10301FFF72DFF9DF9033084F835300346AE
:400A000038B9234601220DF103010420FFF720FF03469DF90320121184F8362018460CB010BD00BF2DE9F04F85B007468A460023009301930293CDF80B300846FFF760FE39
:400A400006460A24002E59D153460F2269461D20FFF7FEFE06469DF8003003F0800E03F00F037B709DF80130BB709DF802509DF803301B0143EA05339DF8045043EA151519
:400A80009DF805009DF80610090141EA00319DF8070041EA10109DF808909DF8093043EA09299DF80D809DF80E309A0942EA880803F00F0B03F020024EEA020252B203F0A1
:400AC000100313433B70002B14DA5146FFF73CFCB88051462846FFF76FFCB86051464846FFF7CCFCF860524659464046FFF728FD386107E0DAF850300A209847631E13F0DC
:400B0000FF049FD104B90226304605B0BDE8F08F2DE9F0438BB00646884617461D4628220021684601F077FE2846FFF7E9FD814600283DD17B1EDBB2122B23D96FF0030920
:400B400036E0AB786BB92946305DFFF7EFFD8146325D02F07F020AAB03EB440303F8282C05E0325D0AAB03EB440303F8282C6300013318F804200AA90B4403F8282C01343A
:400B8000A4B200E00024BBB29C42DAD3B9F1000F0ED1EC6C5B00013B9BB20DF101029DF800106878A04785F8540008B16FF0010948460BB0BDE8F08330B583B00546FFF7F5
:400BC0009FFD044640BB0023ADF80030ADF8043095F84430012B16D15A238DF800302946B5F84000FFF702FD8DF8040064238DF80130B5F84200FFF751FD8DF80500002306
:400C000085F83C3000E0012434B92B46022201A96846FFF77DFF0446204603B030BD00BF30B583B00546E0238DF80730B6238DF80630FFF765FD0446C8B9AB781BB928462D
:400C4000FFF7ACFD044694B92B4601220DF106010DF10700FFF75CFF04462B6D0A2098472CB9AB781BB92846FFF798FD0446204603B030BD10B50446FFF742FD0346B0B949
:400C80002046FFF7CDFF034688B9234601222146D020FFF7DDFD034648B92378612B04D12046FFF7F9FD034601E06FF00203184610BD00BF70B582B0054674238DF80630CB
:400CC000FFF71EFD0646A8BB00242B4601220DF107017420FFF7BCFD064698B99DF8073013F003040ED023F0030302A901F8013D2B4601220DF10600FFF70AFF06462B6D6C
:400D00000A209847002CE0D195F8443093B19DF8072022F0030203F0030313438DF8073046B92B4601220DF107010DF10600FFF7EFFE0646304602B070BD00BFF0B585B0F0
:400D400005460C4600238DF80F300293ADF80C300093ADF8043091F844700846FFF7D0FC0346002840F01B8105F0080292B21AB12046FFF721FF0346002284F844201BB9DA
:400D80002046FFF797FF034605F01006B6B236B323460722002104F13B00FFF791FC034638B9234601220DF10F017520FFF750FD03465EB194F83B2092009DF80F1021F0F4
:400DC0001C0102F01C020A438DF80F2075228DF808209DF80F208DF80020012600E0002605F0200292B222B323460822002104F13D00FFF765FC034638B9234601220DF1BA
:400E00000F017020FFF724FD034694F83D209DF80F1021F0080102F008020A438DF80F2004A93144702001F8080C01F8102C0136F6B215F0030F38D023460522002104F166
:400E40003900FFF73DFC034638B9234601220DF10F017420FFF7FCFC034615F0010F09D094F839109DF80F2002F01F0242EA41128DF80F2005F0020292B25AB194F83A2070
:400E800092009DF80F1021F01C0102F01C020A438DF80F2004AA3244742102F8081C9DF80F1002F8101C0136F6B205F0040292B222B323460522002104F13800FFF700FC39
:400EC000034638B9234601220DF10F017220FFF7BFFC034694F838209DF80F1021F0070102F007020A438DF80F2004A93144722001F8080C01F8102C0136F6B215F0C00F3C
:400F000043D023460122002104F13E00FFF7D8FB034638B923460A22002104F13C00FFF7CFFB03463BB9234601220DF10F017120FFF78EFC034605F0400292B25AB194F8D1
:400F40003E2012019DF80F1021F0100102F010020A438DF80F2005F08005ADB255B194F83C209DF80F1021F00F0102F00F020A438DF80F2004AA3244712102F8081C9DF81C
:400F80000F1002F8101C0136F6B233B923463246694602A8FFF7BCFD034684F84470184605B0F0BD10B483B00446184B53F8800F00909B88ADF8043091F8393002AA134400
:400FC00013F8083C91F83A2002A8024412F8082C134491F83820024412F8082C1A4441F2B92340F2AB7000FB0233094AA2FB03239B0901339BB2238091F83E201AB1B1F8B2
:4010000042201344238003B010BC704774290000D34D621038B505460C460846FFF770FB034680B921462846FFF7FCFC034650B995F90020002A03DA012284F8452002E084
:40104000002284F84520184638BD00BF08B57622427001228270054A8264054AC264054A026519220271FFF705FE08BD0D080000DD070000D507000010B50446022380F8F2
:401080003830032280F83A20042280F8392080F83B30012380F83E304FF4A072A0F840209622A0F8422080F844300146DF20FFF745FE2046FFF7FEFD10BD00BF70B586B045
:4010C00006460C460DF11600FFF76CFFBDF81600FFF780FB21466846FFF79CFF94F84430012B02D12046FFF7E5FD34466D460FCD0FC42B682360304606B070BD10B5044664
:40110000FFF7A4FF2046FFF7B7FF10BD38B5044600F0DF05284600F0D1FA45F0100000F0CDFA022000F07EFD04F0CF0000F0C6FA38BD00BF10B504460009FFF7E7FF04F06B
:401140000F00FFF7E3FF10BD10B5044640F0200000F0B4FA44F0300000F0B0FA022000F061FD04F0EF0040F0200000F0A7FA10BD10B504460009FFF7E7FF04F00F00FFF7D2
:40118000E3FF10BD08B5502000F04CFD0320FFF7BDFF0A2000F046FD0320FFF7B7FF1E2000F040FD0320FFF7B1FF022000F03AFD0220FFF7ABFF0A2000F034FD0620FFF773
:4011C000B9FF0E20FFF7B6FF2820FFF7B3FF0820FFF7B0FF0120FFF7ADFF0C20FFF7AAFF0320FFF7A7FF0A2000F01CFD08BD00BF08B50120FFF79EFF012000F013FD08BD46
:4012000008B500F00300032819D8DFE800F002070D1381F08000FFF78DFF08BDA1F14000C0B2FFF787FF08BDA1F16C00C0B2FFF781FF08BDA1F12C00C0B2FFF77BFF08BD35
:4012400038B505460078012404E0FFF791FF285D0134E4B20028F8D138BD00BF10B584B000238DF80E30092211E0144BA3FB0013DB081C4603EB83035900431ADBB23033D0
:4012800004A9114401F80C3C2046013AD2B20928EBD80A4BA3FB0013DB0803EB83035900431ADBB2303304A9114401F80C3C01AB9818FFF7C5FF04B010BD00BFCDCCCCCC05
:4012C00008B5002000F016FD00F020FD08BD00BF00B583B0FFF7F4FF4FF480630093002340F6FF721946C0F3CF0000F005F880B203B05DF804FB00BF10B4401A019CE41AAA
:4013000004FB00F0521A90FBF2F0184410BC704710B50446164800F05BFE40F6B83000F081FC144800F054FE40F6B83000F07AFC022C10D1104800F04BFE43F6982000F022
:4013400071FC0E4800F044FE43F6982000F06AFC0B4800F03DFE012001F046F84FF4FA7000F060FCFE2001F03FF8002010BD00BFFC2900000C2A00001C2A0000442A000069
:40138000502A0000FEE700BFF0B40022174611E050F82760F3B226F0FF0608E001EB420511F812406D78A5550132013BDBB2002BF4D10137212FEBD9F0BC7047064B1B7898
:4013C000DBB203F00701054A11701B09013213704422034B1A707047CF0100496E5800407658004008B50A46002101F014FA08BD38B51925274B1D801823274A137002320A
:40140000158002321370772102321180023213700222224B1A7008224FF040231A70032103F5007319701E4B1B78DBB21D490B701D4B1A8041F25122023B1A8000240CE0CA
:401440001A4B1B7803F0010343EA440404F003044FF4F07000F0D0FF013D0DB1032CEFD115B90320FFF78EFF114B4FF480721A8007221A7000220F490A7048200231087067
:401480001A700222033B1A700B4A137843F00703137038BD80400040824000400043004008010049A146004022420040254200400440004006400040A243004008B501F0FB
:4014C0009FF908BD38B572B6384A137843F00403137000240CE0364D630019194A0011462A44084691882858FFF77CFF0134E4B2092CF0D900240CE02D48A20011194B00BC
:401500000344B3F84420196CD86BFFF7D7FF0134E4B2022CF0D927494FF09040FFF734FF254A137843F0020313701032137843F002031370214C237843F040032370A2F572
:401540008632513A137843F0100313700A221C491C48FFF7B3FF0A221B491C48FFF7AEFF0A221B491B48FFF7A9FF0A221A491B48FFF7A4FF08221A491A48FFF79FFF1A4A9D
:40158000137843F008031370184D61232B70FFF72FFF81232B700122154B1A70FFF70EFF0E2221461348FFF789FF38BDE8460040802A00008800004803500140A0430040E4
:4015C00034090048C051004040090048F05100404C0900481051004058090048205100406409004832510040224300400048004004000840B043004008B501F0D5F8036861
:401600000C2B00D1FEE7FEE708B5104E104D16E029686B68AC68002204E051F8040B43F8040B0432A242F8D1E868002203E0002143F8041B04328242F9D11035013E002E21
:40164000E6D101F0B7F8FEF739FDFEE701000000002B000008B5104A104B1A60104A136843F40073136000230AE0032B03D80D4A52F8231000E00C490C4A42F823100133E3
:401680002F2BF2D90A4B1A780A4B1A70074A0A4B1A60FFF717FF08BD0004FA050CED00E014ED00E000000000F91500000080FF1FBC760040C080FF1F08ED00E0014B18706C
:4016C000704700BF7565004038B50222114B1A7081220E3B1A70082202331A700F2511331D70002401331C704FF400420A4B1A600721284600F0C0FA0849284600F0A8FA36
:401700001022074B1A70074B1C70074B1C70074B1C7038BDD649004080E100E07D1700000482FF1F0A82FF1F1282FF1F0882FF1F08B500F069FE064A137843F00403137084
:401740001032137843F00403137000F061FE08BDA543004008B5074B1B7823B9FFF7B4FF0122044B1A70FFF7E3FF4FF40042024B1A6008BD6481FF1F00E100E038B5A54BF6
:401780001C78A54B1B7813F0400F00F03A81E4B214F0010F00F01D819F4B1B78453B052B00F21481DFE813F006008200120112010600DF0004F0DF0504F00A04082C42D1AB
:4017C000954B1B78DBB2452B35D1944B1B7813F0FF0F10D0924B1B681B78DBB2914A137004228C4B1A7001228F4B1A7046228A4B1A702C46EDE08D4B1B7813F0020F0DD0C2
:401800008B4A137843F00A0313706022824B1A704FF40042874B1A602C46DAE0864A137843F0100313701022844B1A700422023B1A702C46CDE00022764B1A704A22764B5A
:401840001A702C46C5E00A2C2BD1794A137843F0A0031370754B1B7813F0020F14D06E4B1B7813F0080F01D0092300E00A23704A11780B4313706022674B1A704FF40042DC
:401880006C4B1A602C46A4E06B4A137843F0100313701022694B1A700422023B1A702C4697E0002000F0BCF92C4692E014F0020F36D15D4B1A78D2B2584B1B78DBB29A4290
:4018C00010D2594A1378DBB255490968CB5CDBB254490B7004214F4B197013780133DBB2137076E0514B1B7813F0020F0CD0504A137843F00A0313706022474B1A704FF41B
:4019000000424C4B1A6064E04B4A137843F0100313701022494B1A700422023B1A7058E0424B1B7813F0020F0CD0414A137843F09A0313706022384B1A704FF400423D4B9D
:401940001A6046E03C4A137843F01003137010223A4B1A700422023B1A70354A137843F09003137035E0364A1378DBB2354908682C490978C9B2C15413780133DBB213707C
:401980001278D2B2304B1B78DBB29A4203D21022204B1A701DE0254B1B7813F0020F0CD0234A137843F00903137060221A4B1A704FF400421F4B1A600BE01F4A137843F010
:4019C000100313700022134B1A7002E0002000F027F914F0200F1CD00F4B1B7813F0080F01D0012300E00223114A11780B431370114A137803F0EF0313701022064B1A7005
:401A000038BD054B1B7813F0100F02D11022024B1A7038BDD74900400482FF1F0982FF1F1482FF1FD84900400882FF1F1082FF1F0A82FF1F80E100E0D6490040D949004015
:401A40001282FF1F0C82FF1F1182FF1F1A4B1B78DBB2102B29D1194B1B7813F0080F26D14FF40042164B1A604000C0B229B140F001004922104B1A7002E045220E4B1A70FC
:401A8000104B1870012201331A700F4B1B7813F0010FFAD00C4B1B7803F00A030A2B08D11022054B1A700320704702207047012070470020704700BF0482FF1FD94900406D
:401AC00080E100E0D8490040D7490040164B1B7813F0040F23D04000C0B229B140F001004922124B1A7002E04522104B1A70104B1870122201331A700422023B1A700D4B90
:401B00001B7813F0010FFAD00A4B1B7803F00A030A2B06D11022054B1A7003207047022070470020704700BFD94900400482FF1FD8490040D74900400A4B1B7813F0040F27
:401B40000ED01023074A13700421023A1170064A1370064B1B7813F0210FFAD00020704702207047D94900400482FF1FD7490040114B1B7813F0040F1BD0104B18700422DB
:401B8000013B1A7046220E4B1A700E4B1B7813F0010FFAD00B4B1B7813F0020F04D16022074B1A70002070476022054B1A70032070470220704700BFD9490040D8490040B3
:401BC0000482FF1FD7490040114B1B7813F0040F1BD0104B1B78DBB2492B05D100220E4B1A704A220B4B1A700B4B1B7813F0010FFAD00A4B1B78DBB218B11021064A1170D5
:401C000004E06021034A117000E0002318467047D94900400482FF1FD7490040D849004001BE704710B5044605E0084B186800F0E3FBA4F50044B4F5004FF6D8034B5868D6
:401C400000FB04F000F0D8FB10BD00BFCC80FF1F70B504460E46074B1D681F2802D90020FFF7DEFF04F01F04103455F8240045F8246070BD08ED00E038B504460D460729C4
:401C800002D90020FFF7CCFF1F2C02D90020FFF7C7FF04F01F0000F1604000F564406D01EDB2057038BD00BF08B500F0ADFB0A4A137843F0200313700332137843F01003E0
:401CC00013700432137843F01003137000F0A0FB00F06AF808BD00BF90640040014B1878704700BF63640040014B1878704700BF67640040034B1B7813F0040FFAD0024B7E
:401D0000188070476364004042640040014B188880B270475264004008B501E00E4B1B880E4B1B7813F0200FF8D100F06DFB0C4B1A7842F001021A701A7802F0FE021A700D
:401D400001331A7842F001021A701A7802F0FE021A7000F05DFB08BD52640040676400409264004008B51F22064B1A70FFF7D4FFFFF7B4FFFFF7B8FF0023034A137004326B
:401D8000137008BD806400408364004008B5054B1B7823B9FFF7E6FF0122024B1A70FFF783FF08BD6581FF1F054A137843F0040313701032137843F004031370704700BF67
:401DC000A243004008B511490020FFF741FF07210020FFF751FF00220D4B1A7072220D4B1A702022053B1A700B490120FFF730FF07210120FFF740FF0622084B1A704722B7
:401E000010331A70022251331A7008BDF51F00006681FF1F866400408D2000002465004010B500F0F1FA04460D4A137843F020031370053A137843F010031370094A012376
:401E4000136009490B7843F010030B70022307490B60136000F074F9204600F0D9FA10BD9664004000E100E09565004080E200E008B5054B5B7823B9FFF7A4FF0122024B77
:401E80005A70FFF7CDFF08BD6681FF1F0122134B1A60134A9378DBB2D178C9B2127912F0FF0F01D18B4211D00E4AD05CC0B20133DBB26B2B00D90023094A9370137913F0CF
:401EC000FF0F06D00022064B1A7102E0064B1878C0B20122054B1A60704700BF80E100E06681FF1F1882FF1F4665004000E100E010B50123064A1360064A14780021117094
:401F0000054A13602402FFF7C1FF204380B210BD80E100E06681FF1F00E100E008B500F073FA0B4B1A7842F001021A701A7802F0FE021A7000F06CFA0121064B1960064B38
:401F400000229A70DA701A715A71044B196008BD9665004080E100E06681FF1F00E100E0164BD9799B79DBB2994205D25A1E914214BF0022012204E0CA1A6B2A14BF00220B
:401F80000122002AECD1994207D10D4B1B7813F0040F02D10B4B187070476B2900D90021094B58540131054BD971054B1B7813F0020F02D00222054B1A6070476681FF1F2E
:401FC00065650040456500408482FF1F00E200E038B5074B5B782BB938BDFFF7C1FF0134A4B201E005460024285D0028F5D138BD6681FF1F1D4B1B78DBB213F01E0F05D091
:402000001B4803F01E0201780A43027003F0200303F0FF0233B3174B1978C9B2164B1B78DBB21648C154164B1B7813F0FF0F02D00121144B197010490B780133DBB20B70A7
:402040000B78DBB26B2B02D900210B4B19700A4B1978C9B20C4B1B78DBB2994202D10121074B1970002AC5D1704700BF616400406681FF1F466500406981FF1F1882FF1F71
:402080006A81FF1F6B81FF1F6881FF1F13E0104B1B78DBB26B2B02D900220D4B1A700C4A1378DBB20B49CB5CDBB20B490B7013780133DBB21370064B1B78DBB2074A1278C3
:4020C000934204D0064B1B7813F0040FDFD070476C81FF1F8482FF1F456500406D81FF1F65650040014B1B681865704708ED00E04001C0B2014B1870704700BF04E400E00B
:402100001022014B1A60704700E100E01022014B1A60704780E100E010B50446FFF7F6FF2046FFF7DFFF0720FFF7E2FFFFF7E8FF10BD00BF1022014B1A60704780E200E0B3
:40214000054A137843F0010313701032137843F001031370704700BFA243004008B512490220FFF775FD07210220FFF785FD00220E4B1A7072220E4B1A70202201331A70C9
:402180000C490320FFF764FD07210320FFF774FD0622094B1A70472210331A70022203F5A8731A7008BD00BFDD2200006F81FF1F84640040752300002764004010B500F0D0
:4021C00023F904460D4A137843F0200313700132137843F010031370094A0423136009490B7843F010030B70082307490B60136000F0ECF8204600F00BF910BD9464004028
:4022000000E100E09765004080E200E008B5054B5B7823B9FFF7A2FF0122024B5A70FFF7CDFF08BD6F81FF1F08B500F0EDF80B4B1A7842F001021A701A7802F0FE021A70F6
:4022400000F0E6F80421064B1960064B00229A70DA701A715A71044B196008BD9464004080E100E06F81FF1F00E100E0164BD9799B79DBB2994205D25A1E914214BF002269
:40228000012204E0CA1A1F2A14BF00220122002AECD1994207D10D4B1B7813F0040F02D10B4B187070471F2900D90021094B58540131054BD971054B1B7813F0020F02D0F8
:4022C0000822054B1A6070476F81FF1F6765004047650040F082FF1F00E200E01D4B1B78DBB213F01E0F05D01B4803F01E0201780A43027003F0200303F0FF0233B3174B4E
:402300001978C9B2164B1B78DBB21648C154164B1B7813F0FF0F02D00121144B197010490B780133DBB20B700B78DBB21F2B02D900210B4B19700A4B1978C9B20C4B1B7824
:40234000DBB2994202D10121074B1970002AC5D1704700BF656400406F81FF1F446400407281FF1F1083FF1F7381FF1F7481FF1F7181FF1F13E0104B1B78DBB21F2B02D966
:4023800000220D4B1A700C4A1378DBB20B49CB5CDBB20B490B7013780133DBB21370064B1B78DBB2074A1278934204D0064B1B7813F0040FDFD070477581FF1FF082FF1F0C
:4023C000476500407681FF1F67650040054A137843F0020313701032137843F002031370704700BFA2430040014B1870704700BF73640040000000000230800803D000BF6B
:4024000001380046FCD17047EFF3108072B6704780F31088704700BF7BB972B90029BEBF00204FF0004106E008BF00281CBF6FF000414FF0FF3000F0B5B9ADF1080C6DE9FE
:4024400004CE002909DB002B1ADB00F035F8DDF804E0DDE9022304B07047404261EB4101002B1BDB00F028F8DDF804E0DDE9022304B0404261EB4101524263EB43037047A9
:40248000524263EB430300F017F8DDF804E0DDE9022304B0404261EB41017047524263EB430300F009F8DDF804E0DDE9022304B0524263EB430370472DE9F04F8C460C460D
:4024C0000546099E002B4FD18A4217466BD9B2FA82FEBEF1000F0BD0CEF1200520FA05F501FA0EF345EA030C02FA0EF700FA0EF5390CBCFBF1F0BAB201FB10C300FB02F830
:402500004FEA154C4CEA0344A04509D9E41900F1FF3380F02881A04540F2258102383C44C8EB0404B4FBF1F301FB134C03FB02F2ACB244EA0C418A4209D9C91903F1FF34E2
:4025400080F00F818A4240F20C81023B39448A1A43EA00400021002E63D022FA0EF2002386E80C00BDE8F08F8B4207D9002E56D0002186E811000846BDE8F08FB3FA83F172
:40258000002940F09380A34202D3824200F2FE80851A64EB03039C460120002E41D086E82010BDE8F08F12B90127B7FBF2F7B7FA87FEBEF1000F36D1E41B4FEA17481FFA90
:4025C00087F90121B4FBF8F308FB134409FB03F24FEA154C4CEA0444A24207D9E41903F1FF3002D2A24200F2D3800346A41AB4FBF8F008FB104809FB00F9ACB244EA084287
:40260000914507D9D21900F1FF3402D2914500F2BA802046C9EB020240EA03409BE731463046BDE8F08F07FA0EF7CEF1200C24FA0CF34FEA1748B3FBF8FA1FFA87F908FBFF
:402640001A3520FA0CFC04FA0EF40AFB09FB4CEA040C4FEA1C4242EA05439B4500FA0EF50AD9DB190AF1FF3280F08B809B4540F28880AAF1020A3B44CBEB0303B3FBF8F0A2
:4026800008FB103300FB09F41FFA8CFC4CEA03439C4207D9DB1900F1FF326ED29C426CD902383B441C1B40EA0A418BE7C1F1200E8B4022FA0EFC4CEA030C24FA0EF74FEA3F
:4026C0001C49B7FBF9FA1FFA8CF309FB1A7720FA0EF88C400AFB03F548EA04044FEA144848EA0747BD4202FA01F200FA01FB09D917EB0C070AF1FF3041D2BD423FD9AAF1A1
:40270000020A67447F1BB7FBF9F509FB157705FB03F3A4B244EA0747BB4208D917EB0C0705F1FF3027D2BB4225D9023D674445EA0A40A0FB0289FF1A4F4545464C4614D30A
:4027400029D066B3BBEB050367EB040707FA0EFECB40CF404EEA030386E888000021BDE8F08F2346F3E61846DAE6B8EB020569EB0C040138E5E70546D9E7104692E7824687
:40278000C0E7924678E702383A4443E7084604E7023B3C442AE7C345E7D33C46D1E73146BDE8F08F704700BF014B1868704700BF3C81FF1F0E4B70B51E460E4C0025E41AC9
:4027C000A410A54204D056F8253098470135F8E700F084F9084B094C1E46E41AA4100025A54204D056F8253098470135F8E770BDE82A0000E82A0000E82A0000F02A0000B4
:4028000010B5431E0A44914204D011F8014B03F8014FF8E710BD03460244934202D003F8011BFAE77047F0B5037863B90B78002B18BF0020F0BD15F8012F62B114F8017FE2
:4028400030469742F7D00346461C007810B14D1E5C1EF0E7F0BD1846F0BD00000000000058FCFF7F0100000054656D70657261747572613A20202020000000002E000000A5
:40288000432020202020202020202020202020200000000048756D656461643A20202020202020200000000025202020202020202020202020202020000000005072657364
:4028C000696F6E2061746D6F733A2020000000006850612020202020202020202020202000000000526573697374656E636961206761733A00000000204B6F686D202020FD
:40290000202020202020202020000000544845524D4F50415220202020202020202020006465674320202020202020202020202020202000464F434F00000000504F5445D3
:402940004E43494120464F434F3A20200000000056454E54494C41444F520000504F54454E4349412056454E54494C41444F523A20200000FFFFFF7FFFFFFF7FFFFFFF7F2A
:40298000FFFFFF7FFFFFFF7FEA51B87EFFFFFF7F21DBF97EFFFFFF7FFFFFFF7FC776BE7FF4285C7FFFFFFF7FEA51B87EFFFFFF7FFFFFFF7F000024F40000127A0000093D87
:4029C0000080841EFF583E0F548C93070090D0031038EC019062F40000127A0000093D0080841E0040420F0020A1070090D0030048E80100000102040810000041542B4316
:402A00004950434C4F53450D0A00000041542B43574D4F44453D330D0A00000041542B43574A41503D22464F434F53222C22666F636F696E74656C6967656E7465220D0A74
:402A40000000000041542B43494653520D0A000041542B43495053544152543D22554450222C223139322E3136382E302E3235222C383530312C383038312C320D0A00003C
:402A8000C8490040190000510040100040510040300000000140800200030140000180040140800B00140140000800400140000A004C014000020050014020006052004098
:402AC0002C08004806008002014034080048800000040140B408004880004300F8B500BFF8BC08BC9E4670474D00000055160000F8B500BFF8BC08BC9E46704729000000A2
:402B0000102B0000C880FF1F78000000F0010000000000000000E02EC05D00001800000000366E0100000000000000000000000000000000000000000000000000000000A3
:402B400000000000DA2A0000000000000000000000000000000000000000000000000000000000000000000000000000000000000000000000000000000000000000000051
:402B800000000000DC80FF1F00000000000000000000000000000000000000000000000000000000000000000000000000000000000000000000000000000000000000009B
:402BC00000000000000000000000000000000000000000000000000000000000000000000000000000000000000000000000000000000000000000000000000000000000D5
:402C00000000000000000000000000000000000000000000000000000000000000000000000000000000000000000000000000000000000000000000000000000000000094
:402C40000000000000000000000000000000000000000000000000000000000000000000000000000000000000000000000000000000000000000000000000000000000054
:402C80000000000000000000000000000000000000000000000000000000000000000000000000000000000000000000000000000000000000000000000000000000000014
:020000040003F7
:0200000480007A
:400000000552004005640040026500404700014037010140220201404F030140110401404C0501404F0601404407014001090140030D0140010F0140641401404E1501408C
:40004000651601405017014002190140041B014005400140054101400842014003430140054401400A45014001460140034701400B480140224901400D4C01400B4D0140A1
:40008000055001400351014008041898195478027C08801F8138847285388672850F870F010D0403056206540714090D0D0D0E201041121A14021530161D184319021A0CCB
:4000C0001B0D1C301D0D20302430255127222830290D2D022E302F48301F324033703420350F39083A023B203E1056025720580459045B045C225D205F0186088701880467
:400100008A088E0696019A01A00CA202A410A80AAA04AB01B00EB301B410B601BE50BF04D418D604D804D904DB04DC02DF01008404480708081909800E200F08100A11057F
:4001400016981A101B111C401D401E08212022082508281529082A082B022F0831203248388439113C08450846205E016302654066206780680A69156A806B40704071803C
:4001800078047904821084088701C0E5C26FC47FCA2ECC0ECE4FD680D8B8E00103020B0127012904310433033F05403441054220440149FF4AFF4BFF4C024E704F0C5004C5
:4001C00059045A045D025F0162C0644065016610671168C069016B116C406D016E406F01004403400891100811041201182019481B0220042104225023282502260828107C
:4002000029082B022E102F2030033210334038C039143A013D203F024086410442804302440246804728484049844A804D80500551205201582059045A805B0161406A40E5
:4002400080108180872188028E4090809114940C96019B409D089E909F08A00AA204A310A444A610A70EAF40B208C00DC20BC407CA6ACC0DCEAFD0FFD218D60FD8089302AB
:400280009B029C019F01AB01B401B501B702BE10BF50D418D604D804D904DB04DD10DF010004020403020A620B040F011080135019621A601E04200422052302270928041C
:4002C00029022B022F043040310432013320342835603602370838643A023B404024430244044510468047014A084B40520253045A085F0264086501668069146A807090CF
:4003000071047202731478407B01810196119E10A120A28CA310A404A510A610A72DB102B421C007C28FC40BCA2DCCBFCE0FD007D20CD682D8B0EE2000240363041C050495
:4003400006E20808090C0C100D1F0F60101C117312E1130C14FF1503184019021E0420E7210822182460257F2818295C2B232D012E6330603110321F332C3480354C370FD7
:4003800038203A083B883F0156025713580459045B045F0180088214841286099405960AA41FA81FB01CB403BB02C002C640C9FFCA07CBFFCC40CD20CEF0CF05D008D4407E
:4003C000D804D904DA04DB04DC11DD21DF01E040E1A8E240E320010203200504068508040A010B020C100D800E400F1011141602172519021B211C081D041F052040261922
:4004000027012C802E802F14341037053C023E6A40044B0451105E026120628063206C086D487480762D772078087A109114928494409611970198049E10A120A284A31044
:40044000A404A610A72FA910AA04C0FCC2F4C4F6CAF0CCE0CEF0D004D680D80EEA01EA01E220E440EC80E0010208045C0560060307800B080D5C0F831561178E18611961BD
:400480001A0E1B961F1C221C262327A328612A163060310F320F331A341A35F038023A283B2A3E014004454049FF4A074BFF4C404D204EF04F055008580459045A045C10EB
:4004C0005F01604061A862406320801081038314841C854086028715880C89338A118B0C8C098E109308950A960397349814A410A533A60CA704B110B21FB50FB760B9800C
:40050000BB20BF01C023C106C5EBC6E0C7C0C82BC9FFCAFFCBFFCEF0CF44D00CD401D604D804D904DA04DB04DF01E6C0EA40EB02010A051907020A080E100F081020112002
:40054000130A170419181A081B221E1020E821282510278628202F203128328035083702384839203D203F06430245104708482049034B044D014E044F08561057015D11B0
:400580005E085F8066016D046E606F4076068207861089148B018E408F4090089120961098209E10A284A454A810AA80C0FCC262C42ECA42CCCECEEED061D220D6F0D88076
:4005C000E008E230E401E640E804EA02056714011501170E19441B31280129672C012D222FD1311833603507360137803A203F014045410642024401450C470E481149FF48
:400600004AFF4BFF4C624DA04EF04F41500C580459045A045F016640670269106A306B106D106E106F12840C8720880C89108C088D1490029401958097209A049B039D0964
:400640009F10A402A570A70CA802A96CAB11AD1CAF62B002B201B320B40CB51FB7C0B820B980BE14BF04C062C103C5E0C60BC70CC816C9FFCAFFCBFFCEF0CF44D00CD40135
:40068000D604D804D904DA04DB04DC11DD11DF01E6C0EA40EB0200A8018804080710082009200AA80B040C0811141540160818241B021C021F1022982580276429882A20D5
:4006C0002C082E80329434103724388839203C203D083E284120422044084741480549014A024B014E024F185044570859015A445B10634067308248874091749284930443
:4007000094049610973198089B019C109E909F04A008A104A204A401A580A70EAA48C007C22EC4C6CA3ECC6ECE4ED0B6D234D60FD801E680EA08E680EA08E008E401E80444
:40074000EA02308237123B10CCF0CE109F12A402AC80AF10EA103C2080029A109F12A402B210CE20E2209A109F12A410141073808380C404DC01508088108C8098109A401C
:40078000B240D404E204E402EC019A4097019A40AB010704561087028B029A109F12AC10C080D440E640EA1012201640520257205F026080630266017B027D80822283307B
:4007C0008640870188808E018F029F10A140A302AB04AD40C430D4C0D6C0D8C0DC80DE20E010E2A0E480E630E880EA401318170156407B107F408B0897119A40AF10C40E5B
:40080000D402DE03E601130176208310874097819A20A710AA20AF01C408DE04000708050A0710031A0300FF010303C0828000000300000019020000245219000050000249
:40084000195200001802015000000000312102143E520100000000001903002C01001800180304380F001140001F202000200300000040442405300001DEF0CB3BFFFFFF60
:400880002300F00C040000000900000004040404222200010000C00040011011C0010011400140010000000000000000000000000000000000080000C7F3180C0404200033
:4008C00000FF83009C4F42B0000C0400082200001C33C100104C00B30000000018110000DF0000B31F8C2040980F4030800002220000000424050300060000CE30FFFFFF8E
:4009000062A0F0410C0000000000021204040404111100010000000000004002001030100010101200000000000000000000000000000000830060909300930000000000D4
:400940000200080202000200000000000400000F0B0004000000000001000101010001000000000000FCFC00FC00000000000000000000000000000000000000000000004C
:400980000000000000000000000000000000000000000000000000000000000000000000000000000000000000000000000000000000000000000000000000000000000037
:4009C00000000000000000000000000000000000000000000000000000000000000000000000000000000000000000000000000000000000000000000000000000000000F7
:400A000000000000000000000000000000000000000000000000000000000000000000000000000000000000000000000000000000000000000000000000000000000000B6
:400A40000000000000000000000000000000000000000000000000000000000000000000000000000000000000000000000000000000000000000000000000000000000076
:0200000490006A
:0400000000004005B7
:0200000490105A
:04000000BC90ACAF55
:0200000490303A
:020000001205E7
:0200000490402A
:4000000000000000000000000000000000000000000000000000000000000000000000000000000000000000000000000000000000000000000000000000000000000000C0
:400040000000000000000000000000000000000000000000000000000000000000000000000000000000000000000000000000000000000000000000000000000000000080
:400080000000000000000000000000000000000000000000000000000000000000000000000000000000000000000000000000000000000000000000000000000000000040
:4000C0000000000000000000000000000000000000000000000000000000000000000000000000000000000000000000000000000000000000000000000000000000000000
:0200000490501A
:0C00000000012E16106900012E29226E4E
:00000001FF