:400000000080002011000000810600008106000008B5044B1A6803F53F5302331A6000F04FFB00BFFA46004010B5054C237833B9044B13B10448AFF300800123237010BD1F
:400040004881FF1F00000000F81F0000084B10B51BB108490848AFF300800848036803B910BD074B002BFBD0BDE81040184700BF000000004C81FF1FF81F0000C880FF1FD4
:400080000000000038B500F015FE144C257800F0DDFC134A505523780133DBB22370591E525C2A2A19D120469A1E0D4CA25C303AD1B2DA1EA25C303A02EB820201EB4202D3
:4000C000D2B2043BE35C303B03EB830303EB830302EB830343700023037038BD6481FF1F7881FF1F10B586B062B600F0A5F800F0B3FB00F06BFC00F009FD00F0D3F827482B
:4001000000F0CAFD00F0D6FD03A800F049F9FA2000F0C0FB9DF80E30ABB10021084600F0C9F81F4800F0E6F80021012000F0C2F89DF80E0000F022F91A4800F0DBF81A48FE
:4001400000F0D2FCE0E70021084600F0B3F8174800F0D0F8BDF81000C00900F0D9F8144C204600F0C7F80021012000F0A3F8114800F0C0F8104B587800F0CAF8204600F014
:40018000B9F8BDF8102002F07F03D2090B4901A801F00EFB01A800F0A7FCB5E785000000FC1F00000C200000202000002C200000342000003C2000006481FF1F442000001C
:4001C00038B5044600F0DF05284600F045FD45F0100000F041FD022000F05CFB04F0CF0000F03AFD38BD00BF10B504460009FFF7E7FF04F00F00FFF7E3FF10BD10B504462F
:4002000040F0200000F028FD44F0300000F024FD022000F03FFB04F0EF0040F0200000F01BFD10BD10B504460009FFF7E7FF04F00F00FFF7E3FF10BD08B5502000F02AFBB2
:400240000320FFF7BDFF0A2000F024FB0320FFF7B7FF1E2000F01EFB0320FFF7B1FF022000F018FB0220FFF7ABFF0A2000F012FB0620FFF7B9FF0E20FFF7B6FF2820FFF798
:40028000B3FF0820FFF7B0FF0120FFF7ADFF0C20FFF7AAFF0320FFF7A7FF0A2000F0FAFA08BD00BF08B50120FFF79EFF012000F0F1FA08BD08B500F00300032819D8DFE81B
:4002C00000F002070D1381F08000FFF78DFF08BDA1F14000C0B2FFF787FF08BDA1F16C00C0B2FFF781FF08BDA1F12C00C0B2FFF77BFF08BD38B505460078012404E0FFF769
:4003000091FF285D0134E4B20028F8D138BD00BF10B584B000238DF80E30092211E0144BA3FB0013DB081C4603EB83035900431ADBB2303304A9114401F80C3C2046013AEA
:40034000D2B20928EBD80A4BA3FB0013DB0803EB83035900431ADBB2303304A9114401F80C3C01AB9818FFF7C5FF04B010BD00BFCDCCCCCC08B5FFF755FF08BD38B5044635
:400380000309054DE85CFFF7F5FF04F00F04285DFFF7F0FF38BD00BF4C2000000000000070B50546002000F00BFA00F015FA28800023AB7010F0010301D00122AA701BB1D8
:4003C000AA7842F00202AA701BB1AB7843F00403AB70AB7813B10023AB8070BDC0088408E401A4B200F0030000EB800000EB80000443A4B2AC80E00901F046F9064604F06B
:400400007F0000F0BFFD06A3D3E9002300F020FE01F030F80146304601F082F8A86070BD7B14AE47E17A843FFEE700BFF0B40022174611E050F82760F3B226F0FF0608E0B4
:4004400001EB420511F812406D78A5550132013BDBB2002BF4D10137172FEBD9F0BC7047064B1B78DBB203F00701054A11701B09013213704422034B1A707047CF0100495A
:400480006E5800407658004008B50A46002101F086F908BD38B50B22254B1A801823254A1370192502321580023213700222224B1A7008224FF040231A70032103F50073B6
:4004C00019701E4B1B78DBB21D490B701D4B1A8041F25122023B1A8000240CE01A4B1B7803F0010343EA440404F003044FF4F07000F0E6FB013D0DB1032CEFD115B90320CB
:40050000FFF792FF114B4FF480721A8007221A7000220F490A704820023108701A700222033B1A700B4A137843F00303137038BD8040004082400040004300400801004971
:40054000A146004022420040254200400440004006400040A243004008B501F015F908BD38B572B6354A137843F00403137000240CE0334D630019194A0011462A440846FB
:4005800091882858FFF780FF0134E4B2072CF0D900240BE02A48A20011194B0003441A8F596B186BFFF7D8FF0134E4B2012CF1D924494FF09040FFF739FF234A137843F033
:4005C000020313701032137843F0020313701F4C237843F040032370A2F58632513A137843F0100313700A2219491A48FFF7B4FF0A2219491948FFF7AFFF08221849194896
:40060000FFF7AAFF082218491848FFF7A5FF184A137843F008031370164D61232B70FFF739FF81232B700122134B1A70FFF718FF0E2221461148FFF78FFF38BDE84600400A
:400640005C2000006000004803500140A0430040E0050048C0510040EC050048F0510040F8050048125100400006004832510040224300400048004004000840B0430040C2
:4006800008B501F055F803680C2B00D1FEE7FEE708B5094B1A681044084BC31A802B02DC054B186005E001F043F80C2303604FF0FF32104608BD00BFCC80FF1F9881FF1F0C
:4006C00008B5104E104D16E029686B68AC68002204E051F8040B43F8040B0432A242F8D1E868002203E0002143F8041B04328242F9D11035013E002EE6D101F01FF8FFF78E
:40070000F1FCFEE701000000FC20000008B5104A104B1A60104A136843F40073136000230AE0032B03D80D4A52F8231000E00C490C4A42F8231001332F2BF2D90A4B1A78CA
:400740000A4B1A70074A0A4B1A60FFF709FF08BD0004FA050CED00E014ED00E000000000810600000080FF1FBC760040C080FF1F08ED00E008B500F0ABFA0A4A137843F0CC
:40078000200313700332137843F010031370063A137843F01003137000F09EFA00F06AF808BD00BF98650040014B1878704700BF6B650040014B1878704700BF656500401D
:4007C000034B1B7813F0040FFAD0024B188070476B65004044650040014B188880B270475465004008B501E00E4B1B880E4B1B7813F0200FF8D100F06BFA0C4B1A7842F0E4
:4008000001021A701A7802F0FE021A7001331A7842F001021A701A7802F0FE021A7000F05BFA08BD54650040656500409465004008B51F22064B1A70FFF7D4FFFFF7B4FFF9
:40084000FFF7B8FF0023034A1370063A137008BD886500408B65004008B5054B1B7823B9FFF7E6FF0122024B1A70FFF783FF08BD6681FF1F054A137843F00103137010328A
:40088000137843F001031370704700BFA243004001BE704710B5044605E0084B186800F00FFAA4F50044B4F5004FF6D8034B586800FB04F000F004FA10BD00BFD080FF1F9A
:4008C00070B504460E46074B1D681F2802D90020FFF7DEFF04F01F04103455F8240045F8246070BD08ED00E038B504460D46072902D90020FFF7CCFF1F2C02D90020FFF708
:40090000C7FF04F01F0000F1604000F564406D01EDB2057038BD00BF08B512490020FFF7CFFF07210020FFF7DFFF00220E4B1A7072220E4B1A702022A3F580731A700C493E
:400940000120FFF7BDFF07210120FFF7CDFF0622084B1A70472210331A700222B03B1A7008BD00BF4D0B00006781FF1F89650040E50B00002865004010B500F0A9F9044657
:400980000E4A137843F020031370A2F58072137843F0100313700A4A0123136009490B7843F010030B70022307490B60136000F045F9204600F090F910BD00BF99650040F3
:4009C00000E100E09864004080E200E008B5054B5B7823B9FFF7A0FF0122024B5A70FFF7CBFF08BD6781FF1F0122134B1A60134A9378DBB2D178C9B2127912F0FF0F01D181
:400A00008B4211D00E4AD05CC0B20133DBB2042B00D90023094A9370137913F0FF0F06D00022064B1A7102E0064B1878C0B20122054B1A60704700BF80E100E06781FF1F80
:400A40007C81FF1F4965004000E100E010B50123064A1360064A147800211170054A13602402FFF7C1FF204380B210BD80E100E06781FF1F00E100E0164BD9799B79DBB226
:400A8000994205D25A1E914214BF0022012204E0CA1A0F2A14BF00220122002AECD1994207D10D4B1B7813F0040F02D10B4B187070470F2900D90021094B58540131054B51
:400AC000D971054B1B7813F0020F02D00222054B1A6070476781FF1F68640040486400408481FF1F00E200E038B5074B5B782BB938BDFFF7C1FF0134A4B201E005460024DF
:400B0000285D0028F5D138BD6781FF1F08B500F0DFF80A4B1A7842F001021A701A7802F0FE021A7000F0D8F80223054A1360054A00219171D171044A136008BD98640040F2
:400B400080E100E06781FF1F00E100E01D4B1B78DBB213F01E0F05D01B4803F01E0201780A43027003F0200303F0FF0233B3174B1978C9B2164B1B78DBB21648C154164B7F
:400B80001B7813F0FF0F02D00121144B197010490B780133DBB20B700B78DBB2042B02D900210B4B19700A4B1978C9B20C4B1B78DBB2994202D10121074B1970002AC5D140
:400BC000704700BF696400406781FF1F496500406A81FF1F7C81FF1F6B81FF1F6C81FF1F6981FF1F13E0104B1B78DBB20F2B02D900220D4B1A700C4A1378DBB20B49CB5CCD
:400C0000DBB20B490B7013780133DBB21370064B1B78DBB2074A1278934204D0064B1B7813F0040FDFD070476D81FF1F8481FF1F486400406E81FF1F68640040054A137826
:400C400043F0020313701032137843F002031370704700BFA2430040014B1870704700BF75650040014B1B689864704708ED00E04001C0B2014B1870704700BF02E400E018
:400C80000422014B1A60704700E100E00422014B1A60704780E100E010B50446FFF7F6FF2046FFF7DFFF0720FFF7E2FFFFF7E8FF10BD00BF0422014B1A60704780E200E06C
:400CC0000230800803D000BF01380046FCD17047EFF3108072B6704780F31088704700BF81F0004102E000BF83F0004330B54FEA41044FEA430594EA050F08BF90EA020F02
:400D00001FBF54EA000C55EA020C7FEA645C7FEA655C00F0E2804FEA5454D4EB5555B8BF6D420CDD2C4480EA020281EA030382EA000083EA010180EA020281EA0303362DD4
:400D400088BF30BD11F0004F4FEA01314FF4801C4CEA113102D0404261EB410113F0004F4FEA03334CEA133302D0524263EB430394EA050F00F0A780A4F10104D5F1200EDD
:400D80000DDB02FA0EFC22FA05F2801841F1000103FA0EF2801843FA05F359410EE0A5F120050EF1200E012A03FA0EFC28BF4CF0020C43FA05F3C01851EBE37101F00045F7
:400DC00007D54FF0000EDCF1000C7EEB00006EEB0101B1F5801F1BD3B1F5001F0CD349085FEA30004FEA3C0C04F101044FEA445212F5800F80F09A80BCF1004F08BF5FEA16
:400E0000500C50F1000041EB045141EA050130BD5FEA4C0C404141EB010111F4801FA4F10104E9D191F0000F04BF01460020B1FA81F308BF2033A3F10B03B3F120020CDAED
:400E40000C3208DD02F1140CC2F10C0201FA0CF021FA02F10CE002F11402D8BFC2F1200C01FA02F120FA0CFCDCBF41EA0C019040E41AA2BF01EB0451294330BD6FEA0404FE
:400E80001F3C1CDA0C340EDC04F11404C4F1200220FA04F001FA02F340EA030021FA04F345EA030130BDC4F10C04C4F1200220FA02F001FA04F340EA0300294630BD21FA38
:400EC00004F0294630BD94F0000F83F4801306BF81F480110134013D4EE77FEA645C18BF7FEA655C29D094EA050F08BF90EA020F05D054EA000C04BF1946104630BD91EA8C
:400F0000030F1EBF0021002030BD5FEA545C05D14000494128BF41F0004130BD14F580043CBF01F5801130BD01F0004545F0FE4141F470014FF0000030BD7FEA645C1ABF3B
:400F4000194610467FEA655C1CBF0B46024650EA013406BF52EA033591EA030F41F4002130BD00BF90F0000F04BF0021704730B54FF4806404F132044FF000054FF0000102
:400F800050E700BF90F0000F04BF0021704730B54FF4806404F1320410F0004548BF40424FF000013EE700BF42004FEAE2014FEA31014FEA02701FBF12F07F4393F07F4F81
:400FC00081F06051704792F0000F14BF93F07F4F704730B54FF4607401F0004521F0004120E700BF50EA010208BF704730B54FF000050AE050EA010208BF704730B511F0F3
:40100000004502D5404261EB41014FF4806404F132045FEA915C3FF4DCAE4FF003025FEADC0C18BF03325FEADC0C18BF033202EBDC02C2F1200300FA03FC20FA02F001FAE0
:4010400003FE40EA0E0021FA02F11444C1E600BF70B54FF0FF0C4CF4E06C1CEA11541DBF1CEA135594EA0C0F95EA0C0F00F0DEF82C4481EA030621EA4C5123EA4C5350EA50
:40108000013518BF52EA033541F4801143F4801338D0A0FB02CE4FF00005E1FB02E506F00042E0FB03E54FF00006E1FB03569CF0000F18BF4EF0010EA4F1FF04B6F5007FAF
:4010C00064F5407404D25FEA4E0E6D4146EB060642EAC62141EA55514FEAC52040EA5E504FEACE2EB4F1FD0C88BFBCF5E06F1ED8BEF1004F08BF5FEA500E50F1000041EBAA
:40110000045170BD06F0004646EA010140EA020081EA0301B4EB5C04C2BFD4EB0C0541EA045170BD41F480114FF0000E013C00F3AB8014F1360FDEBF002001F0004170BD53
:40114000C4F10004203C35DA0C341BDC04F11404C4F1200500FA05F320FA04F001FA05F240EA020001F0004221F0004110EBD37021FA04F642EB06015EEA430E08BF20EA99
:40118000D37070BDC4F10C04C4F1200500FA04F320FA05F001FA04F240EA020001F0004110EBD37041F100015EEA430E08BF20EAD37070BDC4F1200500FA05F24EEA020E73
:4011C00020FA04F301FA05F243EA020321FA04F001F0004121FA04F220EA020000EBD3705EEA430E08BF20EAD37070BD94F0000F0FD101F00046400041EB010111F4801F98
:4012000008BF013CF7D041EA060195F0000F18BF704703F00046520043EB030313F4801F08BF013DF7D043EA0603704794EA0C0F0CEA135518BF95EA0C0F0CD050EA4106AC
:4012400018BF52EA4306D1D181EA030101F000414FF0000070BD50EA410606BF1046194652EA430619D094EA0C0F02D150EA013613D195EA0C0F05D152EA03361CBF104623
:4012800019460AD181EA030101F0004141F0FE4141F470014FF0000070BD41F0FE4141F4780170BD70B54FF0FF0C4CF4E06C1CEA11541DBF1CEA135594EA0C0F95EA0C0FA3
:4012C00000F0A7F8A4EB050481EA030E52EA03354FEA013100F088804FEA03334FF0805545EA131343EA12634FEA022245EA111545EA10654FEA00260EF000419D4208BF60
:40130000964244F1FD0404F5407402D25B084FEA3202B61A65EB03055B084FEA32024FF480104FF4002CB6EB020E75EB030E22BFB61A754640EA0C005B084FEA3202B6EBDF
:40134000020E75EB030E22BFB61A754640EA5C005B084FEA3202B6EB020E75EB030E22BFB61A754640EA9C005B084FEA3202B6EB020E75EB030E22BFB61A754640EADC0072
:4013800055EA060E18D04FEA051545EA16754FEA06164FEAC30343EA52734FEAC2025FEA1C1CC0D111F4801F0BD141EA00014FF000004FF0004CB6E711F4801F04BF0143D2
:4013C0000020B4F1FD0C88BFBCF5E06F3FF6AFAEB5EB030C04BFB6EB020C5FEA500C50F1000041EB045170BD0EF0004E4EEA113114EB5C04C2BFD4EB0C0541EA045170BD6E
:4014000041F480114FF0000E013C90E645EA060E8DE60CEA135594EA0C0F08BF95EA0C0F3FF43BAF94EA0C0F0AD150EA01347FF434AF95EA0C0F7FF425AF104619462CE7D9
:4014400095EA0C0F06D152EA03353FF4FDAE1046194622E750EA410618BF52EA43067FF4C5AE50EA41047FF40DAF52EA43057FF4EBAE12E74FEA4102B2F1E04324BFB3F524
:40148000001CDCF1FE5C0DD901F0004C4FEAC0024CEA5070B2F1004F40EB830008BF20F00100704711F0804F21D113F13872BCBF01F00040704741F480114FEA5252C2F17D
:4014C0001802C2F1200C10FA0CF320FA02F018BF40F001004FEAC1234FEAD32303FA0CFC40EA0C0023FA02F34FEA4303CCE77FEA625307D150EA01331EBF4FF0FE4040F419
:401500004000704701F0004040F0FE4040F40000704700BF80F0004002E000BF81F0004142001FBF5FEA410392EA030F7FEA226C7FEA236C6AD04FEA1262D2EB1363C1BFA4
:40154000D218414048404140B8BF5B42192B88BF704710F0004F40F4000020F07F4018BF404211F0004F41F4000121F07F4118BF494292EA030F3FD0A2F1010241FA03FCD0
:4015800010EB0C00C3F1200301FA03F100F0004302D5494260EB4000B0F5000F13D3B0F1807F06D340084FEA310102F10102FE2A51D2B1F1004F40EBC25008BF20F0010031
:4015C00040EA03007047490040EB000010F4000FA2F10102EDD1B0FA80FCACF1080CB2EB0C0200FA0CF0AABF00EBC25052421843BCBFD0401843704792F0000F81F40001BB
:4016000006BF80F400000132013BB5E74FEA41037FEA226C18BF7FEA236C21D092EA030F04D092F0000F08BF0846704790EA010F1CBF0020704712F07F4F04D1400028BF6B
:4016400040F00040704712F100723CBF00F50000704700F0004343F0FE4040F4000070477FEA226216BF08467FEA23630146420206BF5FEA412390EA010F40F480007047A7
:401680004FF0000304E000BF10F0004348BF40425FEA000C08BF704743F0964301464FF000001CE050EA010208BF70474FF000030AE000BF50EA010208BF704711F0004373
:4016C00002D5404261EB41015FEA010C02BF84460146002043F0B64308BFA3F18053A3F50003BCFA8CF2083AA3EBC25310DB01FA02FC634400FA02FCC2F12002BCF1004F59
:4017000020FA02F243EB020008BF20F00100704702F1200201FA02FCC2F1200250EA4C0021FA02F243EB020008BF20EADC707047014B1868704700BF4081FF1F0E4B70B5C1
:401740001E460E4C0025E41AA410A54204D056F8253098470135F8E700F0BEFC084B094C1E46E41AA4100025A54204D056F8253098470135F8E770BDE4200000E42000006E
:40178000E4200000EC20000010B5431E0A44914204D011F8014B03F8014FF8E710BD03460244934202D003F8011BFAE7704700000EB400B54FF402719CB0ADF814106FF02C
:4017C0000041049107914FF6FF711DAB02900690084853F8042BADF81610006802A9019300F064F8029B00221A701CB05DF804EB03B070474081FF1F2DE9F0478E688246A1
:401800009E420C46914698463ED88A8912F4906F3AD02568096902236F1A656905EB450595FBF3F57B1C43449D4238BF1D4653050FD5294600F040FB064698B13A46216990
:40184000FFF7A2FFA38923F4906343F08003A38113E02A4600F08EFB064670B92169504600F0DEFA0C23CAF80030A3894FF0FF3043F04003A381BDE8F08726613E44266088
:4018800046466561ED1BA560464528BF464649463246206800F0A8FAA36800209B1BA36023681E442660BDE8F08700002DE9F04F9DB003938B8980461C060D4616460DD572
:4018C0000B695BB9402100F0F7FA2860286118B90C23C8F80030CDE040236B610023099320238DF82930DFF89CB130238DF82A3037463C4614F8013B1BB9B7EB060910D05F
:4019000003E0252BF9D02746F3E74B46324629464046FFF771FF013000F0A780099B4B4409933B78002B00F0A08000234FF0FF3204930793059206938DF853301A9301262B
:40194000052221784E4800F041FA671C049B38B14B4A3C46801A06FA00F018430490EFE7D90644BF20228DF853201A0744BF2B228DF8532022782A2A03D0079A00210A2043
:401980000BE0039A111D12680391002A10DA524243F00200079204900BE027463B780134303B092B03D800FB02320121F5E701B107923B782E2B1ED17B782A2B0AD1039B6B
:4019C00002371A1D1B680392002BB8BF4FF0FF33059310E0002319460593781C0A2407463A780130303A092A03D804FB01210123F5E703B1059103223978224800F0E6F9C6
:401A000040B14023CBEB000003FA00F0049B013718430490397806221B487E1C8DF8281000F0D4F988B1194B33B9039B073323F007030833039314E003AB00932A46144B46
:401A400004A94046AFF3008007E003AB00932A460F4B04A9404600F093F8B0F1FF3F824603D0099B5344099342E7AB895B0601D4099801E04FF0FF301DB0BDE8F08F00BFED
:401A8000A2200000A8200000AC20000000000000F91700002DE9F04791461F460A698B6806469342B8BF1346C9F8003091F843200C46DDF8208012B10133C9F800302368C9
:401AC000990642BFD9F800300233C9F80030256815F0060510D104F1190A07E00123524639463046C04701301AD00135E368D9F800209B1A9D42F1DB94F843302268003341
:401B000018BF012392060FD5E118302081F843005A1C94F845102244023382F8431003E04FF0FF30BDE8F08704F1430239463046C0470130F4D02268D9F80050E36802F0EA
:401B40000602042A08BF5D1B2269A3680CBF25EAE57500259342C4BF9B1AED184FF000091A344D4509D00123224639463046C0470130D5D009F10109F3E70020BDE8F08776
:401B80002DE9F04317460A7E85B06E2A984606460C460C9B01F1430E00F0AE8011D8632A22D009D8002A00F0BB80582A40F0CA8081F84520834955E0642A1ED0692A1CD032
:401BC000C0E0732A00F0B08009D86F2A2ED0702A40F0B8800A6842F020020A603EE0752A24D0782A3AD0ADE01A6801F14205111D1960136884F84230A8E021681A6811F095
:401C0000800F02D0111D196008E011F0400F02F10401196002D0B2F9003000E01368002B3CDA2D225B4284F8432037E021681A6811F0800F02D0111D196007E011F0400F7D
:401C400002F10401196001D0138800E01368227E5C496F2A14BF0A2208221BE078225A4984F845202268186812F0800F00F104051D6003D1550601D5038800E00368D00748
:401C800044BF42F0200222601BB9226822F0200222601022002084F8430001E049490A226568002DA56008DB206820F0040020602BB9002D7DD175460CE0002B79D0754654
:401CC000B3FBF2F002FB1033CB5C05F8013D03460028F5D1082A0BD12368DA0708D5236962689A42DEBF302305F8013C05F1FF35C5EB0E0323612EE008681A6810F0800FCA
:401D0000496903D0101D1860136808E010F0400F02F104001860136801D0198000E0196000232361754616E01A68111D1960156800216268284600F049F808B1401B6060BE
:401D4000636804E004F1420584F8422001232361002384F84330CDF800803B4603AA21463046FFF797FE013002D14FF0FF3026E023692A4639463046C0470130F5D0236814
:401D80009B0710D5002504F1190907E001234A4639463046C0470130E7D00135E368039A9B1A9D42F2DBE068039B9842B8BF184605E00B7804F1420584F842308AE705B015
:401DC000BDE8F083B3200000C420000010B5C9B202449042034605D01C7801308C42F8D1184610BD002010BD884210B501EB020301D8421E0BE09842FBD28118D21AD34245
:401E000004D013F8014D01F8014DF8E710BD994204D011F8014B02F8014FF8E710BD000038B50546002944D051F8043C0C1F002BB8BFE41800F0D4F81E4A1368114613B9FF
:401E40006360146030E0A3420DD92268A018834201BF18685B681218226063600C6023E0A24203D813465A68002AF9D118681918A1420BD12168014458188242196013D1CB
:401E800010685268014419605A600DE002D90C232B6009E021686018824201BF106852680918216062605C602846BDE8384000F098B838BD7481FF1F70B5CD1C25F0030538
:401EC00008350C2D38BF0C25002D064601DBA94202D90C23336046E000F082F8234B1C681A462146A1B10B685B1B0ED40B2B03D90B60CC18CD501EE08C420BBF63684B686F
:401F00001360636018BF0C4615E00C464968E9E7174C23681BB9304600F052F820602946304600F04DF8431C18D0C41C24F00304A0420DD12560304600F053F804F10B0036
:401F4000231D20F00700C31A0ED05A42E25070BD211A304600F034F80130EBD10C233360304600F03EF8002070BD00BF7481FF1F7081FF1FF8B5074615460E4621B9114634
:401F8000BDE8F840FFF798BF1AB9FFF749FF2846F8BD00F027F885420ED929463846FFF78BFF044650B131462A46FFF7EDFB31463846FFF735FF01E03046F8BD2046F8BD43
:401FC00038B5064C0023054608462360FEF760FB431C02D1236803B12B6038BD9481FF1F7047704751F8040C0028BEBF091851F8043CC01804387047000000004552524FD6
:4020000052455320202020202020200020202020202020202020202020202020202000004552524F5245530A0D00000054454D503A200000646567430000000053503A203D
:402040002020000025642E25640A0D003031323334353637383941424344454600510040100020510040100040510040300000000140001080140140800700400140000A8C
:40208000004C0140000200500140200060520040580500480600001401406005004880004300232D302B2000686C4C006566674546470030313233343536373839414243BC
:4020C000444546003031323334353637383961626364656600000000F8B500BFF8BC08BC9E4670474D0000000D070000F8B500BFF8BC08BC9E4670472900000010210000F6
:40210000C880FF1F800000005000000000000000000000009881FF1F0000E02EC05D00001800000000366E010000000000000000000000000000000000000000000000004A
:402140000000000000000000A0200000000000000000000000000000000000000000000000000000000000000000000000000000000000000000000000000000000000009F
:402180000000000000000000E080FF1F00000000000000000000000000000000000000000000000000000000000000000000000000000000000000000000000000000000A1
:4021C00000000000000000000000000000000000000000000000000000000000000000000000000000000000000000000000000000000000000000000000000000000000DF
:40220000000000000000000000000000000000000000000000000000000000000000000000000000000000000000000000000000000000000000000000000000000000009E
:40224000000000000000000000000000000000000000000000000000000000000000000000000000000000000000000000000000000000000000000000000000000000005E
:40228000000000000000000000000000000000000000000000000000000000000000000000000000000000000000000000000000000000000000000000000000000000001E
:020000040003F7
:0200000480007A
:400000000352004002640040026500400107014050080140330901402D1401404C150140091701405F18014042190140491A01404C1B0140064001400241014002420140CA
:4000400002430140024701400848014014490140014C0140074D01400550014001510140189019547804880F8938881F8972EE40010903100510070C111C13021540170346
:400080001D0C1F11212025102914331F352037403F504024410145E047CB483249FF4AFF4BFF4EF04F44500C5401560459045A045B045C105D115F0166C06A406B02831C49
:4000C0008473860C8A328C408D5C8F03904D9212940C980499619B169D619F0EA008A47FA708AA40AC4FAE20AF23B001B10FB27CB360B60EB71AB908BA08BBA2BE01BF04B9
:40010000D418D604D804D904DB04DC11DD10DF010018014009080A8410031326182019011B8020402110228623042402260427082A402B212C802F28328033503686384075
:4001400039013D033E08464847504C804D02570A5A025D825F186080615066018C139E01B601C007C20EC40FCAEACCDCCEC9D0B0D6F1D88DEE408704896D8B1291189546A6
:4001800097219B03AD32AF4CB140B507B738B980C023C101C240C406C50FC6DCC7EBC83DC9FFCAFFCBFFCC23CEF0CF0CD004D440D904DA04DB04DF01E2C0E440E501E610B5
:4001C000E711E8C0E901EB11EC40ED01EE40EF010014014109180A400B021004119019061A402018230826222702280429022A802E40311833403620370A380439413C10AD
:400200003F0840284342442845084640474848084C084F04555256805704650467056C026D046E206F8075A081B08381840685028610880889468A408B028C148E028F4016
:400240009151930299109F02A008A940C00FC20FC403CA1DCCEECE6BD0FFD224D870E002E220E402E610EE048110830185118B028C08E228E410E60CEE0101400315110A0D
:40028000133419331B0C1D331F0423082D032F143160330F351039023B083F104006464049FF4A074BFF4C404D204EF04F0550085602572859045A045B045C105D015F01E1
:4002C000604061A8624063208201853089018A028D208F14950199309F01A201A302A510A602A72CAF01B130B308B402B501B601B706B920BE50BF40C063C102C205C40197
:40030000C5C0C70EC812C9FFCAFFCBFFCC62CDA0CEF0CF41D00CD602D713D804D904DA04DB04DC10DD11DF01E640E702E910EA30EB10ED10EE10EF1200020388108012208F
:40034000195020412220232025012718282129022D012F02325836823710384039243F0240114110420848854E045308572159016720682869046A606C016E297054710890
:400380007204730276018001861191219208941095409686980199019DD09F32A282A382A404A509A721A880B312C00AC40CCA9BCCBECE8ED00ED22CD601D8400001020664
:4003C000050C09040C040D080E01100811221573170C18021A011B731D0F1F702133240F257F280F29112D0C2F73300731303208350F374C3BA0580459045C115F01823014
:400400008502871888028A1D8C308D0D910193129430950D98309C309D029F0DA043A10DA20CA441A50DA61AA843A912AA14AB04AD0DB040B10FB41FB620B710BA20BB0279
:40044000BE41BF40D409D804D904DB04DF0100400102020204020590068108200A400C040E2D102815141702181019021A201D101E021F51200822412640274028012902A3
:400480002A082B042D902E052F04325A3404374238A83D043E8048044A085E825F246702850487048B648C208D408E018F0690EA9241941095409682972098019A099C2005
:4004C0009D02A028A214A404A608AA04B580B708C0D9C2EAC476CAFFCCDFCE5ED6F0D810E090E420E6C03240330135806A806B01CC7096809D8096809D809680B5808D02D3
:40050000E002070457088B088F04AA40C080D440EE8052085A085B405C086080671071028008820883408604871088808D02D4A0D6C0D8C0DC80E230E6B099021280750241
:400540008E809902C408DE04E20200020C0210031A011C03003F00008080000040000000321900003219000003000C003219000001001400031E18010018200102113002A7
:40058000000400190000000030010218021800041F002011000F00000200003000000400230140000600000000FFFFFF0200700C040000000000000004040400000000012A
:4005C0000000C00040011011C00100114001400100000000000000000000000000000000800040828200820000000000040008040000040000000000000B0B000000000015
:4006000000FCFC00FC0000000000000000000000000000000000000000000000000000000000000000000000000000000000000000000000000000000000000000000000C6
:40064000000000000000000000000000000000000000000000000000000000000000000000000000000000000000000000000000000000000000000000000000000000007A
:40068000000000000000000000000000000000000000000000000000000000000000000000000000000000000000000000000000000000000000000000000000000000003A
:4006C00000000000000000000000000000000000000000000000000000000000000000000000000000000000000000000000000000000000000000000000000000000000FA
:4007000000000000000000000000000000000000000000000000000000000000000000000000000000000000000000000000000000000000000000000000000000000000B9
:0200000490006A
:0400000000004005B7
:0200000490105A
:04000000BC90ACAF55
:0200000490303A
:02000000810A73
:0200000490402A
:4000000000000000000000000000000000000000000000000000000000000000000000000000000000000000000000000000000000000000000000000000000000000000C0
:400040000000000000000000000000000000000000000000000000000000000000000000000000000000000000000000000000000000000000000000000000000000000080
:400080000000000000000000000000000000000000000000000000000000000000000000000000000000000000000000000000000000000000000000000000000000000040
:4000C0000000000000000000000000000000000000000000000000000000000000000000000000000000000000000000000000000000000000000000000000000000000000
:0200000490501A
:0C00000000012E16106900012E249173DF
:00000001FF