:4000000000800020110000003D0400003D04000008B5044B1A6803F53F5302331A6000F015FA00BFFA46004010B5054C237833B9044B13B10448AFF300800123237010BDE6
:400040006081FF1F00000000580C0000084B10B51BB108490848AFF300800848036803B910BD074B002BFBD0BDE81040184700BF000000006481FF1F580C0000C880FF1F0A
:400080000000000008B562B600F062FC00F008FB002304221946184600F02AFBFF2000F00DFC012000F0E4FB00F0EEFB1C4B18701F28F9D01B4B1B7898422CD00F380F28E2
:4000C00029D8DFE800F00828282828282828102828280C28141F012000F028F81BE0022000F024F817E0042000F020F813E00E4B1B78632B0FD80133D8B20B4B187000F0DC
:4001000049F808E0084B1B782BB1013BD8B2064B187000F03FF8024B1A78024B1A70C3E79881FF1FCC80FF1F7C81FF1FF8B5074600F0A4FB064600F019FC054604460CE097
:40014000E0B200F0BBFB002304221946204600F0CFFA642000F018FD013C002CF0DC46F00700384000F084FB012F12D000F0FEFB04460CE0E0B200F0A1FB002304221946A7
:40018000204600F0B5FA642000F0FEFC0134AC42F0DBF8BD10B50446C300084880FB0330400900F08BFB002304221946204600F09FFA642000F0E8FC10BD00BF1F85EB513F
:4001C000FEE700BFF0B40022174611E050F82760F3B226F0FF0608E001EB420511F812406D78A5550132013BDBB2002BF4D10137182FEBD9F0BC7047064B1B78DBB203F06D
:400200000701054A11701B09013213704422034B1A707047CF0100496E5800407658004008B50A46002100F00EFD08BD38B540F2DF122A4B1A801823294A137045F6BF5161
:40024000023211800232137044F61F62254B1A80192502331D70022203F276231A7008224FF040231A70032103F5007319701E4B1B78DBB21D490B701D4B1A8041F2512281
:40028000023B1A8000240CE01A4B1B7803F0010343EA440404F003044FF4F07000F08CFC013D0DB1032CEFD115B90320FFF788FF114B4FF480721A8007221A7000220F492C
:4002C0000A704820023108701A700222033B1A700B4A137843F00703137038BD80400040824000408840004008010049A1460040224200402542004004400040064000408E
:40030000A243004008B500F093FC08BD38B572B6344A137843F00403137000240CE0324D630019194A0011462A44084691882858FFF776FF0134E4B2062CF0D92B494FF0BE
:400340009040FFF73FFF04212948FFF769FF042228492948FFF7D6FF284A137843F0020313701032137843F002031370244C237843F040032370A2F58632513A137843F0C6
:40038000100313700A221F491F48FFF7BBFF0A221E491F48FFF7B6FF08221E491E48FFF7B1FF08221D491E48FFF7ACFF0A221D491D48FFF7A7FF1D4A137843F008031370DD
:4003C0001B4D61232B70FFF731FF81232B700122184B1A70FFF710FF0E2221461648FFF791FF38BDE84600405C0C00006400004800760040C00200480876004003500140F8
:40040000A04300408C0200480051004098020048F0510040A402004812510040AC02004822510040B402004830510040224300400048004004000840B043004008B500F07D
:40044000CBFB03680C2B00D1FEE7FEE708B5104E104D16E029686B68AC68002204E051F8040B43F8040B0432A242F8D1E868002203E0002143F8041B04328242F9D110352F
:40048000013E002EE6D100F0ADFBFFF7FBFDFEE701000000E00E000008B5114A114B1A60114A136843F40073136000230AE0032B03D80E4A52F8231000E00D490D4A42F82B
:4004C000231001332F2BF2D90B4B1A780B4B1A70084A0B4B1A60FFF719FF00F089FA08BD0004FA050CED00E014ED00E0000000003D0400000080FF1FBC760040C080FF1FD4
:4005000008ED00E010B54FF4804341F6FF720121084600F031FA424B1870FF2808D13FE000F0F6FA3E4B234418710134E4B200E00024072CF4D9002419E014F0010F0AD180
:40054000374A1019631C1A44052312790121007900F0F8FA09E0324A1019631C1A44012312791946007900F0EDFA0134E4B2062CE3D92B48012302791946C07A00F0E2FACB
:4005800000240BE0264B23442649214446F2784289B2187900F0EAFA0134E4B2072CF1D94FF4804341F6FF720121084600F002FA1B4B1873FF2808D110BD00F0A9FA184B68
:4005C000234418740134E4B200E00024032CF4D900230AE0124AD0185C1C22440523127C0121007C00F0AEFAE3B2022BF2D90C480523027C0121C07C00F0A4FA00240BE0A0
:40060000074B23440849214446F2794289B2187C00F0ACFA0134E4B2032CF1D910BD00BF8081FF1FD080FF1F9C81FF1F10B5094C2179207800F03EFA217C207B00F03AFA0B
:400640000121207800F0EEF90121207B00F0EAF910BD00BF8081FF1F08B5FFF7E7FF0122014B1A7508BD00BF8081FF1F002304E00021034AD1540133DBB2032BF8D9704763
:400680009C81FF1F08B5FFF7F1FF044B5B7D23B9FFF738FF0122014B5A7508BD8081FF1F08B5054B9B7D23B9FFF7ECFF0122024B9A75FFF7D1FF08BD8081FF1F00F00F0000
:4006C000014B185C704700BF880C000000F00F0300090238C0B2052805D8044A02EB00100344187C70470020704700BF880C00002DE9F04782B00D4614461F460023009321
:40070000019303290AD9072903D80D1FEDB2012605E0A1F10805EDB2022600E00026002803DB02464FF0000802E042424FF00108234614E04C48A0FB0210C008814600EB6D
:4007400080004100501A03F1FF3AC0B2FFF7B6FF02AB534403F8080C4A465FFA8AF3002BE8D1022F32D1B8F1000F33D02D20FFF7ADFF8DF800002DE0994602A9194411F807
:40078000081C3F2915D0B8F1000F23D03BB92D20FFF79CFF02AB994409F8080C1AE003F1FF382D20FFF792FF02AB434403F8080C10E0611E8A4206D002A98944002109F8C5
:4007C000081C0132D2B20133DBB201E000221346A342D1D3012F42D114E002AA1A4412F8082C62B1032D08D816B1022E03D804E01E494A5501E01D494A550135EDB201332B
:40080000DBB200E00023A342E7D30CE016B1022E04D806E00022154B5A5502E00022134B5A550135EDB2A542F0D31AE06319013B032B12D816B1022E08D80EE0621E02A969
:400840000A4412F8081C094AD15406E0621E02A90A4412F8081C054AD154013CE4B2002CE4D102B0BDE8F087CDCCCCCC9C81FF1F014B1870704700BF72640040014B187859
:40088000704700BF72640040014B1878704700BF69640040024A137843F080031370704773640040014B1870704700BF03640040014B1870704700BF43640040014B187079
:4008C000704700BF23640040014B1870704700BF83640040014B1878704700BF63640040014B1878704700BF5364004008B501E0FFF7F6FFFFF7EEFF10F0100FF8D108BD8F
:4009000010B5114A137803F0C00343F00B0313700E4C237843F001032370FF20FFF7C2FFFF20FFF7C5FF0020FFF7C8FF0020FFF7CBFF00F049F9237843F01003237000F0D1
:4009400047F9FFF7D3FF10BD736400409364004008B5054B1B7823B9FFF7D2FF0122024B1A70FFF797FF08BD9781FF1F014B1878704700BF23640040F0B583B016461F46DE
:400980000B4D00242C700194009423460A460146204600F09BF83A463146287800F070F80221287800F05AF8287803B0F0BD00BFE080FF1FF0B583B016461F460B4C0125C6
:4009C00025700023019300932B460A460146284600F07CF83A463146207800F051F80221207800F03BF8207803B0F0BDE180FF1F0B4A7F2313708021517007E0DA0002F191
:400A0000804202F5F042013BDBB21370002BF5D1DB0003F1804303F5F04300221A707047E480FF1F172815D831B103010A495A5C42F020025A5405E0030107495A5C02F0EE
:400A4000DF025A540001044A835C43F00103835400207047012070471070004017280BD80001064A835C03F0F103490001F00E01194381540020704701207047107000401A
:400A800041F6FF73994201D14FF4005141F6FF739A4201D14FF40052172808D8C00000F1804000F5EC408180C280002070470120704700BF172805D8034B03EB00104172E3
:400AC00000207047012070471070004017281BD810B4C00000F1804404F5EC44D201D2B201F07F01114321709DF804201201D2B203F00F03134363709DF8083003F00F03F6
:400B0000A3700020E07001E00120704710BC704710B500F059F80A4B5B78182B0BD9084A1478013B5370E30003F1804303F5F0431B78137000E0FF2400F04AF8204610BD81
:400B4000E480FF1F10F0800F0CD111F4704F0BD1C00000F1804000F5F04001808270C37000207047012070470120704710F0800F08D1C00000F1804000F5F0408180C280E3
:400B8000002070470120704710B5044605E0084B186800F011F8A4F50044B4F5004FF6D8034B586800FB04F000F006F810BD00BFEC80FF1F000000000230800803D000BFD6
:400BC00001380046FCD17047EFF3108072B6704780F31088704700BF014B1868704700BF5C81FF1F0E4B70B51E460E4C0025E41AA410A54204D056F8253098470135F8E77E
:400C000000F05CF9084B094C1E46E41AA4100025A54204D056F8253098470135F8E770BDC80E0000C80E0000C80E0000D00E000010B5431E0A44914204D011F8014B03F842
:400C4000014FF8E710BD03460244934202D003F8011BFAE77047000000000000405100403000C0510040100000000140001000140140000800400140000A004C0140000269
:400C800000500140200000003F065B4F666D7D077F6F777C395E7971000000000000000000000000004080003F065B4F666D7D077F6F00000048000000777C585E79713DCF
:400CC00074101E763855545C7367506D781C1C1D766E5B000000000800777C585E79713D74101E763855545C7367506D781C1C1D766E5B0000000000240000000000000008
:400D000000000012001200003F06DBCFE6EDFD07FFEFF78F390FF9F100000200000000000C213F00200000002400000000000000000000000000001000001200120000003D
:400D40000012000C0005090000080800120024282D1524000000000000000000000000000010000C1210000000080000120020102D15240000000000003020000000002015
:400D80000000C00000C000003F06DBCFE6EDFD07FFEF000000C8008300F78F390FF9F1BDF6091E703836363FF33FF3ED013E3036000009000000000800F7FCD8DEF9F1EF85
:400DC000F4001E7000D4D4DCF33FD0EDC01C101C000009000000000090000303030303000303034A00480303FF0C773F8CBBFB0FFF8FCF3FF33FF3C300000800000000000F
:400E00003084FF00800300009000030303030300030300000003004200034A0048030302034800310014240003202303480090A0B4549000000000000041410149814B4907
:400E40004140486A48434341094942224B408040B44981000000000000C08000000000800000000000000000FF0C773F8CBBFB0FFF8F00000030000700CF3FF33FF3C3FB29
:400E8000CC337CC0F0CCCCFFC7FFC7BB03FCC0CC00003300000000300070E060606002A1C000200000480860C19100100070407800A020000000000043000000F8B500BF9E
:400EC000F8BC08BC9E4670474D00000099040000F8B500BFF8BC08BC9E46704729000000F00E0000C880FF1F9800000040000000000000000F0000000001000200040008F3
:400F00000010002000400080FFFF00007F800000030000000000E02EC05D00001800000000366E0100000000000000000000000000000000000000000000000000000000D9
:400F400000000000B80E00000000000000000000000000000000000000000000000000000000000000000000000000000000000000000000000000000000000000000000AB
:400F800000000000FC80FF1F000000000000000000000000000000000000000000000000000000000000000000000000000000000000000000000000000000000000000097
:400FC00000000000000000000000000000000000000000000000000000000000000000000000000000000000000000000000000000000000000000000000000000000000F1
:4010000000000000000000000000000000000000000000000000000000000000000000000000000000000000000000000000000000000000000000000000000000000000B0
:401040000000000000000000000000000000000000000000000000000000000000000000000000000000000000000000000000000000000000000000000000000000000070
:401080000000000000000000000000000000000000000000000000000000000000000000000000000000000000000000000000000000000000000000000000000000000030
:020000040003F7
:0200000480007A
:4000000006520040016400402B0201401C030140050501401908014024090140100B0140020D014003150140021701400D190140071B0140064001400D41014007420140D1
:40004000094501400C460140024701400948014009490140104C0140014D0140035001400151014000140154089009C010AA1136830D5B045F019202950199019E05A4092E
:40008000A809A901AE04B001B204B408B602B701BE04C010C105C5D1C720C833C9FFCAFFCBFFCDA0CF04D018D280D405D804D904DA04DB04DF01E040E2C0E440E540E6C01B
:4000C000E8C0EAC0ECC0EEC009020A01102A19141A011B01224029103028420148224902500A59065A806D806E206F1071028610C209C407CA04CC06D008D208D60BEC0862
:40010000AB10AD40AF01EA80EC011201320158045B045C025F018E10900292019E08A204A801AA02AF01B003B204B301B410B608BE01D804D904DB04DC22DF0103020880DC
:4001400009020F40111218051B091E1022042A4059015A185B40600168046A046B826E486F847188728882409110960498809F06A404A604A781C001C219C40ACA08D60F83
:40018000D808E0048404860487808E048F04911098809F02A701A880AF02B301E002E40AEA80EC029110AD10E008E810EC02E001EC8081028D0897409E40A188A503AE8839
:4001C000B382B404B501B748E802EC8286409E40A980AF40B501E810EC01130414403B043D10C430CE6007025F2062016302670887019510AC40C080D660D8C0E610EC10BD
:40020000AA01AB02AF24B110EA60EC80EE10568057015820618062016411D403D607D8038401858087018C208E809C219E81A580A701AC10E002E40882019E0102200408E1
:40024000232083209501B101C030C840E0800101064086409501AE20B404C030E010EC4051105A025F02620466108E04912092029A10AE11B110D404D603D803E408EC045F
:40028000AB02000508010C04100A0000CC0000DCD400D4000000000003000003000000000000000000FFFF00F400000000FEFE00FE00000003000003000000000000000011
:4002C00000010000000000000000000000000000000000000000000000000000000000000000000000000000000000000000000000000000000000000000000000000000FD
:4003000000000000000000000000000000000000000000000000000000000000000000000000000000000000000000000000000000000000000000000000000000000000BD
:40034000000000000000000000000000000000000000000000000000000000000000000000000000000000000000000000000000000000000000000000000000000000007D
:40038000000000000000000000000000000000000000000000000000000000000000000000000000000000000000000000000000000000000000000000000000000000003D
:4003C00000000000000000000000000000000000000000000000000000000000000000000000000000000000000000000000000000000000000000000000000000000000FD
:0200000490006A
:0400000000004005B7
:0200000490105A
:04000000BC90ACAF55
:0200000490303A
:02000000105995
:0200000490402A
:4000000000000000000000000000000000000000000000000000000000000000000000000000000000000000000000000000000000000000000000000000000000000000C0
:400040000000000000000000000000000000000000000000000000000000000000000000000000000000000000000000000000000000000000000000000000000000000080
:400080000000000000000000000000000000000000000000000000000000000000000000000000000000000000000000000000000000000000000000000000000000000040
:4000C0000000000000000000000000000000000000000000000000000000000000000000000000000000000000000000000000000000000000000000000000000000000000
:0200000490501A
:0C00000000012E16106900012E1C20C209
:00000001FF