:400000000080002011000000090500000905000008B5044B1A6803F53F5302331A6000F07BFA00BFFA46004010B5054C237833B9044B13B10448AFF300800123237010BDE6
:400040004881FF1F00000000440A0000084B10B51BB108490848AFF300800848036803B910BD074B002BFBD0BDE81040184700BF000000004C81FF1F440A0000C880FF1F66
:400080000000000008B500F05BFC034A137843F00103137008BD00BF6481FF1FF8B562B62F4800F03FFC00F04BFC00F09FFB00F039FBFD2000F05EFC00F09CF8294800F08B
:4000C000F7F80021012000F0D3F8274800F0F0F840F6B83000F07CFA00F0C2F80024234B1B78012BFBD123F00103204A137000F003FB1F4B18550134E4B2621E9B5C2E2B1E
:40010000EDD1FE2000F036FC194F1A4E10223946304600F084FC0024F473174D1022B918284600F07CFCEC7300F09AF82146204600F09EF8304600F0BBF82146012000F0CD
:4001400097F8284600F0B4F8214603E00022084B5A5401311F29F9DDFB2000F00BFCBDE785000000480A0000580A00006481FF1F8081FF1FA081FF1F7081FF1F38B5044693
:4001800000F0DF05284600F0EFFB45F0100000F0EBFB022000F01CFA04F0CF0000F0E4FB38BD00BF10B504460009FFF7E7FF04F00F00FFF7E3FF10BD10B5044640F020009F
:4001C00000F0D2FB44F0300000F0CEFB022000F0FFF904F0EF0040F0200000F0C5FB10BD10B504460009FFF7E7FF04F00F00FFF7E3FF10BD08B5502000F0EAF90320FFF7B6
:40020000BDFF0A2000F0E4F90320FFF7B7FF1E2000F0DEF90320FFF7B1FF022000F0D8F90220FFF7ABFF0A2000F0D2F90620FFF7B9FF0E20FFF7B6FF2820FFF7B3FF08201F
:40024000FFF7B0FF0120FFF7ADFF0C20FFF7AAFF0320FFF7A7FF0A2000F0BAF908BD00BF08B50120FFF79EFF012000F0B1F908BD08B500F00300032819D8DFE800F00207BE
:400280000D1381F08000FFF78DFF08BDA1F14000C0B2FFF787FF08BDA1F16C00C0B2FFF781FF08BDA1F12C00C0B2FFF77BFF08BD38B505460078012404E0FFF791FF285D8D
:4002C0000134E4B20028F8D138BD00BFFEE700BFF0B40022174611E050F82760F3B226F0FF0608E001EB420511F812406D78A5550132013BDBB2002BF4D10137162FEBD9C5
:40030000F0BC7047064B1B78DBB203F00701054A11701B09013213704422034B1A707047CF0100496E5800407658004008B50A46002100F06CFB08BD38B54FF49C72244B2B
:400340001A80182202331A70022203F27E231A7008224FF040231A70032103F5007319701C4B1B78DBB21C490B701C4B1A8041F25122023B1A80002419250CE0184B1B780F
:4003800003F0010343EA440404F003044FF4F07000F0F6FA013D0DB1032CEFD115B90320FFF794FF0F4B4FF480721A8007221A7000220D490A704820023108701A7002225F
:4003C000033B1A70094A137843F00103137038BD8040004008010049A146004022420040254200400440004006400040A243004008B500F001FB08BD38B572B6334A13782A
:4004000043F00403137000240CE0314D630019194A0011462A44084691882858FFF786FF0134E4B2092CF0D900240CE02848A20011194B000344B3F84420196CD86BFFF7F7
:40044000D7FF0134E4B2012CF0D922494FF09040FFF73EFF204A137843F0020313701032137843F0020313701C4C237843F040032370A2F58632513A137843F010031370C6
:40048000082217491748FFF7B3FF082216491748FFF7AEFF0A2216491648FFF7A9FF164A137843F008031370144D61232B70FFF743FF81232B700122114B1A70FFF722FFD6
:4004C0000E2221460F48FFF793FF38BDE84600406C0A00005C00004803500140A043004008050048C251004010050048125100401805004830510040224300400048004057
:4005000004000840B043004008B500F049FA03680C2B00D1FEE7FEE708B5104E104D16E029686B68AC68002204E051F8040B43F8040B0432A242F8D1E868002203E0002128
:4005400043F8041B04328242F9D11035013E002EE6D100F02BFAFFF7A1FDFEE701000000E40A000008B5104A104B1A60104A136843F40073136000230AE0032B03D80D4A2C
:4005800052F8231000E00C490C4A42F8231001332F2BF2D90A4B1A780A4B1A70074A0A4B1A60FFF729FF08BD0004FA050CED00E014ED00E000000000090500000080FF1F3B
:4005C000BC760040C080FF1F08ED00E001BE704710B5044605E0084B186800F0D1F9A4F50044B4F5004FF6D8034B586800FB04F000F0C6F910BD00BFCC80FF1F70B50446AB
:400600000E46074B1D681F2802D90020FFF7DEFF04F01F04103455F8240045F8246070BD08ED00E038B504460D46072902D90020FFF7CCFF1F2C02D90020FFF7C7FF04F07F
:400640001F0000F1604000F564406D01EDB2057038BD00BF10B500F09BF904460A4A137843F0200313700232137843F0100313700122064B1A600022054B1A7000F066F9EF
:40068000204600F089F910BD9964004000E100E06581FF1F0122134B1A60134A5378DBB29178C9B2D27812F0FF0F01D18B4211D00E4AD05CC0B20133DBB20F2B00D9002398
:4006C000094A5370D37813F0FF0F06D00022064BDA7002E0064B1878C0B20122054B1A60704700BF80E100E06581FF1FB081FF1F4865004000E100E010B50123064A13606F
:40070000064A547900215171054A13602402FFF7C1FF204380B210BD80E100E06581FF1F00E100E008B500F033F90B4B1A7842F001021A701A7802F0FE021A7000F02CF910
:400740000121064B1960064B00225A709A70DA701A71044B196008BD9865004080E100E06581FF1F00E100E006490B7803F01F024301DBB213430B70034B18700022034BD3
:400780001A70704778650040DC80FF1F6581FF1F014B1870704700BF28650040014B1870704700BF3865004010B50D490020FFF725FF07210020FFF735FF0024094B5C7113
:4007C0000120FFF7D1FF2046FFF7E2FF2046FFF7E5FF7222044B1A70202202331A7010BD090800006581FF1F8964004008B5054B9B7923B9FFF7D8FF0122024B9A71FFF7DD
:4008000029FF08BD6581FF1F10B400202E4B1B78DBB213F01E0F05D02C4C03F01E0221780A43227003F0200202F0FF01002A46D0274A1278D4B2274A1278D2B2022A18D1E6
:4008400013F0010F09D013F0400F03D00122224B1A7002E00022204B1A701F4B1B7813F0FF0F0CD01D4B1B78DBB21D4AD454012005E01A4B1B78DBB2194AD4540120F0B17B
:40088000184B1B7813F0FF0F02D00122164B1A70124A13780133DBB213701378DBB20F2B02D900220D4B1A700C4B1A78D2B20F4B1B78DBB29A4202D101220A4B1A70002934
:4008C000A4D110BC704700BF6B6400406A81FF1F48650040DC80FF1F6581FF1F6781FF1FB081FF1F6881FF1F6981FF1F6681FF1F014B1B685864704708ED00E04001C0B28B
:40090000014B1870704700BF01E400E00222014B1A60704700E100E00222014B1A60704780E100E010B50446FFF7F6FF2046FFF7DFFF0720FFF7E2FFFFF7E8FF10BD00BFC9
:400940000222014B1A60704780E200E0054A137843F0010313701032137843F001031370704700BFA2430040014B1870704700BF7B650040014B1870704700BF786400400E
:400980000230800803D000BF01380046FCD17047EFF3108072B6704780F31088704700BF014B1868704700BF4081FF1F0E4B70B51E460E4C0025E41AA410A54204D056F8D9
:4009C000253098470135F8E700F07AF8084B094C1E46E41AA4100025A54204D056F8253098470135F8E770BDCC0A0000CC0A0000CC0A0000D40A000010B5431E0A44914243
:400A000004D011F8014B03F8014FF8E710BD03460244934202D003F8011BFAE77047034610B542B111F8014B013A03F8014B002CF7D11A4400E010BD934202D003F8014BEC
:400A4000FAE710BD00000000556E2073616C75646F2061206C61000067726173612121212057415A4141414100000000005100401000205100401000405100403000F051C4
:400A80000040100000000140001000140140000480180140800300400140000A004C0140000200500140200060520040800400480600001801408804004880004300000061
:400AC000F8B500BFF8BC08BC9E4670474D00000065050000F8B500BFF8BC08BC9E46704729000000F80A0000C880FF1F800000007800000000000000000000000000E02EAA
:400B0000C05D00001800000000366E01010000000000000000000000000000000000000000000000000000000000000000000000BC0A000000000000000000000000000014
:400B4000000000000000000000000000000000000000000000000000000000000000000000000000000000000000000000000000E080FF1F000000000000000000000000F7
:400B80000000000000000000000000000000000000000000000000000000000000000000000000000000000000000000000000000000000000000000000000000000000035
:400BC00000000000000000000000000000000000000000000000000000000000000000000000000000000000000000000000000000000000000000000000000000000000F5
:400C000000000000000000000000000000000000000000000000000000000000000000000000000000000000000000000000000000000000000000000000000000000000B4
:400C40000000000000000000000000000000000000000000000000000000000000000000000000000000000000000000000000000000000000000000000000000000000074
:020000040003F7
:0200000480007A
:40000000025200400264004002050140430801403E090140460A0140340B01400215014001170140101801404A1901403F1A0140411B014003400140024101400842014091
:40004000014301400148014010490140034C01400D4D01400450014001510140186819A489728B79E208E6080109020803120413050906040724093F0A010D070E030F382E
:400080001202133F141715381707180719381A101B071C041E131F3F2201233F2404253F2804293F2C022D362E012F093210340F373F38083B80580459045B045F01801F2F
:4000C0008404860288018A0C8C1092089608980F9A109C109E0FA20FA41FA810AC01AE02B61FBE40D602D712D804DB04DF010040012802900402052006200702080409062B
:400100000A010B080C210E010F10102811401204130115011604178818021D1427012C202E012F06300133033528378238C03C203D493E803F105B0469946C066F10704838
:400140007204730895419601970B9C049D249E90A010A204A420A502A601A781C0FFC2FFC4FFCAF0CCF0CEF0D602021D03FF044005FF081D0B1C0C200E050F031001116D7C
:400180001392142015FF161019DB1A1D1B241D921E021F6D20012124221C23DB241D28202A082BE02E1D3003341C366037FF38803A023E403F40580459045F018040820316
:4001C00083018440860C88408A309080943F97019A3F9E3FA215A43FAA2AAE3FB03FB301B4C0B820BA08BE10BF04D459D604D804D904DB04DF01014203280520069008180D
:4002000009820C700E6110401114120114041505160119821A801B201C201E601F1821802508280829202B803020310232403308350439143A913B093F02450846205D808E
:400240005E02662267A27A047B0886028740C07FC2FFC4FFCA05CC4FCE8FD690D8F0E232E646EE4085E789E78D209584975199019B0EA542A791B118B3C0B507B720BF011C
:40028000D904DF01044205180708081009400A040B010C080E010F0814941E011F81210A221023C324022601270428202C242EA02F94310832103509360C379139943C2023
:4002C0003D893E024404470A4E084F4A550456027410752476907710800490489194920495019601970B99109B019D209EB09F86A008A204A420A506A601A781AC02B68446
:40030000B710C0F0C2E0C470CAF2CCF6CEFED0E0D230E401E808EE40000C02010301040F0A010C081201140C160218071A081E032204260128082C04300F37013E015804C0
:4003400059045F0182088308851086208809890F8A068B108C048D018F029210930F940695049702980299019B0C9C079E089F08A110A209A30FA40FA510A806A910AA010A
:40038000AC09AD1FB207B31FB438BA28BF04D804D904DB04DF010040012802100380045005010720080809020B290C080E45100A110812801408161017821A401C101F149A
:4003C000228027202C082D402F903524378238023C103E866D826F287580760883208540870888028A088C218D8190409140920593019728992D9A829B829C20A008A106FC
:40040000A380B080B310B548C0FFC2FFC4FFCAF0CCF0CEF1E230E64033803580CC309D80A7805120858087809D80A780D420E210E610A520B5205101562058016320641002
:4004400067028301841189018E208F10D4C0D6C0D8C0E240E6608104A302AF021080128075047B0288808E809904A302C408DC01DE04E202E60100010C0110011C01000F0D
:4004800010380000400000000001040003010000000C08030200003F000A0000037F0000000C0803032200050340003F01400030007F03000003000C082000000040071F74
:4004C00000008000000001502406030005EC000433FFFFFF62A0F0410C00E000000000000404040400000001000000000000400200103010001010120000000000000000E5
:4005000000000000000000004038380038000000000B0B0000000000080000FCFC00FC000000000000000000000000000000000000000000000000000000000000000000C1
:40054000000000000000000000000000000000000000000000000000000000000000000000000000000000000000000000000000000000000000000000000000000000007B
:40058000000000000000000000000000000000000000000000000000000000000000000000000000000000000000000000000000000000000000000000000000000000003B
:4005C00000000000000000000000000000000000000000000000000000000000000000000000000000000000000000000000000000000000000000000000000000000000FB
:4006000000000000000000000000000000000000000000000000000000000000000000000000000000000000000000000000000000000000000000000000000000000000BA
:0200000490006A
:0400000000004005B7
:0200000490105A
:04000000BC90ACAF55
:0200000490303A
:02000000747416
:0200000490402A
:4000000000000000000000000000000000000000000000000000000000000000000000000000000000000000000000000000000000000000000000000000000000000000C0
:400040000000000000000000000000000000000000000000000000000000000000000000000000000000000000000000000000000000000000000000000000000000000080
:400080000000000000000000000000000000000000000000000000000000000000000000000000000000000000000000000000000000000000000000000000000000000040
:4000C0000000000000000000000000000000000000000000000000000000000000000000000000000000000000000000000000000000000000000000000000000000000000
:0200000490501A
:0C00000000012E16106900012E1B84DD8B
:00000001FF