:400000000080002011000000CD030000CD03000008B5044B1A6803F53F5302331A6000F0F5F900BFFA46004010B5054C237833B9044B13B10448AFF300800123237010BDE9
:400040004881FF1F00000000E8110000084B10B51BB108490848AFF300800848036803B910BD074B002BFBD0BDE81040184700BF000000004C81FF1FE8110000C880FF1F10
:400080000000000030B58BB062B600F04BFA00F0C9FB00F0D5FB00241DE0002000F0D8FBC8B100F0E7FB00F0F1FB054602461C49684600F075FC522000F042FA684600F0F1
:4000C00077FA722000F03CFA0AAB03EB440323F8205C013424B20E2CDFDD002002460EE00AAB03EB400333F9203C0E4981FB03411944DB17C3EBE1031A4412B201300E2810
:40010000EEDD074901A800F04BFC462000F018FA01A800F04DFA044800F04AFA0024DAE7EC11000089888888F0110000FEE700BFF0B40022174611E050F82760F3B226F0B6
:40014000FF0608E001EB420511F812406D78A5550132013BDBB2002BF4D101370E2FEBD9F0BC704708B50A46002100F010FC08BDF8B5164B1B78DBB2154E3478E4B2154F77
:400180003D78EDB203F00701134A11701B090132137044F00303337045F003033B7001220E4B1A7040230E4A13700232137010220C4B1A70202203331A700A2000F046FA0B
:4001C0003D7034704422084B1A70F8BDCF010049F8460040F94600406E5800403D51004009590040285B00407658004008B500F0C3FB08BD38B54FF49C722D4B1A8018229F
:4002000002331A7004222B492B48FFF7EFFF02222A4B1A7008224FF040231A70032103F500731970264B1B78DBB226490B70264B1A8041F25122023B1A80002419250CE02C
:40024000224B1B7803F0010343EA440404F003044FF4F07000F054FB013D0DB1032CEFD115B90320FFF762FF194B4FF480721A8007221A70002217490A704820023108700D
:400280001A700222033B1A7004220A331A70124A137843F001031370013A137843F001031370013A137843F08003137038BD00BF80400040AC01004800410040004300400E
:4002C00008010049A146004022420040254200400440004006400040A243004038B572B62B4A137843F00403137000240CE0294D630019194A0011462A4408469188285828
:40030000FFF730FF0134E4B2082CF0D922494FF09040FFF70DFF214A137843F0020313701032137843F0020313701D4C237843F040032370A2F58632513A137843F0100363
:4003400013700A2217491848FFF750FF082217491748FFF74BFF082216491748FFF746FF164A137843F008031370154D61232B70FFF740FF81232B700122124B1A70FFF7DC
:40038000F7FE0E2221461048FFF730FF38BD00BFE8460040F41100003C00004803500140A043004090010048C05100409C01004812510040A40100483251004022430040CB
:4003C0000048004004000840B043004008B500F0A7FA03680C2B00D1FEE7FEE708B5094B1A681044084BC31A802B02DC054B186005E000F095FA0C2303604FF0FF32104647
:4004000008BD00BFCC80FF1F9881FF1F08B5104E104D16E029686B68AC68002204E051F8040B43F8040B0432A242F8D1E868002203E0002143F8041B04328242F9D110354D
:40044000013E002EE6D100F071FAFFF71BFEFEE7010000008412000008B5104A104B1A60104A136843F40073136000230AE0032B03D80D4A52F8231000E00C490C4A42F8E5
:40048000231001332F2BF2D90A4B1A780A4B1A70074A0A4B1A60FFF721FF08BD0004FA050CED00E014ED00E000000000CD0300000080FF1FBC760040C080FF1F08ED00E01F
:4004C00008B50949012000F0CBF80721012000F0DBF80622054B1A70472210331A70022251331A7008BD00BFD50500002A65004010B500F00DFA0446084A137843F010034D
:4005000013700223064A1360A2F5C072136000F08DF8204600F000FA10BD00BF9B65004080E200E008B5054B1B7823B9FFF7C8FF0122024B1A70FFF7DBFF08BD6481FF1F76
:40054000164B99785B78DBB2994205D25A1E914214BF0022012204E0CA1A0F2A14BF00220122002AECD1994207D10D4B1B7813F0040F02D10B4B187070470F2900D9002146
:40058000094B58540131054B9970054B1B7813F0020F02D00222054B1A6070476481FF1F6B6500404B6500407481FF1F00E200E038B5074B1B782BB938BDFFF7C1FF0134D4
:4005C000A4B201E005460024285D0028F5D138BD6481FF1F13E0104B1B78DBB20F2B02D900220D4B1A700C4A1378DBB20B49CB5CDBB20B490B7013780133DBB21370064BFE
:400600001B78DBB2074A1278934204D0064B1B7813F0040FDFD070476581FF1F7481FF1F4B6500406681FF1F6B650040054A137843F0010313701032137843F0010313707F
:40064000704700BFA243004001BE704708B5034B1B7A00FB03F000F053F908BDD080FF1F70B504460E46074B1D681F2802D90020FFF7EAFF04F01F04103455F8240045F8A8
:40068000246070BD08ED00E038B504460D46072902D90020FFF7D8FF1F2C02D90020FFF7D3FF04F01F0000F1604000F564406D01EDB2057038BD00BF08B50A280FD00C28AF
:4006C00002D0082806D102E04FF4805209E04FF4807206E00020FFF7B7FF002201E04FF480620021094B198042F2107303FB02F303F6C413064A82FB0302DB17C3EBE22333
:40070000044A1360044B198008BD00BF8A81FF1FAD8BDB688481FF1F8881FF1F10B500F0F7F804461E4A137843F0020313701032137843F0020313701A3A137843F0010364
:4007400013701032137843F00103137002F5AA521A32137843F0030313701822114B1A70013B1A7842F040021A701A7802F0FC021A70C822053B1A700222A3F59753123B4A
:400780001A70094A137843F0080313700A20FFF75DFF0122054B1A60204600F0BDF810BDAB4300400E5900402F5B004080E200E010B504460A280DD00C2802D0082804D1C5
:4007C00001E0C22207E0422205E00020FFF73CFFC22200E08222034B1A702046FFF76CFF10BD00BF0A59004008B5102000F07CF807210020FFF748FF07490020FFF730FF12
:40080000064A137843F0060313700C20FFF7D0FF0022034B1A8008BDE5080000095900408C81FF1F08B5054B1B7823B9FFF7DCFF0122024B1A70FFF771FF08BD6881FF1F2B
:40084000024A137843F00103137070470859004010B5074B1B7813F0010401D10028F8D024B10120FFF7F2FE014B1B78204610BD09590040034B188880B2034B1B88C01AA0
:4008800000B27047A25B00408881FF1F10B4124B1B881BB233B1104B1B881BB203EB83035C0001E00D4B1C680D4B1988411A09B242F2107303FB01F2002903DD04EBD470AB
:4008C000401003E004EBD47040104042831893FBF4F000B210BC70478A81FF1F8481FF1F8C81FF1F704700BF034B1A7800F0F80010431870704700BF0241004000000000F5
:400900000230800803D000BF01380046FCD17047EFF3108072B6704780F31088704700BF014B1868704700BF4081FF1F0E4B70B51E460E4C0025E41AA410A54204D056F859
:40094000253098470135F8E700F08AFC084B094C1E46E41AA4100025A54204D056F8253098470135F8E770BD6C1200006C1200006C1200007412000010B5431E0A4491420F
:4009800004D011F8014B03F8014FF8E710BD03460244934202D003F8011BFAE7704700000EB400B54FF402719CB0ADF814106FF00041049107914FF6FF711DAB029006907E
:4009C000084853F8042BADF81610006802A9019300F064F8029B00221A701CB05DF804EB03B070474081FF1F2DE9F0478E6882469E420C46914698463ED88A8912F4906FAD
:400A00003AD02568096902236F1A656905EB450595FBF3F57B1C43449D4238BF1D4653050FD5294600F040FB064698B13A462169FFF7A2FFA38923F4906343F08003A3810C
:400A400013E02A4600F08EFB064670B92169504600F0DEFA0C23CAF80030A3894FF0FF3043F04003A381BDE8F08726613E44266046466561ED1BA560464528BF4646494651
:400A80003246206800F0A8FAA36800209B1BA36023681E442660BDE8F08700002DE9F04F9DB003938B8980461C060D4616460DD50B695BB9402100F0F7FA2860286118B9C0
:400AC0000C23C8F80030CDE040236B610023099320238DF82930DFF89CB130238DF82A3037463C4614F8013B1BB9B7EB060910D003E0252BF9D02746F3E74B46324629465E
:400B00004046FFF771FF013000F0A780099B4B4409933B78002B00F0A08000234FF0FF3204930793059206938DF853301A930126052221784E4800F041FA671C049B38B168
:400B40004B4A3C46801A06FA00F018430490EFE7D90644BF20228DF853201A0744BF2B228DF8532022782A2A03D0079A00210A200BE0039A111D12680391002A10DA524271
:400B800043F00200079204900BE027463B780134303B092B03D800FB02320121F5E701B107923B782E2B1ED17B782A2B0AD1039B02371A1D1B680392002BB8BF4FF0FF334A
:400BC000059310E0002319460593781C0A2407463A780130303A092A03D804FB01210123F5E703B1059103223978224800F0E6F940B14023CBEB000003FA00F0049B0137A1
:400C000018430490397806221B487E1C8DF8281000F0D4F988B1194B33B9039B073323F007030833039314E003AB00932A46144B04A94046AFF3008007E003AB00932A4635
:400C40000F4B04A9404600F093F8B0F1FF3F824603D0099B5344099342E7AB895B0601D4099801E04FF0FF301DB0BDE8F08F00BF2C1200003212000036120000000000001E
:400C8000E90900002DE9F04791461F460A698B6806469342B8BF1346C9F8003091F843200C46DDF8208012B10133C9F800302368990642BFD9F800300233C9F800302568F7
:400CC00015F0060510D104F1190A07E00123524639463046C04701301AD00135E368D9F800209B1A9D42F1DB94F843302268003318BF012392060FD5E118302081F8430027
:400D00005A1C94F845102244023382F8431003E04FF0FF30BDE8F08704F1430239463046C0470130F4D02268D9F80050E36802F00602042A08BF5D1B2269A3680CBF25EA8F
:400D4000E57500259342C4BF9B1AED184FF000091A344D4509D00123224639463046C0470130D5D009F10109F3E70020BDE8F0872DE9F04317460A7E85B06E2A9846064644
:400D80000C460C9B01F1430E00F0AE8011D8632A22D009D8002A00F0BB80582A40F0CA8081F84520834955E0642A1ED0692A1CD0C0E0732A00F0B08009D86F2A2ED0702AF6
:400DC00040F0B8800A6842F020020A603EE0752A24D0782A3AD0ADE01A6801F14205111D1960136884F84230A8E021681A6811F0800F02D0111D196008E011F0400F02F1DF
:400E00000401196002D0B2F9003000E01368002B3CDA2D225B4284F8432037E021681A6811F0800F02D0111D196007E011F0400F02F10401196001D0138800E01368227EE6
:400E40005C496F2A14BF0A2208221BE078225A4984F845202268186812F0800F00F104051D6003D1550601D5038800E00368D00744BF42F0200222601BB9226822F02002C3
:400E800022601022002084F8430001E049490A226568002DA56008DB206820F0040020602BB9002D7DD175460CE0002B79D07546B3FBF2F002FB1033CB5C05F8013D034652
:400EC0000028F5D1082A0BD12368DA0708D5236962689A42DEBF302305F8013C05F1FF35C5EB0E0323612EE008681A6810F0800F496903D0101D1860136808E010F0400F77
:400F000002F104001860136801D0198000E0196000232361754616E01A68111D1960156800216268284600F049F808B1401B6060636804E004F1420584F842200123236137
:400F4000002384F84330CDF800803B4603AA21463046FFF797FE013002D14FF0FF3026E023692A4639463046C0470130F5D023689B0710D5002504F1190907E001234A4635
:400F800039463046C0470130E7D00135E368039A9B1A9D42F2DBE068039B9842B8BF184605E00B7804F1420584F842308AE705B0BDE8F0833D1200004E12000010B5C9B27A
:400FC00002449042034605D01C7801308C42F8D1184610BD002010BD884210B501EB020301D8421E0BE09842FBD28118D21AD34204D013F8014D01F8014DF8E710BD994267
:4010000004D011F8014B02F8014FF8E710BD000038B50546002944D051F8043C0C1F002BB8BFE41800F0D4F81E4A1368114613B96360146030E0A3420DD92268A0188342EF
:4010400001BF18685B681218226063600C6023E0A24203D813465A68002AF9D118681918A1420BD12168014458188242196013D110685268014419605A600DE002D90C2351
:401080002B6009E021686018824201BF106852680918216062605C602846BDE8384000F098B838BD7081FF1F70B5CD1C25F0030508350C2D38BF0C25002D064601DBA9420D
:4010C00002D90C23336046E000F082F8234B1C681A462146A1B10B685B1B0ED40B2B03D90B60CC18CD501EE08C420BBF63684B681360636018BF0C4615E00C464968E9E734
:40110000174C23681BB9304600F052F820602946304600F04DF8431C18D0C41C24F00304A0420DD12560304600F053F804F10B00231D20F00700C31A0ED05A42E25070BD5E
:40114000211A304600F034F80130EBD10C233360304600F03EF8002070BD00BF7081FF1F6C81FF1FF8B5074615460E4621B91146BDE8F840FFF798BF1AB9FFF749FF2846AE
:40118000F8BD00F027F885420ED929463846FFF78BFF044650B131462A46FFF7EDFB31463846FFF735FF01E03046F8BD2046F8BD38B5064C0023054608462360FFF70EF97F
:4011C000431C02D1236803B12B6038BD9081FF1F7047704751F8040C0028BEBF091851F8043CC018043870470000000025640000660D0A0000510040100020510040100086
:40120000405100403000F0510040100000000140001000140140000800400140000A004C014000020050014020004300232D302B2000686C4C0065666745464700303132DE
:401240003334353637383941424344454600303132333435363738396162636465660000F8B500BFF8BC08BC9E4670474D00000059040000F8B500BFF8BC08BC9E46704755
:401280002900000098120000C880FF1F800000005000000000000000000000009881FF1F0000E02EC05D00001800000000366E010000000000000000000000000000000006
:4012C000000000000000000000000000000000002A1200000000000000000000000000000000000000000000000000000000000000000000000000000000000000000000B2
:4013000000000000000000000000000000000000E080FF1F00000000000000000000000000000000000000000000000000000000000000000000000000000000000000002F
:40134000000000000000000000000000000000000000000000000000000000000000000000000000000000000000000000000000000000000000000000000000000000006D
:40138000000000000000000000000000000000000000000000000000000000000000000000000000000000000000000000000000000000000000000000000000000000002D
:4013C00000000000000000000000000000000000000000000000000000000000000000000000000000000000000000000000000000000000000000000000000000000000ED
:4014000000000000000000000000000000000000000000000000000000000000000000000000000000000000000000000000000000000000000000000000000000000000AC
:020000040003F7
:0200000480007A
:40000000025200400165004002150140591A0140311B0140034001400241014002420140024301400248014005490140024C0140054D0140025001400151014060806180B7
:400040008B0FE602EE0804090610070C09800A030B130C140F081030120C141C152C162217431C2C1E1120102171230626202A202D712F0E3020321F330F35C0373039A0A1
:400080003B083E013F404001460449FF4A074BFF4C404D204EF04F055008580459045A045F01604061A8624063208220861588408C038E1C9080940396049C039E34A42AEB
:4000C000A614AA28B00FB240B480B638BA82BE14C043C101C6CEC7B0C82CC9FFCAFFCBFFCEF0CF44D00CD401D604D804DA04DB04DF01E6C0EA40EB02001402010450065021
:40010000098A0D800FA01020112012401320152818101A401C401DC31E242005211C2941310838243A40400145824610503052505510560157505D015E445F20674079016F
:400140007B4087408A10C0F7C2BDC46ECA09CC02CE0ED0D8D6F0D880EE0833203620CC30A620A720A620A720A620A720A620A7208620A620AF20E640EE101F80C6017502AD
:400180008902AF80DE04E00110011C01000F0000800000808000800000000000000B0B0000000000000000000000010017001801000000000000000000000000000000003E
:4001C00000000000000000000000000000000000000000000000000000000000000000000000000000000000000000000000000000000000000000000000000000000000FF
:4002000000000000000000000000000000000000000000000000000000000000000000000000000000000000000000000000000000000000000000000000000000000000BE
:40024000000000000000000000000000000000000000000000000000000000000000000000000000000000000000000000000000000000000000000000000000000000007E
:40028000000000000000000000000000000000000000000000000000000000000000000000000000000000000000000000000000000000000000000000000000000000003E
:0200000490006A
:0400000000004005B7
:0200000490105A
:04000000BC90ACAF55
:0200000490303A
:0200000028B422
:0200000490402A
:4000000000000000000000000000000000000000000000000000000000000000000000000000000000000000000000000000000000000000000000000000000000000000C0
:400040000000000000000000000000000000000000000000000000000000000000000000000000000000000000000000000000000000000000000000000000000000000080
:400080000000000000000000000000000000000000000000000000000000000000000000000000000000000000000000000000000000000000000000000000000000000040
:4000C0000000000000000000000000000000000000000000000000000000000000000000000000000000000000000000000000000000000000000000000000000000000000
:0200000490501A
:0C00000000012E16106900012E1D391D94
:00000001FF