:400000000080002011000000450500004505000008B5044B1A6803F53F5302331A6000F099FA00BFFA46004010B5054C237833B9044B13B10448AFF300800123237010BD50
:400040004081FF1F00000000680B0000084B10B51BB108490848AFF300800848036803B910BD074B002BFBD0BDE81040184700BF000000004481FF1F680B0000C880FF1F2C
:4000800000000000024A1378DB431370704700BF5C81FF1F70B562B600F02CFC00F038FC2E4800F0F7FC00F003FD00F0BFFB002000F076FB00F008FBF52000F0CBFA00F0BD
:4000C00095F8274800F0F0F80021012000F0CCF8244800F0E9F840F6B83000F005FB00F0BBF80021084600F0BFF81F4800F0DCF80021012000F0B8F81C4800F0D5F840F6CE
:40010000B83000F0F1FA00261EE0E5B2284600F0A1FA284600F044FB192000F0E5FA013C00E0FF24002CF0DA00240AE0E5B2284600F090FA284600F033FB192000F0D4FA5D
:400140000134FF2CF2DD0136042EEADD084B1B78FF2BFBD1DB43064A1370F7E7850000006C0B0000780B0000840B0000900B00005C81FF1F38B5044600F0DF05284600F068
:400180009DFC45F0100000F099FC022000F0ACFA04F0CF0000F092FC38BD00BF10B504460009FFF7E7FF04F00F00FFF7E3FF10BD10B5044640F0200000F080FC44F0300064
:4001C00000F07CFC022000F08FFA04F0EF0040F0200000F073FC10BD10B504460009FFF7E7FF04F00F00FFF7E3FF10BD08B5502000F07AFA0320FFF7BDFF0A2000F074FA13
:400200000320FFF7B7FF1E2000F06EFA0320FFF7B1FF022000F068FA0220FFF7ABFF0A2000F062FA0620FFF7B9FF0E20FFF7B6FF2820FFF7B3FF0820FFF7B0FF0120FFF763
:40024000ADFF0C20FFF7AAFF0320FFF7A7FF0A2000F04AFA08BD00BF08B50120FFF79EFF012000F041FA08BD08B500F00300032819D8DFE800F002070D1381F08000FFF751
:400280008DFF08BDA1F14000C0B2FFF787FF08BDA1F16C00C0B2FFF781FF08BDA1F12C00C0B2FFF77BFF08BD38B505460078012404E0FFF791FF285D0134E4B20028F8D1D8
:4002C00038BD00BFFEE700BFF0B40022174611E050F82760F3B226F0FF0608E001EB420511F812406D78A5550132013BDBB2002BF4D10137192FEBD9F0BC7047064B1B7837
:40030000DBB203F00701054A11701B09013213704422034B1A707047CF0100496E5800407658004008B50A46002100F014FC08BD38B519252B4B1D8018232B4A13704F2195
:40034000023211800232137040F20531023211800232137040F65F1102321180023213700222224B1A7008224FF040231A70032103F5007319701E4B1B78DBB21D490B7008
:400380001D4B1A8041F25122023B1A8000240CE01A4B1B7803F0010343EA440404F003044FF4F07000F090FB013D0DB1032CEFD115B90320FFF786FF114B4FF480721A80AF
:4003C00007221A7000220F490A704820023108701A700222033B1A700B4A137843F00F03137038BD80400040824000400043004008010049A14600402242004025420040E7
:400400000440004006400040A243004008B500F097FB08BD38B572B6374A137843F00403137000240CE0354D630019194A0011462A44084691882858FFF774FF0134E4B25A
:40044000092CF0D900240BE02C49A3001819420088180622016CC06BFFF7D8FF0134E4B2002CF1D026494FF09040FFF72DFF254A254B1A60254A137843F00203137010320F
:40048000137843F002031370214C237843F040032370A2F58632513A137843F0100313700A221C491C48FFF7B1FF0A221B491C48FFF7ACFF08221B491B48FFF7A7FF0822D0
:4004C0001A491B48FFF7A2FF1A4A137843F008031370194D61232B70FFF72AFF81232B700122164B1A70FFF709FF0E2221461448FFF78CFF38BD00BFE84600409C0B0000C3
:400500006800004804040444D806014003500140A0430040EC05004800510040F8050048C051004004060048125100400C06004832510040224300400048004004000840FA
:40054000B043004008B500F0CFFA03680C2B00D1FEE7FEE708B5104E104D16E029686B68AC68002204E051F8040B43F8040B0432A242F8D1E868002203E0002143F8041B54
:4005800004328242F9D11035013E002EE6D100F0B1FAFFF77FFDFEE701000000080C000008B5104A104B1A60104A136843F40073136000230AE0032B03D80D4A52F823103F
:4005C00000E00C490C4A42F8231001332F2BF2D90A4B1A780A4B1A70074A0A4B1A60FFF719FF08BD0004FA050CED00E014ED00E000000000450500000080FF1FBC760040DA
:40060000C080FF1F08ED00E0024A137843F080031370704777640040014B1870704700BF87640040014B1878704700BF67640040014B1870704700BF07640040014B187802
:40064000704700BF47640040014B1870704700BF27640040014B1870704700BF3764004008B501E0FFF7EAFFFFF7DCFF10F0400FF8D108BD08B5124A137803F0F80343F0EF
:4006800003031370137803F0FC031370FFF7E8FFFE20FFF7D9FF0020FFF7CAFF0120FFF7BBFFFFF7BFFF0020FFF7D4FF00F014FA044A137843F01003137000F011FA08BD3B
:4006C000776400409764004008B5054B1B7823B9FFF7D0FF0122024B1A70FFF795FF08BD6281FF1F01BE704710B5044605E0084B186800F0E9F9A4F50044B4F5004FF6D867
:40070000034B586800FB04F000F0DEF910BD00BFCC80FF1F70B504460E46074B1D681F2802D90020FFF7DEFF04F01F04103455F8240045F8246070BD08ED00E038B504468A
:400740000D46072902D90020FFF7CCFF1F2C02D90020FFF7C7FF04F01F0000F1604000F564406D01EDB2057038BD00BF084A137843F0010313701032137843F001031370A7
:4007800002F64D32137843F001031370704700BFA3430040014B1880704700BF044F0040014B1880704700BF064F0040014B1870704700BF034F004008B5194A137843F04B
:4007C000020313700232137803F08F0343F020031370144B1A7802F0CF021A701A7842F030021A701A7802F0F0021A701A7842F00F021A70FF20FFF7CDFFFF20FFF7D0FF72
:400800000020FFF7D3FF084A137843F00103137002F65E32137843F00103137008BD00BF004F00400B4F0040A343004008B5054B1B7823B9FFF7C0FF0122024B1A70FFF778
:4008400095FF08BD6381FF1F08B511490020FFF761FF07210020FFF771FF00220D4B1A7072220D4B1A70202204331A700B490120FFF750FF07210120FFF760FF0622084B92
:400880001A70472210331A70022251331A7008BD550900006481FF1F87650040ED0900002565004010B500F017F904460D4A137843F0200313700432137843F010031370E0
:4008C000094A0123136009490B7843F010030B70022307490B60136000F0B4F8204600F0FFF810BD9765004000E100E09665004080E200E008B5054B5B7823B9FFF7A4FFA0
:400900000122024B5A70FFF7CDFF08BD6481FF1F08B500F0E1F80B4B1A7842F001021A701A7802F0FE021A7000F0DAF80121064B1960064B00229A70DA701A715A71044B9E
:40094000196008BD9765004080E100E06481FF1F00E100E01D4B1B78DBB213F01E0F05D01B4803F01E0201780A43027003F0200303F0FF0233B3174B1978C9B2164B1B786B
:40098000DBB21648C154164B1B7813F0FF0F02D00121144B197010490B780133DBB20B700B78DBB20F2B02D900210B4B19700A4B1978C9B20C4B1B78DBB2994202D1012171
:4009C000074B1970002AC5D1704700BF6B6500406481FF1F476500406781FF1F7081FF1F6881FF1F6981FF1F6681FF1F13E0104B1B78DBB20F2B02D900220D4B1A700C4AE1
:400A00001378DBB20B49CB5CDBB20B490B7013780133DBB21370064B1B78DBB2074A1278934204D0064B1B7813F0040FDFD070476A81FF1F8081FF1F466500406B81FF1F86
:400A400066650040054A137843F0010313701032137843F001031370704700BFA2430040014B1B689864704708ED00E04001C0B2014B1870704700BF02E400E00422014B29
:400A80001A60704700E100E00422014B1A60704780E100E010B50446FFF7F6FF2046FFF7DFFF0720FFF7E2FFFFF7E8FF10BD00BF0422014B1A60704780E200E0014B18700C
:400AC000704700BF756500400230800803D000BF01380046FCD17047EFF3108072B6704780F31088704700BF014B1868704700BF3C81FF1F0E4B70B51E460E4C0025E41AC9
:400B0000A410A54204D056F8253098470135F8E700F068F8084B094C1E46E41AA4100025A54204D056F8253098470135F8E770BDF00B0000F00B0000F00B0000F80B000009
:400B400010B5431E0A44914204D011F8014B03F8014FF8E710BD03460244934202D003F8011BFAE7704700000000000050524F594543544F20444500444F4D4F54494341BB
:400B80002000000054455354454F2044450000004143545541444F5245530000C84900401900004F00400C00205100401000405100403000F0510040100000000140001004
:400BC00000140140000800400140000A004C0140000200500140200060520040E405004806004300F8B500BFF8BC08BC9E4670474D000000A1050000F8B500BFF8BC08BC0B
:400C00009E46704729000000180C0000C880FF1F7800000050000000000000000000E02EC05D00001800000000366E010000000000000000000000000000000000000000B6
:400C4000000000000000000000000000E20B000000000000000000000000000000000000000000000000000000000000000000000000000000000000000000000000000087
:400C8000000000000000000000000000DC80FF1F000000000000000000000000000000000000000000000000000000000000000000000000000000000000000000000000BA
:400CC00000000000000000000000000000000000000000000000000000000000000000000000000000000000000000000000000000000000000000000000000000000000F4
:400D000000000000000000000000000000000000000000000000000000000000000000000000000000000000000000000000000000000000000000000000000000000000B3
:400D40000000000000000000000000000000000000000000000000000000000000000000000000000000000000000000000000000000000000000000000000000000000073
:400D80000000000000000000000000000000000000000000000000000000000000000000000000000000000000000000000000000000000000000000000000000000000033
:020000040003F7
:0200000480007A
:40000000024F00400452004001640040036500404F0601403407014001090140040A0140010B0140501401405615014056160140471701400A190140361A0140401B014025
:400040000440014009410140074201400D4301400B48014021490140064C01400E4D0140055001400251014001300A1B0020016018C819548767860F87728B38070110033F
:40008000120C1306150617011A051B031C031E0422082305240A260428032A042B02300F320F3307360F3A8A3B08580459045F0184018A048B018C019108970C9C029D0264
:4000C000A001A102AA02B104B202B308B406B502B601B701BE54BF04C032C105C540C6C2C75EC83FC9FFCAFFCBFFCDA0CF01D018D280D407D804D904DA04DB04DC10DD11C9
:40010000DF05E040E280E440E540E680E840EA50EBA8EC40ED20EE50EFA8002802010B010E810F04108011301725180419801B041D801E901F802008210222042301272027
:400140002A012F8830803106372539103F044014489049044A025108529159905A086108621071017B048404A110A910C007C2D1C47ACAA1CCEBCE44D006D208D60ED80686
:40018000DE04A10239023F0159045F012102000102160484050E0661070109060F101008110F14C7190E1A081B011C081D091F062104220824C72710284229022AA12F0126
:4001C00030073208331034C035073630370838083B203E403F44580459045F01851489108B0C9003951C9702990C9A019B119D209F03A402A803A910AD09AF10B320B603C5
:40020000B71FB880BE40BF04C001C704C9FFCA07CBFFCC40CD20CEF0CF05D008D804D904DA04DB04DF01E040E1A8E240E32000040102084109200A200E800F0410241102EE
:400240001724180519061D8020202120226025082680280229142A022F0A3041312036803724380839803A203E1845804F0457086C026D046E206F807604770278C08006C8
:40028000810182048380841086108702884589048A028C048D0A8E2091809230940196809704980299109A2A9B249C80A020A240A302A602A708A810A980AC04B110B30126
:4002C000C00CC25FC46ECA3FCC7DCE6ED010E008E220E601E830EA0BEE0203040502071C090D0B3013601560171D1801190D1B702B40330434013578370339803B203E101B
:400300003F044013410245EE47CB483349FF4AFF4BFF4EF04F44500C54015604580459045A045B045F0166C06A406B02800286018A018B0391019402A301A402B001B10262
:40034000B202B301BE01BF04C042C105C206C401C50CC60EC805C9FFCAFFCBFFCC62CDA0CEF0CF41D00CD602D710D804D904DA04DB04DC10DF01E640E702E910EA30EB100E
:40038000ED10EE10EF12002A03030A200F08102019061E08201021022420270529012F083102372539203D083E113F06408142044584472048144A024F09514056085701F8
:4003C00059045A845D905E085F01674068216A2071107222800281148502874089108A208E02921094109601970499019B209F05A180A240A708A910AA82C00EC244C40464
:40040000CA21CCE1CEE4D07DD20CD6F8D880E220E42DEA0180808202854088808B408E04A902E040E220E48004071006120118011A061E012006240428072C023207580478
:400440005F018003810884028704880C89808A038C048D1C8FC1900F91C094039544960C97209808991C9BC29C0C9FC3A118A203A401A510A80FA9C7AB18ADDFB1C0B20F77
:40048000B31FB520BA28BB08D418D604D804D904DB04DF010008041205020623088009010A400B080C900E58109012011320148015281B081C081E141F042414260127207A
:4004C0002C902E802F043480350237283C043E625E026404654067408010840489148A848B0C8C018D018E209740988099409A02A080A204A708AF08C0F4C2FBC47FCAF000
:40050000CCF0CEF0D680D8B0E050E280E450E6A0E830EA0B301033083640CC700C20634065049C10A640AC10AF08C280D8C03E1097409C109D04A020A640CE201904610240
:400540008740961097409C109D04A640A820C610D840E640E8802780864088108B8096109C10A640A902C880E640EA801302148052025708580862086608670276107B02F5
:40058000820A8301840887088A089A109C809F02A302AA10AE10AF02B302B480C430D4C0D6C0D8C0DC80DE20E2A0E670EAD01328168078107C10C40EDE0310807980888095
:4005C0008D40AB20AE80AF08B010B410C408DC01E408E601E80C00030A0310031A031C01003F03C002800000400000002000A0E060006000000000008100408182008300C2
:4006000000000000000B0B000000000000FCFC00FC0000000000000000000000000000000000000000000000000000000000000000000000000000000000000000000000B0
:40064000000000000000000000000000000000000000000000000000000000000000000000000000000000000000000000000000000000000000000000000000000000007A
:40068000000000000000000000000000000000000000000000000000000000000000000000000000000000000000000000000000000000000000000000000000000000003A
:4006C00000000000000000000000000000000000000000000000000000000000000000000000000000000000000000000000000000000000000000000000000000000000FA
:4007000000000000000000000000000000000000000000000000000000000000000000000000000000000000000000000000000000000000000000000000000000000000B9
:0200000490006A
:0400000000004005B7
:0200000490105A
:04000000BC90ACAF55
:0200000490303A
:0200000067F1A6
:0200000490402A
:4000000000000000000000000000000000000000000000000000000000000000000000000000000000000000000000000000000000000000000000000000000000000000C0
:400040000000000000000000000000000000000000000000000000000000000000000000000000000000000000000000000000000000000000000000000000000000000080
:400080000000000000000000000000000000000000000000000000000000000000000000000000000000000000000000000000000000000000000000000000000000000040
:4000C0000000000000000000000000000000000000000000000000000000000000000000000000000000000000000000000000000000000000000000000000000000000000
:0200000490501A
:0C00000000012E16106900012E1C785A19
:00000001FF