:400000000080002011000000AD030000AD03000008B5044B1A6803F53F5302331A6000F0CDF900BFFA46004010B5054C237833B9044B13B10448AFF300800123237010BD51
:400040004881FF1F00000000C8090000084B10B51BB108490848AFF300800848036803B910BD074B002BFBD0BDE81040184700BF000000004C81FF1FC8090000C880FF1F60
:4000800000000000024A137843F0010313707047CC80FF1F70B562B600F060FB00F06CFB1C4800F02BFC00F037FC00F0F3FA002000F0AAFA00F03CFAFC2000F0FFF9002630
:4000C0001EE0E5B2284600F0F9F9284600F09CFA192000F03DFA013C00E0FF24002CF0DA00240AE0E5B2284600F0E8F9284600F08BFA192000F02CFA0134FF2CF2DD013615
:40010000042EEADD044B1B78FF2BFBD1FE22024B1A70F7E785000000CC80FF1FFEE700BFF0B40022174611E050F82760F3B226F0FF0608E001EB420511F812406D78A5558E
:400140000132013BDBB2002BF4D10137212FEBD9F0BC7047064B1B78DBB203F00701054A11701B09013213704422034B1A707047CF0100496E5800407658004008B50A469F
:40018000002100F018FC08BD38B50B222E4B1A8018232E4A1370192502321580023213704F21023211800232137040F20531023211800232137040F65F11023211800232C5
:4001C00013700222224B1A7008224FF040231A70032103F5007319701E4B1B78DBB21E490B701E4B1A8041F25122023B1A8000240CE01B4B1B7803F0010343EA440404F09F
:4002000003044FF4F07000F08FFB013D0DB1032CEFD115B90320FFF781FF124B4FF480721A8007221A7000220F490A704820023108701A700222033B1A700C4A137843F0D8
:400240001F03137038BD00BF80400040824000400043004008010049A146004022420040254200400440004006400040A243004008B500F095FB08BD38B572B6384A137889
:4002800043F00403137000240CE0364D630019194A0011462A44084691882858FFF76EFF0134E4B2082CF0D900240BE02D49A3001819420088180622C16B806BFFF7D8FFF1
:4002C0000134E4B2002CF1D027494FF09040FFF727FF264A137843F0020313701032137843F002031370224C237843F040032370A2F58632513A137843F0100313700A2201
:400300001C491D48FFF7B4FF0A221C491C48FFF7AFFF0A221B491C48FFF7AAFF08221B491B48FFF7A5FF08221A491B48FFF7A0FF1A4A137843F008031370194D61232B70D9
:40034000FFF722FF81232B700122164B1A70FFF701FF0E2221461448FFF78AFF38BD00BFE8460040CC0900008800004803500140A0430040F007004800510040FC07004818
:40038000C051004008080048F051004014080048125100401C08004832510040224300400048004004000840B043004008B500F0CBFA03680C2B00D1FEE7FEE708B5104E67
:4003C000104D16E029686B68AC68002204E051F8040B43F8040B0432A242F8D1E868002203E0002143F8041B04328242F9D11035013E002EE6D100F0ADFAFFF74BFEFEE7EF
:4004000001000000340A000008B5104A104B1A60104A136843F40073136000230AE0032B03D80D4A52F8231000E00C490C4A42F8231001332F2BF2D90A4B1A780A4B1A709E
:40044000074A0A4B1A60FFF717FF08BD0004FA050CED00E014ED00E000000000AD0300000080FF1FBC760040C080FF1F08ED00E0024A137843F080031370704774640040FC
:40048000014B1870704700BF84640040014B1878704700BF64640040014B1870704700BF04640040014B1878704700BF44640040014B1870704700BF24640040014B18705E
:4004C000704700BF3464004008B501E0FFF7EAFFFFF7DCFF10F0400FF8D108BD08B5124A137803F0F80343F003031370137803F0FC031370FFF7E8FFFE20FFF7D9FF00204C
:40050000FFF7CAFF0120FFF7BBFFFFF7BFFF0020FFF7D4FF00F010FA044A137843F01003137000F00DFA08BD746400409464004008B5054B1B7823B9FFF7D0FF0122024B35
:400540001A70FFF795FF08BD6481FF1F01BE704710B5044605E0084B186800F0E5F9A4F50044B4F5004FF6D8034B586800FB04F000F0DAF910BD00BFD080FF1F70B50446C8
:400580000E46074B1D681F2802D90020FFF7DEFF04F01F04103455F8240045F8246070BD08ED00E038B504460D46072902D90020FFF7CCFF1F2C02D90020FFF7C7FF04F000
:4005C0001F0000F1604000F564406D01EDB2057038BD00BF084A137843F0010313701032137843F00103137002F64D32137843F001031370704700BFA3430040014B188022
:40060000704700BF044F0040014B1880704700BF064F0040014B1870704700BF034F004008B5194A137843F0020313700232137803F08F0343F020031370144B1A7802F080
:40064000CF021A701A7842F030021A701A7802F0F0021A701A7842F00F021A70FF20FFF7CDFFFF20FFF7D0FF0020FFF7D3FF084A137843F00103137002F65E32137843F0B6
:400680000103137008BD00BF004F00400B4F0040A343004008B5054B1B7823B9FFF7C0FF0122024B1A70FFF795FF08BD6581FF1F08B511490020FFF761FF07210020FFF797
:4006C00071FF00220D4B1A7072220D4B1A702022023B1A700B490120FFF750FF07210120FFF760FF0622084B1A70472210331A70022256331A7008BDBD0700006681FF1FAF
:4007000086650040550800002565004010B500F013F904460D4A137843F020031370023A137843F010031370094A0123136009490B7843F010030B70022307490B6013603E
:4007400000F0B4F8204600F0FBF810BD9665004000E100E09B65004080E200E008B5054B5B7823B9FFF7A4FF0122024B5A70FFF7CDFF08BD6681FF1F08B500F0DDF80B4B56
:400780001A7842F001021A701A7802F0FE021A7000F0D6F80121064B1960064B00229A70DA701A715A71044B196008BD9465004080E100E06681FF1F00E100E01D4B1B784B
:4007C000DBB213F01E0F05D01B4803F01E0201780A43027003F0200303F0FF0233B3174B1978C9B2164B1B78DBB21648C154164B1B7813F0FF0F02D00121144B197010492D
:400800000B780133DBB20B700B78DBB20F2B02D900210B4B19700A4B1978C9B20C4B1B78DBB2994202D10121074B1970002AC5D1704700BF646500406681FF1F4465004024
:400840006981FF1F7081FF1F6A81FF1F6B81FF1F6881FF1F13E0104B1B78DBB20F2B02D900220D4B1A700C4A1378DBB20B49CB5CDBB20B490B7013780133DBB21370064B5B
:400880001B78DBB2074A1278934204D0064B1B7813F0040FDFD070476C81FF1F8081FF1F4B6500406D81FF1F6B650040054A137843F0020313701032137843F002031370E1
:4008C000704700BFA2430040014B1B689864704708ED00E04001C0B2014B1870704700BF02E400E00422014B1A60704700E100E00422014B1A60704780E100E010B50446EC
:40090000FFF7F6FF2046FFF7DFFF0720FFF7E2FFFFF7E8FF10BD00BF0422014B1A60704780E200E0000000000230800803D000BF01380046FCD17047EFF3108072B67047A6
:4009400080F31088704700BF014B1868704700BF4081FF1F0E4B70B51E460E4C0025E41AA410A54204D056F8253098470135F8E700F04EF8084B094C1E46E41AA410002557
:40098000A54204D056F8253098470135F8E770BD1C0A00001C0A00001C0A0000240A000010B5431E0A44914204D011F8014B03F8014FF8E710BD03460244934202D003F880
:4009C000011BFAE77047000000000000C84900401900004F00400C0020510040100040510040300000000140001000140140000800400140000A004C014000020050014023
:400A00002000000060520040E807004806004300F8B500BFF8BC08BC9E4670474D00000009040000F8B500BFF8BC08BC9E46704729000000480A0000C880FF1F800000006B
:400A4000480000000000000000000000FE0000000000E02EC05D00001800000000366E01000000000000000000000000000000000000000000000000000000000000000048
:400A80000E0A00000000000000000000000000000000000000000000000000000000000000000000000000000000000000000000000000000000000000000000000000001E
:400AC000E080FF1F00000000000000000000000000000000000000000000000000000000000000000000000000000000000000000000000000000000000000000000000078
:400B000000000000000000000000000000000000000000000000000000000000000000000000000000000000000000000000000000000000000000000000000000000000B5
:400B40000000000000000000000000000000000000000000000000000000000000000000000000000000000000000000000000000000000000000000000000000000000075
:400B80000000000000000000000000000000000000000000000000000000000000000000000000000000000000000000000000000000000000000000000000000000000035
:400BC00000000000000000000000000000000000000000000000000000000000000000000000000000000000000000000000000000000000000000000000000000000000F5
:020000040003F7
:0200000480007A
:40000000024F0040055200400264004003650040010301405404014034050140430601404107014001090140040B0140040C0140020D0140621401405D150140661601407C
:400040004F17014007190140561A01404A1B0140044001400D4101401142014008430140024401400145014001460140014701400E480140164901400C4C01400B4D014065
:40008000055001400251014001400A4B0021016018C8195479018467861F843886728B0FE6040C04130117021E012301240629012C06300231023401360437013E403F4060
:4000C00040524106452446C0475E483F49FF4AFF4BFF4DA04F01501852805407580459045A045B045C225D225F056040628064406540668068406A506BA86C406D206E50EB
:400100006FA88119840185198602880289018A088B188D188F019002920D9402951196049702980D99049B199C0DA00DA119A51EA701A80DA918AB04AC0DB00FB10FB311B3
:40014000BA02BB03D804D904DF0100400608071008400D020E25122115101682184019A01D022082250126082710284029202E293101330436183D103E86400448054AA0E5
:4001800050805120520559905A086120620471017B018040820283048804C061C2F1C4D5CAE5CC63CEF0D004D20CD60ED806DE08E2200170026004100570060208A3097043
:4001C0000A4C0E800F70100211021210131D144115031694170C18121C122012217024022501271A28C329032A382B142F2030E0311F321F33203601374038083B023E408F
:400200003F4456025720580459045B045F018A018C029101920194019F03A204AE02B002B102B201B301B406BE15BF04D409D804D904DB04DC20DF0100820102028C04881D
:400240000501060409090E651080120214101509162818241B011C011D091E201F0821022204241026812E092F093080310236093D113EC6581059865E025F0160016701EE
:400280006C046D106E4576028010818182088D0194049510960D9C409EAAA0C0A101A20AA610A701B510B680C0F3C2FCC479CAF0CCC9CEF0D60FD818E6409D028A209D02D3
:4002C000A220E22039203F1059045F012620810201440202030209880B020C040FCC113013CC153019101C061D20200121CC230125CC2730280629FC2D3C2FC031C0333CC3
:4003000034063503360138203B883E503F10403441014206440245E0460C480649FF4AFF4BFF4C624DA04EF04F41500C54185604580459045A045B045C105D115F01664057
:40034000670269106A306B106D106E106F12800F8404880C8E029403960C9C0D9E02A00DA202AC08B201B60EBA80BE04C006C540C9FFCA07CBFFCC40CD20CEF0CF05D00844
:40038000D804DA04DB04DC01DD01DF01E040E1A8E240E3200002020204400640071409800D040E02108415021602174118021A081D401E121F40200421442201230228208A
:4003C00029602B4030083110335538413A104064414442404640470249024B104E845040540157015A026002620163086D026EA4758077088041810183088580865488065A
:400400008A108B018C818D888E809102924093109610978099309A029C209D029E419F02A008A202A344A508A804AB40B280B310B602C0F9C2A1C49ACA0FCC0FCE0DD00F55
:40044000D224D601D80DE001E404EA84EE0201010302150717081D0C24012801290A2B052C0130013501370E3980403441064250440249FF4AFF4BFF4C024E704F0C5004CC
:4004800056025711580459045A045B045C015D105F0162C0644065016610671168C069016B116C406D016E406F01815C82018322850889188D1C8F619343950496019B040B
:4004C000A110A567A718AD7FB11FB201B358B520B920BB02BE04C034C106C250C402C5DEC6FBC70CC81FC9FFCAFFCBFFCC23CEF0CF0CD004D440D804D904DA04DB04DC10BB
:40050000DF01E2C0E440E501E610E711E8C0E901EB11EC40ED01EE40EF0101020A20154017141B041D011E402101221023102408268028202A422F0830203109368839026C
:400540003A143B803D02408042284308448445014628480149044A084B434E084F405040510452205E106010622063016C106D506F147408751076168424851089208B0210
:400580008C1090109480950897029D049E01A001A101A208A308AC40B601C008C204C4E0CA2BCC57CE8FD0E7D23CD620D80EE202E408E810EA08EE40860287208F109D029D
:4005C000E440E810EA080110080109090A0E0B100C1C0D500E030F0C100111201216130319141D802203261C294C2B112D1C2E082F42300F311F3320341A35C039203A22B1
:400600003F04580459045C115F01813E821084238604882389148A0C8B238E2590039128922493129502970C993E9A089C0A9E24A610B020B301B410B50EB60FB730BA80C7
:40064000BE11C034C106C5EBC60CC70EC817C9FFCAFFCBFFCEF0CF44D00CD401D604D804D904DA04DB04DC11DD11DF01E6C0EA40EB020040012004090540070A0B800F8631
:4006800011401306162018C819201B011E401F502118220123042520272529202B013020314032013715380239203B803D203E02470A4C204D215480550457405C085D0133
:4006C0005E405F106502800984808508871089408B598C018D7494809A229B109D029F20A520A920B220B440C0F3C2D8C42DCA0CCCEDCEADD0C0D220D6F0D880E0C2E230D1
:40070000E6F0EC80EE12312835105128CC7003400F0157086020650181109D10A520C010C280D440D8C0E6203C2055045A02802083018A0193019B409C209D01A520A708C8
:40074000CE20D440D640E080E62019018D049B409D01A410A524A708C6101501C404910191019101058053045B408580A788AC10AF80B520B740C080D4A0E010EA10EC1045
:400780001B80564058085A405E02634066108241840886508740A780AB40AF08B304C640D4C0D6C0D8C0E270E6D0EEC0131216207B107D0191019710A310AF10B710C40E03
:4007C000DE03E80810207008762084088C209A20AF02C408DC01DE04E60800050A0510031A031C02003F03C021A10000400000002100A0E1600061000000000080004081C4
:40080000A100A10000000000040008050100050000000000000B0B000000000000FCFC00FC0000000000000000000000000000000000000000000000000000000000000055
:400840000000000000000000000000000000000000000000000000000000000000000000000000000000000000000000000000000000000000000000000000000000000078
:400880000000000000000000000000000000000000000000000000000000000000000000000000000000000000000000000000000000000000000000000000000000000038
:4008C00000000000000000000000000000000000000000000000000000000000000000000000000000000000000000000000000000000000000000000000000000000000F8
:4009000000000000000000000000000000000000000000000000000000000000000000000000000000000000000000000000000000000000000000000000000000000000B7
:0200000490006A
:0400000000004005B7
:0200000490105A
:04000000BC90ACAF55
:0200000490303A
:02000000151FCA
:0200000490402A
:4000000000000000000000000000000000000000000000000000000000000000000000000000000000000000000000000000000000000000000000000000000000000000C0
:400040000000000000000000000000000000000000000000000000000000000000000000000000000000000000000000000000000000000000000000000000000000000080
:400080000000000000000000000000000000000000000000000000000000000000000000000000000000000000000000000000000000000000000000000000000000000040
:4000C0000000000000000000000000000000000000000000000000000000000000000000000000000000000000000000000000000000000000000000000000000000000000
:0200000490501A
:0C00000000012E16106900012E1C25883E
:00000001FF