:400000000080002011000000750C0000750C000008B5044B1A6803F53F5302331A6000F049FE00BFFA46004010B5054C237833B9044B13B10448AFF300800123237010BD2E
:400040005081FF1F00000000184E0000084B10B51BB108490848AFF300800848036803B910BD074B002BFBD0BDE81040184700BF000000005481FF1F184E0000C880FF1F26
:400080000000000008B501F0ABFB0122014B1A7008BD00BFCC80FF1F08B501F0CFFB0122014B5A7008BD00BFCC80FF1F10B501F003FB01F0EDF8074C207040F0010001F0D7
:4000C000E1F80A2001F03AFA207800F0FE0001F0D9F810BD6C81FF1F10B501F067F901F0D7F8074C207040F0020001F0CBF80A2001F024FA207800F0FD0001F0C3F810BDE2
:400100006C81FF1F10B501F0DFF901F0C1F8074C207040F0040001F0B5F80A2001F00EFA207800F0FB0001F0ADF810BD6C81FF1F2DE9F04FA7B062B601F088FA01F000F992
:4001400001F08CF901F016FB00F084FF00F008FF00F0D8FF00F07AFE00F0D6FA00F00AFBB44801F02FFB01F03BFBB34801F058FB01F064FBB14801F091FA01F09DFAB048F7
:4001800001F006F901F012F9AE4801F08FF901F09BF942F2107001F0AFFA0023189319931A934FF07A521B92A74A1C92A74A1D921E93A74B1F934FF07E53209318A800F02B
:4001C00041FB0EA800F0CAFB0025A24EA24B1B78012B54D1FE22A04B1A700BA800F008FABDF83010C9090EA800F0C4FB0EA800F0DDFB044603F04AFF07460021012000F089
:40020000C1FA204600F0ECFA944800F0DBFA2246934907A804F0CEF907A800F061FF3A46314618A800F016FB259804F063F9C4B2FF2700970223B4220021204600F01CFAF9
:40024000C0B201F0C5F900970223B4220021204600F012FAC0B201F035F800970223B4220021204600F008FAC0B201F0B9F822467C4907A804F09EF907A800F031FF764BA2
:400280005B78012BA2D1FE22734B5A7000F052FE26AB2B4403F88C0C0135EDB22F466B1E26AA134413F88C3C532B48D127E026AA134413F88CACAAF1300A204603F0BAFA5A
:4002C00002460B460020684901F0CEFA80468946504603F0BFFA42464B4603F021FB80468946304603F0C8FA42464B4603F066F903F0C6FD0646013D0134E4B203E000249F
:400300006FF001050026EB19D1D5002305E026AA1A44002102F88C1C01330F2BF7DD0021084600F02FFA514800F04CFA304604F0E1F800F055FA4E4800F044FA0025A8469D
:400340006B1E26AA134413F88C3C502B5DD1002318930DF10C092E21484604F04FF9C9EB00096FF0010424E0A0F13007284603F08DFE8246204603F08DFE514603F0D6FD75
:400380008246484603F086FE0146504603F0CCFD0146384801F000FC8246384603F07AFE514603F0CBFE0146189803F0BFFD1890013C04EB080326AA134413F88C0C2E287A
:4003C000D2D1013C13E026AA134413F88C0C303803F040FA82468B46189803F04DFA52465B4603F0EBF803F04BFD1890013C14EB0803E8D5002305E026AA1A44002102F801
:400400008C1C01330F2BF7DD0025A8466B1E26AA134413F88C3C492B7FD1002319930DF10C092E21484604F0E9F8C9EB00096FF0010446E08500000099000000AD000000D2
:40044000D9000000050100000000704100003443000016430000C841CC80FF1F204E00002C4E0000344E0000000024403C4E0000444E0000CDCCCC3DA0F13007284603F0F4
:4004800005FE8246204603F005FE514603F04EFD8246484603F0FEFD0146504603F044FD0146524801F078FB8246384603F0F2FD514603F043FE0146199803F037FD1990EB
:4004C000013C04EB080326AA134413F88C0C2E28D2D1013C13E026AA134413F88C0C303803F0B8F982468B46199803F0C5F952465B4603F063F803F0C3FC1990013C14EBE3
:400500000803E8D5002305E026AA1A44002102F88C1C01330F2BF7DD0025A8466B1E26AA134413F88C3C442B7FF450AE00231A930DF10C092E21484604F060F8C9EB000979
:400540006FF0010424E0A0F13007284603F09EFD8246204603F09EFD514603F0E7FC8246484603F097FD0146504603F0DDFC01461E4801F011FB8246384603F08BFD51469E
:4005800003F0DCFD01461A9803F0D0FC1A90013C04EB080326AA134413F88C0C2E28D2D1013C13E026AA134413F88C0C303803F051F982468B461A9803F05EF952465B46A6
:4005C00002F0FCFF03F05CFC1A90013C14EB0803E8D5002305E026AA1A44002102F88C1C01330F2BF7DD0025F0E500BFCDCCCC3D70B50546002000F0DDFB00F0E7FB2880AD
:400600000023AB7010F0010301D00122AA701BB1AA7842F00202AA701BB1AB7843F00403AB70AB7813B10023AB8070BDC0088408E401A4B200F0030000EB800000EB80002E
:400640000443A4B2AC80E00903F024FD064604F07F0003F0FFF806A3D3E9002303F060F903F00EFC0146304603F060FCA86070BD7B14AE47E17A843F10B4401A019CE41A9E
:4006800004FB00F0521A90FBF2F0184410BC704738B5044600F0DF05284600F0E5FB45F0100000F0E1FB022000F032FF04F0CF0000F0DAFB38BD00BF10B504460009FFF7AC
:4006C000E7FF04F00F00FFF7E3FF10BD10B5044640F0200000F0C8FB44F0300000F0C4FB022000F015FF04F0EF0040F0200000F0BBFB10BD10B504460009FFF7E7FF04F093
:400700000F00FFF7E3FF10BD08B5502000F000FF0320FFF7BDFF0A2000F0FAFE0320FFF7B7FF1E2000F0F4FE0320FFF7B1FF022000F0EEFE0220FFF7ABFF0A2000F0E8FE8A
:400740000620FFF7B9FF0E20FFF7B6FF2820FFF7B3FF0820FFF7B0FF0120FFF7ADFF0C20FFF7AAFF0320FFF7A7FF0A2000F0D0FE08BD00BF08B50120FFF79EFF012000F0D4
:40078000C7FE08BD08B500F00300032819D8DFE800F002070D1381F08000FFF78DFF08BDA1F14000C0B2FFF787FF08BDA1F16C00C0B2FFF781FF08BDA1F12C00C0B2FFF775
:4007C0007BFF08BD38B505460078012404E0FFF791FF285D0134E4B20028F8D138BD00BF10B584B000238DF80E30092211E0144BA3FB0013DB081C4603EB83035900431A0C
:40080000DBB2303304A9114401F80C3C2046013AD2B20928EBD80A4BA3FB0013DB0803EB83035900431ADBB2303304A9114401F80C3C01AB9818FFF7C5FF04B010BD00BFD0
:40084000CDCCCCCC002343628362C36203634363704700BF2DE9F047044608461546114603F062FB0746216803F068FC8246D4F824804FF07C51606803F060FC266A31467D
:4008800003F05CFC8146A16A384603F04FFB0146484603F053FC0146404603F047FB80466062D4F81C90494603F004FE10B1C4F8249008E0D4F818904946404603F0DCFD55
:4008C00008B1C4F82490A168084603F02FFB8046216B284603F028FB0146404603F02EFC8046E168084603F021FB8146314603F01BFBE16A03F022FC0146404603F016FBBB
:4009000000F100484946304603F010FB0146404603F0C8FC0646E062616A504603F006FB0146304603F002FB06466063D4F81480414603F0BFFD10B1C4F8348008E0D4F8DD
:4009400010804146304603F097FD08B1C4F83480A7622563606BBDE8F08700BF00230362838403E0002220F8132001330E2BF9DD704700BF30B4026A30F81230848CE31AA4
:400980009BB220F81210194481840132064C82FB04455119D317C3EBE103C3EB0313D31A036230BC704700BF89888888838C0248A0FB0330C008704789888888FEE700BF19
:4009C000F0B40022174611E050F82760F3B226F0FF0608E001EB420511F812406D78A5550132013BDBB2002BF4D10137272FEBD9F0BC7047064B1B78DBB203F00701054AA3
:400A000011701B09013213704422034B1A707047CF0100496E5800407658004008B50A46002103F0BEFD08BD38B50B222E4B1A8018232E4A13701721023211800232137081
:400A40001925023215800232137040F2AD21023211800232137040F65F1102321180023213700222224B1A7008224FF040231A70032103F5007319701E4B1B78DBB21E49A1
:400A80000B701E4B1A8041F25122023B1A8000240CE01B4B1B7803F0010343EA440404F003044FF4F07000F0CFFE013D0DB1032CEFD115B90320FFF781FF124B4FF4807287
:400AC0001A8007221A7000220F490A704820023108701A700222033B1A700C4A137843F01F03137038BD00BF80400040824000400043004008010049A1460040224200401D
:400B0000254200400440004006400040A243004008B503F03BFD08BD38B572B63E4A137843F00403137000240CE03C4D630019194A0011462A44084691882858FFF76EFFC6
:400B40000134E4B2062CF0D900240BE03349A3001819420088180622016BC06AFFF7D8FF0134E4B2002CF1D02D494FF09040FFF727FF2C4A2C4B1A6002F1004203F5206373
:400B80001A602A4A137843F0020313701032137843F002031370264C237843F040032370A2F58632513A137843F010031370082220492148FFF7ACFF0A2220492048FFF7A5
:400BC000A7FF0A221F492048FFF7A2FF08221F491F48FFF79DFF0A221E491F48FFF798FF08221E491E48FFF793FF1E4A137843F0080313701C4D61232B70FFF715FF812341
:400C00002B700122194B1A70FFF7F4FE0E2221461748FFF77DFF38BDE84600404C4E0000A0000048040404C4580E014003500140A0430040740E0048025100407C0E004876
:400C4000C0510040880E0048F0510040940E0048125100409C0E004820510040A80E004832510040224300400048004004000840B043004008B503F05DFC03680C2B00D1AB
:400C8000FEE7FEE708B5094B1A681044084BC31A802B02DC054B186005E003F04BFC0C2303604FF0FF32104608BD00BFD080FF1FC881FF1F08B5104E104D16E029686B6860
:400CC000AC68002204E051F8040B43F8040B0432A242F8D1E868002203E0002143F8041B04328242F9D11035013E002EE6D103F027FCFFF71DFAFEE701000000FC4E000005
:400D000008B5104A104B1A60104A136843F40073136000230AE0032B03D80D4A52F8231000E00C490C4A42F8231001332F2BF2D90A4B1A780A4B1A70074A0A4B1A60FFF7BE
:400D4000EBFE08BD0004FA050CED00E014ED00E000000000750C00000080FF1FBC760040C080FF1F08ED00E008B500F075FD0A4A137843F0200313700132137843F0100369
:400D800013700232137843F01003137000F068FD00F0A0FB08BD00BF94640040014B1878704700BF65640040014B1878704700BF67640040034B1B7813F0040FFAD0024BC6
:400DC000188070476564004046640040014B188880B270475664004008B501E00E4B1B880E4B1B7813F0200FF8D100F035FD0C4B1A7842F001021A701A7802F0FE021A7089
:400E000001331A7842F001021A701A7802F0FE021A7000F025FD08BD56640040676400409664004008B51F22064B1A70FFF7D4FFFFF7B4FFFFF7B8FF0023034A13700232EA
:400E4000137008BD846400408564004008B5054B1B7823B9FFF7E6FF0122024B1A70FFF783FF08BD6D81FF1F014B1870704700BF7564004010B500F0EFFC04460F4A13780E
:400E800043F020031370013A137843F0100313700B4A0823136000210A4B19700A490B7843F010030B70102308490B60136000F01FFB204600F0D4FC10BD00BF9C640040E3
:400EC00000E100E06E81FF1F9765004080E200E00822134B1A60134A5378DBB29178C9B2D27812F0FF0F01D18B4211D00E4AD05CC0B20133DBB21F2B00D90023094A53707E
:400F0000D37813F0FF0F06D00022064BDA7002E0064B1878C0B20822054B1A60704700BF80E100E06E81FF1F8481FF1F4F64004000E100E010B50823064A1360064A54792E
:400F400000215171054A13609C40FFF7C1FF204380B210BD80E100E06E81FF1F00E100E008B500F079FC0B4B1A7842F001021A701A7802F0FE021A7000F072FC0821064B1A
:400F80001960064B00225A709A70DA701A71044B196008BD9F64004080E100E06E81FF1F00E100E006490B7803F01F024301DBB213430B70034B18700022034B1A707047AE
:400FC0007D640040D480FF1F6E81FF1F014B1870704700BF2F640040014B1870704700BF3F64004010B51649032000F0B1FA0721032000F0C1FA0024124B5C710320FFF7C8
:40100000D1FF2046FFF7E2FF2046FFF7E5FF72220D4B1A702022013B1A700C49042000F097FA0721042000F0A7FA0622084B1A70472210331A70022250331A7010BD00BF16
:40104000451100006E81FF1F8C6400402D1200002765004008B5054B9B7923B9FFF7C2FF0122024B9A71FFF705FF08BD6E81FF1F164B197ADB79DBB2994205D25A1E914205
:4010800014BF0022012204E0CA1A1F2A14BF00220122002AECD1994207D10D4B1B7813F0040F02D10B4B187070471F2900D90021094B58540131054B1972054B1B7813F0B7
:4010C000020F02D01022054B1A6070476E81FF1F6765004048650040A481FF1F00E200E038B5074B9B792BB938BDFFF7C1FF0134A4B201E005460024285D0028F5D138BD2A
:401100006E81FF1F08B500F0A7FB0A4B1A7842F001021A701A7802F0FE021A7000F0A0FB1023054A1360054A0021D1711172044A136008BD9865004080E100E06E81FF1FD9
:4011400000E100E010B400202E4B1B78DBB213F01E0F05D02C4C03F01E0221780A43227003F0200202F0FF01002A46D0274A1278D4B2274A1278D2B2022A18D113F0010FBA
:4011800009D013F0400F03D00122224B1A7002E00022204B1A701F4B1B7813F0FF0F0CD01D4B1B78DBB21D4AD454012005E01A4B1B78DBB2194AD4540120F0B1184B1B784F
:4011C00013F0FF0F02D00122164B1A70124A13780133DBB213701378DBB21F2B02D900220D4B1A700C4B1A78D2B20F4B1B78DBB29A4202D101220A4B1A700029A4D110BC90
:40120000704700BF6B6400407381FF1F4F640040D480FF1F6E81FF1F7081FF1F8481FF1F7181FF1F7281FF1F6F81FF1F13E0104B1B78DBB21F2B02D900220D4B1A700C4A57
:401240001378DBB20B49CB5CDBB20B490B7013780133DBB21370064B1B78DBB2074A1278934204D0064B1B7813F0040FDFD070477581FF1FA481FF1F486500407681FF1F02
:4012800067650040014B1870704700BF77640040014B1878704700BF77640040024A137843F080031370704776650040014B1870704700BF85650040014B1878704700BFA8
:4012C00065650040014B1870704700BF25650040014B1878704700BF45650040014B1870704700BF05650040024A137843F01003137070477665004008B501E0FFF7E8FFB3
:40130000FFF7DAFF10F0080FF8D108BD08B5FF20FFF7D8FFFF20FFF7E1FF00F09DFA074A137843F01003137000F09AFAFFF7DCFFFFF7E2FF0020FFF7B9FF08BD9565004076
:4013400008B5054B1B7823B9FFF7E0FF0122024B1A70FFF7A3FF08BD7881FF1F014B1B685864704708ED00E04001C0B2014B1870704700BF01E400E00222014B1A60704734
:4013800000E100E00222014B1A60704780E100E010B50446FFF7F6FF2046FFF7DFFF0720FFF7E2FFFFF7E8FF10BD00BF0222014B1A60704780E200E0024A137843F080037F
:4013C000137070477B650040014B1870704700BF88650040014B1878704700BF68650040014B1870704700BF28640040014B1878704700BF48640040014B1870704700BF1F
:4014000008640040024A137843F01003137070477B65004008B501E0FFF7E8FFFFF7DAFF10F0080FF8D108BD08B5FF20FFF7D8FFFF20FFF7E1FF00F00FFA074A137843F0F4
:401440001003137000F00CFAFFF7DCFFFFF7E2FF0020FFF7B9FF08BD9865004008B5054B1B7823B9FFF7E0FF0122024B1A70FFF7A3FF08BD7981FF1F014B1B689864704726
:4014800008ED00E04001C0B2014B1870704700BF02E400E00422014B1A60704700E100E00422014B1A60704780E100E010B50446FFF7F6FF2046FFF7DFFF0720FFF7E2FF1A
:4014C000FFF7E8FF10BD00BF0422014B1A60704780E200E0054A137843F0010313701032137843F001031370704700BFA2430040054A137843F0040313701032137843F051
:4015000004031370704700BFA243004001BE704710B5044605E0084B186800F095F9A4F50044B4F5004FF6D8034B586800FB04F000F08AF910BD00BFD880FF1F08B5034BAB
:401540001B7A00FB03F000F07FF908BDD880FF1F70B504460E46074B1D681F2802D90020FFF7D4FF04F01F04103455F8240045F8246070BD08ED00E038B504460D46072957
:4015800002D90020FFF7C2FF1F2C02D90020FFF7BDFF04F01F0000F1604000F564406D01EDB2057038BD00BF024A137843F08003137070477E640040014B1870704700BFDB
:4015C0008E640040014B1878704700BF6E640040014B1870704700BF2E640040014B1878704700BF4E640040014B1870704700BF0E640040024A137843F0100313707047A2
:401600007E64004008B501E0FFF7E8FFFFF7DAFF10F0080FF8D108BD08B5FF20FFF7D8FFFF20FFF7E1FF00F017F9074A137843F01003137000F014F9FFF7DCFFFFF7E2FFB1
:401640000020FFF7B9FF08BD9E64004008B5054B1B7823B9FFF7E0FF0122024B1A70FFF7A3FF08BD7A81FF1F014B1B681864704708ED00E04001C0B2014B1870704700BF00
:4016800000E400E00122014B1A60704700E100E00122014B1A60704780E100E010B50446FFF7F6FF2046FFF7DFFF0720FFF7E2FFFFF7E8FF10BD00BF0122014B1A607047E9
:4016C00080E200E0084A137843F0010313701032137843F00103137002F64D32137843F001031370704700BFA3430040014B1870704700BF034F0040014B1880704700BFFC
:40170000044F0040014B1880704700BF064F004008B5154A137803F0010313700232137803F0FC031370114B1A7802F0CF021A701A7842F030021A701A7802F0F0021A7017
:401740001A7842F00F021A70094A137843F0010313700120FFF7D0FF0120FFF7D3FF0820FFF7C4FF08BD00BF004F00400B4F0040014F004008B5054B1B7823B9FFF7C8FF4C
:401780000122024B1A70FFF79DFF08BD7B81FF1F014B1B689865704708ED00E04001C0B2014B1870704700BF06E400E04022014B1A60704700E100E04022014B1A60704720
:4017C00080E100E010B50446FFF7F6FF2046FFF7DFFF0720FFF7E2FFFFF7E8FF10BD00BF4022014B1A60704780E200E0014B1B685865704708ED00E04001C0B2014B18704D
:40180000704700BF05E400E02022014B1A60704700E100E02022014B1A60704780E100E010B50446FFF7F6FF2046FFF7DFFF0720FFF7E2FFFFF7E8FF10BD00BF2022014BC0
:401840001A60704780E200E00230800803D000BF01380046FCD17047EFF3108072B6704780F31088704700BF2DE9F04F8DB006460F4614461D4600F00FFBDFF81093CDE9BA
:40188000000199F90080B8F1FF3F46D022462B462046294602F0DEFA834600283DD132463B463046394602F0D5FA8246002874D1304639460022002302F09AFA002833D0D2
:4018C000002200232046294602F092FA8346B8B1A94A012300200021CDF828A0CDE90467CDE90645CDE9080103920293B8F1000F6CD0A24B0022104619460DB0BDE8F08F95
:401900002046294601F0CCFC38B1002200232046294602F077FA00286AD1DDE90023104619460DB0BDE8F08FDDE9000101F0B8FC804600287DD0DDE900014FF0000A4FF0DB
:40194000000B52465B4602F053FA0028E5D03046394601F0A5FC0028DFD02046294601F09FFC0028D9D099F90030834804210022022BCDE90467CDE90645CDE908AB039058
:4019800002910A9204D002A801F090FC002847D102F0D0FD2223036042E0002200232046294602F025FA0028B7D0744B724800220121B8F1020FCDF828B0CDE90467CDE96F
:4019C0000645CDE9082303900291A8D002A801F06DFC00287ED00A9B43B302F0ABFDDDE908230A990160104619460DB0BDE8F08F614999F900300122CDF828B0CDE9046796
:401A0000CDE9064503910292002B68D05C490020022BCDE9080166D102F08CFD212303600A9B1BB102F086FD0A9B0360DDE9082375E73046394601F033FC00283FF47BAF3B
:401A40002046294601F02CFC00283FF474AFDDE900231046194602F0FDF900286FD1464B99F90080039303230A90CDE90467CDE906450293B8F1000F3BD1DFF814B14FF0BD
:401A8000604A0022002330463946CDE908AB02F0B9F900283FF477AF00223A4B2046294601F03EFF04460D4601F008FC02460B462046294602F09CF900283DD1324B4FF091
:401AC0006042CDE9082399F90080B8F1020F7FF45AAF5DE702F02EFD212303607BE700230024CDE9083402A801F0E0FB002897D192E7DFF8A0B04FF0000A002200233046CE
:401B00003946CDE908AB02F07DF90028DDD000221C4B2046294601F003FF04460D4601F0CDFB02460B462046294602F061F918B9134B0022CDE9082399F90080C5E70E4AD7
:401B400099F900900123CDF82880CDE90467CDE9064503920293B9F1000FC0D0002200231046194602F006F8B9F1020FCDE908013FF452AFB7E700BF844E00000000F03F27
:401B80000000F0FF0000E03FFFFFEFC7E880FF1FFFFFEF470000F07F2DE9F0478AB006460D4600F09FFFDFF8E882044698F900707B1C3FD02946284602F086FC8246002813
:401BC00038D13146304602F07FFC00218146002840F09780304602F045FC00282ED00021284602F03FFC8246D0B1A34A0123304601920093CDF8209001F03EFECDE902014F
:401C0000284601F039FE00220023CDE90401CDE90623002F62D04FF07E500AB0BDE8F087284601F053FC28B10021284602F024FC00283AD120460AB0BDE8F087204601F0FD
:401C400045FC0746002878D00021204602F00AFC0028EFD0304601F039FC0028EAD0284601F034FC0028E5D0834900230422304608930092019101F0FFFDCDE902012846B8
:401C800001F0FAFD98F9003000240025022BCDE90401CDE9064503D0684601F007FB18BB02F048FC222303601EE0734A0123304600930192CDF820A001F0DEFDCDE902019F
:401CC000284601F0D9FD98F90030CDE90401002B40F0908000220023CDE90623684601F0E5FA002800F08180089B1BB102F022FC089B0360DDE9060102F0C2F80AB0BDE8B0
:401D0000F087284602F0AEFB002893D05A4A0123304601920093CDF820A001F0ADFDCDE90201284601F0A8FD544B0022022FCDE90401CDE90623D1D16DE7304601F0C6FBAD
:401D4000002881D0284601F0C1FB00283FF47CAF2146204602F0B8FB0346002874D146490322304608930092019101F085FDCDE90201284601F080FD98F90040CDE90401A4
:401D8000002C3ED13E4B4FF0604230460021CDE9062302F071FB00283FF47EAF28464FF07C5102F0CBF901F067FD04460D4601F085FA02460B462046294602F019F80028F7
:401DC0003FD1304B4FF06042CDE9062398F90040022C7FF461AF63E71046194601F0CAFE022CCDE906017FF479AF02F0A3FB2123036079E724490020022BCDE90601F4D006
:401E00006CE7224B002230460021CDE9062302F033FB0028DCD028464FF07C5102F08EF901F02AFD04460D4601F048FA02460B462046294601F0DCFF18B9134B0022CDE93A
:401E4000062398F90040C3E70B4A0123304601920093089701F010FDCDE90201284601F00BFD98F90040CDE9040100220023002CB2D1CDE9062331E7884E00000000F03F70
:401E8000FFFFEF47FFFFEFC70000F0FF0000F07FE880FF1F000000002DE9F04F23F0004858EA020993B03CD0714C21F00046A64283460D460CDD06F1404606F5801656EABB
:401EC0000B0038D183466B49584613B0BDE8F08F9A4696462BD0A045EDDC654CA04578D0002D0F468146CDE9002376DB0024BEF1000F27D15E4B984500F08B805D4B984536
:401F000052D0BAF1804F00F0C9835B4B9A4519D1002D17DB4846394613B0BDE8F04F00F01DBDCB465846534913B0BDE8F08F0028C1D1B045D1DD514813B0BDE8F04F01F0FD
:401F4000B7B900244846394601F0A6F9BBF1000F1CD0ED0F013D54EA050370D0484B984540F3948003F10473984540F30D84454B9E4270DDBAF1000F70DD3BA3D3E9002385
:401F80001046194601F0CCFC83469DE726B1394B25F040429A42DCD1BAF1000FC0F2B783002D08DB83468FE7BAF1000FC0F25E84CB46394688E706F1404606F5801656EA5B
:401FC000040300F08384012CECD101F1004183467AE7BEF1000F83D06DE72B4B98452CDCA3F15473984581DD4FEA2853A3F2FF33142B40F35384C3F134032EFA03F202FA7E
:4020000003F39E457FF472AF02F00102C2F102046DE706F1404303F5801353EA0B0300F03A83184B9E4240F36783BAF1000F15DBDDE900349B46214646E7022457E74A46C7
:4020400048463B46394601F0B7FA02460B4601F091FD834638E7BAF1000F8EDB4FF0000B594631E7AFF300809C7500883CE4377E0000F07F0000F03F0000E03F404E000031
:402080000000E041FFFFEF3FFFFF3F43B6F5801F4FF0000205DAD04B01F042FC0E466FF03402DFF844E33315C6F31306A3F2FF3346F07F57764503EB020A47F4401740F351
:4020C000C983C64B00229E4240F304840023CDE90823CDE90C23C24B0022CDE906230AF1010AA7F5801700263946DDE90623CDE90A0101F061FADDE9062380468946DDE9AB
:402100000A0101F05BFA02460B460020B44901F031FD0A4601461346CDE90E1202464946404601F0FDFB8C4683467B1043F0005303F5002399190020CDE904BC06460F46BD
:402140004FF0000B6146584632463B46CDE910BCCDE9020101F0E4FB02460B464046494601F02AFADDE90623804689463046394601F022FA02460B46DDE90A0101F01CFA12
:40218000DDE9022301F0CCFB02460B464046494601F012FADDE90E2301F0C2FBDDE90478CDE906013A4643463846414601F0B8FB77A3D3E9002306460F4601F0B1FB76A32B
:4021C000D3E9002301F0FAF932463B4601F0A8FB73A3D3E9002301F0F1F932463B4601F09FFB71A3D3E9002301F0E8F932463B4601F096FB6EA3D3E9002301F0DFF93246CA
:402200003B4601F08DFB6CA3D3E9002301F0D6F93246804689463B463046394601F080FB02460B464046494601F07AFBDDE9022306460F46DDE9040101F0C0F9DDE9062303
:4022400001F06EFB32463B4601F0B8F9DDE902678046894632463B463046394601F060FB0022604BCDE90A0101F0A8F942464B4601F0A4F9DDE910BC0F46DDE902015A4654
:402280003B46CDE90EBC5E4601F04AFB0022CDE90201544B3046394601F08EF9DDE90A2301F08AF902460B464046494601F084F9DDE9042301F034FB324680468946DDE9F9
:4022C00006013B4601F02CFB02460B464046494601F074F98046894602460B46DDE9020101F06CF9DDE90EBC35A3D3E900235846CDE906BC5E460F4601F012FBDDE90223A6
:40230000CDE904013046394601F056F902460B464046494601F050F92BA3D3E9002301F0FFFA2BA3D3E90023804689463046394601F0F6FA02460B464046494601F03EF940
:40234000DDE90C2301F03AF980465046894601F081FA06460F46DDE9040142464B4601F02DF9DDE9082301F029F932463B4601F025F9DDE906BC324658463B46DA468B46F5
:4023800001F01AF9DDE9082330E000BFAFF30080EF4E454A287ECA3F65DBC9934A86CD3F01411DA96074D13F4D268F515555D53FFFAB6FDBB66DDB3F033333333333E33FF2
:4023C000000000E009C7EE3FFD033ADC09C7EE3FF5015B14E02F3EBE0000404379B60B000000F03F000008408E98030001F0E4F8DDE9042301F0E0F802460B4640464946EF
:4024000001F0DAF880468946DDE90012013C54EA050314BFD64CD74C0023CDE904340B461446CDE9023400230293DDE9024508462B461146224601F0BFF852465B4601F014
:402440006FFADDE9002306460F464046494601F067FA02460B463046394601F0AFF806460F4622462B4650465946CDE9006701F057FA0B460246804689463046394601F0BA
:402480009DF8BD4B064699420D460C4640F30E8101F13F4303F5E003034340F0F081A0A3D3E90023DDE9000101F088F8424682468B464B463046294601F07EF802460B46CA
:4024C0005046594601F0BCFC002840F0D8812F463B154FF48012A3F2FE3342FA03F32344C3F30A52A54EA2F2FF321641C3F3130B0020C2F1140523EA06014BF4801B02463D
:402500000B46002C4BFA05FB40464946B8BFCBF1000B01F051F802460B4680468946DDE9000101F04BF84FEA0B5A00247EA3D3E9002320460D4601F0F3F9424606460F46A2
:402540004B462046294601F037F802460B46DDE9000101F031F876A3D3E9002301F0E0F975A3D3E90023804689462046294601F0D7F902460B464046494601F01FF88046FB
:40258000894602460B463046394601F017F832463B4604460D4601F00FF802460B464046494601F009F82246804689462B462046294601F0B5F962A3D3E9002306460F4629
:4025C00001F0AEF960A3D3E9002300F0F5FF32463B4601F0A5F95EA3D3E9002300F0EEFF32463B4601F09CF95BA3D3E9002300F0E3FF32463B4601F093F959A3D3E90023B9
:4026000000F0DCFF32463B4601F08AF902460B462046294600F0D0FF06460F4602460B462046294601F07CF90022CDE900014FF080433046394600F0BFFF02460B46DDE9E3
:40264000000101F097FA424606460F464B462046294601F065F942464B4600F0AFFF02460B463046394600F0A7FF22462B4600F0A3FF02460B4600203D4900F09DFF8A441A
:40268000BAF5801FC0F237815146DDE9042301F047F9834618E4F346354915E44A4648463B46394601F03CF983460DE4344B21F000479F4240F30181324B0B4403430CD1DE
:4026C00042464B4600F078FF02460B46DDE9000101F0A2FB00283FF4FBAE23A3D3E90023DDE9040101F01CF91FA3D3E9002301F017F98346FFF7E8BBBAF1000FBFF6AEAC25
:40270000DDE900349B4604F10041FFF7DDBB02460B460020164901F02DFA41E4AFF30080FE822B654715973C00000000432EE63FEF39FAFE422EE63F396CA80C615C20BE05
:40274000D0A4BE726937663EF16BD2C541BDBB3E2CDE25AF6A56113F93BDBE166CC1663F3E5555555555C53F59F3F8C21F6EA5010000F03F0000F0BFFFFF8F40FFFF0F00C7
:40278000FFCB904000346F3F6F4B9E427FF763AC6E4B9E423FF7EEAB00226C4B00F00CFF5BA3D3E9002306460F4601F0B9F85AA3D3E90023804689463046394601F0B0F823
:4027C000002282468B46624B3046394601F0A8F802460B4652A1D1E9000100F0EDFE32463B4601F09DF802460B460020594900F0E3FE3246CDE902013B463046394601F086
:402800008FF802460B46DDE9020101F089F846A3D3E9002301F084F802460B465046594600F0CAFE02460B4606460F464046494600F0C4FE42464B46002082468B4600F0BF
:40284000BBFE02460B463046394600F0B5FE80468946D9E500220023CDE90823CDE90C233A4B00220026CDE906233DE44A463B460020364901F07EF98346FFF725BB2CA3BD
:40288000D3E90023DDE9040101F04AF828A3D3E9002301F045F88346FFF716BBBEF1000F7FF44FABC3F1140348FA03F202FA03F3984524D07446FFF721BB264B9F423FF7CF
:4028C00007AEDDE902349A469B462EE602460B46FFF7B9BB204B4FF48026CDE9062316A3D3E90023CDE9082315A3D3E90023CDE90C23FFF7F9BB5A4600F072FDC5E602F0E1
:402900000102C2F10204FFF7F9BA00BFAFF30080000000604715F73F44DF5DF80BAE543E555555555555D53FFE822B654715F73F9C7500883CE4377E0000004003B8E23F5E
:4029400006D0CF43EBFD4C3EFEFFEF3F0000F03F0000D03F0000E03F0000F83F2DE9F0415F4E0C46B6460E407645054600F0988000290B46024674DD5FEA215E7FD0AEF2D6
:40298000FF3EC3F313031EF0010F43F4801363D100273E4603EBD2710B444FEA6E0E520016204FF4001174189C424FEAD2754FEA420202DC1B1B66180F44013805EB43037B
:4029C0004FEA5101EFD1844620244FF0004109E020D003EBD275013C4FEA51012B444FEA420220D09E4201EB0C05F1DA002D05EB010C09DBB0469542A3EB060300D9013B1D
:402A00004646521B0844E4E7BCF1000FF2DB06F10108F0E7954217D8002D05EB010C49DB98460023ECE7134310D140087B1003F17F5303F50013FA0703EB0E57394648BF89
:402A400040F00040BDE8F0813346C2E7411C35D000F001031844E8E75B0003EBD273520096E721F000460643ECD079BB8E46D30AAEF1150E5205002BF9D0DD0221D400218D
:402A800000E001465B00DC0201F10100F9D5C0F1200422FA04F42343C1EB0E0E82406EE702460B4600F03CFF2A46234600F086FDBDE8F081BCF1000FA9DAB1E7013720462C
:402AC000B4E720244FF0FF310020E2E702460B4600F072FD02460B4601F04CF8B2E700BF0000F07F2DE9F04F31F0004887B011D020F00049B9F1FF4F824605DD514807B0F1
:402B0000BDE8F04F00F0EABCB8F1FF4F07DDB9F17E5FF3D14FF07E5007B0BDE8F08F00280C464ADB0025B8F1FF4F3ED0B8F17E5F07460E4654D0B4F1804F6BD0B4F17C5FCA
:402B40001DD000F0BFFCB9F1FF4F51D0B9F1000F4ED0B9F17E5F4BD04FEADA7A0AF1FF3255EA020366D0B8F19A4F6FDD364B994500F36182002CC0F264820020CCE7BAF1A3
:402B8000000F4BDA00F09EFCB9F1FF4F02D0B9F1000FDED1A9F17E5959EA050343D0012DBAD100F100410846B6E7B9F17E5FB1D02BDD002CE1DB0846AEE7B8F1974F22DA1A
:402BC000B8F17E5F0ADB4FEAE853C3F1960348FA03F202FA03F3984500F028820025A5E7002C99DA01464FF07E5001F05BFB93E7002C04DA01464FF07E5001F053FBBAF15C
:402C0000000F89DAC6E702258DE7002CB5DA01F1004081E7014601F091FA7DE707B0BDE8F04F00F0E5BA014601F07EF9014601F039FB71E73946384601F076F9014601F02C
:402C400031FB69E7404E0000F7FF7F3FB9F5000F80F205824FF09741009201F06FFA8146009A6FF017014FEAE953B448C9F316097F3B0B4481451946009349F07E5740F3B7
:402C8000E581AF4B994540F33E820023184603930B46013300930023A7F50007029001934FF07E5A51463846059201F03DF951468346384601F03AF901464FF07E5001F097
:402CC000F1FA01460490584601F038FA7910019B41F00051B94601F5802120F47F670B4427F00F07194680463846019301F026FA0146584601F018F951468346019801F081
:402D000013F90146484601F00FF9394601F016FA0146584601F008F9049B194601F00EFA41468346404601F009FA8146854901F005FA854901F0FAF8494601F0FFF9834927
:402D400001F0F4F8494601F0F9F9814901F0EEF8494601F0F3F97F4901F0E8F8494601F0EDF97D4901F0E2F849468246484601F0E5F90146504601F0E1F98146394640463F
:402D800001F0D4F8594601F0D9F9494601F0CEF839468246384601F0D1F97049019001F0C5F8514601F0C2F820F47F6929F00F094946384601F0C2F968490746484601F091
:402DC000B3F8019B194601F0AFF80146504601F0ABF8414601F0B2F949468046584601F0ADF90146404601F0A1F882460146384601F09CF820F47F6929F00F0948465849B2
:402E000001F09CF939468046484601F08DF80146504601F089F8534901F090F952490746484601F08BF90146384601F07FF8029901F07CF80746009801F02CF98146394605
:402E4000404601F073F8DDF80CB0594601F06EF8494601F06BF820F47F6A2AF00F0A4946504601F061F8594601F05EF8414601F05BF80146384601F057F88046059A24F434
:402E80007F6424F00F04013D55EA02032146304614BF4FF07E57354F01F046F8514601F04DF931460546404601F048F90146284601F03CF821460646504601F03FF98046B5
:402EC0003046414601F032F8002881460446C24620F0004540F30181B5F1864F00F3CF8000F0BF80B5F17C5F00F3D1800025A94624F47F6424F00F0420461D4901F01EF9B4
:402F000051468046204601F00FF80146304601F00BF8184901F012F917490646204601F00DF90146304601F001F806460146404600F0FCFF4146044620E000BF71C41C0033
:402F4000D6B35D0042F1533E55326C3E05A38B3EABAAAA3EB76DDB3E9A99193F000040400038763F4F38763FA0C39D36000080BF0072313F1872313F8CBEBF3500F0D4FF05
:402F80000146304600F0D0FF21468046204601F0D5F80646854901F0D1F8854900F0C4FF314601F0CBF8834900F0C0FF314601F0C5F8814900F0B8FF314601F0BFF87F49CC
:402FC00000F0B4FF314601F0B9F80146204600F0ABFF06460146204601F0B0F84FF080418246304600F0A0FF0146504601F05AF941460646204601F0A1F8414600F096FF7F
:403000000146304600F090FF214600F08DFF01464FF07E5000F088FF4319B3F5000FC0F2C0801846394601F089F875E502F00102C2F102057AE5624B99456EDD002C7FF772
:403040009CAD6049084601F079F865E50023194603930023019302914FF07E5A22E6002101E65949304600F061FF41468246484600F05AFF0146504601F01CFA38B1384602
:40308000504901F05BF84F4901F058F844E5ED154FF400037E3D43FA05F52B19C3F3C7524A49C3F316097F3A114149F40009C2F1170249FA02F9002C23EA01014046B8BFE9
:4030C000C9F1000900F030FF01468246304600F02DFF4FEAC95504460AE73D4B9D420ADC7FF400AF414600F01FFF0146304601F0CDF90028CBD03846364901F01FF83549FD
:4031000001F01CF808E5344B4FF07F5A0393334B02934FF400130193C4E54FF07E51009200F002FF2E49074601F008F82D498046384601F003F84FF07A518146384600F09F
:40314000FDFF0146284800F0EFFE394600F0F6FF01464FF07C5000F0E7FE39468246384600F0ECFF0146504600F0E8FF1F4900F0E5FF0146484600F0D7FE014607464046F0
:4031800000F0D4FE20F47F6A2AF00F0A4146504600F0CAFE0146384600F0C6FE009A80466DE6494600F09EF93CE700BF4CBB31330EEADD3555B38A38610B363BABAA2A3E4B
:4031C0000700803FCAF249713CAA3833FFFF7F00000016436042A20D00C0153FDCCFD13500AAB83F70A5EC36ABAAAA3E3BAAB83F20F00042B2F1FF4F70B504462ED262B39E
:40320000002803463DDBB2F5000F4FEAE0502CD3002631467F38C3F31603C20743F4000348BF5B0040105B0019244FF080728D189D4202DC5B1BA9181644013C4FEA430397
:403240004FEA5202F3D113B106F001031E44761006F17C5606EBC05070BD70BD014600F06DFF214600F062FE70BD14F4000201D00EE00A465B001C0202F10101F9D5801ABD
:40328000C6E7014600F050FE014601F00BF870BD4FF0FF32F3E700BF21F00041704700BF41F0004101F58010C00F70470020704700200149704700BF0000F87FF0B5C1F39E
:4032C0000A5EAEF2FF36132E83B002460B460C464FEAD17507462EDC002E49DB3D49314103EA010010432BD049080B4053EA02070CD04FF48023132E24EA010143FA06F4AA
:4033000044EA01040CBF4FF000470027324B214603EBC505D5E90045384622462B4600F04DF9CDE90001DDE9000122462B4600F043F903B0F0BD332E06DDB6F5806F45D0E0
:403340001046194603B0F0BDAEF2134E4FF0FF3121FA0EF10842F3D049080842D6D04FF0804320EA010143FA0EFE4EEA0107CDE721F0004101431946E4D0C3F3130343EA73
:40338000000CCCF1000343EA0C0C134B640C4FEA1C3C0CF4002C03EBC5036404D3E900674CEA040132463B4600F008F9CDE90001DDE9000132463B4600F0FEF8024621F055
:4033C000004141EAC57310461946BBE700F0F6F8B8E700BFFFFF0F00904E000000000000F8B5C1F30A5604460D460B46174606BB21F00043034325D000222F4B00F090FA39
:403400002E4A044697420D460B462ADBC1F30A56363E40F2FE723E44964228DC002E12DD23F0FF4323F4E00343EA065520462946F8BD40F2FF729642EBD102460B4600F082
:40344000BDF8F8BDF8BD16F1350F1DDA4CF250339F420CDC14A1D1E9000122462B4600F099F811A3D3E9002300F05AFAF8BD22460FA1D1E900012B4600F08CF80CA3D3E9E8
:40348000002300F04DFAF8BD23F0FF4323F4E003363643EA0655204629460022084B00F03FFAF8BDAFF3008059F3F8C21F6EA5019C7500883CE4377E00005043B03CFFFF4C
:4034C0000000903C20F00040704700BF20F00040B0F1FF4FACBF002001207047004870470000C07F30F0004238B5034616D0B2F1FF4F0FD2B2F5000F0D4610D30446D20DF5
:403500002A44FE2A2EDC002A1DDD24F0FF4444EAC25038BD014600F009FD38BD38BD4FF0984100F00BFE184A0346954207DBC0F3C7520446193AE3E7144800F033F8134999
:4035400000F0FCFD38BD12F1160F13DA4CF2503295421946F0DD0E4800F024F80C4900F0EDFD38BD19460A4800F01CF8084900F0E5FD38BD193224F0FF4040EAC2504FF029
:403580004C5100F0DBFD38BDB03CFFFF6042A20DCAF2497103F0004321F0004242EA0301704700BF01F0004120F000400843704781F0004102E000BF83F0004330B54FEA26
:4035C00041044FEA430594EA050F08BF90EA020F1FBF54EA000C55EA020C7FEA645C7FEA655C00F0E2804FEA5454D4EB5555B8BF6D420CDD2C4480EA020281EA030382EAF3
:40360000000083EA010180EA020281EA0303362D88BF30BD11F0004F4FEA01314FF4801C4CEA113102D0404261EB410113F0004F4FEA03334CEA133302D0524263EB43037A
:4036400094EA050F00F0A780A4F10104D5F1200E0DDB02FA0EFC22FA05F2801841F1000103FA0EF2801843FA05F359410EE0A5F120050EF1200E012A03FA0EFC28BF4CF0B8
:40368000020C43FA05F3C01851EBE37101F0004507D54FF0000EDCF1000C7EEB00006EEB0101B1F5801F1BD3B1F5001F0CD349085FEA30004FEA3C0C04F101044FEA445278
:4036C00012F5800F80F09A80BCF1004F08BF5FEA500C50F1000041EB045141EA050130BD5FEA4C0C404141EB010111F4801FA4F10104E9D191F0000F04BF01460020B1FAB5
:4037000081F308BF2033A3F10B03B3F120020CDA0C3208DD02F1140CC2F10C0201FA0CF021FA02F10CE002F11402D8BFC2F1200C01FA02F120FA0CFCDCBF41EA0C01904093
:40374000E41AA2BF01EB0451294330BD6FEA04041F3C1CDA0C340EDC04F11404C4F1200220FA04F001FA02F340EA030021FA04F345EA030130BDC4F10C04C4F1200220FA7D
:4037800002F001FA04F340EA0300294630BD21FA04F0294630BD94F0000F83F4801306BF81F480110134013D4EE77FEA645C18BF7FEA655C29D094EA050F08BF90EA020F1A
:4037C00005D054EA000C04BF1946104630BD91EA030F1EBF0021002030BD5FEA545C05D14000494128BF41F0004130BD14F580043CBF01F5801130BD01F0004545F0FE4128
:4038000041F470014FF0000030BD7FEA645C1ABF194610467FEA655C1CBF0B46024650EA013406BF52EA033591EA030F41F4002130BD00BF90F0000F04BF0021704730B51B
:403840004FF4806404F132044FF000054FF0000150E700BF90F0000F04BF0021704730B54FF4806404F1320410F0004548BF40424FF000013EE700BF42004FEAE2014FEA92
:4038800031014FEA02701FBF12F07F4393F07F4F81F06051704792F0000F14BF93F07F4F704730B54FF4607401F0004521F0004120E700BF50EA010208BF704730B54FF0CA
:4038C00000050AE050EA010208BF704730B511F0004502D5404261EB41014FF4806404F132045FEA915C3FF4DCAE4FF003025FEADC0C18BF03325FEADC0C18BF033202EB1C
:40390000DC02C2F1200300FA03FC20FA02F001FA03FE40EA0E0021FA02F11444C1E600BF70B54FF0FF0C4CF4E06C1CEA11541DBF1CEA135594EA0C0F95EA0C0F00F0DEF825
:403940002C4481EA030621EA4C5123EA4C5350EA013518BF52EA033541F4801143F4801338D0A0FB02CE4FF00005E1FB02E506F00042E0FB03E54FF00006E1FB03569CF049
:40398000000F18BF4EF0010EA4F1FF04B6F5007F64F5407404D25FEA4E0E6D4146EB060642EAC62141EA55514FEAC52040EA5E504FEACE2EB4F1FD0C88BFBCF5E06F1ED8A5
:4039C000BEF1004F08BF5FEA500E50F1000041EB045170BD06F0004646EA010140EA020081EA0301B4EB5C04C2BFD4EB0C0541EA045170BD41F480114FF0000E013C00F323
:403A0000AB8014F1360FDEBF002001F0004170BDC4F10004203C35DA0C341BDC04F11404C4F1200500FA05F320FA04F001FA05F240EA020001F0004221F0004110EBD370D2
:403A400021FA04F642EB06015EEA430E08BF20EAD37070BDC4F10C04C4F1200500FA04F320FA05F001FA04F240EA020001F0004110EBD37041F100015EEA430E08BF20EA5A
:403A8000D37070BDC4F1200500FA05F24EEA020E20FA04F301FA05F243EA020321FA04F001F0004121FA04F220EA020000EBD3705EEA430E08BF20EAD37070BD94F0000F55
:403AC0000FD101F00046400041EB010111F4801F08BF013CF7D041EA060195F0000F18BF704703F00046520043EB030313F4801F08BF013DF7D043EA0603704794EA0C0FC7
:403B00000CEA135518BF95EA0C0F0CD050EA410618BF52EA4306D1D181EA030101F000414FF0000070BD50EA410606BF1046194652EA430619D094EA0C0F02D150EA013608
:403B400013D195EA0C0F05D152EA03361CBF104619460AD181EA030101F0004141F0FE4141F470014FF0000070BD41F0FE4141F4780170BD70B54FF0FF0C4CF4E06C1CEAA2
:403B800011541DBF1CEA135594EA0C0F95EA0C0F00F0A7F8A4EB050481EA030E52EA03354FEA013100F088804FEA03334FF0805545EA131343EA12634FEA022245EA11157D
:403BC00045EA10654FEA00260EF000419D4208BF964244F1FD0404F5407402D25B084FEA3202B61A65EB03055B084FEA32024FF480104FF4002CB6EB020E75EB030E22BF41
:403C0000B61A754640EA0C005B084FEA3202B6EB020E75EB030E22BFB61A754640EA5C005B084FEA3202B6EB020E75EB030E22BFB61A754640EA9C005B084FEA3202B6EB4A
:403C4000020E75EB030E22BFB61A754640EADC0055EA060E18D04FEA051545EA16754FEA06164FEAC30343EA52734FEAC2025FEA1C1CC0D111F4801F0BD141EA00014FF0C9
:403C800000004FF0004CB6E711F4801F04BF01430020B4F1FD0C88BFBCF5E06F3FF6AFAEB5EB030C04BFB6EB020C5FEA500C50F1000041EB045170BD0EF0004E4EEA11310F
:403CC00014EB5C04C2BFD4EB0C0541EA045170BD41F480114FF0000E013C90E645EA060E8DE60CEA135594EA0C0F08BF95EA0C0F3FF43BAF94EA0C0F0AD150EA01347FF420
:403D000034AF95EA0C0F7FF425AF104619462CE795EA0C0F06D152EA03353FF4FDAE1046194622E750EA410618BF52EA43067FF4C5AE50EA41047FF40DAF52EA43057FF40E
:403D4000EBAE12E74FF0FF3C06E000BF4FF0010C02E000BF4FF0010C4DF804CD4FEA410C7FEA6C5C4FEA430C18BF7FEA6C5C1BD001B050EA410C0CBF52EA430C91EA030FF6
:403D800002BF90EA020F0020704710F1000F91EA030F58BF994208BF90422CBFD8176FEAE37040F0010070474FEA410C7FEA6C5C02D150EA013C07D14FEA430C7FEA6C5CB8
:403DC000D6D152EA033CD3D05DF8040B704700BF8446104662468C461946634600E000BF01B5FFF7B7FF002848BF10F1000F01BD4DF808EDFFF7F4FF0CBF012000205DF800
:403E000008FB00BF4DF808EDFFF7EAFF34BF012000205DF808FB00BF4DF808EDFFF7E0FF94BF012000205DF808FB00BF4DF808EDFFF7CEFF94BF012000205DF808FB00BFFA
:403E40004DF808EDFFF7C4FF34BF012000205DF808FB00BF4FEA410C7FEA6C5C02D150EA013C0AD14FEA430C7FEA6C5C02D152EA033C02D14FF0000070474FF00100704761
:403E80004FEA4102B2F1E04324BFB3F5001CDCF1FE5C0DD901F0004C4FEAC0024CEA5070B2F1004F40EB830008BF20F00100704711F0804F21D113F13872BCBF01F0004093
:403EC000704741F480114FEA5252C2F11802C2F1200C10FA0CF320FA02F018BF40F001004FEAC1234FEAD32303FA0CFC40EA0C0023FA02F34FEA4303CCE77FEA625307D1DE
:403F000050EA01331EBF4FF0FE4040F44000704701F0004040F0FE4040F40000704700BF80F0004002E000BF81F0004142001FBF5FEA410392EA030F7FEA226C7FEA236C18
:403F40006AD04FEA1262D2EB1363C1BFD218414048404140B8BF5B42192B88BF704710F0004F40F4000020F07F4018BF404211F0004F41F4000121F07F4118BF494292EAFD
:403F8000030F3FD0A2F1010241FA03FC10EB0C00C3F1200301FA03F100F0004302D5494260EB4000B0F5000F13D3B0F1807F06D340084FEA310102F10102FE2A51D2B1F17A
:403FC000004F40EBC25008BF20F0010040EA03007047490040EB000010F4000FA2F10102EDD1B0FA80FCACF1080CB2EB0C0200FA0CF0AABF00EBC25052421843BCBFD04046
:404000001843704792F0000F81F4000106BF80F400000132013BB5E74FEA41037FEA226C18BF7FEA236C21D092EA030F04D092F0000F08BF0846704790EA010F1CBF0020AB
:40404000704712F07F4F04D1400028BF40F00040704712F100723CBF00F50000704700F0004343F0FE4040F4000070477FEA226216BF08467FEA23630146420206BF5FEA53
:40408000412390EA010F40F4800070474FF0000304E000BF10F0004348BF40425FEA000C08BF704743F0964301464FF000001CE050EA010208BF70474FF000030AE000BFEF
:4040C00050EA010208BF704711F0004302D5404261EB41015FEA010C02BF84460146002043F0B64308BFA3F18053A3F50003BCFA8CF2083AA3EBC25310DB01FA02FC6344F9
:4041000000FA02FCC2F12002BCF1004F20FA02F243EB020008BF20F00100704702F1200201FA02FCC2F1200250EA4C0021FA02F243EB020008BF20EADC7070474FF0FF0C23
:404140001CEAD0521EBF1CEAD15392EA0C0F93EA0C0F6FD01A4480EA010C400218BF5FEA41211ED04FF0006343EA501043EA5111A0FB01310CF00040B1F5000F3EBF490059
:4041800041EAD3715B0040EA010062F17F02FD2A1DD8B3F1004F40EBC25008BF20F00100704790F0000F0CF0004C08BF49024CEA502040EA51207F3AC2BFD2F1FF0340EA08
:4041C000C250704740F400004FF00003013A5DDC12F1190FDCBF00F000407047C2F10002410021FA02F1C2F1200200FA02FC5FEA310040F1000053EA4C0308BF20EADC703A
:40420000704792F0000F00F0004C02BF400010F4000F013AF9D040EA0C0093F0000F01F0004C02BF490011F4000F013BF9D041EA0C018FE70CEAD15392EA0C0F18BF93EA07
:404240000C0F0AD030F0004C18BF31F0004CD8D180EA010000F00040704790F0000F17BF90F0004F084691F0000F91F0004F14D092EA0C0F01D142020FD193EA0C0F03D1DF
:404280004B0218BF084608D180EA010000F0004040F0FE4040F40000704740F0FE4040F4400070474FF0FF0C1CEAD0521EBF1CEAD15392EA0C0F93EA0C0F69D0A2EB0302B3
:4042C00080EA010C49024FEA402037D04FF0805343EA111143EA10130CF000408B4238BF5B0042F17D024FF4000C8B4224BF5B1A40EA0C00B3EB510F24BFA3EB510340EA07
:404300005C00B3EB910F24BFA3EB910340EA9C00B3EBD10F24BFA3EBD10340EADC001B0118BF5FEA1C1CE0D1FD2A3FF650AF8B4240EBC25008BF20F0010070470CF0004CEE
:404340004CEA50207F32C2BFD2F1FF0340EAC250704740F400004FF00003013A37E792F0000F00F0004C02BF400010F4000F013AF9D040EA0C0093F0000F01F0004C02BF33
:40438000490011F4000F013BF9D041EA0C0195E70CEAD15392EA0C0F08D142027FF47DAF93EA0C0F7FF470AF084676E793EA0C0F04D14B023FF44CAF08466EE730F0004CAE
:4043C00018BF31F0004CCAD130F000427FF45CAF31F000437FF43CAF5FE700BF4FF0FF3C06E000BF4FF0010C02E000BF4FF0010C4DF804CD4FEA40024FEA41037FEA226CDA
:4044000018BF7FEA236C11D001B052EA530C18BF90EA010F58BFB2EB030088BFC81738BF6FEAE17018BF40F0010070477FEA226C02D15FEA402C05D17FEA236CE4D15FEA97
:40444000412CE1D05DF8040B704700BF844608466146FFE70FB5FFF7C9FF002848BF10F1000F0FBD4DF808EDFFF7F4FF0CBF012000205DF808FB00BF4DF808EDFFF7EAFFB3
:4044800034BF012000205DF808FB00BF4DF808EDFFF7E0FF94BF012000205DF808FB00BF4DF808EDFFF7D2FF94BF012000205DF808FB00BF4DF808EDFFF7C8FF34BF012040
:4044C00000205DF808FB00BF4FEA40024FEA41037FEA226C02D15FEA402C08D17FEA236C02D15FEA412C02D14FF0000070474FF00100704742000ED2B2F1FE4F0BD34FF0C5
:404500009E03B3EB126209D44FEA002343F0004323FA02F070474FF00000704712F1610F01D1420202D14FF0FF3070474FF00000704700BF014B1868704700BF4C81FF1FFA
:404540000E4B70B51E460E4C0025E41AA410A54204D056F8253098470135F8E700F0BCFC084B094C1E46E41AA4100025A54204D056F8253098470135F8E770BDE44E00009A
:40458000E44E0000E44E0000EC4E000010B5431E0A44914204D011F8014B03F8014FF8E710BD03460244934202D003F8011BFAE7704700000EB400B54FF402719CB0ADF8F3
:4045C00014106FF00041049107914FF6FF711DAB02900690084853F8042BADF81610006802A9019300F072F8029B00221A701CB05DF804EB03B070474C81FF1FC9B203461D
:4046000010F8012B1AB19142F9D11846704700290CBF1846002070472DE9F0478E6882469E420C46914698463ED88A8912F4906F3AD02568096902236F1A656905EB4505C1
:4046400095FBF3F57B1C43449D4238BF1D4653050FD5294600F040FB064698B13A462169FFF794FFA38923F4906343F08003A38113E02A4600F08EFB064670B921695046EC
:4046800000F0DEFA0C23CAF80030A3894FF0FF3043F04003A381BDE8F08726613E44266046466561ED1BA560464528BF464649463246206800F0A8FAA36800209B1BA360D0
:4046C00023681E442660BDE8F08700002DE9F04F9DB003938B8980461C060D4616460DD50B695BB9402100F0F7FA2860286118B90C23C8F80030CDE040236B610023099300
:4047000020238DF82930DFF89CB130238DF82A3037463C4614F8013B1BB9B7EB060910D003E0252BF9D02746F3E74B46324629464046FFF771FF013000F0A780099B4B4434
:4047400009933B78002B00F0A08000234FF0FF3204930793059206938DF853301A930126052221784E4800F041FA671C049B38B14B4A3C46801A06FA00F018430490EFE7ED
:40478000D90644BF20228DF853201A0744BF2B228DF8532022782A2A03D0079A00210A200BE0039A111D12680391002A10DA524243F00200079204900BE027463B780134B9
:4047C000303B092B03D800FB02320121F5E701B107923B782E2B1ED17B782A2B0AD1039B02371A1D1B680392002BB8BF4FF0FF33059310E0002319460593781C0A240746BF
:404800003A780130303A092A03D804FB01210123F5E703B1059103223978224800F0E6F940B14023CBEB000003FA00F0049B013718430490397806221B487E1C8DF8281053
:4048400000F0D4F988B1194B33B9039B073323F007030833039314E003AB00932A46144B04A94046AFF3008007E003AB00932A460F4B04A9404600F093F8B0F1FF3F82468C
:4048800003D0099B5344099342E7AB895B0601D4099801E04FF0FF301DB0BDE8F08F00BFA24E0000A84E0000AC4E000000000000194600002DE9F04791461F460A698B68ED
:4048C00006469342B8BF1346C9F8003091F843200C46DDF8208012B10133C9F800302368990642BFD9F800300233C9F80030256815F0060510D104F1190A07E001235246B0
:4049000039463046C04701301AD00135E368D9F800209B1A9D42F1DB94F843302268003318BF012392060FD5E118302081F843005A1C94F845102244023382F8431003E0B4
:404940004FF0FF30BDE8F08704F1430239463046C0470130F4D02268D9F80050E36802F00602042A08BF5D1B2269A3680CBF25EAE57500259342C4BF9B1AED184FF00009DC
:404980001A344D4509D00123224639463046C0470130D5D009F10109F3E70020BDE8F0872DE9F04317460A7E85B06E2A984606460C460C9B01F1430E00F0AE8011D8632AD1
:4049C00022D009D8002A00F0BB80582A40F0CA8081F84520834955E0642A1ED0692A1CD0C0E0732A00F0B08009D86F2A2ED0702A40F0B8800A6842F020020A603EE0752AF5
:404A000024D0782A3AD0ADE01A6801F14205111D1960136884F84230A8E021681A6811F0800F02D0111D196008E011F0400F02F10401196002D0B2F9003000E01368002B06
:404A40003CDA2D225B4284F8432037E021681A6811F0800F02D0111D196007E011F0400F02F10401196001D0138800E01368227E5C496F2A14BF0A2208221BE078225A497C
:404A800084F845202268186812F0800F00F104051D6003D1550601D5038800E00368D00744BF42F0200222601BB9226822F0200222601022002084F8430001E049490A22B4
:404AC0006568002DA56008DB206820F0040020602BB9002D7DD175460CE0002B79D07546B3FBF2F002FB1033CB5C05F8013D03460028F5D1082A0BD12368DA0708D5236937
:404B000062689A42DEBF302305F8013C05F1FF35C5EB0E0323612EE008681A6810F0800F496903D0101D1860136808E010F0400F02F104001860136801D0198000E019601E
:404B400000232361754616E01A68111D1960156800216268284600F049F808B1401B6060636804E004F1420584F8422001232361002384F84330CDF800803B4603AA21467C
:404B80003046FFF797FE013002D14FF0FF3026E023692A4639463046C0470130F5D023689B0710D5002504F1190907E001234A4639463046C0470130E7D00135E368039AA3
:404BC0009B1A9D42F2DBE068039B9842B8BF184605E00B7804F1420584F842308AE705B0BDE8F083B34E0000C44E000010B5C9B202449042034605D01C7801308C42F8D10A
:404C0000184610BD002010BD884210B501EB020301D8421E0BE09842FBD28118D21AD34204D013F8014D01F8014DF8E710BD994204D011F8014B02F8014FF8E710BD00005D
:404C400038B50546002944D051F8043C0C1F002BB8BFE41800F0D4F81E4A1368114613B96360146030E0A3420DD92268A018834201BF18685B681218226063600C6023E0B1
:404C8000A24203D813465A68002AF9D118681918A1420BD12168014458188242196013D110685268014419605A600DE002D90C232B6009E021686018824201BF106852688B
:404CC0000918216062605C602846BDE8384000F098B838BD8081FF1F70B5CD1C25F0030508350C2D38BF0C25002D064601DBA94202D90C23336046E000F082F8234B1C688D
:404D00001A462146A1B10B685B1B0ED40B2B03D90B60CC18CD501EE08C420BBF63684B681360636018BF0C4615E00C464968E9E7174C23681BB9304600F052F82060294675
:404D4000304600F04DF8431C18D0C41C24F00304A0420DD12560304600F053F804F10B00231D20F00700C31A0ED05A42E25070BD211A304600F034F80130EBD10C233360C7
:404D8000304600F03EF8002070BD00BF8081FF1F7C81FF1FF8B5074615460E4621B91146BDE8F840FFF798BF1AB9FFF749FF2846F8BD00F027F885420ED929463846FFF739
:404DC0008BFF044650B131462A46FFF7DFFB31463846FFF735FF01E03046F8BD2046F8BD38B5064C0023054608462360FBF74AFF431C02D1236803B12B6038BDC481FF1FD4
:404E00007047704751F8040C0028BEBF091851F8043CC0180438704700000000000000002064656743202020202020005325647300000000412564610000000053503A20C7
:404E4000000000002064656743202000004F00400C0040510040300000000140001000140140000800400140000A004C014000020050014020000000605200406C0E004896
:404E800006000000706F7700706F776600000000000000000000304300000000000030C34300232D302B2000686C4C0065666745464700303132333435363738394142436F
:404EC000444546003031323334353637383961626364656600000000F8B500BFF8BC08BC9E4670474D000000010D0000F8B500BFF8BC08BC9E46704729000000104F0000A0
:404F0000C880FF1F88000000780000000000000000000000FEFE0000C881FF1F030000000000E02EC05D00001800000000366E0101000000000000000000000000000000BC
:404F40000000000000000000000000000000000000000000A04E00000000000000000000000000000000000000000000000000000000000000000000000000000000000043
:404F80000000000000000000000000000000000000000000EC80FF1F0000000000000000000000000000000000000000000000000000000000000000000000000000000067
:404FC00000000000000000000000000000000000000000000000000000000000000000000000000000000000000000000000000000000000000000000000000000000000B1
:405000000000000000000000000000000000000000000000000000000000000000000000000000000000000000000000000000000000000000000000000000000000000070
:405040000000000000000000000000000000000000000000000000000000000000000000000000000000000000000000000000000000000000000000000000000000000030
:4050800000000000000000000000000000000000000000000000000000000000000000000000000000000000000000000000000000000000000000000000000000000000F0
:020000040003F7
:0200000480007A
:40000000024F004006520040046400400365004001010140070301403D0401403E0501406606014049070140610801404D090140470A0140530B0140490C01404C0D0140D3
:40004000620E0140330F01405714014057150140551601405217014055180140561901404C1A0140521B01400840014011410140104201400F430140024401400F4501408C
:4000800009460140074701400F48014013490140054C01400C4D0140075001400251014001400A360046015C1010185419C87904841F8B798C728E0D850D870F880DE6089B
:4000C000800882109A01AA01E201E615EA040130053009300D301501171A1D021F1D2330272029032B0C2D032F143320371F3B803F045602572059045B045F018139840B0B
:400100008539861489218B188D39911893219406995E9B01A01CA144A203A319A801A951AA18AB02AD18AF04B001B120B20EB30FB410B511B740B808BB0CBE10BF41D40987
:40014000D804D904DB04DF01040A06A00E201503164017201C081D021E20200121082240240A2609272029012A642D012E202F01324835013722384039143B013CC03E14F3
:400180003F015C805E025F1460016680684069546A146B026D806E016F1873017580770485408A0192209A01A008A401B001C020C220C450CABFCCAACEFFD6F0D818E68891
:4001C000EA08EE0200020403060C0C12100112141410160218121C122002221028032A18301F3802404241064250440149FF4AFF4BFF4C024E704F0C500458045A045F017F
:4002000062C0644065016610671168C069016B116C406D016E406F018002820D8401860288308A408C0D900292049301940D980D9C509E20A00DA670A802AA08AC0DB00FE2
:40024000B210B301B420B640BA02BE54C042C106C250C401C5BEC6F0C7CDC83BC9FFCAFFCBFFCC23CEF0CF0CD004D440D804D904DA04DB04DC10DF01E2C0E440E501E61051
:40028000E711E8C0E901EB11EC40ED01EE40EF0100440112044C068009420A140D020E140F0111441321172219161B401C801D0220202E802F0132024008410343404408F5
:4002C0004512476049204A814B444C044D204E084F4051205204530761686801692483408510878089408D108F109048914092349301950297169A019B329E04A008A108B5
:40030000A211A401A982AC84B70CC0BFC2FFC45FCC01D0BDD23CD80EE002E240E648EA10EE100122020103050406050C0703090A0A080C040F3F133F140117301806190CA5
:400340001A011B031C071D3F200721012401253F2606280229012D032F0C300E31203407351F3A223F104023410645EC4702481349FF4AFF4BFF4F015018580459045A0416
:400380005C225D035F016040624064406540668068806A806C806E808009810282248305843885018607870288368A098D028E3F8F09923F9502963F970198099A129C3F0E
:4003C000A038A207A43FA83FAC07AD02AE38AF01B23FB308B503B704BA08BB20D804D904DC12DF01009001010220050106010714084209080B080C500D08108611041504F8
:40040000168818101C801D101F10200421402208232026012704281029042A402C022D052F1C32083446352536A0380439823CB23E803F0845244E044F055504560484012B
:400440008701902091039404972299219A099B109C219D149E209F40A086A286A30DA451A508A601B101B304B410B601C0FFC2EFC47FCAF8CCF2CEFBD060D220E620030BEF
:40048000070509010D030E011003130216051A051E0222052A052F03300431033304350836033E01580459045C335F01816D821D8392869D8703889D8C408D248FDB9020F6
:4004C000920593FF940195DB972499929A029B6D9C209DFF9E10A001A29CA3E0A5FFA61DA820AA08AB1CAC9DB01CB203B480B5FFB660B8A0BA08BB80BE40BF10D459D60443
:40050000D804D904DB04DC22DD20DF010302044005150A250B400C820D281244130214101510168017801A811C481E201F40210422112310252026802A402C882D302F10FB
:400540003201341035053690378038063B503C823D083E8049804B805D805E0264206622670180028104860290029101920493419404950896A1972A99019A0D9B129C01A9
:400580009D049F40A08AA206A30FA451A508A680AA20AD11AF40B0C0B120B510B601C0F1C2FFC4FACAE8CCF1CEDFD690D8F0E882EA0401020301050408050A020B020C081F
:4005C0000D140F0312071303151719041C031D171E04230124082513270428082B012F0830083202340135103604370F3E543F1056025711580459045B045C225D205F011B
:400600008208841089058A088B028C10920F941F980F9A109C109E0FA01FA307A401A60CA804A903AA02AB04AC01AE02B102B304B501B61FBE40BF15D2E0D804D904DB0474
:40064000DD20DF0100020209031005100701081609520C010D200E020F08100A12C013041408170419801C181D031F4021112320265028402A202C902D802F183404350541
:400680003680371039103CA23D803E085E206F25700A7120730476097710790C801883248511860888048F2090029101920493419404950496A1970A9A049B029C029E4008
:4006C0009F40A206A30BA518A640AB10C0CFC29FC46FCAF5CCF0CEF4D620E618030104200C010E081067140216101A5F1C07227F262028042A102E67300731013208346060
:4007000036103E044036410545EC4702481349FF4AFF4BFF4F01501852905401580459045A045B045C135D335F056040624064406540668068806A806C806E808D028F01C1
:400740009102920193059502970999019A019B02A902AB11AE02B104B303B402B510B601B708BB08BE40C021C104C205C403C54CC7E0C833C9FFCAFFCBFFCC62CDA0CEF0E3
:40078000CF41D00CD804D904DA04DC13DD02DF01E640E702E910EA30EB10ED10EE10EF120004030208010A250B400E820F89100A110413021740181019401A041B021E0ABC
:4007C0002202244027192F0437193B023C404010440245184640480849454B404D014F8850085204570959055A807003730278018540C005C25FC48FCA20CCE0CE11D0F212
:40080000D21CD60BDE01061C081C09050A030B0A0D080F141001120E151F1608191F1C011D121E161F0925202603301A311C3320340F370338083A223E043F04580459044A
:400840005C225F018207840185018610870889088B018E1F8F1F971098079A209B029C029E18A037A11BA404A618AA1FAF1BB008B207B303B430B518B608B704BE40C036A7
:40088000C104C5ECC620C80BC9FFCAFFCBFFCF01D018D401D804D904DA04DB04DC33DD33DF05E040E240E440E540E680E880EA80EC80EE8001200220058406C007010A4225
:4008C0000B200D800E04102014401620171019201A401B041D061E041F4620C222442580271428202C402D80300832503714384039103C103D083E804440450247084BC02E
:400900004D084F21562057105D085F417F028304844189108B028E409010922293209648970898209A409B099D209F10A028A104A220A820A904AA0AAD84AE10B020B3223D
:40094000B740C0B6C2CDC474CA92CC6ECE7CD0C0D220D6D0DE10E002E408E680E810EA04EE05060207010A0F0C0F13021A081B021C011E042A0F2B022C042E11320333012B
:40098000340C350236103F105290580459045B045C335D305F0181338220830C870888028C088D038E108F149003960C981899409A049B159C039D339F04A210A601A8141F
:4009C000A90AAA08AB34AE20B020B10FB21CB310B560B603B880B920BB02BE41BF04C001C640C9FFCA07CBFFCC40CD20CEF0CF05D008D401D604D804D904DA04DB04DC20B8
:400A0000DD22DF01E040E1A8E240E3200080012003800544060809100AD20E06102012881340151016011A111B021D041E061F202105222323042410270829202F0430209F
:400A400032403711384039023B043D08420144024602482050105310580259905A086101764077018040811082028510874489408C108D2092209A019D019F40A048A110AA
:400A8000A298A380A905AD10AE02AF12B010B140B304C0EBC2CFC4CFCA24CCACCE4BD008D60FD801E003E280E60EEA02EC01EE0801140509060207100A010D10111C1302FD
:400AC000150C160117111A041D201E081F0329102A022B0C2E013008311F32063401352036063E543F104062410345B046E0470C481A49FF4AFF4BFF4EF04F44500C5401AE
:400B0000580459045A045B045C215D325F0566C06A406B02832A840185408602870C893F8D408F309002914092019303973F980299809A059C029D3F9E01A33FAB15AC020F
:400B4000AE01AF3FB3C0B403B53FB604B908BA20BF04D804D904DC21DF0100040518081009020A010C200E21108012421408160218041A011C021D2A1F412104221027844C
:400B800029012A802B082C083002310432903601378839013A403B283E443F024020410447284A084B204C084F0257245E805F05652067087E0480088304840486068A04A7
:400BC0008E419020910193259608970299219A8C9B109C209D049E209F40A0D6A286A308A401A528AF20B240C064C2EBC4C1CA2DCCDFCEDFD060D220D6D0DE20E010E28037
:400C0000E440EC81EE08000103080501070209200A010E010F081001131F1401151F172019201A021D3F21012201230C25202604271029042B022D202F0F3207353F3A0856
:400C40003F10580459045C025F0182078302850488018A088B018D058E2F8F0293029505962F980299019A289B089C079D079E10A302A41FA503A704A804AA28AB02AD0477
:400C8000B020B220B307B407B508B618BE01BF04D290D804D904DB04DC23DD30DF010022030105100602074009200A800B200E29110812401420160419041D101E811F04C6
:400CC00021202514284029242AC02CC02E402F18310132C83311350536803720382039093B803C823D203E88760277407C207E047F048240831484288802890C8B208F0817
:400D00009020910193A0960899219A0C9B149C089D1C9E029F48A0D3A29CA308A420A640A804AB60AC10B230B320C0DBC2EEC46CCAFFCCFFCEFFE001E280E440E880ECA048
:400D4000EE0231403204358838208540CCF0CE10E6103140344056085A215C106204650180108E04942096089D88CC30D4C0D660D8C0E68010405108854886808A0894205D
:400D800096289C409DC9AE09C410D420E240E610EA10EE4081018E30942096289A849B029D81A208A302A908AB02B604B702E220EAA01440C4040002014008100C800F200B
:400DC00052105C02840188029840C00AC207D404D601E004032006109850A880AE10B540B710C00CEA0A8A1098409A10B010B320E604EA050520584065108A0496089AA47F
:400E00009B029D80A208A302A810C080D480D880EA20530256045B02620866A0811089809AA49B029D90A208A302AC40B520D4C0D6C0D8C0E620EE100D019904A904AC40C3
:400E4000C204106071047720832088609904AD01C408DC01DE04E201E604000F0A030C0E0E0E100F1A0D1C0E00FF012F80910000400000007E007E007E000000900070B195
:400E80009100910000000000040038340000040000000000202B0B00000000001800FDFD180018000000000000FCFC00FC0000000000000000000000000000000000000010
:400EC00000000000000000000000000000000000000000000000000000000000000000000000000000000000000000000000000000000000000000000000000000000000F2
:400F000000000000000000000000000000000000000000000000000000000000000000000000000000000000000000000000000000000000000000000000000000000000B1
:400F40000000000000000000000000000000000000000000000000000000000000000000000000000000000000000000000000000000000000000000000000000000000071
:400F80000000000000000000000000000000000000000000000000000000000000000000000000000000000000000000000000000000000000000000000000000000000031
:0200000490006A
:0400000000004005B7
:0200000490105A
:04000000BC90ACAF55
:0200000490303A
:020000009E6BF5
:0200000490402A
:4000000000000000000000000000000000000000000000000000000000000000000000000000000000000000000000000000000000000000000000000000000000000000C0
:400040000000000000000000000000000000000000000000000000000000000000000000000000000000000000000000000000000000000000000000000000000000000080
:400080000000000000000000000000000000000000000000000000000000000000000000000000000000000000000000000000000000000000000000000000000000000040
:4000C0000000000000000000000000000000000000000000000000000000000000000000000000000000000000000000000000000000000000000000000000000000000000
:0200000490501A
:0C00000000012E16106900012E3AAED44B
:00000001FF