:400000000080002011000000010600000106000008B5044B1A6803F53F5302331A6000F0F7FA00BFFA46004010B5054C237833B9044B13B10448AFF300800123237010BD78
:400040004081FF1F00000000740C0000084B10B51BB108490848AFF300800848036803B910BD074B002BFBD0BDE81040184700BF000000004481FF1F740C0000C880FF1F12
:400080000000000008B500F033FD034A137843F00103137008BD00BF5C81FF1F38B562B62D4800F017FD00F023FD00F06DFB00F0C1FB00F023F9022000F064F8EF2500240E
:4000C000264B1B78002BFBD023F00103234A137000F09AFBC0B2224B185501342028EFD12049184600F0ABFD30B185F0010500F03BF91D4800F040F91C49194800F09FFD32
:4001000030B185F0020500F02FF9194800F034F91849134800F093FD30B185F0040500F023F9154800F028F914490D4800F087FD30B185F0080500F017F9114800F01CF9D0
:40014000284600F0BFFA002303E00021044AD15401331E2BF9DDB2E7850000005C81FF1F7081FF1F780C00007C0C0000840C00008C0C0000940C00009C0C0000A40C000027
:40018000AC0C000038B50446364D284600F0ACFB284600F0F1FC4FF4FA6000F03FFC324D284600F0A1FB284600F0E6FC4FF4FA6000F034FC012C19D014B1022C2CD041E019
:4001C0002A4C204600F090FB204600F08DFB42F2107000F023FC264800F086FB254800F0CBFC4FF4FA6000F019FC2BE0224C204600F07AFB204600F077FB42F2107000F0B2
:400200000DFC1B4800F070FB1A4800F0B5FC4FF4FA6000F003FC15E0184C204600F064FB204600F061FB42F2107000F0F7FB144C204600F059FB204600F09EFC4FF4FA607B
:4002400000F0ECFB102000F03DFA4FF4FA7000F0E5FB00F03DFA00F0EF0000F033FA002038BD00BFB80C0000C80C0000D80C0000100D0000400D0000740D0000980D0000D0
:40028000C00D000038B5044600F0DF05284600F035FC45F0100000F031FC022000F0BEFB04F0CF0000F02AFC38BD00BF10B504460009FFF7E7FF04F00F00FFF7E3FF10BD81
:4002C00010B5044640F0200000F018FC44F0300000F014FC022000F0A1FB04F0EF0040F0200000F00BFC10BD10B504460009FFF7E7FF04F00F00FFF7E3FF10BD08B55020C9
:4003000000F08CFB0320FFF7BDFF0A2000F086FB0320FFF7B7FF1E2000F080FB0320FFF7B1FF022000F07AFB0220FFF7ABFF0A2000F074FB0620FFF7B9FF0E20FFF7B6FF16
:400340002820FFF7B3FF0820FFF7B0FF0120FFF7ADFF0C20FFF7AAFF0320FFF7A7FF0A2000F05CFB08BD00BF08B50120FFF79EFF012000F053FB08BD38B505460078012414
:4003800004E0FFF7B1FF285D0134E4B20028F8D138BD00BFFEE700BFF0B40022174611E050F82760F3B226F0FF0608E001EB420511F812406D78A5550132013BDBB2002BFB
:4003C000F4D101371B2FEBD9F0BC7047064B1B78DBB203F00701054A11701B09013213704422034B1A707047CF0100496E5800407658004008B50A46002100F018FC08BD60
:4004000038B51925254B1D801823254A137002321580023213700222224B1A7008224FF040231A70032103F5007319701E4B1B78DBB21E490B701E4B1A8041F25122023BFD
:400440001A8000240CE01B4B1B7803F0010343EA440404F003044FF4F07000F0A1FB013D0DB1032CEFD115B90320FFF793FF124B4FF480721A8007221A7000220F490A700C
:400480004820023108701A700222033B1A700C4A137843F00303137038BD00BF80400040824000400043004008010049A1460040224200402542004004400040064000400F
:4004C000A243004008B500F0A7FB08BD38B572B6384A137843F00403137000240CE0364D630019194A0011462A44084691882858FFF780FF0134E4B2062CF0D900240BE07C
:400500002D49A3001819420088180622016BC06AFFF7D8FF0134E4B2002CF1D027494FF09040FFF739FF264A137843F0020313701032137843F002031370224C237843F025
:4005400040032370A2F58632513A137843F01003137008221C491D48FFF7B4FF0A221C491C48FFF7AFFF08221B491C48FFF7AAFF08221B491B48FFF7A5FF08221A491B4835
:40058000FFF7A0FF1A4A137843F008031370194D61232B70FFF734FF81232B700122164B1A70FFF713FF0E2221461448FFF78AFF38BD00BFE8460040F00D000070000048AA
:4005C00003500140A043004044070048C25100404C070048F0510040580700481251004060070048225100406807004832510040224300400048004004000840B043004070
:4006000008B500F0DDFA03680C2B00D1FEE7FEE708B5104E104D16E029686B68AC68002204E051F8040B43F8040B0432A242F8D1E868002203E0002143F8041B04328242BE
:40064000F9D11035013E002EE6D100F0BFFAFFF725FDFEE7010000004C0E000008B5104A104B1A60104A136843F40073136000230AE0032B03D80D4A52F8231000E00C4949
:400680000C4A42F8231001332F2BF2D90A4B1A780A4B1A70074A0A4B1A60FFF717FF08BD0004FA050CED00E014ED00E000000000010600000080FF1FBC760040C080FF1F35
:4006C00008ED00E0014B1870704700BF79650040014B1878704700BF7965004008B51149002000F0B1F90721002000F0C1F900220D4B1A7072220D4B1A702022FF331A7012
:400700000B49012000F0A0F90721012000F0B0F90622084B1A70472210331A70022250331A7008BD0D0900005D81FF1F86640040A50900002B65004010B500F039FA0446BC
:400740000D4A137843F020031370FF32137843F010031370094A0123136009490B7843F010030B70022307490B60136000F046F9204600F021FA10BD9664004000E100E0FE
:400780009B65004080E200E008B5054B5B7823B9FFF7A4FF0122024B5A70FFF7CDFF08BD5D81FF1F0122134B1A60134A9378DBB2D178C9B2127912F0FF0F01D18B4211D0D6
:4007C0000E4AD05CC0B20133DBB23F2B00D90023094A9370137913F0FF0F06D00022064B1A7102E0064B1878C0B20122054B1A60704700BF80E100E05D81FF1F9081FF1F11
:400800004665004000E100E010B50123064A1360064A147800211170054A13602402FFF7C1FF204380B210BD80E100E05D81FF1F00E100E008B500F0BBF90B4B1A7842F069
:4008400001021A701A7802F0FE021A7000F0B4F90121064B1960064B00229A70DA701A715A71044B196008BD9665004080E100E05D81FF1F00E100E0164BD9799B79DBB21D
:40088000994205D25A1E914214BF0022012204E0CA1A3F2A14BF00220122002AECD1994207D10D4B1B7813F0040F02D10B4B187070473F2900D90021094B58540131054BF3
:4008C000D971054B1B7813F0020F02D00222054B1A6070475D81FF1F6B65004047650040D081FF1F00E200E038B5074B5B782BB938BDFFF7C1FF0134A4B201E0054600249B
:40090000285D0028F5D138BD5D81FF1F1D4B1B78DBB213F01E0F05D01B4803F01E0201780A43027003F0200303F0FF0233B3174B1978C9B2164B1B78DBB21648C154164B65
:400940001B7813F0FF0F02D00121144B197010490B780133DBB20B700B78DBB23F2B02D900210B4B19700A4B1978C9B20C4B1B78DBB2994202D10121074B1970002AC5D147
:40098000704700BF656500405D81FF1F466500406081FF1F9081FF1F6181FF1F6281FF1F5F81FF1F13E0104B1B78DBB23F2B02D900220D4B1A700C4A1378DBB20B49CB5C03
:4009C000DBB20B490B7013780133DBB21370064B1B78DBB2074A1278934204D0064B1B7813F0040FDFD070476381FF1FD081FF1F476500406481FF1F6B650040054A13782D
:400A000043F0020313701032137843F002031370704700BFA243004001BE704710B5044605E0084B186800F0BBF8A4F50044B4F5004FF6D8034B586800FB04F000F0B0F8C0
:400A400010BD00BFCC80FF1F70B504460E46074B1D681F2802D90020FFF7DEFF04F01F04103455F8240045F8246070BD08ED00E038B504460D46072902D90020FFF7CCFFCC
:400A80001F2C02D90020FFF7C7FF04F01F0000F1604000F564406D01EDB2057038BD00BF014B1B681865704708ED00E04001C0B2014B1870704700BF04E400E01022014BA6
:400AC0001A60704700E100E01022014B1A60704780E100E010B50446FFF7F6FF2046FFF7DFFF0720FFF7E2FFFFF7E8FF10BD00BF1022014B1A60704780E200E0014B1870B4
:400B0000704700BF75650040164BD9799B79DBB2994205D25A1E914214BF0022012204E0CA1A3F2A14BF00220122002AECD1994207D10D4B1B7813F0040F02D10B4B187027
:400B400070473F2900D90021094B58540131054BD971054B1B7813F0020F02D00822054B1A6070476681FF1F67650040476400401082FF1F00E200E038B5074B5B782BB9B8
:400B800038BDFFF7C1FF0134A4B201E005460024285D0028F5D138BD6681FF1F000000000230800803D000BF01380046FCD17047EFF3108072B6704780F31088704700BF21
:400BC000014B1868704700BF3C81FF1F0E4B70B51E460E4C0025E41AA410A54204D056F8253098470135F8E700F01EF9084B094C1E46E41AA4100025A54204D056F825302B
:400C000098470135F8E770BD340E0000340E0000340E00003C0E000010B5431E0A44914204D011F8014B03F8014FF8E710BD03460244934202D003F8011BFAE77047F0B592
:400C4000037863B90B78002B18BF0020F0BD15F8012F62B114F8017F30469742F7D00346461C007810B14D1E5C1EF0E7F0BD1846F0BD00000000000072656400524F4A4FCC
:400C800021000000677265656E0000005645524445210000626C756500000000415A554C210000006F72616E676500004E4152414E4A41210000000041542B434950434CA3
:400CC0004F53450D0A00000041542B43574D4F44453D330D0A00000041542B43574A41503D224945543530315F50736F633E41726475696E6F5F322E34222C224C6F5F74EF
:400D00006F636F5F617261697A613F220D0A000041542B43495053544152543D22554450222C223139322E3136382E302E313031222C383035312C383038312C320D0A002C
:400D400041542B43495053544152543D22554450222C223139322E3136382E3132332E323238222C383035312C383038312C320D0A00000041542B43574A41503D226D6F9C
:400D8000746F222C22373239656462366230653432220D0A0000000041542B43574A41503D22464F434F53222C22666F636F696E74656C6967656E7465220D0A0000000051
:400DC00041542B43495053544152543D22554450222C223139322E3136382E302E3235222C383530312C383038312C320D0A00000051004010004051004030000000014044
:400E0000001000140140000800400140000A004C014000020050014020000000605200403C07004806004300F8B500BFF8BC08BC9E4670474D0000005D060000F8B500BF19
:400E4000F8BC08BC9E46704729000000600E0000C880FF1F780000005001000000000000000000000000E02EC05D00001800000000366E01000000000000000000000000B1
:400E80000000000000000000000000000000000000000000260E000000000000000000000000000000000000000000000000000000000000000000000000000000000000FE
:400EC0000000000000000000000000000000000000000000DC80FF1F0000000000000000000000000000000000000000000000000000000000000000000000000000000078
:400F000000000000000000000000000000000000000000000000000000000000000000000000000000000000000000000000000000000000000000000000000000000000B1
:400F40000000000000000000000000000000000000000000000000000000000000000000000000000000000000000000000000000000000000000000000000000000000071
:400F80000000000000000000000000000000000000000000000000000000000000000000000000000000000000000000000000000000000000000000000000000000000031
:400FC00000000000000000000000000000000000000000000000000000000000000000000000000000000000000000000000000000000000000000000000000000000000F1
:020000040003F7
:0200000480007A
:400000000652004001640040066500404F060140320701400509014050140140551501405E1601404F17014042180140351901405C1A0140531B014009400140044101402D
:400040000442014006430140024401400545014003460140044701400C48014013490140054C01400B4D01400550014002510140100211021898195478027C088672790F00
:400080008538870F89388A728B0F01080504090C0D8211EF17C319E31B0C212C23C325C3292F2BC02D412F1031103320350F37C03B203F045602571259045B045C105D1015
:4000C0005F018306841885208605871889288C068D188E198F22901892039520960699129B209F01A020A138A209A304A608AA02AB01B007B13EB230B408B701B808BA026F
:40010000BE10BF40C026C104C5ECC6B0C80BC9FFCAFFCBFFCEF0CF44D00CD804D904DA04DF01E6C0EA40EB020004018002010A6010B4121018801A68210122402615270633
:400140002A012B042D022E802F183004310832903402361838A439023D803E2A40044240482049014B1050105E086C086F11762A7728830487408A80C005C20CC40ECAF5CA
:40018000CCEECEFFD005D204D640E604828085108B04E280E40800B0020C04C405120618072009280A200E0110C411011238163019381B041C031D401F062120224C2318DC
:4001C00024022520280329182B2230C0330134033540363C373E38223A803E113F144004470449FF4A074BFF4C404D204EF04F055008580459045A045C105F01604061A88D
:4002000062406320800482028301840E88028A0C8E018F01940E9A019C089E02B101B201B40EBE04BF01D418D604D804D904DB04DC01DD10DF010009020203080440051099
:400240000680071008800A600C080D800F0810A4180519801B021D101F142120224426012894302031013240382039043E013F80430249404A015080510853085F0265409C
:4002800067886C026D206E086F4075207602800281308202841088348B108C048E068F40906091049261960897B0988099019A809B129D80A01CA180A344A480A528A6023D
:4002C000AAC0AC80B124C0FFC2EDC40ECA07CC0DCE96D001D680D8B0E008E250EC01EE820004041C06E108E70A180C10111014FF185C19131AA21D021E041F09226324083D
:400300002704281829132D012F0A3080310C32383310341F3658370338023A283B203F014036410242044401450E460C480549FF4AFF4BFF4C624DA04EF04F41500C580491
:4003400059045A045C115D015F016640670269106A306B106D106E106F128503870C89038B048D038F049B089F05AD0AAF04B50FBB20C045C106C5CEC6B0C80BC9FFCAFF9C
:40038000CBFFCEF0CF44D00CD401D604D904DA04DB04DD01DF01E6C0EA40EB020504068207040E2A164017281C401D141E091F08200C25D026B8274029802C082E802F108E
:4003C000308032103680371138843A103D023E0140804511474448504A024B104E084F0850105740585059015A08610284028668884089018D029080910292E0940497A005
:40040000985099019A129B3F9C029D909E80A008A201A480A548A608A708A912ACC0AE04AF10C0F0C2E0C470CA78CCBCCE0ED0F1D22CD60FD801E205E61100200245045335
:4004400006040A081453160C180A1A542C032E443040320F343038203A083E0158045C015F018304847385FF860C8804891C8BE28C1F8D1C8E608FE192639363940C951883
:40048000980199609C089D10A002A124A403A508A87FA9E7AB18AC5CAD40AE23B02CB160B210B40FB51FB64CB780B980BA22BB28BE04D418D604D804D904DB04DF010044A3
:4004C000020405140680082109880E141002110812481780184419A81D101E701F1821142289230829202A4E300131883212384239285A0260026220638069106A016B22E7
:40050000708080808360860188108B808C8095109708A680C077C26FC48FCA0FCC0FCE0FD601D80DE028E4200044022A050209020F0111021402161518211ACA2467286717
:400540002F013060310232073418350136803E103F104064410342054402460C470E481449FF4AFF4BFF4C624DA04EF04F41500C56025712580459045A045B045F01664025
:40058000670269106A306B106D106E106F128401860E8A1C8C1C8E039401961699019C20A203AA08B00FB21AB420B701BA0ABE10BF40C005C704C9FFCA07CBFFCC40CD204E
:4005C000CEF0CF05D008D401D604D804D904DA04DB04DC01DD11DF01E040E1A8E240E3200102024004400514082009040A200C800E2011141684180619021A201CE01D04E9
:400600001E08210122222680298033013410388039144004410549A04F80504053045404568459085D015E58648069146B0171887208800282B083808480850188748A0685
:400640008E808F4291089240940296249708981099B89B829CA29D049ECAA210A58CA602AA20AF08B310B402B708C0E8C2A6C456CA08CC21CE0ED007D21CD6F2D880E220F4
:40068000E444E6B0EA2030023140348036023A4065406640CCF0CE109C809E40A402A6029C809E40A402A60286409C809E40A402A602E2107401DE0450105702A401D40467
:4006C000D6049420A401A70284019420A401A70207045620808283208E029C80A402A602C080D440E2A0E68057205B445F02630865017720810183648F069B20AB04B22022
:40070000D4C0D6C0D8C0DE20E2A0E6A0E88087028C109420A702E402104070017504800188408D04C408DC01DE04E008E20100030A0310031A031C0300FF010338A000007D
:400740004000000040B8B800B8000000020008020200020000000000000B0B0000000000000303000300000000FCFC00FC00000000000000000000000000000000000000AE
:400780000000000000000000000000000000000000000000000000000000000000000000000000000000000000000000000000000000000000000000000000000000000039
:4007C00000000000000000000000000000000000000000000000000000000000000000000000000000000000000000000000000000000000000000000000000000000000F9
:4008000000000000000000000000000000000000000000000000000000000000000000000000000000000000000000000000000000000000000000000000000000000000B8
:400840000000000000000000000000000000000000000000000000000000000000000000000000000000000000000000000000000000000000000000000000000000000078
:0200000490006A
:0400000000004005B7
:0200000490105A
:04000000BC90ACAF55
:0200000490303A
:0200000060A7F7
:0200000490402A
:4000000000000000000000000000000000000000000000000000000000000000000000000000000000000000000000000000000000000000000000000000000000000000C0
:400040000000000000000000000000000000000000000000000000000000000000000000000000000000000000000000000000000000000000000000000000000000000080
:400080000000000000000000000000000000000000000000000000000000000000000000000000000000000000000000000000000000000000000000000000000000000040
:4000C0000000000000000000000000000000000000000000000000000000000000000000000000000000000000000000000000000000000000000000000000000000000000
:0200000490501A
:0C00000000012E16106900012E1D711069
:00000001FF