:400000000080002011000000F1050000F105000008B5044B1A6803F53F5302331A6000F0EFFA00BFFA46004010B5054C237833B9044B13B10448AFF300800123237010BDA2
:400040004081FF1F00000000C40B0000084B10B51BB108490848AFF300800848036803B910BD074B002BFBD0BDE81040184700BF000000004481FF1FC40B0000C880FF1F74
:400080000000000008B500F027FD034A137843F00103137008BD00BF5C81FF1F38B562B6234800F00BFD00F017FD00F061FB00F0B5FB00F0FBF800F067F8FF2500241D4B24
:4000C0001B78002BFBD023F001031A4A137000F08FFBC0B2184B185501342028EFD11749184600F054FD08B185F001051449124800F04DFD08B185F0020512490E4800F086
:4001000046FD08B185F004050F490B4800F03FFD08B185F00805284600F0CCFA002303E00021054AD15401331E2BF9DDC6E700BF850000005C81FF1F6881FF1FC80B00005B
:40014000CC0B0000D40B0000DC0B000010B590B0002410E000F04CFBC0B210AB234403F8400C30B10021012000F0DEF8684600F0FBF80134E4B23F2CECD9002300E001330B
:400180003F2BFCDD10B010BD10B5264C204600F09FFB00F0C1F80021084600F0C5F8204600F0E2F840F2DC5000F02CFCFFF7CEFF1D4800F08DFB00F0AFF80021084600F047
:4001C000B3F8204600F0D0F840F2DC5000F01AFCFFF7BCFF154C204600F07AFB00F09CF80021084600F0A0F8204600F0BDF840F2DC5000F007FCFFF7A9FF0D4C204600F0D1
:4002000067FB00F089F80021084600F08DF8204600F0AAF840F2DC5000F0F4FBFFF796FF10BD00BFE40B0000EC0B0000FC0B0000240C000038B5044600F0DF05284600F035
:4002400051FC45F0100000F04DFC022000F0DAFB04F0CF0000F046FC38BD00BF10B504460009FFF7E7FF04F00F00FFF7E3FF10BD10B5044640F0200000F034FC44F03000A4
:4002800000F030FC022000F0BDFB04F0EF0040F0200000F027FC10BD10B504460009FFF7E7FF04F00F00FFF7E3FF10BD08B5502000F0A8FB0320FFF7BDFF0A2000F0A2FB5D
:4002C0000320FFF7B7FF1E2000F09CFB0320FFF7B1FF022000F096FB0220FFF7ABFF0A2000F090FB0620FFF7B9FF0E20FFF7B6FF2820FFF7B3FF0820FFF7B0FF0120FFF716
:40030000ADFF0C20FFF7AAFF0320FFF7A7FF0A2000F078FB08BD00BF08B50120FFF79EFF012000F06FFB08BD08B500F00300032819D8DFE800F002070D1381F08000FFF732
:400340008DFF08BDA1F14000C0B2FFF787FF08BDA1F16C00C0B2FFF781FF08BDA1F12C00C0B2FFF77BFF08BD38B505460078012404E0FFF791FF285D0134E4B20028F8D117
:4003800038BD00BFFEE700BFF0B40022174611E050F82760F3B226F0FF0608E001EB420511F812406D78A5550132013BDBB2002BF4D101371E2FEBD9F0BC7047064B1B7871
:4003C000DBB203F00701054A11701B09013213704422034B1A707047CF0100496E5800407658004008B50A46002100F0C8FB08BD38B51925254B1D801823254A137002326A
:400400001580023213700222224B1A7008224FF040231A70032103F5007319701E4B1B78DBB21E490B701E4B1A8041F25122023B1A8000240CE01B4B1B7803F0010343EACF
:40044000440404F003044FF4F07000F051FB013D0DB1032CEFD115B90320FFF793FF124B4FF480721A8007221A7000220F490A704820023108701A700222033B1A700C4A44
:40048000137843F00303137038BD00BF80400040824000400043004008010049A146004022420040254200400440004006400040A243004008B500F057FB08BD38B572B6F0
:4004C000384A137843F00403137000240CE0364D630019194A0011462A44084691882858FFF780FF0134E4B2062CF0D900240BE02D48A20011194B0003449A8E196BD86A09
:40050000FFF7D8FF0134E4B2012CF1D927494FF09040FFF739FF264A137843F0020313701032137843F002031370224C237843F040032370A2F58632513A137843F0100384
:40054000137008221C491D48FFF7B4FF0A221C491C48FFF7AFFF08221B491C48FFF7AAFF08221B491B48FFF7A5FF08221A491B48FFF7A0FF1A4A137843F008031370194D0B
:4005800061232B70FFF734FF81232B700122164B1A70FFF713FF0E2221461448FFF78AFF38BD00BFE8460040540C00007C00004803500140A043004080070048C25100400D
:4005C00088070048F051004094070048125100409C07004822510040A407004832510040224300400048004004000840B043004008B500F08DFA03680C2B00D1FEE7FEE7AC
:4006000008B5104E104D16E029686B68AC68002204E051F8040B43F8040B0432A242F8D1E868002203E0002143F8041B04328242F9D11035013E002EE6D100F06FFAFFF7FD
:400640002DFDFEE701000000BC0C000008B5104A104B1A60104A136843F40073136000230AE0032B03D80D4A52F8231000E00C490C4A42F8231001332F2BF2D90A4B1A78A2
:400680000A4B1A70074A0A4B1A60FFF717FF08BD0004FA050CED00E014ED00E000000000F10500000080FF1FBC760040C080FF1F08ED00E0014B1870704700BF776400400F
:4006C00008B51249002000F0B3F90721002000F0C3F900220E4B1A7072220E4B1A702022033B1A700C49012000F0A2F90721012000F0B2F90622094B1A70472210331A708B
:40070000022203F251131A7008BD00BFF50800005D81FF1F876500408D0900002764004010B500F0EDF904460D4A137843F020031370033A137843F010031370094A012300
:40074000136009490B7843F010030B70022307490B60136000F046F9204600F0D5F910BD9765004000E100E09865004080E200E008B5054B5B7823B9FFF7A2FF0122024BBE
:400780005A70FFF7CDFF08BD5D81FF1F0122134B1A60134A9378DBB2D178C9B2127912F0FF0F01D18B4211D00E4AD05CC0B20133DBB23F2B00D90023094A9370137913F01B
:4007C000FF0F06D00022064B1A7102E0064B1878C0B20122054B1A60704700BF80E100E05D81FF1F8881FF1F4465004000E100E010B50123064A1360064A14780021117047
:40080000054A13602402FFF7C1FF204380B210BD80E100E05D81FF1F00E100E008B500F06FF90B4B1A7842F001021A701A7802F0FE021A7000F068F90121064B1960064B62
:4008400000229A70DA701A715A71044B196008BD9465004080E100E05D81FF1F00E100E0164BD9799B79DBB2994205D25A1E914214BF0022012204E0CA1A3F2A14BF002259
:400880000122002AECD1994207D10D4B1B7813F0040F02D10B4B187070473F2900D90021094B58540131054BD971054B1B7813F0020F02D00222054B1A6070475D81FF1F7A
:4008C000686500404B650040C881FF1F00E200E038B5074B5B782BB938BDFFF7C1FF0134A4B201E005460024285D0028F5D138BD5D81FF1F1D4B1B78DBB213F01E0F05D065
:400900001B4803F01E0201780A43027003F0200303F0FF0233B3174B1978C9B2164B1B78DBB21648C154164B1B7813F0FF0F02D00121144B197010490B780133DBB20B70BE
:400940000B78DBB23F2B02D900210B4B19700A4B1978C9B20C4B1B78DBB2994202D10121074B1970002AC5D1704700BF646500405D81FF1F446500406081FF1F8881FF1F55
:400980006181FF1F6281FF1F5F81FF1F13E0104B1B78DBB23F2B02D900220D4B1A700C4A1378DBB20B49CB5CDBB20B490B7013780133DBB21370064B1B78DBB2074A127821
:4009C000934204D0064B1B7813F0040FDFD070476381FF1FC881FF1F4B6500406481FF1F68650040054A137843F0020313701032137843F002031370704700BFA2430040CD
:400A000001BE704710B5044605E0084B186800F06FF8A4F50044B4F5004FF6D8034B586800FB04F000F064F810BD00BFCC80FF1F70B504460E46074B1D681F2802D9002064
:400A4000FFF7DEFF04F01F04103455F8240045F8246070BD08ED00E038B504460D46072902D90020FFF7CCFF1F2C02D90020FFF7C7FF04F01F0000F1604000F564406D01F1
:400A8000EDB2057038BD00BF014B1B681865704708ED00E04001C0B2014B1870704700BF04E400E01022014B1A60704700E100E01022014B1A60704780E100E010B5044662
:400AC000FFF7F6FF2046FFF7DFFF0720FFF7E2FFFFF7E8FF10BD00BF1022014B1A60704780E200E0014B1870704700BF756500400230800803D000BF01380046FCD17047C6
:400B0000EFF3108072B6704780F31088704700BF014B1868704700BF3C81FF1F0E4B70B51E460E4C0025E41AA410A54204D056F8253098470135F8E700F0AEF8084B094C23
:400B40001E46E41AA4100025A54204D056F8253098470135F8E770BDA40C0000A40C0000A40C0000AC0C000010B5431E0A44914204D011F8014B03F8014FF8E710BD034643
:400B80000244934202D003F8011BFAE77047F0B5037863B90B78002B18BF0020F0BD15F8012F62B114F8017F30469742F7D00346461C007810B14D1E5C1EF0E7F0BD18466E
:400BC000F0BD00000000000072656400677265656E000000626C7565000000006F72616E6765000041540D0A0000000041542B43574D4F44453D330D0A00000041542B4323
:400C0000574A41503D22464F434F53222C22666F636F696E74656C6967656E7465220A0D0000000041542B43495053544152543D22554450222C223139322E3136382E3018
:400C40002E3138222C383038302C383038312C320D0A000000510040100040510040300000000140001080140140800700400140000A004C01400002005001402000000033
:400C800060520040F806004806000014014000070048800043000000F8B500BFF8BC08BC9E4670474D0000004D060000F8B500BFF8BC08BC9E46704729000000D00C0000EC
:400CC000C880FF1F78000000C800000000000000000000000000E02EC05D00001800000000366E010000000000000000000000000000000000000000000000000000000066
:400D000000000000940C0000000000000000000000000000000000000000000000000000000000000000000000000000000000000000000000000000000000000000000013
:400D400000000000DC80FF1F0000000000000000000000000000000000000000000000000000000000000000000000000000000000000000000000000000000000000000F9
:400D80000000000000000000000000000000000000000000000000000000000000000000000000000000000000000000000000000000000000000000000000000000000033
:400DC00000000000000000000000000000000000000000000000000000000000000000000000000000000000000000000000000000000000000000000000000000000000F3
:400E000000000000000000000000000000000000000000000000000000000000000000000000000000000000000000000000000000000000000000000000000000000000B2
:400E40000000000000000000000000000000000000000000000000000000000000000000000000000000000000000000000000000000000000000000000000000000000072
:020000040003F7
:0200000480007A
:400000000652004002640040056500400203014001050140500601403D07014002090140010D0140111401405C150140501601405017014054180140431901404C1A01403C
:40004000561B014008400140044101400642014007430140024401400445014001460140034701400C48014012490140054C01400A4D0140055001400251014010021102DD
:400080001898195079027C08770F860F84388772880F89728A388510E00295200014070408090A1011021203130414101507180C1A11201C22022B052C102D072E0C301F37
:4000C0003104330339083F0554015604580459045B045F018303850C871189108B0C8C048D1C8E108F0290019416951099209D149E08A020A120A202A416A509A710A920A5
:40010000B008B11FB230B406B601B720B828BB08BE50C002C504C9FFCA07CBFFCC40CD20CEF0CF05D008D804D904DA04DB04DC11DD01DF01E040E1A8E240E320004006488E
:400140000A100B410E480F2010801210130815401701180419081B411E402002210923402790284029082A202D402F0A31843210360437013840390A3A103F084004410436
:400180004210488049064A205C205E065F806780682069A06A0187408C808D409520A420B420C051C27DC49CCA37CCCECE4FD004D6F0D880EE108E01E450E002C063C102FA
:4001C000C60BC7ECC834C9FFCAFFCBFFCEF0CF44D00CDA04DB04DF01E6C0EA40EB020040010A02800AD80B0210841220170C184419411A101B0920012202230829082A01A8
:400200002B09302432823304388039144001412842404504472048814E085301564057065A026004614063406EA06F60741077027A017B02830A84108650882089808B02F9
:400240008D018E108F6090809114928A944096109740990A9A019B209E409F08A001A12CA228A580A603A704A840AA05AB01AE08B20AB342B604B708C00DC20FC40ECA0FA6
:40028000CC0FCE0ED06FD228D601D80DE004E250E801EA24EE0207030B08112C13031501172619011B0E272C2D10332A3510370F3B883F104002464049FF4A074BFF4C40CE
:4002C0004D204EF04F05500859045A045F01604061A86240632081608263841F85188660880189088C038F63905C91409223947F95FF99E79B189C739D1C9E0C9FE2A00850
:40030000A110A404A524A80CA91CABE1AC02AF04B04CB160B210B380B42CB60FB71FB908BAA0BB80BE04D602D712D804D904DB04DC11DD10DF0100060205080209480A011A
:40034000108012021314180419141A8122852614272129102A062B012E483020312832823608372138283A013B803D083F20471048014B805504571859046002628068145D
:4003800069946A20709472027314784079808420854088148A308B018C208F049240944096309701990A9B109C609E689F09A001A108A220A301A580A605A71EB205B7408D
:4003C000C00FC20DC40FCA5FCCEFCE6FD020D602E208E610EE40011C09020C020D1C0E1411101304150816201704180D19041A101B181C0D1E3024282611280C2A102D0139
:400400003203331C3501363C370238083A803F5054015604580459045B045C105D105F018021824A83018C448E2A98029A15A4E7A8E7AC80AF01B060B218B407B680B70193
:40044000BE04BF40C021C106C205C403C7CEC830C9FFCAFFCBFFCC62CDA0CEF0CF41D00CD602D711D804D904DA04DB04DF01E640E702E910EA30EB10ED10EE10EF120042E7
:4004800007020A040E210F08100211141408161018501A841B801E211F08228024042540271029402F02371538023C203D013F4040104110438049404A0450015104591076
:4004C0005C045E425F20678068026914709071087A017B02874089018A108B408C088E029A01A540B140C089C2E2C467CA18CCE0CEB1D00ED20CD6F4D880E0E0E4A0E610B6
:40050000EC80EE20002104FF051C07C108F309080A0C0C1F0EE00F041042140C1518186319DF1EE31F43200821042320240425C72718289C291C2A632BC22D1030603120ED
:40054000320F331F34103558368C378039803A083B283E1054185604580459045B045F0182018E01920198019C01A202A602B001B402BB08BE11C024C106C60CC7EBC83469
:40058000C9FFCAFFCBFFCEF0CF44D00CD804D904DA04DD01DF01E6C0EA40EB0200020140031806810701084009080A840D200F81108412581508170219561B081C041E404C
:4005C00020402218230626042710280429042A4230403108339038603A103B04452047014C085688570259026004628279207B08812088118A8A8B208C088D408E108F41C6
:40060000902091089284952096409A019D509F20A080A108A280A380A411A606A702AB14AF08B201B301B706C09FC2DFC43ECA0FCC0ECE0ED0A0D220D601D80DE220E4D072
:40064000E620E850EC20EE803148358036083B2049404B20CCF0CE1097209D80A508A608504097209D80A508A608D420860897209D80A508A608B440E2107320DC015D809B
:4006800087209F20D6049D808D089D80E40807045B1085808D0897209B109D80A508B710C080D480E210512057085F02630A641083088410852087018F06AB04B310D4601D
:4006C000D6C0D8C0E210E6D0E8808801A108B180E001EC011040710874018840A001A108C408DC01DE04E20100030A0310031A031C0300FF0103000080A800004000000003
:400700000000030000301C00003000001C1003A00020209001030E0C0003400400004005000020400000080801031604000A00040F301A00400F20C000000A200000504013
:400740002503040001C000E022FFFFFF62A0F0410C00000018000400040404041111000100000000000040020010301000101012000000000000000000000000000000003B
:4007800040B8B800B8000000020008020200020000000000000B0B0000000000000202000200000000FCFC00FC0000000000000000000000000000000000000000000000B1
:4007C00000000000000000000000000000000000000000000000000000000000000000000000000000000000000000000000000000000000000000000000000000000000F9
:4008000000000000000000000000000000000000000000000000000000000000000000000000000000000000000000000000000000000000000000000000000000000000B8
:400840000000000000000000000000000000000000000000000000000000000000000000000000000000000000000000000000000000000000000000000000000000000078
:400880000000000000000000000000000000000000000000000000000000000000000000000000000000000000000000000000000000000000000000000000000000000038
:0200000490006A
:0400000000004005B7
:0200000490105A
:04000000BC90ACAF55
:0200000490303A
:02000000066395
:0200000490402A
:4000000000000000000000000000000000000000000000000000000000000000000000000000000000000000000000000000000000000000000000000000000000000000C0
:400040000000000000000000000000000000000000000000000000000000000000000000000000000000000000000000000000000000000000000000000000000000000080
:400080000000000000000000000000000000000000000000000000000000000000000000000000000000000000000000000000000000000000000000000000000000000040
:4000C0000000000000000000000000000000000000000000000000000000000000000000000000000000000000000000000000000000000000000000000000000000000000
:0200000490501A
:0C00000000012E16106900012E1D16CC08
:00000001FF