:400000000080002011000000B1050000B105000008B5044B1A6803F53F5302331A6000F0CFFA00BFFA46004010B5054C237833B9044B13B10448AFF300800123237010BD42
:400040004081FF1F00000000040C0000084B10B51BB108490848AFF300800848036803B910BD074B002BFBD0BDE81040184700BF000000004481FF1F040C0000C880FF1FF2
:400080000000000070B500F007FD0A4C266800F08FFB094DA8552368E85C00F009FD23685A1C2260EB5C202B03D1237943F00103237170BD5C81FF1F7481FF1F10B562B649
:4000C0002A4800F0DBFC00F0E7FC00F031FB00F085FB00F0EBF8002000F05EF8EF24244B1B79002BFBD023F00103214A13712149214800F06CFD30B184F0010400F00CF9A2
:400100001E4800F011F91E491B4800F060FD30B184F0020400F000F91A4800F005F91A49154800F054FD30B184F0040400F0F4F8164800F0F9F816490F4800F048FD30B16F
:4001400084F0080400F0E8F8124800F0EDF8204600F090FA002303E00021074AD15401331E2BF9DD0022024B1A60B8E7850000005C81FF1F080C00007481FF1F0C0C0000E9
:40018000140C00001C0C0000240C00002C0C0000340C00003C0C000010B504461E4800F077FB40F6B83000F00DFC1C4800F070FB40F6B83000F006FC84B9194800F068FB59
:4001C00042F2107000F0FEFB164800F061FB4FF47A7000F0F7FB144800F05AFB022C10D1124800F055FB42F2107000F0EBFB0D4800F04EFB4FF47A7000F0E4FB0C4800F007
:4002000047FB012000F08CFC962000F0DBFBFE2000F086FC002010BD480C0000580C0000680C0000A00C0000AC0C0000DC0C0000040D000038B5044600F0DF05284600F0F8
:4002400031FC45F0100000F02DFC022000F0BAFB04F0CF0000F026FC38BD00BF10B504460009FFF7E7FF04F00F00FFF7E3FF10BD10B5044640F0200000F014FC44F0300044
:4002800000F010FC022000F09DFB04F0EF0040F0200000F007FC10BD10B504460009FFF7E7FF04F00F00FFF7E3FF10BD08B5502000F088FB0320FFF7BDFF0A2000F082FBFD
:4002C0000320FFF7B7FF1E2000F07CFB0320FFF7B1FF022000F076FB0220FFF7ABFF0A2000F070FB0620FFF7B9FF0E20FFF7B6FF2820FFF7B3FF0820FFF7B0FF0120FFF776
:40030000ADFF0C20FFF7AAFF0320FFF7A7FF0A2000F058FB08BD00BF08B50120FFF79EFF012000F04FFB08BD38B505460078012404E0FFF7B1FF285D0134E4B20028F8D165
:4003400038BD00BFFEE700BFF0B40022174611E050F82760F3B226F0FF0608E001EB420511F812406D78A5550132013BDBB2002BF4D101371F2FEBD9F0BC7047064B1B78B0
:40038000DBB203F00701054A11701B09013213704422034B1A707047CF0100496E5800407658004008B50A46002100F008FC08BD38B51925254B1D801823254A1370023269
:4003C0001580023213700222224B1A7008224FF040231A70032103F5007319701E4B1B78DBB21E490B701E4B1A8041F25122023B1A8000240CE01B4B1B7803F0010343EA10
:40040000440404F003044FF4F07000F091FB013D0DB1032CEFD115B90320FFF793FF124B4FF480721A8007221A7000220F490A704820023108701A700222033B1A700C4A44
:40044000137843F00303137038BD00BF80400040824000400043004008010049A146004022420040254200400440004006400040A243004008B500F097FB08BD38B572B6F0
:40048000384A137843F00403137000240CE0364D630019194A0011462A44084691882858FFF780FF0134E4B2082CF0D900240CE02D48A20011194B000344B3F84020D96BE5
:4004C000986BFFF7D7FF0134E4B2022CF0D927494FF09040FFF738FF254A137843F0020313701032137843F002031370214C237843F040032370A2F58632513A137843F0D9
:400500001003137008221C491C48FFF7B3FF0A221B491C48FFF7AEFF08221B491B48FFF7A9FF08221A491B48FFF7A4FF08221A491A48FFF79FFF1A4A137843F008031370A8
:40054000184D61232B70FFF733FF81232B700122154B1A70FFF712FF0E2221461348FFF789FF38BDE8460040440D00008000004803500140A043004074070048C2510040C3
:400580007C070048F0510040880700481251004090070048225100409807004832510040224300400048004004000840B043004008B500F0CDFA03680C2B00D1FEE7FEE7DC
:4005C00008B5104E104D16E029686B68AC68002204E051F8040B43F8040B0432A242F8D1E868002203E0002143F8041B04328242F9D11035013E002EE6D100F0AFFAFFF7FE
:400600005DFDFEE701000000C00D000008B5104A104B1A60104A136843F40073136000230AE0032B03D80D4A52F8231000E00C490C4A42F8231001332F2BF2D90A4B1A78AD
:400640000A4B1A70074A0A4B1A60FFF717FF08BD0004FA050CED00E014ED00E000000000B10500000080FF1FBC760040C080FF1F08ED00E0014B1870704700BF776500408E
:4006800008B51249002000F0B3F90721002000F0C3F900220E4B1A7072220E4B1A702022013B1A700C49012000F0A2F90721012000F0B2F90622094B1A70472210331A70CD
:4006C000022203F5A9731A7008BD00BFB50800006181FF1F866400404D0900002464004010B500F02DFA04460D4A137843F020031370013A137843F010031370094A0123C8
:40070000136009490B7843F010030B70022307490B60136000F046F9204600F015FA10BD9664004000E100E09665004080E200E008B5054B5B7823B9FFF7A2FF0122024BC1
:400740005A70FFF7CDFF08BD6181FF1F0122134B1A60134A9378DBB2D178C9B2127912F0FF0F01D18B4211D00E4AD05CC0B20133DBB23F2B00D90023094A9370137913F057
:40078000FF0F06D00022064B1A7102E0064B1878C0B20122054B1A60704700BF80E100E06181FF1F9481FF1F4665004000E100E010B50123064A1360064A14780021117075
:4007C000054A13602402FFF7C1FF204380B210BD80E100E06181FF1F00E100E008B500F0AFF90B4B1A7842F001021A701A7802F0FE021A7000F0A8F90121064B1960064B1F
:4008000000229A70DA701A715A71044B196008BD9665004080E100E06181FF1F00E100E0164BD9799B79DBB2994205D25A1E914214BF0022012204E0CA1A3F2A14BF002293
:400840000122002AECD1994207D10D4B1B7813F0040F02D10B4B187070473F2900D90021094B58540131054BD971054B1B7813F0020F02D00222054B1A6070476181FF1FB6
:400880006665004046640040D481FF1F00E200E038B5074B5B782BB938BDFFF7C1FF0134A4B201E005460024285D0028F5D138BD6181FF1F1D4B1B78DBB213F01E0F05D09D
:4008C0001B4803F01E0201780A43027003F0200303F0FF0233B3174B1978C9B2164B1B78DBB21648C154164B1B7813F0FF0F02D00121144B197010490B780133DBB20B70FF
:400900000B78DBB23F2B02D900210B4B19700A4B1978C9B20C4B1B78DBB2994202D10121074B1970002AC5D1704700BF656400406181FF1F466500406481FF1F9481FF1F7F
:400940006581FF1F6681FF1F6381FF1F13E0104B1B78DBB23F2B02D900220D4B1A700C4A1378DBB20B49CB5CDBB20B490B7013780133DBB21370064B1B78DBB2074A127855
:40098000934204D0064B1B7813F0040FDFD070476781FF1FD481FF1F466400406881FF1F66650040054A137843F0020313701032137843F002031370704700BFA243004001
:4009C00001BE704710B5044605E0084B186800F0AFF8A4F50044B4F5004FF6D8034B586800FB04F000F0A4F810BD00BFCC80FF1F70B504460E46074B1D681F2802D9002025
:400A0000FFF7DEFF04F01F04103455F8240045F8246070BD08ED00E038B504460D46072902D90020FFF7CCFF1F2C02D90020FFF7C7FF04F01F0000F1604000F564406D0131
:400A4000EDB2057038BD00BF014B1B681865704708ED00E04001C0B2014B1870704700BF04E400E01022014B1A60704700E100E01022014B1A60704780E100E010B50446A2
:400A8000FFF7F6FF2046FFF7DFFF0720FFF7E2FFFFF7E8FF10BD00BF1022014B1A60704780E200E0014B1870704700BF75640040164BD9799B79DBB2994205D25A1E914205
:400AC00014BF0022012204E0CA1A3F2A14BF00220122002AECD1994207D10D4B1B7813F0040F02D10B4B187070473F2900D90021094B58540131054BD971054B1B7813F07E
:400B0000020F02D00822054B1A6070476A81FF1F67650040446500401482FF1F00E200E0014B1870704700BF74650040000000000230800803D000BF01380046FCD1704701
:400B4000EFF3108072B6704780F31088704700BF014B1868704700BF3C81FF1F0E4B70B51E460E4C0025E41AA410A54204D056F8253098470135F8E700F010F9084B094C80
:400B80001E46E41AA4100025A54204D056F8253098470135F8E770BDA80D0000A80D0000A80D0000B00D000010B5431E0A44914204D011F8014B03F8014FF8E710BD0346EF
:400BC0000244934202D003F8011BFAE77047F0B5037863B90B78002B18BF0020F0BD15F8012F62B114F8017F30469742F7D00346461C007810B14D1E5C1EF0E7F0BD18462E
:400C0000F0BD00000000000072656400524F4A4F21000000677265656E0000005645524445210000626C756500000000415A554C210000006F72616E676500004E41524126
:400C40004E4A41210000000041542B434950434C4F53450D0A00000041542B43574D4F44453D330D0A00000041542B43574A41503D224945543530315F50736F633E41725A
:400C80006475696E6F5F322E34222C224C6F5F746F636F5F617261697A613F220D0A000041542B43494653520D0A000041542B43495053544152543D22554450222C223133
:400CC00039322E3136382E302E313030222C383530312C383038312C320D0A0041542B43574A41503D22464F434F53222C22666F636F696E74656C6967656E7465220D0A1B
:400D00000000000041542B43495053544152543D22554450222C223139322E3136382E302E3235222C383530312C383038312C320D0A000041542B43495053454E443D25BF
:400D4000640D0A00005100401000405100403000000001400006800601408009001401408006001B0140000100400140000A004C01400002005001402000000060520040CA
:400D80006C060048060000060140740600488000801A0140F406004880004300F8B500BFF8BC08BC9E4670474D0000000D060000F8B500BFF8BC08BC9E4670472900000083
:400DC000D00D0000C880FF1F7800000058010000000000000000E02EC05D00001800000000366E0100000000000000000000000000000000000000000000000000000000F7
:400E0000000000009A0D000000000000000000000000000000000000000000000000000000000000000000000000000000000000000000000000000000000000000000000B
:400E400000000000DC80FF1F0000000000000000000000000000000000000000000000000000000000000000000000000000000000000000000000000000000000000000F8
:400E80000000000000000000000000000000000000000000000000000000000000000000000000000000000000000000000000000000000000000000000000000000000032
:400EC00000000000000000000000000000000000000000000000000000000000000000000000000000000000000000000000000000000000000000000000000000000000F2
:400F000000000000000000000000000000000000000000000000000000000000000000000000000000000000000000000000000000000000000000000000000000000000B1
:400F40000000000000000000000000000000000000000000000000000000000000000000000000000000000000000000000000000000000000000000000000000000000071
:020000040003F7
:0200000480007A
:4000000006520040036400400465004002010140020301404904014040050140090601404807014002090140020B01405D1401404F150140551601404C17014002190140BD
:40004000101A01403E1B01400740014007410140084201400C430140024401400545014004460140044701400D48014013490140034C01400E4D014005500140025101409D
:4000800010011101185819C478027C08843885388672770F860F870F8B728E01E64084809E0106200702080409060A180D010E301030120C160119061A011C02220C25047F
:4000C00028042A38303C320133013402350639203A023E143F144002464049FF4A074BFF4C404D204EF04F05500854185604580459045A045B045D015F01604061A8624021
:400100006320820186018A028E0294049C019F01A301A801B001B202B404B701B802BA80BE14BF40D418D604D804D904DB04DC01DD10DF0100A0010804400501060407202E
:40014000080809200A810D080E0210041240151018101A801B201C401E0A1F0420042204270129042F403110368038A84004468047015004511058015F0260026202630494
:400180006480668067086DA86F40760277048360852086028A028D049C809E01C0F7C2AFC44ACA82CC14CE0ED004D681D8BDE288E404E640870189019901A701AB01B1013F
:4001C000BF01D904DF0104120620070109020B800C200E62168217281C081D011E601F45204024042608272229042B0C2C202D102F9531103310362B374038283A103EAA73
:40020000461047104C044D014F0855095C046D406E046F04762A770884048C8090089120928894A09510960197849C0D9D1D9E459F22A205A450A508A680A910B140B41246
:40024000B704C0F0C2F0C4F0CAF6CCF4CEF6D060D220D640EE309780E4408740E40402A004E007400A030C100D200F05104012801308141C15131602170C18E019031B042F
:400280001C0C1D0A1E111F142014234025132680270428092A102C102E0C30803130321F330F34603540382039023B083E113F1040354102450C460E470B481549FF4AFF4E
:4002C0004BFF4EF04F44500C580459045A045B045C015F0166C06A406B02850D8603873088018A0E8B208C018E16941C952896039711990D9B10A502A61CA714A90CAA08BE
:40030000AB10B20FB33CB41AB503B920BA28BB08D804D904DC11DF010010024003210408051806010A980B020E1010301122120115201704181019201A401D141E1020A0A5
:400340002104220523042420251427042A022B202D082F083020324535143A083B803D284104432048204B80504051086B028104820985108602870388098D108F019008CF
:4003800091209280938094B0964097049A409C199D34A101A328A450A508A801AB80AF21B541C0EFC22FC46FCA63CC6FCE6AD006D208E402E609051F0D010F26151F1801FE
:4003C00019141B49210A23D124012C01318033183401356037073F10406241054204440345C0470E481249FF4AFF4BFF4C624DA04EF04F41500C54015604580459045A0419
:400400005B045C115D115F016640670269106A306B106D106E106F128410864088108AAC8C098ED090DC922294149E03A220A80CAA71B4E0B61FBA22C006C504C9FFCA0787
:40044000CBFFCC40CD20CEF0CF05D008D401D604D804DA04DB04DF01E040E1A8E240E32000A001080480070209080A810E04100412401540170419011A011B201D201F10C3
:40048000254027682F80362037243D803E84402043084522470849284D104E8252405340560458105A485B025C605D015E086201660268A8698078047B20842088088E0265
:4004C00090489171928C94B2960197249B049C0D9D1C9EC59F41A103A206A308A4D0A6A0A780C007C24DC4AACA80CC60CE50D0E0D234D6FFD881E2409780E4200044022AE7
:40050000140216151C8024E728E72C212E4A30603207341836803E1058045F010102024004400501072809400A100D080F48102A15081641171019021A121B141D891E048A
:400540001F44260127162C802D402F04358137143C403EA83F80458846804D484E014F6057205F026C286D80748076297728820187208802898C8A049780A340B740C0F895
:40058000C275C4F7CAB0CCF0CE70D0D0D230D680E280E402E620EC503010330136883B408E08CCF0CE108410874097409C109F01A680E640831087018B208D019F01A68092
:4005C000E240E6808708900199019A80A102A330A680A801B280B502E640EA807F01DE0450805D209702D404D604830197029D20A4808C809D20A480E402051057088720FB
:400600008E80900199019A80A102A338A680C080D440E2405102572060016320650166807720900199019A809B20A102A330A910D4C0D6C0D8C0DE20EC2089029D20E40491
:40064000108071027780852088809B809D20A102B780C408DC01DE04E601EC0800030A0310031A031C0100FF01030000A830000040000000011000000C08000010180000F6
:4006800002C000000FFF6000633C0CC2008063006F00000403440000040000C34CE72318083C00C12C000F1F10204CC000000A08000010103602000000EC00BE33FFFFFFEC
:4006C0000000F0440C000000000002120404040411110001000000000000C0000000400200000000000000000000000000000000000000003C00C300300800001018000012
:40070000FFDF0000005CCF81CF0030040F5C0082000400200A10000005000000B0C74F182000000370803C1F0320B04000020A080000004035040100060CE00009FFFFFF17
:4007400062A0F0410C000000000002130404040400000001000000000000400200103010001010120000000000000000000000000000000040B8B800B800000002000802DC
:400780000200020000000000000B0B0000000000000303000300000000FCFC00FC000000000000000000000000000000000000000000000000000000000000000000000022
:4007C00000000000000000000000000000000000000000000000000000000000000000000000000000000000000000000000000000000000000000000000000000000000F9
:4008000000000000000000000000000000000000000000000000000000000000000000000000000000000000000000000000000000000000000000000000000000000000B8
:400840000000000000000000000000000000000000000000000000000000000000000000000000000000000000000000000000000000000000000000000000000000000078
:400880000000000000000000000000000000000000000000000000000000000000000000000000000000000000000000000000000000000000000000000000000000000038
:0200000490006A
:0400000000004005B7
:0200000490105A
:04000000BC90ACAF55
:0200000490303A
:02000000ED8B86
:0200000490402A
:4000000000000000000000000000000000000000000000000000000000000000000000000000000000000000000000000000000000000000000000000000000000000000C0
:400040000000000000000000000000000000000000000000000000000000000000000000000000000000000000000000000000000000000000000000000000000000000080
:400080000000000000000000000000000000000000000000000000000000000000000000000000000000000000000000000000000000000000000000000000000000000040
:4000C0000000000000000000000000000000000000000000000000000000000000000000000000000000000000000000000000000000000000000000000000000000000000
:0200000490501A
:0C00000000012E16106900012E1CFDF4FA
:00000001FF