:400000000080002011000000B5130000B513000008B5044B1A6803F53F5302331A6001F0D1F900BFFA46004010B5054C237833B9044B13B10448AFF300800123237010BD1C
:400040004081FF1F00000000981E0000084B10B51BB108490848AFF300800848036803B910BD074B002BFBD0BDE81040184700BF000000004481FF1F981E0000C880FF1FA6
:400080000000000080B586B062B600F011F900F045F90021084600F049F901F033FA584801F080F8574B1870574D5549684601F059F82E466C460FCC0FC62368336000215C
:4000C000084600F033F9514800F050F90021012000F02CF9B5F904304D4E86FB0320DB17C3EB601000B200F04FF9DFF84881404600F03CF9B5F9042086FB0230D317C3EBEA
:4001000060104FF0640909FB102000B200F03CF9404800F02BF94FF4FA6001F061FC0021084600F003F93C4800F020F90021012000F0FCF8E868394CA4FB0030800900F0E6
:4001400023F9404600F012F9E868A4FB00239B094FF47A7707FB130000F016F9304800F005F94FF4FA6001F03BFC0021084600F0DDF82C4800F0FAF80021012000F0D6F82F
:40018000A868A6FB0030400900F0FEF8404600F0EDF8A868A6FB0036760909FB160000F0F3F8214800F0E2F84FF4FA6001F018FC0021084600F0BAF81C4800F0D7F800214F
:4001C000012000F0B3F82869A4FB0030800900F0DBF8404600F0CAF82869A4FB0034A40907FB140000F0D0F8114800F0BFF84FF4FA6001F0F5FB384601F0F2FB54E700BFAC
:400200007481FF1F5C81FF1F6081FF1FA41E00001F85EB51BC1E0000D01E0000D34D6210E41E0000F81E00000C1F0000201F0000341F0000B81E000038B5044600F0DF05FF
:40024000284601F0C5FB45F0100001F0C1FB022001F0C6FB04F0CF0001F0BAFB38BD00BF10B504460009FFF7E7FF04F00F00FFF7E3FF10BD10B5044640F0200001F0A8FBED
:4002800044F0300001F0A4FB022001F0A9FB04F0EF0040F0200001F09BFB10BD10B504460009FFF7E7FF04F00F00FFF7E3FF10BD08B5502001F094FB0320FFF7BDFF0A20C4
:4002C00001F08EFB0320FFF7B7FF1E2001F088FB0320FFF7B1FF022001F082FB0220FFF7ABFF0A2001F07CFB0620FFF7B9FF0E20FFF7B6FF2820FFF7B3FF0820FFF7B0FFEC
:400300000120FFF7ADFF0C20FFF7AAFF0320FFF7A7FF0A2001F064FB08BD00BF08B50120FFF79EFF012001F05BFB08BD08B500F00300032819D8DFE800F002070D1381F0B7
:400340008000FFF78DFF08BDA1F14000C0B2FFF787FF08BDA1F16C00C0B2FFF781FF08BDA1F12C00C0B2FFF77BFF08BD38B505460078012404E0FFF791FF285D0134E4B292
:400380000028F8D138BD00BF10B584B000238DF80E30092211E0144BA3FB0013DB081C4603EB83035900431ADBB2303304A9114401F80C3C2046013AD2B20928EBD80A4B7D
:4003C000A3FB0013DB0803EB83035900431ADBB2303304A9114401F80C3C01AB9818FFF7C5FF04B010BD00BFCDCCCCCCF0B4CC8A6400C4EBE0000246C317B1F91840E51778
:4004000004FB03F600FB0566A4FB00453544E00A40EA45505B104FEA320202FB03F4A2FB022303EB4403140B44EA03541A1391F91A301B01DF1703FB02F204FB0722A3FB26
:4004400004451544A30B43EA85431844086300EB8000803040F30F20F0BC704730B40C6B6410A4F57A44A51005FB05F5EA1291F9263003FB02F2B1F9243003FB04F35B009F
:4004800003EBA203B1F92220120402EBA3036D1391F92020520102FB05F2B1F91E5005FB04F4641004EBE202921402F500428C8B04FB02F2D213C0F58010A0EB233340F602
:4004C000354404FB03F0B0F1804F03DB90FBF2F35B0002E0400090FBF2F3B1F92A20DC1004FB04F4641304FB02F59A10B1F9284004FB02F252131C1204FB04F000FB04F07E
:4005000091F82C4004FB00F002EB253202EB604091F9272000EBC21003EB201030BC7047F0B50C6B04EB8404803424120B89A0EB031091F90C3003FB04F3284D85FB0362F3
:40054000DB17C3EB6213A0EB63004E8991F90D2002FB04F285FB0273D217C2EB631791F90E2002FB04F285FB02E3D217C2EB631202FB04F39A1185FB022EDA17C2EB6E126A
:40058000BB1803F5804303FB06F39B1203FB00F0CA7B91F9103003FB04F485FB0435E317C3EB651404EBC2142411831303FB03F39B1203FB04F400EB640080124FF47A7205
:4005C00002FB00F00013064B984202DC002803DA01E00348F0BD0020F0BD00BF1F85EB51A0860100F0B5A1B007468E469446274C10AD26460FCE0FC50FCE0FC50FCE0FC5E1
:4006000096E80F0085E80F006D4640340FCC0FC50FCC0FC50FCC0FC594E80F0085E80F009CF93620D3179C00900044EA927112184B4140F23C50002112184B4120A901EB44
:400640008E0E5EF8401CA2FB014501FB0355200C40EA054029140023FA0312F17F4243F1FF3312184B415EF8806CA0FB064506FB0155600A40EAC55069125D104FEA32049E
:400680000019694101F000FA21B0F0BD481F0000F0B5B0F5C87F01D94FF4C87091F9042091F9145002FB05F5224C84FB0534ED17C5EBA41791F9112002F5447EB1F9125019
:4006C00005F5163303F2991303FB00F303EB8303194E86FB0324DB17C3EB641404F54814164A82FB0432E517C5EBA20505FB0EF202EBD272521002EB072491F83430043300
:4007000094FBF3F291F9353003EB831103EB410303F5803392FBF3F3FA3B03EB0313580000F1320386FB0320DB17C3EB6010C0B2F0BD00BFD34D62101F85EB516766666630
:40074000B0F57C6F0CD2002302E080080133DBB23F28FAD8C0B29B01DBB21844C0B27047FF207047B8B110B404460078884206D2217093F8461041F0010183F846102178EE
:4007800091420BD9227093F8462042F0020283F84620002003E04FF0FF307047002010BC704700BF40B1826C4AB1C26C52B1036D5BB94FF0FF3070474FF0FF3070474FF046
:4007C000FF3070474FF0FF3070470020704700BF70B582B006460C460846FFF7E3FF054658BB16F0800F01D0002300E01023E278934222D0E370A66C01230DF10702F3217E
:400800006078B04784F8540008B16FF00105A5B99DF8073003F0EF02E37803F01003134302AA02F8013DE66C012373216078B04784F8540008B16FF00105284602B070BD3E
:4008400070B582B00446FFF7ADFF054688B9A66C01230DF10702F3216078B04784F8540028B99DF8073003F01003E37001E06FF00105284602B070BD08B501F0B1F808BD04
:4008800070B50C4615461E46002100F0B7FF204601F046F8002405E015F8010B01F040F80134A4B2B442F7D301F01EF8002070BDF8B504460F4615461E46002100F09EFF03
:4008C000384601F02DF80121204600F0D7FF002406E0012001F050F828550134A4B20135731E9C42F5DB002001F046F8285500F0FBFF40B2F8BD00BF2DE9F84306468846AE
:4009000091461C461846FFF74DFF0546A0B9A3783BB921463046FFF75BFF054608B946F08006A76C4B46424631466078B84784F8540008B16FF001052846BDE8F88300BF81
:4009400010B58CB004462922002101A801F09BFA00238DF803302046FFF724FF0346002840F0B0802346192201A98920FFF7C4FF034638B9234610220DF11D01E120FFF7CE
:40098000BBFF03469DF826109DF8252042EA0122E2829DF806109DF8052042EA012222839DF90720A2769DF80A109DF8092042EA0122A2839DF80C109DF80B2042EA01220D
:4009C000E2839DF90D2084F820209DF810109DF80F2042EA012262849DF812109DF8112042EA0122A2849DF9142084F826209DF9132084F827209DF818109DF8172042EAA6
:400A0000012222859DF81A109DF8192042EA012262859DF81B2084F82C209DF81F009DF81E2002F00F0141EA001121819DF81D10120942EA011262819DF9202022739DF92A
:400A4000212062739DF92220A2739DF82320E2739DF9242022749DF9292062749DF828109DF8272042EA012262829DF92A2022751BBB234601220DF103010220FFF73CFF17
:400A80009DF8033003F030031B1184F83430034698B9234601220DF10301FFF72DFF9DF9033084F83530034638B9234601220DF103010420FFF720FF03469DF90320121122
:400AC00084F8362018460CB010BD00BF2DE9F04F85B007468A460023009301930293CDF80B300846FFF75EFE06460A24002E59D153460F2269461D20FFF7FEFE06469DF8FD
:400B0000003003F0800E03F00F037B709DF80130BB709DF802509DF803301B0143EA05339DF8045043EA15159DF805009DF80610090141EA00319DF8070041EA10109DF88C
:400B400008909DF8093043EA09299DF80D809DF80E309A0942EA880803F00F0B03F020024EEA020252B203F0100313433B70002B14DA5146FFF73AFCB88051462846FFF7E4
:400B80006DFCB86051464846FFF7CAFCF860524659464046FFF726FD386107E0DAF850300A209847631E13F0FF049FD104B90226304605B0BDE8F08F2DE9F0438BB00646CF
:400BC000884617461D4628220021684601F05BF92846FFF7E7FD814600283DD17B1EDBB2122B23D96FF0030936E0AB786BB92946305DFFF7EDFD8146325D02F07F020AAB43
:400C000003EB440303F8282C05E0325D0AAB03EB440303F8282C6300013318F804200AA90B4403F8282C0134A4B200E00024BBB29C42DAD3B9F1000F0ED1EC6C5B00013B59
:400C40009BB20DF101029DF800106878A04785F8540008B16FF0010948460BB0BDE8F08330B583B00546FFF79DFD044640BB0023ADF80030ADF8043095F84430012B16D149
:400C80005A238DF800302946B5F84000FFF700FD8DF8040064238DF80130B5F84200FFF74FFD8DF80500002385F83C3000E0012434B92B46022201A96846FFF77DFF04468B
:400CC000204603B030BD00BF30B583B00546E0238DF80730B6238DF80630FFF763FD0446C8B9AB781BB92846FFF7AAFD044694B92B4601220DF106010DF10700FFF75CFFD0
:400D000004462B6D0A2098472CB9AB781BB92846FFF796FD0446204603B030BD10B50446FFF740FD0346B0B92046FFF7CDFF034688B9234601222146D020FFF7DDFD034603
:400D400048B92378612B04D12046FFF7F9FD034601E06FF00203184610BD00BF70B582B0054674238DF80630FFF71CFD0646A8BB00242B4601220DF107017420FFF7BCFDF9
:400D8000064698B99DF8073013F003040ED023F0030302A901F8013D2B4601220DF10600FFF70AFF06462B6D0A209847002CE0D195F8443093B19DF8072022F0030203F07B
:400DC000030313438DF8073046B92B4601220DF107010DF10600FFF7EFFE0646304602B070BD00BFF0B585B005460C4600238DF80F300293ADF80C300093ADF8043091F832
:400E000044700846FFF7CEFC0346002840F01B8105F0080292B21AB12046FFF721FF0346002284F844201BB92046FFF797FF034605F01006B6B236B323460722002104F1CB
:400E40003B00FFF78FFC034638B9234601220DF10F017520FFF750FD03465EB194F83B2092009DF80F1021F01C0102F01C020A438DF80F2075228DF808209DF80F208DF8B9
:400E80000020012600E0002605F0200292B222B323460822002104F13D00FFF763FC034638B9234601220DF10F017020FFF724FD034694F83D209DF80F1021F0080102F00D
:400EC00008020A438DF80F2004A93144702001F8080C01F8102C0136F6B215F0030F38D023460522002104F13900FFF73BFC034638B9234601220DF10F017420FFF7FCFC93
:400F0000034615F0010F09D094F839109DF80F2002F01F0242EA41128DF80F2005F0020292B25AB194F83A2092009DF80F1021F01C0102F01C020A438DF80F2004AA3244C4
:400F4000742102F8081C9DF80F1002F8101C0136F6B205F0040292B222B323460522002104F13800FFF7FEFB034638B9234601220DF10F017220FFF7BFFC034694F83820E0
:400F80009DF80F1021F0070102F007020A438DF80F2004A93144722001F8080C01F8102C0136F6B215F0C00F43D023460122002104F13E00FFF7D6FB034638B923460A2236
:400FC000002104F13C00FFF7CDFB03463BB9234601220DF10F017120FFF78EFC034605F0400292B25AB194F83E2012019DF80F1021F0100102F010020A438DF80F2005F05D
:401000008005ADB255B194F83C209DF80F1021F00F0102F00F020A438DF80F2004AA3244712102F8081C9DF80F1002F8101C0136F6B233B923463246694602A8FFF7BCFDA3
:40104000034684F84470184605B0F0BD10B483B00446184B53F8800F00909B88ADF8043091F8393002AA134413F8083C91F83A2002A8024412F8082C134491F8382002445A
:4010800012F8082C1A4441F2B92340F2AB7000FB0233094AA2FB03239B0901339BB2238091F83E201AB1B1F842201344238003B010BC7047481F0000D34D621038B505460C
:4010C0000C460846FFF76EFB034680B921462846FFF7FCFC034650B995F90020002A03DA012284F8452002E0002284F84520184638BD00BF08B57622427001228270054A3F
:401100008264054AC264054A026519220271FFF705FE08BDB1080000810800007908000010B50446022380F83830032280F83A20042280F8392080F83B30012380F83E3080
:401140004FF4A072A0F840209622A0F8422080F844300146DF20FFF745FE2046FFF7FEFD10BD00BF70B586B006460C460DF11600FFF76CFFBDF81600FFF77EFB2146684665
:40118000FFF79CFF94F84430012B02D12046FFF7E5FD34466D460FCD0FC42B682360304606B070BD10B50446FFF7A4FF2046FFF7B7FF10BDFEE700BFF0B40022174611E0D7
:4011C00050F82760F3B226F0FF0608E001EB420511F812406D78A5550132013BDBB2002BF4D101370C2FEBD9F0BC7047064B1B78DBB203F00701054A11701B09013213706F
:401200004422034B1A707047CF0100496E5800407658004008B50A46002100F034FE08BD38B502221E4B1A7008224FF040231A70032103F5007319701A4B1B78DBB21A491D
:401240000B701A4B1A8041F25122023B1A80002419250CE0164B1B7803F0010343EA440404F003044FF4F07000F0FEFB013D0DB1032CEFD115B90320FFF79CFF0D4B4FF43A
:4012800080721A8007221A7000220B490A704820023108701A700222033B1A7038BD00BF0043004008010049A14600402242004025420040044000400640004008B500F0C4
:4012C000D7FD08BD38B572B62B4A137843F00403137000240CE0294D630019194A0011462A44084691882858FFF794FF0134E4B2092CF0D922494FF09040FFF75DFF214AE9
:40130000137843F0020313701032137843F0020313701D4C237843F040032370A2F58632513A137843F0100313700A2217491848FFF7C4FF082217491748FFF7BFFF082238
:4013400016491748FFF7BAFF164A137843F008031370154D61232B70FFF762FF81232B700122124B1A70FFF741FF0E2221461048FFF7A4FF38BD00BFE8460040D01F000064
:401380003400004803500140A0430040D4000048C0510040E000004812510040E800004832510040224300400048004004000840B043004008B500F02FFD03680C2B00D1D7
:4013C000FEE7FEE708B5104E104D16E029686B68AC68002204E051F8040B43F8040B0432A242F8D1E868002203E0002143F8041B04328242F9D11035013E002EE6D100F0C5
:4014000011FDFEF73FFEFEE7010000003420000008B5104A104B1A60104A136843F40073136000230AE0032B03D80D4A52F8231000E00C490C4A42F8231001332F2BF2D919
:401440000A4B1A780A4B1A70074A0A4B1A60FFF739FF08BD0004FA050CED00E014ED00E000000000B51300000080FF1FBC760040C080FF1F08ED00E038B50222114B1A70D4
:4014800081220E3B1A70082202331A700F2511331D70002401331C704FF400420A4B1A600721284600F0C6FA0849284600F0AEFA1022074B1A70074B1C70074B1C70074BD7
:4014C0001C7038BDD649004080E100E02D150000CC81FF1FD281FF1FDA81FF1FD081FF1F08B500F0C9FA064A137843F0040313701032137843F00403137000F0C1FA08BDC3
:40150000A543004008B5074B1B7823B9FFF7B4FF0122044B1A70FFF7E3FF4FF40042024B1A6008BD5F81FF1F00E100E038B5A54B1C78A54B1B7813F0400F00F03A81E4B231
:4015400014F0010F00F01D819F4B1B78453B052B00F21481DFE813F006008200120112010600DF0004F0DF0504F00A04082C42D1954B1B78DBB2452B35D1944B1B7813F0AC
:40158000FF0F10D0924B1B681B78DBB2914A137004228C4B1A7001228F4B1A7046228A4B1A702C46EDE08D4B1B7813F0020F0DD08B4A137843F00A0313706022824B1A70F3
:4015C0004FF40042874B1A602C46DAE0864A137843F0100313701022844B1A700422023B1A702C46CDE00022764B1A704A22764B1A702C46C5E00A2C2BD1794A137843F045
:40160000A0031370754B1B7813F0020F14D06E4B1B7813F0080F01D0092300E00A23704A11780B4313706022674B1A704FF400426C4B1A602C46A4E06B4A137843F01003C5
:4016400013701022694B1A700422023B1A702C4697E0002000F0C2F92C4692E014F0020F36D15D4B1A78D2B2584B1B78DBB29A4210D2594A1378DBB255490968CB5CDBB219
:4016800054490B7004214F4B197013780133DBB2137076E0514B1B7813F0020F0CD0504A137843F00A0313706022474B1A704FF400424C4B1A6064E04B4A137843F01003C0
:4016C00013701022494B1A700422023B1A7058E0424B1B7813F0020F0CD0414A137843F09A0313706022384B1A704FF400423D4B1A6046E03C4A137843F010031370102231
:401700003A4B1A700422023B1A70354A137843F09003137035E0364A1378DBB2354908682C490978C9B2C15413780133DBB213701278D2B2304B1B78DBB29A4203D21022DE
:40174000204B1A701DE0254B1B7813F0020F0CD0234A137843F00903137060221A4B1A704FF400421F4B1A600BE01F4A137843F0100313700022134B1A7002E0002000F04C
:401780002DF914F0200F1CD00F4B1B7813F0080F01D0012300E00223114A11780B431370114A137803F0EF0313701022064B1A7038BD054B1B7813F0100F02D11022024B87
:4017C0001A7038BDD7490040CC81FF1FD181FF1FDC81FF1FD8490040D081FF1FD881FF1FD281FF1F80E100E0D6490040D9490040DA81FF1FD481FF1FD981FF1F1A4B1B789E
:40180000DBB2102B29D1194B1B7813F0080F26D14FF40042164B1A604000C0B229B140F001004922104B1A7002E045220E4B1A70104B1870012201331A700F4B1B7813F091
:40184000010FFAD00C4B1B7803F00A030A2B08D11022054B1A700320704702207047012070470020704700BFCC81FF1FD949004080E100E0D8490040D7490040164B1B78A6
:4018800013F0040F23D04000C0B229B140F001004922124B1A7002E04522104B1A70104B1870122201331A700422023B1A700D4B1B7813F0010FFAD00A4B1B7803F00A0370
:4018C0000A2B06D11022054B1A7003207047022070470020704700BFD9490040CC81FF1FD8490040D74900400A4B1B7813F0040F0ED01023074A13700421023A1170064AE4
:401900001370064B1B7813F0210FFAD00020704702207047D9490040CC81FF1FD7490040114B1B7813F0040F1BD0104B18700422013B1A7046220E4B1A700E4B1B7813F06D
:40194000010FFAD00B4B1B7813F0020F04D16022074B1A70002070476022054B1A70032070470220704700BFD9490040D8490040CC81FF1FD7490040114B1B7813F0040F25
:401980001BD0104B1B78DBB2492B05D100220E4B1A704A220B4B1A700B4B1B7813F0010FFAD00A4B1B78DBB218B11021064A117004E06021034A117000E0002318467047D5
:4019C000D9490040CC81FF1FD7490040D8490040014B1870704700BF7565004001BE704710B5044605E0084B186800F03DF8A4F50044B4F5004FF6D8034B586800FB04F0F3
:401A000000F032F810BD00BFCC80FF1F70B504460E46074B1D681F2802D90020FFF7DEFF04F01F04103455F8240045F8246070BD08ED00E038B504460D46072902D90020A3
:401A4000FFF7CCFF1F2C02D90020FFF7C7FF04F01F0000F1604000F564406D01EDB2057038BD00BF000000000230800803D000BF01380046FCD17047EFF3108072B6704790
:401A800080F31088704700BF7BB972B90029BEBF00204FF0004106E008BF00281CBF6FF000414FF0FF3000F0B5B9ADF1080C6DE904CE002909DB002B1ADB00F035F8DDF8EB
:401AC00004E0DDE9022304B07047404261EB4101002B1BDB00F028F8DDF804E0DDE9022304B0404261EB4101524263EB43037047524263EB430300F017F8DDF804E0DDE97E
:401B0000022304B0404261EB41017047524263EB430300F009F8DDF804E0DDE9022304B0524263EB430370472DE9F04F8C460C460546099E002B4FD18A4217466BD9B2FAE6
:401B400082FEBEF1000F0BD0CEF1200520FA05F501FA0EF345EA030C02FA0EF700FA0EF5390CBCFBF1F0BAB201FB10C300FB02F84FEA154C4CEA0344A04509D9E41900F143
:401B8000FF3380F02881A04540F2258102383C44C8EB0404B4FBF1F301FB134C03FB02F2ACB244EA0C418A4209D9C91903F1FF3480F00F818A4240F20C81023B39448A1A4F
:401BC00043EA00400021002E63D022FA0EF2002386E80C00BDE8F08F8B4207D9002E56D0002186E811000846BDE8F08FB3FA83F1002940F09380A34202D3824200F2FE808B
:401C0000851A64EB03039C460120002E41D086E82010BDE8F08F12B90127B7FBF2F7B7FA87FEBEF1000F36D1E41B4FEA17481FFA87F90121B4FBF8F308FB134409FB03F2E4
:401C40004FEA154C4CEA0444A24207D9E41903F1FF3002D2A24200F2D3800346A41AB4FBF8F008FB104809FB00F9ACB244EA0842914507D9D21900F1FF3402D2914500F23E
:401C8000BA802046C9EB020240EA03409BE731463046BDE8F08F07FA0EF7CEF1200C24FA0CF34FEA1748B3FBF8FA1FFA87F908FB1A3520FA0CFC04FA0EF40AFB09FB4CEA3A
:401CC000040C4FEA1C4242EA05439B4500FA0EF50AD9DB190AF1FF3280F08B809B4540F28880AAF1020A3B44CBEB0303B3FBF8F008FB103300FB09F41FFA8CFC4CEA034381
:401D00009C4207D9DB1900F1FF326ED29C426CD902383B441C1B40EA0A418BE7C1F1200E8B4022FA0EFC4CEA030C24FA0EF74FEA1C49B7FBF9FA1FFA8CF309FB1A7720FAD2
:401D40000EF88C400AFB03F548EA04044FEA144848EA0747BD4202FA01F200FA01FB09D917EB0C070AF1FF3041D2BD423FD9AAF1020A67447F1BB7FBF9F509FB157705FBFA
:401D800003F3A4B244EA0747BB4208D917EB0C0705F1FF3027D2BB4225D9023D674445EA0A40A0FB0289FF1A4F4545464C4614D329D066B3BBEB050367EB040707FA0EFEEB
:401DC000CB40CF404EEA030386E888000021BDE8F08F2346F3E61846DAE6B8EB020569EB0C040138E5E70546D9E7104692E78246C0E7924678E702383A4443E7084604E742
:401E0000023B3C442AE7C345E7D33C46D1E73146BDE8F08F704700BF014B1868704700BF3C81FF1F0E4B70B51E460E4C0025E41AA410A54204D056F8253098470135F8E745
:401E400000F0E6F8084B094C1E46E41AA4100025A54204D056F8253098470135F8E770BD1C2000001C2000001C2000002420000010B5431E0A44914204D011F8014B03F8CF
:401E8000014FF8E710BD03460244934202D003F8011BFAE770470000000000008CFCFF7F0100000054656D70657261747572613A20202020000000002E0000004320202025
:401EC0002020202020202020202020200000000048756D656461643A202020202020202000000000252020202020202020202020202020200000000050726573696F6E206B
:401F000061746D6F733A2020000000006850612020202020202020202020202000000000526573697374656E636961206761733A00000000204B6F686D20202020202020AC
:401F40002020202020000000FFFFFF7FFFFFFF7FFFFFFF7FFFFFFF7FFFFFFF7FEA51B87EFFFFFF7F21DBF97EFFFFFF7FFFFFFF7FC776BE7FF4285C7FFFFFFF7FEA51B87E9F
:401F8000FFFFFF7FFFFFFF7F000024F40000127A0000093D0080841EFF583E0F548C93070090D0031038EC019062F40000127A0000093D0080841E0040420F0020A1070034
:401FC00090D0030048E801000001020408100000C84900401900005100401000205100401000405100403000F0510040100000000140001000140140000800400140000A97
:40200000004C0140000200500140200043000000F8B500BFF8BC08BC9E4670474D00000011140000F8B500BFF8BC08BC9E4670472900000048200000C880FF1F780000003E
:40204000A000000000000000000000000000E02EC05D00001800000000366E0100000000000000000000000000000000000000000000000000000000000000000C200000AC
:40208000000000000000000000000000000000000000000000000000000000000000000000000000000000000000000000000000000000000000000000000000DC80FF1FA6
:4020C00000000000000000000000000000000000000000000000000000000000000000000000000000000000000000000000000000000000000000000000000000000000E0
:40210000000000000000000000000000000000000000000000000000000000000000000000000000000000000000000000000000000000000000000000000000000000009F
:40214000000000000000000000000000000000000000000000000000000000000000000000000000000000000000000000000000000000000000000000000000000000005F
:40218000000000000000000000000000000000000000000000000000000000000000000000000000000000000000000000000000000000000000000000000000000000001F
:020000040003F7
:0200000480007A
:400000000452004002140140101501400117014001190140041B01400242014001430140034801401E490140084C0140074D0140015101401898195460026403DB04DF01B9
:400040006C206E606F807480752083808520861088808C208E40E008E401E6D0EA01EE80E201E201E008E401EA01EE803E10CE20961080089610E28012201640562058104E
:40008000620463026601670270087402822083018410864087018A208E05A00AAA10B002C430D4C0D6C0D8C0DC80DE20E010E480E670EA801020132016407B107F40802095
:4000C000C40EDE03831087409780A710AB20B240EE0103C0030000000300030000000000000B0B000000000000FCFC00FC00000000000000000000000000000000000000A3
:4001000000000000000000000000000000000000000000000000000000000000000000000000000000000000000000000000000000000000000000000000000000000000BF
:40014000000000000000000000000000000000000000000000000000000000000000000000000000000000000000000000000000000000000000000000000000000000007F
:40018000000000000000000000000000000000000000000000000000000000000000000000000000000000000000000000000000000000000000000000000000000000003F
:4001C00000000000000000000000000000000000000000000000000000000000000000000000000000000000000000000000000000000000000000000000000000000000FF
:0200000490006A
:0400000000004005B7
:0200000490105A
:04000000BC90ACAF55
:0200000490303A
:02000000F965A0
:0200000490402A
:4000000000000000000000000000000000000000000000000000000000000000000000000000000000000000000000000000000000000000000000000000000000000000C0
:400040000000000000000000000000000000000000000000000000000000000000000000000000000000000000000000000000000000000000000000000000000000000080
:400080000000000000000000000000000000000000000000000000000000000000000000000000000000000000000000000000000000000000000000000000000000000040
:4000C0000000000000000000000000000000000000000000000000000000000000000000000000000000000000000000000000000000000000000000000000000000000000
:0200000490501A
:0C00000000012E16106900012E2309CE0D
:00000001FF